:100000000C94711E0C94B1210C94DC210C940722E9
:100010000C9432220C945D220C9488220C94B3220E
:100020000C94DE220C94A21E0C94A21E0C94A21E10
:100030000C94A21E0C94CD260C94A21E0C94A21E0D
:100040000C94A21E0C94FE590C94A21E0C94A21E99
:100050000C94A21E0C94A21E0C94FAA90C94A41E3B
:100060000C94A21E0C9459560C941B570C94A21E6F
:100070000C94A21E0C94A21E0C94A21E0C94A21E00
:100080000C94A21E0C94A21E0C94A21E0C94A21EF0
:100090000C94A21E0C94A21E0C94A21E0C94A21EE0
:1000A0000C94A21E0C94A21E0C94A21E0C94A21ED0
:1000B0000C94A21E0C94A21E0C94A21E0C94A21EC0
:1000C0000C94A21E0C94A21E0C94A21E0C94A21EB0
:1000D0000C94A21E0C94A21E0C94A21E0C94A21EA0
:1000E0000C94A21E0B201320182022202C20FA1F73
:1000F00036203E20462050205A20642073207D2048
:10010000FA1F872091209B20B720BB20BF20C5204D
:10011000CB20B620D120D720DD20E320E920EF201E
:10012000F520FB20B62001210721B120B356D85677
:10013000C756D056C1568456E7568456E356EB56FA
:100140008456AE5677026702F1015D0239021F0242
:100150003D020D022502510287020F021902190207
:100160004702470279023702370237023702370265
:1001700037023702370237023702370237023702B7
:1001800037023702370209023702370237023702D5
:100190003702F501A5024F025B0237023702370230
:1001A0003702370237023702370237023702370287
:1001B000710237023702370237023702370237023D
:1001C0003702370237023702370237023702370267
:1001D0003702370237023702370237023702370257
:1001E0003702370237023702370237023702370247
:1001F0003702370237023702370237023702370237
:100200003702370237023702370237023702370226
:100210006302290291028D028D02590259020B02DA
:100220009502950295029502950295029502950216
:100230009502950295029502950295029502950206
:100240008B029502950295029502950269022102A0
:100250003F0275029502950295029502950295025C
:10026000950295029502950295024102950295022A
:1002700095029502950295029502950295029502C6
:1002800095029502950295029502950295029502B6
:1002900095029502950295029502950295029502A6
:1002A0009502950295029502950295029502950296
:1002B0009502950295029502950295029502950286
:1002C00095029502950295029502EB01A1020302A7
:1002D000310231021B021B0297026F026F026F0292
:1002E0006F026F026F026F026F026F026F026F0286
:1002F0006F026F026F026F026F026D026F026F0278
:100300006F026F026F0223029F027F022D026F02B3
:100310006F026F026F026F026F026F026F026F0255
:100320006F026F02FD016F026F026F026F026F02B8
:100330006F026F026F026F026F026F026F026F0235
:100340006F026F026F026F026F026F026F026F0225
:100350006F026F026F026F026F026F026F026F0215
:100360006F026F026F026F026F026F026F026F0205
:100370006F026F026F026F026F026F026F026F02F5
:100380006F026F02FB0173024502084AD73B3BCE66
:10039000016E84BCBFFDC12F3D6C74319ABD568384
:1003A0003DDA3D00C77F11BED9E4BB4C3E916BAA3C
:1003B000AABE000000803F05A84CCDB2D44EB9388B
:1003C00036A9020C50B9918688083CA6AAAA2ABE72
:1003D000000000803F000D94958C0D941D1A0D9423
:1003E00013370D94772D0D94E0200D94D4890D943E
:1003F000A3450D94481F0D94D68F0D94D98F0D945D
:10040000EB030D9478220D948E8C0D945B140D9457
:100410004B040D94B9880D94A58C0D94632D0D9407
:100420006E2D0D94ED160D94F8960D9419040D94FF
:10043000DB0E0D94E5890D94BB8F0D94E7350D947B
:100440005D2D0D949B8C0D94CA8F0D94682D0D9489
:10045000AC100D94C6890D948D450D94C38F0D94E9
:100460003B580D94B58F0D94A0450D94E6010D9465
:10047000B5880D945A2D0D9440270D94602D0D9440
:10048000A28C0D94988C0D94DA0C0D94D08F0D9451
:10049000DD890D945E0A0D94702A0D94A42D0D949F
:1004A000D7890D94462D0D9494130D940A040D9440
:1004B00026550D94A88C0D94C0890D944F2D0D9444
:1004C0000C150D94191C0D94CA890D94B22E0D941F
:1004D000742D0D949F8C0D9499550D94538E0D94FD
:1004E0004F8E0D94CD890D94D38F0D948B8C0D94DC
:1004F000712D0D94DA890D94D8280D94CE160D9493
:10050000CD8F0D94B01D0D947A2D0D94082C0D9463
:100510006B2D0D9469080D94888B0D94B08C0D94FF
:100520005F060D94C3890D9452010D94848B0D9434
:10053000B88F0D9410240D94C02D0D94B91B0D94FB
:10054000C68F0D94918C0D94A8250D94D0890D948F
:100550000C374E414E494E495459494E46CDCCCCAC
:100560003D0AD7233C17B7D13877CC2B329595E687
:10057000241FB14F0A000020410000C84200401C67
:100580004620BCBE4CCA1B0E5AAEC59D7400000A64
:100590000B02090C0D0E0807030401000000000007
:1005A000000000000000000000000000000000004B
:1005B0000000000000000000001211100000000008
:1005C000000000000000000000000000000000002B
:1005D00000000001021020200808102040102040D8
:1005E00080020102010804020101020408102040F7
:1005F0008080402010080402018004020180402015
:10060000100804020108040201010204081020403D
:100610008001020408102040800505050507050833
:10062000080808020202020A0A0808040404040175
:100630000101010101010103030303030303030497
:100640000707070C0C0C0C0C0C0C0C020202020627
:10065000060606060606060B0B0B0B0B0B0B0B0018
:100660000020002300260029002C002F003200006B
:1006700001000003010601090100002200250028F5
:10068000002B002E0031003400020100000501089B
:10069000010B0100002100240027002A002D00305A
:1006A00000330001010000040107010A01024D337B
:1006B000310043616E6E6F7420656E7465722073D5
:1006C00075626469723A20002E0A006F70656E20B0
:1006D0006661696C65642C2046696C653A2000612E
:1006E00075746F25632E67006572726F7220777262
:1006F0006974696E6720746F2066696C650A004EC4
:100700006F74205344207072696E74696E670A00BA
:100710005344207072696E74696E672062797465E3
:1007200020002E0A0044656C6574696F6E20666156
:10073000696C65642C2046696C653A200046696CDA
:10074000652064656C657465643A00577269746904
:100750006E6720746F2066696C653A20002E0A006F
:100760006F70656E206661696C65642C2046696CEB
:10077000653A20002E0A006F70656E206661696C14
:1007800065642C2046696C653A200046696C6520DA
:1007900073656C65637465640A002053697A653A11
:1007A000200046696C65206F70656E65643A2000B4
:1007B0002066696C653A2000667265736800646F34
:1007C000696E67004E6F772000454E4420535542B6
:1007D000524F5554494E450A002220706F73002233
:1007E00020706172656E743A2200535542524F5523
:1007F00054494E452043414C4C20746172676574E6
:100800003A2200747279696E6720746F2063616C9C
:100810006C207375622D67636F64652066696C6513
:1008200073207769746820746F6F206D616E792012
:100830006C6576656C732E204D4158206C6576652D
:100840006C2069733A310A004D3234004D32332046
:1008500025730053442063617264206F6B0A006F3C
:1008600070656E526F6F74206661696C65640A0012
:10087000766F6C756D652E696E6974206661696C42
:1008800065640A00534420696E6974206661696C6E
:100890000A00286E6F2066696C65290043616E6EE0
:1008A0006F74206F70656E207375626469722000CA
:1008B0007C3C3E5E2B3D3F2F5B5D3B2C2A225C0047
:1008C0004F4646004F4E006563686F3A00457272AE
:1008D0006F723A004572726F722077726974696E36
:1008E0006720746F20454550524F4D210A00205A11
:1008F0003A0020423A0020436F756E7420413A005E
:10090000043700001E290000511B00005810000091
:1009100010090000CC040000780200004101000032
:1009200024F4D43050C38E20C2A24017828B7011A1
:10093000127A910D816CD90AA861E108C75866073F
:10094000615143061E4B5D05C145A7041A411104C0
:10095000093D9803713931034036DB02653391025A
:10096000D4305402802E1D02632CEE01752AC5017D
:10097000B028A001102781018F2564012B244B0191
:10098000E0223401AC211F018D200D01801FFC00ED
:10099000841EED00971DDF00B81CD200E61BC600C8
:1009A000201BBC00641AB200B219A8000A19A000EA
:1009B0006A189900D117910040178B00B516840072
:1009C00031167E00B31579003A157300C7146F0015
:1009D00058146A00EE1366008813630025135E0046
:1009E000C7125B006C12570015125400C111510060
:1009F00070114F0021114B00D61049008D10470097
:100A00004610440002104200C00F4000800F3E001C
:100A1000420F3C00060F3B00CB0E3800930E370010
:100A20005C0E3500270E3400F30D3200C10D31008D
:100A3000900D3000600D2E00320D2D00050D2C00A4
:100A4000D90C2B00AE0C2900850C29005C0C27006A
:100A5000350C27000E0C2600E80B2400C40B2400E4
:100A6000A00B23007D0B23005A0B2100390B210022
:100A7000180B2000F80A1F00D90A1E00BB0A1E002E
:100A80009D0A1D00800A1D00630A1C00470A1B0006
:100A90002C0A1B00110A1A00F7091A00DD091900B7
:100AA000C4091900AB091900920917007B09180045
:100AB000630917004C0916003609160020091600B4
:100AC0000A091500F5081500E0081400CC08140008
:100AD000B8081400A4081400900813007D08120040
:100AE0006B08130058081200460812003408110061
:100AF000230811001208110001081100F00710006E
:100B0000E0071000D0071000C0071000B0070F006A
:100B1000A107100091070E0083070F0074070F0054
:100B200065070E0057070E0049070E003B070D0032
:100B30002E070E0020070D0013070D0006070D00FD
:100B4000F9060C00ED060D00E0060C00D4060C00C2
:100B5000C8060C00BC060C00B0060C00A4060B0076
:100B600099060C008D060B0082060B0077060B0021
:100B70006C060B0061060A0057060B004C060A00C3
:100B800042060A0038060A002E060A0024060A0059
:100B90001A060A001006090007060A00FD050900EA
:100BA000F4050900EB050900E2050900D905090073
:100BB000D0050900C7050900BE050900B5050800F4
:100BC000AD050800A50509009C050800940508006E
:100BD0008C050800840508007C05080074050800E1
:100BE0006C050700650508005D050700560508004F
:100BF0004E050700470507004005080038050700B7
:100C0000310507002A050700230507001C0506001B
:100C1000160507000F050700080506000205070076
:100C2000FB040600F5040700EE040600E8040600D5
:100C3000E2040700DB040600D5040600CF0406002A
:100C4000C9040600C3040600BD040600B70406007C
:100C5000B1040500AC040600A6040600A0040500CB
:100C60009B04060095040500900406008A04050014
:100C700085040500800406007A040500750405005B
:100C8000700405006B04050066040500610405009E
:100C90005C04050057040500520405004D040500DE
:100CA00048040500430405003E0404003A0405001E
:100CB00035040500300404002C040500270404005A
:100CC000230405001E0404001A0404001604050091
:100CD000110404000D0404000904050004040400C8
:100CE00000040400FC030400F8030400F4030400FF
:100CF000F0030400EC030400E8030400E403040030
:100D0000E0030400DC030400D8030400D40304005F
:100D1000D0030400CC030400C8030300C503030090
:100D200024F404D9201BC40C5C0E9804C4095F028F
:100D300065077101F405F900FB04B300480487005E
:100D4000C10369005803550003034500BE023A0081
:100D50008402310053022A002902250004022000E7
:100D6000E4011C00C8011900AF011700980114002C
:100D700084011300710110006101100051010E0087
:100D800043010D0036010B002B010B0020010B006D
:100D9000150109000C01090003010800FB0008000F
:100DA000F3000800EB000700E4000600DE00060088
:100DB000D8000600D2000600CC000500C7000500E0
:100DC000C2000500BD000400B9000400B500040025
:100DD000B1000400AD000400A9000400A500030058
:100DE000A20003009F0004009B0003009800030082
:100DF0009500020093000300900003008D000200A4
:100E00008B000300880002008600020084000300BB
:100E1000810002007F0002007D0002007B000200D2
:100E200079000200770001007600020074000200E1
:100E300072000100710002006F0002006D000100ED
:100E40006C0002006A0001006900020067000100F6
:100E500066000100650001006400020062000100FC
:100E600061000100600001005F0002005D00010000
:100E70005C0001005B0001005A0001005900010004
:100E80005800010057000100560001005500010004
:100E90005400010053000000530001005200010003
:100EA00051000100500001004F0001004E00000001
:100EB0004E0001004D0001004C0001004B000000FD
:100EC0004B0001004A0001004900010048000000F9
:100ED00048000100470001004600000046000100F4
:100EE00045000000450001004400010043000000EF
:100EF00043000100420000004200010041000000E8
:100F000041000100400001003F0000003F000100DF
:100F10003E0000003E0001003D0000003D000100D9
:100F20003C0000003C0000003C0001003B000000D1
:100F30003B0001003A0000003A00010039000000C7
:100F400039000100380000003800000038000100BE
:100F500037000000370001003600000036000000B6
:100F600036000100350000003500000035000100AA
:100F700034000000340000003400010033000000A1
:100F80003300000033000100320000003200000096
:100F9000320001003100000031000000310001008A
:100FA0003000000030000000300001002F00000081
:100FB0002F0000002F0000002F0001002E00000075
:100FC0002E0000002E0001002D0000002D0000006A
:100FD0002D0000002D0001002C0000002C0000005E
:100FE0002C0000002C0001002B0000002B00000052
:100FF0002B0000002B0001002A0000002A00000046
:101000002A0000002A000100290000002900000039
:10101000290000002900000029000100280000002C
:10102000280000002800000028000000280001001F
:101030002700000027000000270000002700000014
:101040002700010026000000260000002600000006
:1010500026000000260001002500000025000000F9
:1010600025000000250000002500000025000100EB
:1010700024000000240000002400000024000000E0
:1010800024000100230000002300000023000000D2
:1010900023000000230000002300000023000100C3
:1010A00022000000220000002200000022000000B8
:1010B00022000000220001002100000021000000A9
:1010C000210000002100000021000000210000009C
:1010D000210001002000000020000000200000008E
:1010E0002000000020000000200000002000000080
:1010F000200001001F0000001F0000001F00000072
:101100001F0000001F0000001F0000001F00010062
:101110001E0000001E0000001E0000001E00000057
:1011200050726F62696E67206661696C65640A005F
:1011300050726F62696E67206661696C6564004910
:101140006E76616C69642065787472756465720A84
:101150000020746F6F206C6F6E67206578747275F5
:1011600073696F6E2070726576656E7465640A00CF
:1011700020636F6C6420657874727573696F6E207C
:1011800070726576656E7465640A005761726E6987
:101190006E673A20486F6D696E672042756D7020EA
:1011A00044697669736F72203C20310A00020204A0
:1011B000486F6D65202573257325732066697273EA
:1011C00074002066697273740A00486F6D652000B0
:1011D00020746F6F206C6F6E672065787472757302
:1011E000696F6E2070726576656E7465640A0020A2
:1011F000636F6C6420657874727573696F6E2070AC
:10120000726576656E7465640A0020453A00205A5E
:101210003A0020593A00583A00FFFFFF0000A04072
:101220000000A04000000040000048430000484388
:1012300000002A4300000000000000000000000041
:10124000000048430000484300002A43000000001B
:10125000000000000000000020573A0020573A002C
:101260004520436F6F6C696E672E2E2E0045204817
:10127000656174696E672E2E2E00202F002042407B
:101280003A0020403A00546865726D616C205275D6
:101290006E6177617900453120544845524D414C8B
:1012A0002052554E4157415900424544205448452B
:1012B000524D414C2052554E4157415900202D204E
:1012C000496E76616C6964206578747275646572C4
:1012D000206E756D62657220210A0048656174692F
:1012E0006E67206661696C656400426564206865AC
:1012F0006174696E67206661696C65640054686535
:10130000726D616C2052756E61776179004245445F
:1013100020544845524D414C2052554E4157415959
:101320000048656174696E67206661696C65640078
:1013300045312048656174696E67206661696C6536
:101340006400546865726D616C2052756E617761DE
:101350007900453120544845524D414C2052554E5C
:1013600041574159004D494E54454D5020747269C2
:10137000676765726564004531204572723A204D99
:10138000494E54454D50004572723A204D494E54D5
:10139000454D5020424544004D415854454D502044
:1013A00074726967676572656400453120457272C1
:1013B0003A204D415854454D50004572723A204DE7
:1013C000415854454D502042454400626564002C0C
:1013D0002073797374656D2073746F707065642108
:1013E000204865617465725F49443A20004B64206F
:1013F000004B6920004B7020005049442041757417
:101400006F74756E652066696E6973686564212006
:1014100050757420746865206C617374204B702C57
:10142000204B6920616E64204B6420636F6E73747F
:10143000616E74732066726F6D2062656C6F7720C9
:10144000696E746F20436F6E666967757261746947
:101450006F6E2E680A00504944204175746F747590
:101460006E65206661696C6564212074696D656FC5
:1014700075740A00546865726D616C2052756E61F6
:1014800077617900453120544845524D414C2052F6
:10149000554E415741590042454420544845524D0C
:1014A000414C2052554E415741590048656174697D
:1014B0006E67206661696C6564004531204865612E
:1014C00074696E67206661696C65640042656420BA
:1014D00068656174696E67206661696C6564005057
:1014E0004944204175746F74756E65206661696C3E
:1014F0006564212054656D70657261747572652034
:10150000746F6F20686967680A00204B643A200096
:10151000204B693A2000204B703A20000A20436C8F
:10152000617373696320504944200A002054753A5E
:101530002000204B753A2000206D61783A20002071
:101540006D696E3A200020643A2000206269617360
:101550003A2000504944204175746F74756E6520BF
:1015600073746172740A00504944204175746F7439
:10157000756E65206661696C6564212054656D70C7
:101580006572617475726520746F6F206869676831
:101590000A0023646566696E652044454641554CE2
:1015A000545F004D383420582059205A204500708F
:1015B000012C0190012701B0012201C0011D01F0A1
:1015C0000118011002130130020E0160020901909E
:1015D000020401C002FF000003FA004003F500808E
:1015E00003F000D003EB002004E6007004E100E00B
:1015F00004DC004005D700C005D2004006CD00D075
:1016000006C8008007C3003008BE00F008B900C05B
:1016100009B400B00AAF00B00BAA00D00CA50000BE
:101620000EA000500F9B00C01096005012910000B9
:10163000148C00C0158700B0178200B0197D00D04F
:101640001B7800001E730040206E0090226900F09D
:1016500024640040275F0090295A00E02B550010B9
:101660002E500020304B0010324600E033410090F5
:10167000353C001037370070383200A0392D00B0EB
:101680003A2800A03B2300603C1E00103D1900904A
:101690003D1400103E0F00703E0A00C03E050000E1
:1016A0003F0000403FFBFF803FF6FFC03FF1FF20BF
:1016B00055004C0046696C616D656E74206C6F61FD
:1016C000642F756E6C6F6164206C656E67746873EF
:1016D0003A0A0020204D383531205A005A2D5072D8
:1016E0006F6265204F666673657400204400204970
:1016F0000020204D33303120500050494420736584
:101700007474696E67733A0A002046002042002014
:10171000480020204D3134352053004D61746572EE
:1017200069616C2068656174757020706172616DAB
:1017300065746572733A0A002059002020473239D7
:10174000205333205800205A0020204D34323020BE
:1017500053004D65736820426564204C6576656C66
:10176000696E673A0A00205A0020590020204D3245
:101770003036205800486F6D65206F66667365745B
:101780003A0A00204500205A002059002058002025
:10179000540020530020204D323035204200204597
:1017A0003C6D61785F655F6A65726B3E0020583CF6
:1017B0006D61785F785F6A65726B3E20593C6D6140
:1017C000785F795F6A65726B3E205A3C6D61785F25
:1017D0007A5F6A65726B3E00416476616E63656430
:1017E0003A20423C6D696E5F7365676D656E745F2C
:1017F00074696D655F75733E20533C6D696E5F66FD
:10180000656564726174653E20543C6D696E5F74F9
:10181000726176656C5F66656564726174653E00D1
:1018200020540020520020204D32303420500041FE
:101830006363656C65726174696F6E2028756E698B
:1018400074732F7332293A20503C7072696E745F42
:10185000616363656C3E20523C72657472616374AF
:101860005F616363656C3E20543C74726176656CA5
:101870005F616363656C3E0A00204500205A0020CA
:10188000590020204D3230312058004D6178696D6B
:10189000756D20416363656C65726174696F6E205C
:1018A00028756E6974732F7332293A0A0020450037
:1018B000205A0020590020204D3230332058004D4E
:1018C0006178696D756D20666565647261746573B4
:1018D0002028756E6974732F73293A0A0053746552
:1018E00070732070657220756E69743A0A0020204A
:1018F0004D3230302044300A0020204D323030202C
:1019000044002044697361626C65640A0046696C36
:10191000616D656E742073657474696E67733A00E7
:1019200020204D3134392043203B20556E6974739B
:1019300020696E2043656C736975730A0020204727
:101940003231202020203B20556E69747320696E4F
:10195000206D6D0048617264636F64656420446546
:101960006661756C742053657474696E6773204C7E
:101970006F616465640A002003000020030000C852
:10198000000000E803000000A00C4600A00C460088
:10199000007A4400007A44000048420000484200B7
:1019A000007A4300009342290A002062797465732B
:1019B0003B2063726320002073746F726564207330
:1019C000657474696E677320726574726965766593
:1019D00064202800202863616C63756C6174656401
:1019E00029210A0020213D2000454550524F4D201D
:1019F000435243206D69736D61746368202D202804
:101A000073746F7265642920002053697A653A20E7
:101A100000496E6465783A2000204D61726C696EF1
:101A20003D563638290A00454550524F4D207665BF
:101A30007273696F6E206D69736D617463682028BD
:101A4000454550524F4D3D00290A0020627974658A
:101A5000733B20637263200053657474696E67730F
:101A60002053746F726564202800454550524F4DD5
:101A7000206461746173697A65206572726F722E79
:101A80000A003A0A0020286D6D290020204D3630CA
:101A90003320006F70656E005452494747455245E8
:101AA00044003A20007A5F6D696E00795F6D696E5F
:101AB00000785F6D696E005265706F7274696E6751
:101AC00020656E6473746F70207374617475730A2B
:101AD00000456E6473746F70732025632025632046
:101AE000256320256300205A3A0020593A002058E7
:101AF0003A00656E6473746F7073206869743A207D
:101B000000486F6D696E67206661696C65640047A7
:101B100032385859002020506C616E6E65724275E3
:101B20006666657242797465733A20002046726574
:101B300065204D656D6F72793A2000436F6D706955
:101B40006C65643A204A756C203238203230313965
:101B50000A00207C20417574686F723A20286E6FED
:101B60006E652C2064656661756C7420636F6E66AB
:101B70006967290A00323031392D30372D31340070
:101B8000204C61737420557064617465643A200060
:101B90006275676669782D322E302E780A004D61A5
:101BA000726C696E0020536F6674776172652052A3
:101BB000657365740A00205761746368646F6720F9
:101BC00052657365740A002042726F776E206F75DC
:101BD000742052657365740A002045787465726ECE
:101BE000616C2052657365740A00506F7765725599
:101BF000700A0073746172740A004B494C4C45447E
:101C00002E20005072696E7465722068616C746574
:101C1000642E206B696C6C28292063616C6C656490
:101C2000210A004B494C4C20636175736564206246
:101C300079204B494C4C20627574746F6E2F70691B
:101C40006E0A004B494C4C206361757365642062D9
:101C50007920746F6F206D75636820696E6163749D
:101C60006976652074696D65202D206375727265D3
:101C70006E7420636F6D6D616E643A200050726FF8
:101C80007465637465642050696E0A0036372603F4
:101C90003C3D380E2E303E121A1C1808440AFF43F1
:101CA0000809000153746F72652073657474696E5E
:101CB0006773004C6F61642073657474696E677339
:101CC0000050726F6265205A204F6666736574001B
:101CD00050726F6265205A204F66667365740042C9
:101CE0006564205A00426564205A0046616465209C
:101CF000486569676874004661646520486569677E
:101D0000687400426564204C6576656C696E670096
:101D10004F6666004F6E00426564204C6576656CC8
:101D2000696E670045646974204D657368004C6591
:101D300076656C20626564004D6F74696F6E005A41
:101D40002056616C7565005A2056616C75650049B6
:101D50006E646578205900496E64657820590049A1
:101D60006E646578205800496E646578205800429A
:101D70006564204C6576656C696E67004732380093
:101D8000436C69636B20746F20426567696E00471E
:101D9000323920533100473239205332004E6578B2
:101DA0007420506F696E74002569202F20257500FE
:101DB0004D6F7665205A00473239205332004C650A
:101DC00076656C696E6720446F6E652100486F6DA3
:101DD000696E672058595A004D6F76696E672E2ECE
:101DE0002E00466C6F7700466C6F770046616E2060
:101DF00073706565640046616E207370656564008C
:101E000042656400426564004E6F7A7A6C65004EEC
:101E10006F7A7A6C6500426564205A0042656420DE
:101E20005A005370656564005370656564004D61C8
:101E3000696E00526573746F7265206661696C73B8
:101E4000616665004C6F61642073657474696E67C8
:101E5000730053746F72652073657474696E677371
:101E600000507265686561742041425320636F6E53
:101E700066005072656865617420504C4120636F44
:101E80006E660050726F6265205A204F66667365F9
:101E9000740050726F6265205A204F6666736574D5
:101EA00000416476616E6365642053657474696E85
:101EB0006773004D61696E0053746F7265207365BE
:101EC0007474696E67730042656400426564004E15
:101ED0006F7A7A6C65004E6F7A7A6C650046616E37
:101EE0002073706565640046616E2073706565647B
:101EF00000436F6E66696775726174696F6E004446
:101F0000697361626C6520737465707065727300CB
:101F10004D383400426564204C6576656C696E67A7
:101F200000486F6D65205A00473238205A00486FCC
:101F30006D65205900473238205900486F6D652083
:101F400058004732382058004175746F20686F6D13
:101F50006500473238004D6F7665206178697300FF
:101F60004D61696E004578747275646572004D6FDD
:101F70007665205A004D6F76652059004D6F766565
:101F8000205800536F667420456E6473746F7073CD
:101F9000004F6666004F6E00536F667420456E6496
:101FA00073746F7073004D6F74696F6E0045787451
:101FB0007275646572004D6F766520302E30323553
:101FC0006D6D004D6F766520302E316D6D004D6F5B
:101FD000766520316D6D004D6F76652031306D6D09
:101FE000004D6F7665206178697300486F74656E87
:101FF0006420746F6F20636F6C6400457874727531
:10200000646572004D6F7665205A004D6F766520CD
:1020100059004D6F76652058004D6F7665205A0047
:102020004D6F76652059004D6F7665205800496EDA
:1020300069740043616E63656C00496E697469611F
:102040006C697A6520454550524F4D003F00496EFE
:10205000697469616C697A6520454550524F4D003D
:1020600046696C616D656E740054656D7065726172
:10207000747572650053746570732F6D6D004A65D9
:10208000726B00416363656C65726174696F6E00A9
:1020900056656C6F6369747900446576656C6F7022
:1020A0006572204F7074696F6E7300536574206899
:1020B0006F6D65206F66667365747300436F6E663F
:1020C000696775726174696F6E00457374657073CA
:1020D0002F6D6D004573746570732F6D6D005A73AD
:1020E000746570732F6D6D005A73746570732F6D06
:1020F0006D005973746570732F6D6D00597374653D
:1021000070732F6D6D005873746570732F6D6D0053
:102110005873746570732F6D6D00416476616E63E2
:1021200065642053657474696E67730056652D6A23
:1021300065726B0056652D6A65726B00567A2D6A62
:1021400065726B00567A2D6A65726B0056792D6A3E
:1021500065726B0056792D6A65726B0056782D6A30
:1021600065726B0056782D6A65726B00416476610A
:102170006E6365642053657474696E677300416DA6
:102180006178204500416D6178204500416D61789E
:10219000205A00416D6178205A00416D61782059C4
:1021A00000416D6178205900416D617820580041EF
:1021B0006D6178205800412D74726176656C004124
:1021C0002D74726176656C00412D72657472616365
:1021D0007400412D726574726163740041636365BC
:1021E0006C00416363656C00416476616E63656495
:1021F0002053657474696E6773005654726176205B
:102200006D696E005654726176206D696E00566D70
:10221000696E00566D696E00566D617820450056F6
:102220006D6178204500566D6178205A00566D61C9
:1022300078205A00566D6178205900566D617820DB
:102240005900566D6178205800566D61782058000D
:10225000416476616E6365642053657474696E676A
:10226000730046616B652054656D706572617475AD
:10227000726500486F6D696E6720466565647261BE
:10228000746500416476616E63656420536574749F
:10229000696E6773004C6F61642073657474696E56
:1022A00067730053746F72652073657474696E6729
:1022B0007300526573657420466565647261746568
:1022C000005A204665656472617465005A2046654F
:1022D0006564726174650059204665656472617455
:1022E0006500592046656564726174650058204632
:1022F0006565647261746500582046656564726145
:10230000746500446576656C6F706572204F7074FB
:10231000696F6E73004265640042656400456E61DA
:10232000626C652042656400456E61626C652042A6
:102330006564004E6F7A7A6C65004E6F7A7A6C65D0
:1023400000456E61626C65204E6F7A7A6C6500455F
:102350006E61626C65204E6F7A7A6C6500446576BA
:10236000656C6F706572204F7074696F6E7300508A
:102370004944204175746F74756E6500504944205E
:102380004175746F74756E65002002204661637438
:102390000020022046616374002002204D61780015
:1023A0002002204D6178002002204D696E0020023D
:1023B000204D696E004175746F74656D70004F66D5
:1023C00066004F6E004175746F74656D70004164F6
:1023D00076616E6365642053657474696E6773001B
:1023E0004D33303320553120452569205325690070
:1023F0004C6F6164206D6D004C6F6164206D6D00E9
:10240000556E6C6F6164206D6D00556E6C6F61640C
:10241000206D6D0046696C2E204469612E0046696E
:102420006C2E204469612E004520696E206D6D5E22
:1024300033004F6666004F6E004520696E206D6D5B
:102440005E3300416476616E636564205365747425
:10245000696E6773004D34323800436F6F6C646F80
:10246000776E005072656865617420414253005078
:1024700072656865617420504C410046616E20733E
:10248000706565640046616E207370656564004226
:10249000656400426564004E6F7A7A6C65004E6F29
:1024A0007A7A6C65004D61696E005072656865618D
:1024B0007420414253204265640050726568656132
:1024C000742041425320456E640050726568656116
:1024D00074204142530054656D7065726174757269
:1024E00065005072656865617420504C41204265FA
:1024F00064005072656865617420504C4120456EDF
:1025000064005072656865617420504C41005465E8
:102510006D7065726174757265004E6F2053442052
:1025200063617264005072696E742066726F6D2010
:102530005344004368616E676520534420636172B1
:1025400064004D3231004368616E67652066696CD6
:10255000616D656E74004368616E67652066696CC5
:10256000616D656E74004D36303020423000436F2F
:102570006E66696775726174696F6E0054656D701F
:1025800065726174757265004D6F74696F6E00528B
:102590006573756D65207072696E740054756E6533
:1025A0000053746F70207072696E7400506175739F
:1025B00065207072696E7400496E666F2073637275
:1025C00065656E0053746F70004261636B005374F5
:1025D0006F70207072696E74003F005761697420DB
:1025E000666F720066696C616D656E7420707572DD
:1025F0006765005761697420666F72207072696E3A
:102600007400746F20726573756D652E2E2E0050E8
:102610007265737320627574746F6E00746F2072CC
:102620006573756D65207072696E740057616974A9
:1026300020666F720066696C616D656E74206C6FE8
:10264000616400496E736572742066696C616D65C2
:102650006E7400616E6420707265737320627574AD
:10266000746F6E00507265737320627574746F6E50
:1026700000746F2068656174206E6F7A7A6C6500F3
:102680004E6F7A7A6C652068656174696E67005078
:102690006C6561736520776169742E2E2E00576119
:1026A000697420666F720066696C616D656E742076
:1026B000756E6C6F6164005761697420666F72009B
:1026C00066696C616D656E74206368616E67650034
:1026D0005061726B696E672E2E2E005052494E5417
:1026E0002050415553454400554E4C4F41442046DF
:1026F000494C414D454E54004C4F41442046494CB5
:10270000414D454E540020204E6F7A7A6C653A2038
:10271000002000436F6E74696E75650050757267B6
:1027200065206D6F726500524553554D45204F50E1
:1027300054494F4E533A004368616E67652066699D
:102740006C616D656E7400507265686561742043DC
:102750007573746F6D0050726568656174204375A0
:1027600073746F6D005072656865617420414253E7
:10277000005072656865617420504C41004261638D
:102780006B004D36303020423020542564004D37E8
:102790003032203B2564004D373032205425640010
:1027A0004D37303120542564005072696E742066B4
:1027B000726F6D205344005072696E742066726FA0
:1027C0006D20534400052E2E004D61696E0050723D
:1027D000696E740043616E63656C0053746172745A
:1027E000207072696E7420003F004D3234004D320B
:1027F00035005072696E74207061757365640050A5
:1028000061757365207072696E74005072696E74C0
:102810002061626F72746564003344205072696E87
:102820007465722052656164792E005072696E740D
:10283000696E672E2E2E005072696E74207061755D
:1028400073656400436172642072656D6F766564C0
:10285000004361726420696E73657274656400A1DF
:102860000000006900A20000006300B00000000941
:1028700000C10000004100C20000004100C3000090
:10288000004100C40000004100C50000004100C636
:102890000000004145C70000004300C8000000459B
:1028A00000C90000004500CD0000004900D1000033
:1028B000004E00D50000004F00D60000004F00D7AA
:1028C0000000007800DC0000005500DD0000005929
:1028D00000E00000006100E10000006100E2000093
:1028E000006100E30000006100E40000006100E519
:1028F0000000006100E60000006165E70000006381
:1029000000E80000006500E90000006500EA000042
:10291000006500EB0000006500EC0000006900EDC0
:102920000000006900EE0000006900EF000000698F
:1029300000F10000006E00F20000006F00F30000E4
:10294000006F00F40000006F00F50000006F00F65B
:102950000000006F00F80000006F00F90000007533
:1029600000FA0000007500FB0000007500FC00008C
:10297000007500FD0000007900FF000000790004F0
:102980000100004100050100006100060100004354
:10299000000701000063000C01000043000D01006E
:1029A0000063000E01000044000F010000640011EC
:1029B00001000064001901000065001F01000067AC
:1029C00000300100004900310100006900410100B0
:1029D000004C00420100006C00430100004E004426
:1029E0000100006E00480100006E005901000072F5
:1029F000005A01000053005B01000073005F0100FA
:102A00000073006001000053006101000073006565
:102A100001000074006F01000075007C0100007A65
:102A2000007D0100005A007E0100007A0092010042
:102A3000006600E3020000780084030000270085A0
:102A40000300002700860300004100870300002EDA
:102A5000008803000045008903000048008A030045
:102A60000049008C0300004F008E03000059008FC6
:102A70000300004F00900300006900910300004133
:102A800000920300004200930300005400940300EE
:102A9000003400950300004500960300005A00979B
:102AA000030000480098030000300099030000492B
:102AB000009A0300004B009B0300005E009C030093
:102AC000004D009D0300004E009E03000033009F58
:102AD0000300004F00A00300006E00A1030000509F
:102AE00000A30300004500A40300005400A5030058
:102AF000005900A60300007000A70300005800A8BA
:102B00000300005000A90300004F00AA0300004981
:102B100000AB0300005900AC0300006100AD0300EE
:102B2000006500AE0300006E00AF0300006900B056
:102B30000300007600B10300006100B20300004210
:102B400000B30300007600B40300006400B5030086
:102B5000006500B60300005A00B70300006E00B81D
:102B60000300003000B90300006900BA0300006BE5
:102B700000BB0300004C00BC0300007500BD030057
:102B8000007600BE0300006500BF0300006F00C0B8
:102B90000300006E00C10300007000C20300006368
:102BA00000C30300006F00C40300007400C50300ED
:102BB000007600C60300007000C70300005800C87C
:102BC0000300005700C90300007700CA0300006932
:102BD00000CB0300007600CC0300006F00CD0300A3
:102BE000007600CE030000770001040000450010CD
:102BF00004000041001104000062001204000042C1
:102C000000130400005400140400005100150400D7
:102C1000004500160400002A0017040000450018B3
:102C20000400004E00190400004E001A0400004B7E
:102C3000001B04000054001C0400004D001D040093
:102C40000048001E0400004F001F0400006E00201A
:102C5000040000500021040000430022040000543E
:102C600000230400005900240400006F0025040024
:102C700000580026040000550027040000790028B1
:102C800004000057002904000057002A04000062D5
:102C9000002B040000627C2C04000062002D040064
:102CA0000065002E0400007C4F2F040000397C30AA
:102CB00004000061003104000036003204000042CC
:102CC0000033040000720034040000610035040089
:102CD000006500360400002A003704000065003853
:102CE00004000075003904000075003A0400006B10
:102CF000003B0400006E003C0400006D003D040039
:102D00000048003E0400006F003F0400006E0040D9
:102D100004000070004104000063004204000074DD
:102D20000043040000790044040000717045040071
:102D30000078004604000075004704000079004850
:102D400004000077004904000077004A0400006294
:102D5000004B040000627C4C04000062004D040043
:102D60000065004E0400007C6F4F040000670051B6
:102D70000400006500222000002E001E21000050EB
:102D80007822210000544D902100003C2D9221001A
:102D9000002D3EB02100000300BB21000004003CD8
:102DA0002200007E00482200007E3D6022000021BB
:102DB0003D612200003D00642200003C3D65220090
:102DC000003E3DF12300000700A03000003D00213F
:102DD000F301000200C2F401000500A2000000ECB3
:102DE00000B0000000DF00E4000000E100F6000099
:102DF00000EF00F7000000FD00FC000000F500E31C
:102E0000020000EB0087030000A5008F030000F420
:102E10000098030000F2009E030000E300A30300FB
:102E200000F600A9030000F400AC030000E000ADD0
:102E3000030000E300B1030000E000B2030000E281
:102E400000B5030000E300B8030000F200BC03007B
:102E500000E400BE030000E300C0030000F700C16F
:102E6000030000E600C3030000E500902100007F9E
:102E700000922100007E001A220000E8001E2200BD
:102E800000F30088250000FF0002300000A1000CC4
:102E9000300000A2000D300000A3009B300000DED7
:102EA000009C300000DF00A03000003D00A1300099
:102EB00000A700A2300000B100A3300000A800A4C9
:102EC000300000B200A5300000A900A6300000B319
:102ED00000A7300000AA00A8300000B400A930000C
:102EE00000AB00AA300000B500AB300000B600AC6B
:102EF000300000B6DEAD300000B700AE300000B7E5
:102F0000DEAF300000B800B0300000B8DEB13000F5
:102F100000B900B2300000B9DEB3300000BA00B42E
:102F2000300000BADEB5300000BB00B6300000BB98
:102F3000DEB7300000BC00B8300000BCDEB93000A5
:102F400000BD00BA300000BDDEBB300000BE00BCDA
:102F5000300000BEDEBD300000BF00BE300000BF4C
:102F6000DEBF300000C000C0300000C0DEC1300055
:102F700000C100C2300000C1DEC3300000AF00C499
:102F8000300000C200C5300000C2DEC6300000C301
:102F900000C7300000C3DEC8300000C400C93000E4
:102FA00000C4DECA300000C500CB300000C600CC33
:102FB000300000C700CD300000C800CE300000C98E
:102FC00000CF300000CA00D0300000CADED130008F
:102FD00000CADFD2300000CB00D3300000CBDED4FB
:102FE000300000CBDFD5300000CC00D6300000CC64
:102FF000DED7300000CCDFD8300000CD00D9300063
:1030000000CDDEDA300000CDDFDB300000CE00DCAA
:10301000300000CEDEDD300000CEDFDE300000CF3D
:1030200000DF300000D000E0300000D100E13000CF
:1030300000D200E2300000D300E3300000AC00E436
:10304000300000D400E5300000AD00E6300000D5CF
:1030500000E7300000AE00E8300000D600E93000A4
:1030600000D700EA300000D800EB300000D900ECB7
:10307000300000DA00ED300000DB00EF300000DC53
:1030800000F2300000A600F3300000DD00F4300054
:1030900000B3DEF7300000DCDEFA300000A6DEFB15
:1030A000300000A500FC300000B000FD300000A49E
:1030B00000074E0000FB0086510000FC0043530057
:1030C00000FA0064FF0000A40065FF0000A5006690
:1030D000FF0000A60067FF0000A70068FF0000A82F
:1030E0000069FF0000A9006AFF0000AA006BFF0052
:1030F00000AB006CFF0000AC006DFF0000AD006E87
:10310000FF0000AE006FFF0000AF0070FF0000B0D6
:103110000071FF0000B10072FF0000B20073FF00F9
:1031200000B30074FF0000B40075FF0000B5007626
:10313000FF0000B60077FF0000B70078FF0000B87E
:103140000079FF0000B9007AFF0000BA007BFF00A1
:1031500000BB007CFF0000BC007DFF0000BD007EC6
:10316000FF0000BE007FFF0000BF0080FF0000C026
:103170000081FF0000C10082FF0000C20083FF0049
:1031800000C30084FF0000C40085FF0000C5008666
:10319000FF0000C60087FF0000C70088FF0000C8CE
:1031A0000089FF0000C9008AFF0000CA008BFF00F1
:1031B00000CB008CFF0000CC008DFF0000CD008E06
:1031C000FF0000CE008FFF0000CF0090FF0000D076
:1031D0000091FF0000D10092FF0000D20093FF0099
:1031E00000D30094FF0000D40095FF0000D50096A6
:1031F000FF0000D60097FF0000D70098FF0000D81E
:103200000099FF0000D9009AFF0000DA009BFF0040
:1032100000DB009CFF0000DC009DFF0000DD009E45
:10322000FF0000DE009FFF0000DF00E5FF00005C04
:1032300000506C656173652072657365740050524F
:10324000494E5445522048414C544544002D2D2DA3
:103250002D2D2D007C4D61726C696E7C002D2D2D05
:103260002D2D2D00687474703A2F2F6D61726C696A
:103270006E66772E6F726700687474703A2F2F6DC8
:1032800061726C696E66772E6F7267006874747015
:103290003A2F2F6D61726C696E66772E6F726700C0
:1032A0006275676669782D322E302E7800627567F8
:1032B0006669782D322E302E7800627567666978DF
:1032C0002D322E302E780000687474703A2F2F6DD6
:1032D00061726C696E66772E6F72670068747470C5
:1032E0003A2F2F6D61726C696E66772E6F72670070
:1032F000687474703A2F2F6D61726C696E66772EE8
:103300006F726700206275676669782D322E302EE5
:103310007800001C1F11111F00000006191803136C
:103320000C00040E1F041C000000000E1315110EEB
:1033300000001C10181705060500040A0A0A0A11E5
:10334000110E0C12120C00000000001F1511151FA9
:10335000000000000000010204040000001C1C0C1E
:103360000404040201000000000004081000000032
:1033700000002D2D2D00534400202020200020206F
:1033800020202020200025753A2530327500253078
:1033900032753A253032750050726573732062754C
:1033A00074746F6E20286F72204D3130382920746C
:1033B0006F2068656174206E6F7A7A6C650A0050C0
:1033C0007265737320627574746F6E20286F72203B
:1033D0004D3130382920746F20726573756D650A20
:1033E00000496E736572742066696C616D656E74F8
:1033F00020616E6420707265737320627574746FDF
:103400006E20286F72204D313038290A004D363039
:10341000303A20546F6F20636F6C6400486F74659E
:103420006E6420746F6F20636F6C640A00486F7461
:10343000656E6420746F6F20636F6C640A00496E60
:10344000736572742066696C616D656E7420616E5F
:103450006420707265737320627574746F6E2028B7
:103460006F72204D313038290A000A4D656173753D
:1034700072656420706F696E74733A0A00456E64F9
:103480002066696C65206C6973740A00426567691F
:103490006E2066696C65206C6973740A00437572EE
:1034A00072656E742066696C653A20004361703AFB
:1034B000004348414D4245525F54454D50455241AD
:1034C00054555245004D4F54494F4E5F4D4F444562
:1034D0005300544845524D414C5F50524F54454360
:1034E00054494F4E004155544F5245504F52545F2E
:1034F00053445F5354415455530050524F4D505410
:103500005F535550504F525400454D455247454E1C
:1035100043595F50415253455200434153455F4C1C
:10352000494748545F4252494748544E4553530017
:10353000544F47474C455F4C494748545300534FFD
:103540004654574152455F504F57455200425549E6
:103550004C445F50455243454E54004C4556454CF3
:10356000494E475F44415441005A5F50524F4245D3
:10357000004155544F4C4556454C005052494E540D
:103580005F4A4F420050524F4752455353004155F6
:10359000544F5245504F52545F54454D5000564F72
:1035A0004C554D455452494300454550524F4D00EE
:1035B00042494E4152595F46494C455F5452414E33
:1035C000534645520053455249414C5F584F4E5F58
:1035D000584F4646004649524D574152455F4E416D
:1035E0004D453A4D61726C696E2062756766697807
:1035F0002D322E302E782028476974687562292074
:10360000534F555243455F434F44455F55524C3AE3
:1036100068747470733A2F2F6769746875622E63CB
:103620006F6D2F4D61726C696E4669726D77617254
:10363000652F4D61726C696E2050524F544F434F4D
:103640004C5F56455253494F4E3A312E30204D4132
:103650004348494E455F545950453A3344205072CF
:10366000696E7465722045585452554445525F4303
:103670004F554E543A3120555549443A6365646577
:10368000326132662D343161322D343734382D3980
:103690006231322D633535633632663336376666CE
:1036A0000A004D3131332053002F2F2000496E7610
:1036B000616C69642065787472756465720A0020B3
:1036C000643A0020693A0020703A0043290A0061F8
:1036D000626C656420286D696E2074656D702000D1
:1036E00064697300656E00436F6C64206578747262
:1036F00075646573206172652000204500205A00C2
:10370000205900204D39322058005741524E494E21
:103710004721204C6F77205A204A65726B206D61DB
:1037200079206C65616420746F20756E77616E74AA
:103730006564207061757365732E0A002054002043
:103740005200416363656C65726174696F6E3A2003
:10375000500020466C6F773A200047322F473320C5
:1037600062616420706172616D65746572730A00D4
:10377000536C6565702E2E2E004D65736820706F3A
:10378000696E742063616E6E6F742062652072656D
:10379000736F6C7665640A00206F6620004D424CA2
:1037A0002047323920706F696E742000290A004A60
:1037B000206F7574206F662072616E6765202830F7
:1037C0002D00290A0049206F7574206F66207261F0
:1037D0006E67652028302D004D6573682070726F0C
:1037E00062696E6720646F6E652E0A0053746172A1
:1037F00074206D6573682070726F62696E672077E0
:103800006974682022473239205331222066697258
:1038100073742E0A004732380A4732392053320077
:10382000686173206E6F20646174612E0A004D65BB
:10383000736820426564204C6576656C696E67200C
:103840000053206F7574206F662072616E6765206B
:1038500028302D35292E0A00206E6F7420656E7475
:10386000657265642E0A00473238004D6573682022
:10387000706F696E742063616E6E6F742062652074
:103880007265736F6C7665640A004D34323120695D
:103890006E636F727265637420706172616D6574BE
:1038A00065722075736167650A004F46460A0046D7
:1038B000616465204865696768742000426564201A
:1038C0004C6576656C696E6720004661696C65645D
:1038D00020746F20656E61626C6520426564204CC7
:1038E0006576656C696E670A004D65736820426590
:1038F00064204C6576656C20646174613A0A004905
:103900006E76616C6964206D6573682E0A0062755D
:1039100073793A2070617573656420666F722069EF
:103920006E7075740A00627573793A2070617573F0
:10393000656420666F7220757365720A0062757324
:10394000793A2070726F63657373696E670A00203D
:10395000496E76616C69642065787472756465720D
:103960002000446F6E6520736176696E672066691A
:103970006C652E0A0053544F505045442E20005081
:1039800072696E7465722073746F70706564206400
:10399000756520746F206572726F72732E20466990
:1039A0007820746865206572726F7220616E642081
:1039B000757365204D39393920746F2072657374C1
:1039C0006172742E202854656D7065726174757211
:1039D000652069732072657365742E2053657420A9
:1039E00069742061667465722072657374617274A3
:1039F000696E67290A004E6F20436865636B7375B3
:103A00006D2077697468206C696E65206E756D62D3
:103A100065722C204C617374204C696E653A2000ED
:103A20004E6F20436865636B73756D2077697468AA
:103A3000206C696E65206E756D6265722C204C611C
:103A40007374204C696E653A2000636865636B731C
:103A5000756D206D69736D617463682C204C6173A2
:103A600074204C696E653A20004C696E65204E7575
:103A70006D626572206973206E6F74204C6173747F
:103A8000204C696E65204E756D6265722B312C205D
:103A90004C617374204C696E653A20004D313130B1
:103AA00000526573656E643A20006F6B00220A0055
:103AB000656E7175657565696E67202200534420D7
:103AC00072656164206572726F720A00446F6E6580
:103AD000207072696E74696E672066696C650A0091
:103AE0004D323900436C69636B20746F20726573CB
:103AF000756D652E2E2E004D31343520533C696E88
:103B00006465783E206F7574206F662072616E6701
:103B1000652028302D31290A004F6666736574735D
:103B2000206170706C696564004572723A20546F50
:103B30006F206661722100546F6F2066617220668B
:103B4000726F6D207265666572656E636520706F59
:103B5000696E740A00454550524F4D204F4B0A0084
:103B6000504944204175746F74756E6520666169B3
:103B70006C656421204261642065787472756465A7
:103B800072206E756D6265720A0042656420636F13
:103B90006F6C696E672E2E2E004265642068656129
:103BA00074696E672E2E2E006F6B00220A00556E10
:103BB0006B6E6F776E20636F6D6D616E643A20225D
:103BC00000205A00205900580020204D61783A20EA
:103BD00000205A00205900580020204D696E3A20DC
:103BE00000536F667420656E6473746F70733A204F
:103BF000003344205072696E746572204F46462E21
:103C0000004E6F206D6F76652E004543484F00498A
:103C10004E464F004552524F52530044525952554E
:103C20004E00434F4D4D554E49434154494F4E0070
:103C30006F6666000A3C0F3C143C1B3C223C44452A
:103C40004255473A005072696E742074696D653A46
:103C500020002569730025696D2025697300256999
:103C6000682025696D202569730025696420256910
:103C7000682025696D2025697300256979202569EB
:103C800064202569682025696D20256973005072BC
:103C90006F6265205A204F66667365743A20003F54
:103CA0005A206F7574206F662072616E67652028D8
:103CB0002D323020746F203230290A00205A3A20E9
:103CC0000020593A200042656420583A2000E3421F
:103CD0005792BACA46D6A7022B026B022F021302D2
:103CE0001B4311241FBECFEFD1E2DEBFCDBF00E0EA
:103CF0000CBF13E0A0E0B2E0EAE8F5E903E00BBF97
:103D000002C007900D92AA38B107D9F723E1AAE8BB
:103D1000B3E001C01D92A831B207E1F71EE1C0E790
:103D2000DEE100E006C021970109802FFE010F941B
:103D3000FDC2C736D10780E00807A9F70E94172BFC
:103D40000D94B4CA0C9400001F920F920FB60F92FC
:103D500011242F933F938F939F93AF93BF938091A1
:103D60008B0390918C03A0918D03B0918E033091C1
:103D70008A0323E0230F2D3768F126E8230F0296EC
:103D8000A11DB11D20938A0380938B0390938C0314
:103D9000A0938D03B0938E0380918F039091900335
:103DA000A0919103B09192030196A11DB11D809342
:103DB0008F0390939003A0939103B0939203BF91CC
:103DC000AF919F918F913F912F910F900FBE0F90C8
:103DD0001F9018950196A11DB11DD4CF2FB7F8944F
:103DE00060918B0370918C0380918D0390918E0371
:103DF0002FBF08958F929F92AF92BF92CF92DF9282
:103E0000EF92FF924B015C019FB7F894C0908F0333
:103E1000D0909003E0909103F090920386B5A89B18
:103E200007C08F3F29F02FEFC21AD20AE20AF20A26
:103E30009FBFFE2CED2CDC2CCC24C80ED11CE11C29
:103E4000F11CCC0CDD1CEE1CFF1CCC0CDD1CEE1C94
:103E5000FF1C81149104A104B10409F43DC0D9D31D
:103E60003FB7F89480918F0390919003A0919103B4
:103E7000B091920326B5A89B05C02F3F19F001967B
:103E8000A11DB11D3FBFBA2FA92F982F8827820FE0
:103E9000911DA11DB11D880F991FAA1FBB1F880F5F
:103EA000991FAA1FBB1F8C199D09AE09BF09883E27
:103EB0009340A105B10598F281E0881A9108A10804
:103EC000B10828EEC20E23E0D21EE11CF11C8114C1
:103ED0009104A104B10421F6FF90EF90DF90CF9000
:103EE000BF90AF909F908F9008958230910538F0E9
:103EF000880F991F880F991F05970197F1F708956B
:103F0000789484B5826084BD84B5816084BD85B5B4
:103F1000826085BD85B5816085BDEEE6F0E080817B
:103F200081608083E1E8F0E010828081826080839C
:103F3000808181608083E0E8F0E08081816080831F
:103F4000E1EBF0E0808184608083E0EBF0E0808151
:103F500081608083E1E9F0E08081826080838081FC
:103F600081608083E0E9F0E0808181608083E1EA24
:103F7000F0E0808182608083808181608083E0EADC
:103F8000F0E0808181608083E1E2F1E08081826005
:103F90008083808181608083E0E2F1E080818160C4
:103FA0008083EAE7F0E080818460808380818260A2
:103FB000808380818160808380818068808310928B
:103FC000C10008951F93CF93DF93182FEB0161E099
:103FD00024D12097D1F0CF3FD10579F0E12FF0E047
:103FE000E357FA4FE4918E2F90E0FC013197E231D4
:103FF000F10528F0C038D10544F061E007C08827FA
:10400000EE58FF4F8F4F0D94FDC260E0812FDF917E
:10401000CF911F9143C184B5806884BDC7BDDF9136
:10402000CF911F91089584B5806284BDC8BDF7CF3C
:1040300080918000806880938000D0938900C09335
:104040008800EDCF80918000806280938000D093C3
:104050008B00C0938A00E3CF8091800088608093BA
:104060008000D0938D00C0938C00D9CF8091B00098
:1040700080688093B000C093B300D1CF8091B0002E
:1040800080628093B000C093B400C9CF809190004B
:10409000806880939000D0939900C0939800BFCF20
:1040A00080919000806280939000D0939B00C09399
:1040B0009A00B5CF80919000886080939000D09353
:1040C0009D00C0939C00ABCF8091A000806880933E
:1040D000A0008091A0008F7B8093A000D093A900C6
:1040E000C093A8009CCF8091A00080628093A00024
:1040F000D093AB00C093AA0092CF8091A0008860BB
:104100008093A000D093AD00C093AC0088CF809185
:104110002001806880932001D0932901C093280159
:104120007ECF80912001806280932001D0932B016B
:10413000C0932A0174CF8091200188608093200170
:10414000D0932D01C0932C016ACF90E0FC013197F0
:10415000E231F10558F48827EC57FF4F8F4F0D944B
:10416000FDC280912001877F80932001089584B54E
:104170008F7784BD089584B58F7D84BD0895809127
:1041800080008F77809380000895809180008F7DDC
:1041900080938000089580918000877F80938000C5
:1041A00008958091B0008F778093B000089580913A
:1041B000B0008F7D8093B0000895809190008F773C
:1041C000809390000895809190008F7D809390005F
:1041D000089580919000877F80939000089580914A
:1041E000A0008F778093A00008958091A0008F7D1C
:1041F0008093A00008958091A000877F8093A00005
:104200000895809120018F778093200108958091F7
:1042100020018F7D809320010895CF93DF9390E05C
:10422000FC01ED52FA4F2491FC01E75EF94F8491B5
:104230008823B9F090E0880F991FFC01ED56F94FE3
:10424000A591B491FC01E758F94FC591D49166232B
:1042500059F06230B9F08FB7F894EC91E22BEC93FF
:104260008FBFDF91CF9108959FB7F8948C91E22F83
:10427000E0958E238C932881E223E8839FBFDF9112
:10428000CF9108959FB7F8948C91322F3095832366
:104290008C93E881E22BE8839FBFE3CF1F93CF93FA
:1042A000DF93282F30E0F901E357FA4F8491F901A9
:1042B000ED52FA4F1491F901E75EF94FC491CC2306
:1042C000A9F0D62F81111BC0EC2FF0E0EE0FFF1FDD
:1042D000E758F94FA591B4918FB7F894D1110AC05E
:1042E0009C91E12FE095E923EC938FBFDF91CF9173
:1042F0001F910895EC91E12BEC938FBFF7CF25DF51
:10430000E3CFCF93DF93282F30E0F901E357FA4F43
:104310008491F901ED52FA4FD491F901E75EF94F1A
:10432000C491CC23B1F0811119C0EC2FF0E0EE0F55
:10433000FF1FE15AF94FA591B491EC91ED2381E073
:1043400090E019F0DF91CF91089580E0DF91CF9157
:10435000089580E090E0DF91CF910895F6DEE5CFFB
:1043600008951F920F920FB60F9211240BB60F9261
:104370002F933F934F935F936F937F938F939F936D
:10438000AF93BF93EF93FF93E0910402F091050286
:104390001995FF91EF91BF91AF919F918F917F916F
:1043A0006F915F914F913F912F910F900BBE0F90A6
:1043B0000FBE0F901F9018951F920F920FB60F927D
:1043C00011240BB60F922F933F934F935F936F93EC
:1043D0007F938F939F93AF93BF93EF93FF93E0915E
:1043E0000602F09107021995FF91EF91BF91AF91ED
:1043F0009F918F917F916F915F914F913F912F91FD
:104400000F900BBE0F900FBE0F901F9018951F922C
:104410000F920FB60F9211240BB60F922F933F936A
:104420004F935F936F937F938F939F93AF93BF93BC
:10443000EF93FF93E0910802F09109021995FF9123
:10444000EF91BF91AF919F918F917F916F915F910C
:104450004F913F912F910F900BBE0F900FBE0F9079
:104460001F9018951F920F920FB60F9211240BB642
:104470000F922F933F934F935F936F937F938F93FD
:104480009F93AF93BF93EF93FF93E0910A02F09154
:104490000B021995FF91EF91BF91AF919F918F9171
:1044A0007F916F915F914F913F912F910F900BBE34
:1044B0000F900FBE0F901F9018951F920F920FB67E
:1044C0000F9211240BB60F922F933F934F935F934C
:1044D0006F937F938F939F93AF93BF93EF93FF93CC
:1044E000E0910002F09101021995FF91EF91BF91C7
:1044F000AF919F918F917F916F915F914F913F917C
:104500002F910F900BBE0F900FBE0F901F9018951C
:104510001F920F920FB60F9211240BB60F922F938A
:104520003F934F935F936F937F938F939F93AF933B
:10453000BF93EF93FF93E0910202F091030219956C
:10454000FF91EF91BF91AF919F918F917F916F916B
:104550005F914F913F912F910F900BBE0F900FBE27
:104560000F901F9018951F920F920FB60F92112463
:104570000BB60F922F933F934F935F936F937F935D
:104580008F939F93AF93BF93EF93FF93E0910C02B0
:10459000F0910D021995FF91EF91BF91AF919F910D
:1045A0008F917F916F915F914F913F912F910F90DC
:1045B0000BBE0F900FBE0F901F9018951F920F9279
:1045C0000FB60F9211240BB60F922F933F934F9378
:1045D0005F936F937F938F939F93AF93BF93EF936B
:1045E000FF93E0910E02F0910F021995FF91EF9168
:1045F000BF91AF919F918F917F916F915F914F91FB
:104600003F912F910F900BBE0F900FBE0F901F90F8
:104610001895089580E090E008950895CF92DF9274
:10462000EF92FF920F931F93CF93DF9341155105A4
:1046300009F16A018C017B01C0E0D0E004C0219641
:10464000CC16DD0669F0D7016D917D01D801ED91A1
:10465000FC910190F081E02DC8011995892B79F723
:10466000CE01DF91CF911F910F91FF90EF90DF90DE
:10467000CF900895C0E0D0E0F3CF4F925F926F9259
:104680007F928F929F92AF92BF92CF92DF92EF92E2
:10469000FF921F93CF93DF9300D000D0CDB7DEB74A
:1046A0007E836D8349015A01909110028917C9F0E8
:1046B0009F3F09F425C126960FB6F894DEBF0FBEC2
:1046C000CDBFDF91CF911F91FF90EF90DF90CF9002
:1046D000BF90AF909F908F907F906F905F904F9022
:1046E0000895EDEAF6E0149117FDE5CF61E095DD60
:1046F00011114FC38D819E812C01612C712C60E0C2
:1047000072E18AE790E0A30192010F94E1C229834C
:104710003A834B835C8369017A0191E0C91AD1081D
:10472000E108F1082FEFC216D104E104F10409F009
:10473000C8F581E095B5987F892B85BD81149104DA
:10474000A104B10409F4A7C010E0AD81BE81AA0F95
:10475000BB1FA50194010F9414C328EE33E040E081
:1047600050E00F94BFC2123009F485C00CF44AC067
:10477000143009F4B1C00CF46CC0153009F09BCFB3
:10478000D0922901C0922801209396033093970379
:1047900040939803509399038091730082608093B3
:1047A000730089CF60E472E48FE090E0A30192018E
:1047B0000F94E1C269017A0181E0C81AD108E108C9
:1047C000F1089FEFC916D104E104F10409F008F4DF
:1047D00095C068E478EE81E090E0A30192010F9427
:1047E000E1C269017A0181E0C81AD108E108F10843
:1047F0009FEFC916D104E104F10411F008F045C29D
:1048000083E098CF112309F449C0113009F053CF48
:10481000D0928900C09288002093B2033093B303F2
:104820004093B4035093B50380916F0082608093EE
:104830006F0041CF90919100987F892B80939100D8
:1048400081149104A104B10409F07FCF2FEF3FEF51
:10485000A901D0929900C09298002093A4033093AC
:10486000A5034093A6035093A70380917100826033
:104870008093710020CFC092B3002093AB0330939C
:10488000AC034093AD035093AE03809170008260FF
:104890008093700010CF2FEF3FEFA901C7BC20938A
:1048A000B9033093BA034093BB035093BC03809188
:1048B0006E00826080936E00FECE9091A100987F82
:1048C000892B8093A10081149104A104B10409F003
:1048D0003CCF2FEF3FEFA901D092A900C092A800D2
:1048E00020939D0330939E0340939F035093A00316
:1048F00080917200826080937200DDCE82E01ACFD8
:1049000080931002EDEAF6E014911F3F09F4D3CE34
:10491000123009F4A2C008F471C0143009F42BC19C
:1049200008F402C1153009F0DFCE10922001109278
:104930002101909121019860909321019091210192
:10494000916090932101282F30E0F901E75EF94F43
:10495000E491F0E0EE0FFF1FE758F94F45915491B5
:104960005093950340939403F901ED52FA4F24912B
:104970002093930315E061E050DC8D819E812C0132
:10498000612C712C60E072E18AE790E0A301920152
:104990000F94E1C269017A0191E0C91AD108E108D6
:1049A000F108C114D10421E0E206F10408F453C077
:1049B00068E478EE81E090E0A30192010F94E1C2F7
:1049C00069017A0181E0C81AD108E108F10883E0A1
:1049D000113009F419C1133009F42CCF143009F443
:1049E0006CCF153009F46AC181149104A104B1049B
:1049F00009F0ABCE2FEF3FEFA901B5CE112309F49B
:104A0000E1C0113009F070CE109280001092810048
:104A100090918100986090938100909181009160C5
:104A200090938100282F30E0F901E75EF94FE4917F
:104A3000F0E0EE0FFF1FE758F94F45915491509366
:104A4000B1034093B003F901ED52FA4F2491209342
:104A5000AF0311E090CF81E0BBCF1092B000109275
:104A6000B1009091B00092609093B0009091B1002D
:104A700091609093B100282F30E0F901E75EF94F83
:104A8000E491F0E0EE0FFF1FE758F94F4591549184
:104A90005093AA034093A903F901ED52FA4F2491D0
:104AA0002093A80361E0B9DB8D819E812C01612CEC
:104AB000712C60E072E18AE790E0A30192010F940B
:104AC000E1C229833A834B835C8369017A0191E0D7
:104AD000C91AD108E108F1082FEFC216D104E10488
:104AE000F10409F008F4A0C060E472E48FE090E003
:104AF000A30192010F94E1C269017A0191E0C91A00
:104B0000D108E108F1082FEFC216D104E104F10445
:104B100011F008F08BC092E08091B100887F892B62
:104B20008093B10012E060CF10929000109291003B
:104B30009091910098609093910090919100916074
:104B400090939100282F30E0F901E75EF94FE4914E
:104B5000F0E0EE0FFF1FE758F94F45915491509345
:104B6000A3034093A203F901ED52FA4F249120933D
:104B7000A10313E000CF1092A0001092A100909129
:104B8000A10098609093A1009091A10091609093F2
:104B9000A100282F30E0F901E75EF94FE491F0E041
:104BA000EE0FFF1FE758F94F4591549150939C0326
:104BB00040939B03F901ED52FA4F249120939A03FD
:104BC00014E0D9CE14BC15BC94B5926094BD95B5D3
:104BD000916095BD282F30E0F901E75EF94FE4912F
:104BE000F0E0EE0FFF1FE758F94F459154915093B5
:104BF000B8034093B703F901ED52FA4F2491209383
:104C0000B60361E00ADB76CD90918100987F892B15
:104C10008093810081149104A104B10409F095CD21
:104C20002FEF3FEFA901F4CD91E076CF60E970ED71
:104C300083E090E0A30192010F94E1C269017A013F
:104C400081E0C81AD108E108F1089FEFC916D10424
:104C5000E104F10409F008F498C068E478EE81E01A
:104C600090E0A30192010F94E1C269017A0181E011
:104C7000C81AD108E108F1089FEFC916D104E10470
:104C8000F10409F058F594E047CF62E17AE780E05B
:104C900090E0A30192010F94E1C269017A0181E0E1
:104CA000C81AD108E108F1089FEFC916D104E10440
:104CB000F10411F008F041C084E03CCD9091210155
:104CC000987F892B8093210181149104A104B10460
:104CD00009F03BCD2FEF3FEFA90152CD64E274EF15
:104CE00080E090E0A30192010F94E1C269017A0192
:104CF00081E0C81AD108E108F1089FEFC916D10474
:104D0000E104F10409F008F442C062E17AE780E0CE
:104D100090E0A30192010F94E1C269017A0181E060
:104D2000C81AD108E108F1089FEFC916D104E104BF
:104D3000F10409F0B0F496E0EFCE89819A81AB815D
:104D4000BC813AE0B595A795979587953A95D1F7A7
:104D50006C017D0121E0C21AD108E108F10885E06B
:104D6000E9CC89819A81AB81BC812AE0B595A79570
:104D7000979587952A95D1F76C017D0121E0C21A9C
:104D8000D108E108F10897E0C7CE93E0C5CE95E0E1
:104D9000C3CE123009F488CEF0CD1F920F920FB619
:104DA0000F9211240BB60F922F933F934F935F9363
:104DB0006F937F938F939F93AF93BF93EF93FF93E3
:104DC0008091AB039091AC03A091AD03B091AE0381
:104DD000892B8A2B8B2BE1F19091A803E091A903F9
:104DE000F091AA038081892780838091AB03909101
:104DF000AC03A091AD03B091AE03181619061A06C4
:104E00001B069CF48091AB039091AC03A091AD0381
:104E1000B091AE030197A109B1098093AB039093C0
:104E2000AC03A093AD03B093AE03FF91EF91BF919C
:104E3000AF919F918F917F916F915F914F913F9132
:104E40002F910F900BBE0F900FBE0F901F901895D3
:104E500080911002EDEAF6E0E4919FEF909310024A
:104E6000E23039F168F0E430F1F0B8F0E53029F4DF
:104E7000909173009D7F9093730060E00FDAD5CF1F
:104E8000EE2341F0E130C9F790916F009D7F909340
:104E90006F00F3CF10926E00F0CF909171009D7F64
:104EA00090937100EACF909172009D7F9093720071
:104EB000E4CF909170009D7F9093700091E090936B
:104EC000B0009091B100987F94609093B1001092DF
:104ED000B300D3CF8F929F92AF92BF92CF92DF92C7
:104EE000EF92FF920F931F93CF93DF938C01E62EE7
:104EF00061E0FC018481D2D9F80185818F3F11F0F6
:104F000060E0CCD9F8018785F12C84FD72C057018F
:104F1000B594A794B594A794B594A794B594A79481
:104F20006801F7E0CF0ED11CE601812C912CB50170
:104F3000082C02C0759567950A94E2F76170899113
:104F4000ADD98FEF881A980AE4E08E16910479F7AC
:104F500060E0F8018681A2D981E090E00E94751F8F
:104F600061E0F80186819AD981E090E00E94751F86
:104F700060E0F801868192D984E690E00E94751F76
:104F8000C0E0D0E0B7010C2E02C0759567950A9479
:104F9000E2F76170F60181916F0180D92196C430EA
:104FA000D10581F760E0F801868178D981E090E051
:104FB0000E94751F61E0F801868170D981E090E060
:104FC0000E94751F60E0F801868168D984E690E050
:104FD0000E94751F81E090E0DF91CF911F910F91AA
:104FE000FF90EF90DF90CF90BF90AF909F908F9009
:104FF00008956801F7E0CF0ED11CC0E0D0E0B70102
:105000000C2E02C0759567950A94E2F76170F6015F
:1050100081916F0143D92196C830D10581F7C2CF64
:105020008F929F92AF92BF92CF92DF92EF92FF92B8
:105030000F931F93CF93DF938C01E62E60E0FC016A
:1050400084812CD9F80185818F3F11F060E026D949
:10505000F8018785F12C84FD6FC05701B594A794A2
:10506000B594A794B594A794B594A7946801F7E074
:10507000CF0ED11CE601812C912CB501082C02C069
:10508000759567950A94E2F76170899107D98FEF5A
:10509000881A980AE4E08E16910479F760E0F80126
:1050A0008681FCD881E090E00E94751F61E0F801E4
:1050B0008681F4D881E090E00E94751F60E0F801DD
:1050C0008681ECD884E690E00E94751FC0E0D0E0B5
:1050D000B7010C2E02C0759567950A94E2F76170CE
:1050E000F60181916F01DAD82196C430D10581F79C
:1050F00060E0F8018681D2D881E090E00E94751FBF
:1051000061E0F8018681CAD881E090E00E94751FB5
:1051100060E0F8018681C2D884E690E0DF91CF910B
:105120001F910F91FF90EF90DF90CF90BF90AF90C5
:105130009F908F900C94751F6801F7E0CF0ED11CE3
:10514000C0E0D0E0B7010C2E02C0759567950A94B7
:10515000E2F76170F60181916F01A0D82196C83005
:10516000D10581F7C5CFAF92BF92CF92DF92EF9278
:10517000FF920F931F93CF93DF93EC01423018F00F
:105180008F8588608F874B8B1C8A80E48D8B6E8B1C
:1051900070E0605C7F4F6F8B222319F0413009F47F
:1051A00036C161E08C8139D88D818F3F11F061E08B
:1051B00034D861E08E8131D86E0187E0C80ED11CF1
:1051C000760100E010E00CC084E090E008171907B9
:1051D0007CF461E0F70181917F011FD80F5F1F4FC1
:1051E0008F8584FFF1CF88E090E0081719078CF3D2
:1051F00080E593EC0E94751F60E08C814FD860E0E1
:105200008E814CD88D818F3F11F060E047D86F853B
:1052100064FF32C06062CE0103DF84E991E10E9445
:10522000751F6F856062CE01FBDE86E990E00E940B
:10523000751F6F856062CE01F3DE6F856062CE01FF
:10524000EFDE84E0888B6CE0CE01EADE61E0CE0127
:10525000E7DE80ED97E00E94751F82E0898B66E0B3
:10526000CE01DF91CF911F910F91FF90EF90DF90D2
:10527000CF90BF90AF90D4CE760100E010E033E045
:10528000A32EB12CB501002E02C0759567950A9426
:10529000E2F76170F70181917F0100D80F5F1F4F26
:1052A0000430110579F760E08E810E944E2181E083
:1052B00090E00E94751F61E08E810E944E2181E086
:1052C00090E00E94751F60E08E810E944E2184E66E
:1052D00090E00E94751F84E991E10E94751F76019C
:1052E00000E010E023E0A22EB12CB501002E02C098
:1052F000759567950A94E2F76170F70181917F01D6
:105300000E944E210F5F1F4F0430110571F760E0BE
:105310008E810E944E2181E090E00E94751F61E025
:105320008E810E944E2181E090E00E94751F60E016
:105330008E810E944E2184E690E00E94751F84E9D0
:1053400091E10E94751F760100E010E093E0A92E24
:10535000B12CB501002E02C0759567950A94E2F74D
:105360006170F70181917F010E944E210F5F1F4FF5
:105370000430110571F760E08E810E944E2181E0BA
:1053800090E00E94751F61E08E810E944E2181E0B5
:1053900090E00E94751F60E08E810E944E2184E69D
:1053A00090E00E94751F86E990E00E94751F00E062
:1053B00010E082E0E82EF12CB701002E02C07595B6
:1053C00067950A94E2F76170F60181916F010E947E
:1053D0004E210F5F1F4F0430110571F760E08E8181
:1053E0000E944E2181E090E00E94751F61E08E8155
:1053F0000E944E2181E090E00E94751F60E08E8146
:105400000E944E2184E690E00E94751F16CF8F8582
:1054100084608F87C6CECF92EF920F93FC011382E8
:10542000128288E093E09183808364838FEF858389
:10543000468327830087E186C286138614861586F5
:105440001686178620E041E060E1CF010F91EF90D2
:10545000CF9089CE61E0E4DD80ED97E00C94751F7C
:10546000FC01443008F043E08389481710F04FEF07
:10547000480FDF01A40FB11D54969C91690F60681D
:10548000CF01CECD4F925F926F927F928F929F927B
:10549000AF92BF92CF92DF92EF92FF920F931F9342
:1054A000CF93DF93EC018A016770660F660F660F7A
:1054B0006064B6DD4801280188E0480E511CE8818F
:1054C000F9810190F081E02DD401ED904D01B7E21A
:1054D000EA36FB0709F0A3C061E08C810E944E21EF
:1054E0008D818F3F19F060E00E944E218F85F12C55
:1054F00084FD7BC0370175946794759467947594A7
:105500006794759467946E01A7E0CA0ED11C56018A
:1055100000E010E0B301002E02C0759567950A9473
:10552000E2F76170F50181915F010E944E210F5FEA
:105530001F4F0430110571F760E08E810E944E21EB
:1055400081E090E00E94751F61E08E810E944E21F3
:1055500081E090E00E94751F60E08E810E944E21E4
:1055600084E690E00E94751F00E010E0B701002E75
:1055700002C0759567950A94E2F76170D6018D9126
:105580006D010E944E210F5F1F4F0430110571F70E
:1055900060E08E810E944E2181E090E00E94751FA4
:1055A00061E08E810E944E2181E090E00E94751F93
:1055B00060E08E810E944E2184E690E00E94751F7B
:1055C0004814590409F07BCFDF91CF911F910F91BF
:1055D000FF90EF90DF90CF90BF90AF909F908F9013
:1055E0007F906F905F904F9008958E01095F1F4FDD
:1055F000C12CD12CB7010C2C02C0759567950A946B
:10560000E2F76170F80181918F010E944E21FFEF56
:10561000CF1ADF0A88E0C816D10461F7B9CF6E2D22
:10562000CE011995CDCF80E090E0089508950E94B5
:10563000801FFCDF0E941DD5C0E0D0E0209719F448
:105640000E9400D6FDCF0E9400D60E940000F6CF37
:105650004F925F926F927F928F929F92AF92BF9282
:10566000CF92DF92EF92FF920F931F93CF93DF932E
:10567000EC016A017B01280139018F89803109F42D
:105680005DC0803291F080E0DF91CF911F910F914A
:10569000FF90EF90DF90CF90BF90AF909F908F9052
:1056A0007F906F905F904F9008958B889C88AD8815
:1056B000BE88DB01CA0147E0B695A7959795879507
:1056C0004A95D1F7880E991EAA1EBB1E4091C405AB
:1056D0005091C5056091C6057091C7058416950661
:1056E000A606B70609F044C081E08093C103E894A0
:1056F000C7F8DD24EE24FF24C601880F991F880F08
:10570000991FFC01EC53FC4F4082518262827382EC
:105710008A89823008F473C08D819E81AF81B885FB
:10572000880E991EAA1EBB1E8092BD039092BE03D6
:10573000A092BF03B092C00381E0A6CF8D2C9E2C17
:10574000AF2CBB248B899C89AD89BE89880E991E9C
:10575000AA1EBB1E4091C4055091C5056091C605A7
:105760007091C70584169506A606B70609F449C0C8
:105770008091C103811128C024EC33E0B501A4015C
:105780008091C2039091C3030E94BC45882309F411
:105790007ACF8092C4059092C505A092C605B092BA
:1057A000C7058F8991E09093C103803109F09FCFA5
:1057B000DD24EE24FF24C601880F991FFC01EC5361
:1057C000FC4F51824082A4CF24EC33E08091C2038D
:1057D0009091C3030E947146882309F454CF4091ED
:1057E000BD035091BE036091BF037091C00341158A
:1057F00051056105710549F41092C103BDCF81E0E7
:1058000043CF81E08093C103D3CF24EC33E0809178
:10581000C2039091C3030E947146882309F433CFD9
:105820001092BD031092BE031092BF031092C003EA
:10583000E3CF2F923F924F925F926F927F928F921F
:105840009F92AF92BF92CF92DF92EF92FF920F930F
:105850001F93CF93DF93CDB7DEB72F970FB6F89492
:10586000DEBF0FBECDBF9A838983DC0119968D9070
:105870009D90AD90BC901C97D501C4010196A11DCF
:10588000B11D8D839E83AF83B887F901C080D1801D
:10589000E280F380C114D104E104F10409F41EC1D3
:1058A000FFEFCF1ADF0AEF0AFF0A1D8689288A2830
:1058B0008B2881F1190149875A876B877C872601DC
:1058C0003701812C912C540109811A811F870E8781
:1058D0002D813E814F8158852C153D054E055F0574
:1058E00050F412E0C12ED12CE12CF12C02E0402E1C
:1058F000512C612C712C8C159D05AE05BF0550F007
:10590000AE85BF8557968C915797803109F490C02A
:105910008032D9F0B12C8B2D2F960FB6F894DEBFC4
:105920000FBECDBFDF91CF911F910F91FF90EF90F0
:10593000DF90CF90BF90AF909F908F907F906F90AF
:105940005F904F903F902F90089553964D915D91A9
:105950006D917C915697D701C601E7E0B695A79562
:1059600097958795EA95D1F78C019D01040F151F36
:10597000261F371F09831A832B833C834091C4055C
:105980005091C5056091C6057091C7054017510734
:105990006207730709F07BC0D701C6018F7799278B
:1059A000AA27BB27880F991F880F991FFC01EC536A
:1059B000FC4F80819181A281B381BF70892B8A2B9A
:1059C0008B2BF1F026013701BFEF4B1A5B0A6B0AF4
:1059D0007B0A730162011FEF811A910AA10AB10AC1
:1059E000EE85FF8581859285A385B4858816990605
:1059F000AA06BB0608F08ECF0196A11DB11D68CF87
:105A0000D701C6010196A11DB11DAC01BD0144190C
:105A100055096609770909851A852B853C85041780
:105A200015072607370709F498C06C017D01D3CF0D
:105A3000FD01BB27AF2D9E2D8D2D4389548965898E
:105A400076898C019D01040F151F261F371F0983BE
:105A50001A832B833C834091C4055091C505609106
:105A6000C6057091C705041715072607370779F48F
:105A7000D701C6019927AA27BB27880F991FFC01C8
:105A8000EC53FC4F80819181A0E0B0E097CF8091F2
:105A9000C103811133C024EC33E049815A816B8109
:105AA0007C818091C2039091C3030E94BC458823EE
:105AB00009F430CF29813A814B815C812093C40560
:105AC0003093C5054093C6055093C705AE85BF8585
:105AD00057968C91803109F05FCFCACFE981FA8166
