:100000000C94121F0C9452220C947D220C94A82262
:100010000C94D3220C94FE220C9429230C94542388
:100020000C947F230C94431F0C94431F0C94431F88
:100030000C94431F0C946E270C94431F0C94431F85
:100040000C94431F0C949D5A0C94431F0C94431F13
:100050000C94431F0C94431F0C94B3AA0C94451F9B
:100060000C94431F0C94F8560C94BA570C94431FED
:100070000C94431F0C94431F0C94431F0C94431F78
:100080000C94431F0C94431F0C94431F0C94431F68
:100090000C94431F0C94431F0C94431F0C94431F58
:1000A0000C94431F0C94431F0C94431F0C94431F48
:1000B0000C94431F0C94431F0C94431F0C94431F38
:1000C0000C94431F0C94431F0C94431F0C94431F28
:1000D0000C94431F0C94431F0C94431F0C94431F18
:1000E0000C94431FAC20B420B920C320CD209B200A
:1000F000D720DF20E720F120FB20052114211E213D
:100100009B20282132213C2158215C21602166213D
:100110006C215721722178217E2184218A2190210E
:1001200096219C215721A221A8215221525777576D
:1001300066576F57605723578657235782578A57FA
:1001400023574D57ED014302A902F901A5029F0271
:100150000902710279022D0297023D029102910279
:100160006B026B0253021102110211021102110201
:1001700011021102110211021102110211021102E7
:1001800011021102110201021102110211021102E7
:1001900011026302230231029302110211021102C1
:1001A00011021102110211021102110211021102B7
:1001B0009502110211021102110211021102110223
:1001C0001102110211021102110211021102110297
:1001D0001102110211021102110211021102110287
:1001E0001102110211021102110211021102110277
:1001F0001102110211021102110211021102110267
:100200001102110211021102110211021102110256
:100210008B020B0269021D021D027302730221028E
:100220001302130213021302130213021302130226
:100230001302130213021302130213021302130216
:100240000D02130213021302130213022902FB010F
:100250004B02F101130213021302130213021302E1
:10026000130213021302130213025F02130213029A
:1002700013021302130213021302130213021302D6
:1002800013021302130213021302130213021302C6
:1002900013021302130213021302130213021302B6
:1002A00013021302130213021302130213021302A6
:1002B0001302130213021302130213021302130296
:1002C000130213021302130213023F027D02030200
:1002D00099029902590259024D02570257025702D8
:1002E0005702570257025702570257025702570246
:1002F000570257025702570257025B025702570232
:100300005702570257028502A302370233025702EF
:100310005702570257025702570257025702570215
:100320005702570215025702570257025702570247
:1003300057025702570257025702570257025702F5
:1003400057025702570257025702570257025702E5
:1003500057025702570257025702570257025702D5
:1003600057025702570257025702570257025702C5
:1003700057025702570257025702570257025702B5
:10038000570257025502F301F501084AD73B3BCE0D
:10039000016E84BCBFFDC12F3D6C74319ABD568384
:1003A0003DDA3D00C77F11BED9E4BB4C3E916BAA3C
:1003B000AABE000000803F05A84CCDB2D44EB9388B
:1003C00036A9020C50B9918688083CA6AAAA2ABE72
:1003D000000000803F000D940F0C0D9424310D940B
:1003E000D01D0D94298F0D9471920D946E920D94E1
:1003F00064380D9402310D94398F0D94811A0D9447
:1004000081120D94578B0D942C8F0D942B260D94E7
:1004100041480D9413310D94648C0D94268E0D94E7
:100420005B290D94538B0D94228E0D9477920D942D
:100430006C1F0D94CC1F0D9490390D944E8F0D941C
:1004400096010D94438F0D946E8C0D94BB2F0D94DB
:100450003A170D943D8F0D943E480D94F9300D944C
:1004600091070D94758C0D9461920D948B2C0D94C5
:100470006B920D9480100D94D95A0D9421310D94E6
:10048000338F0D9401180D9427310D94FB220D9498
:100490008C050D94050A0D94408F0D9456920D9481
:1004A000B0070D942D000D94788C0D9474920D94DA
:1004B000ED900D9459920D94F1900D9496990D94A0
:1004C000368F0D9498010D94728C0D9493240D9495
:1004D000B2180D94618C0D947B8C0D94232E0D9489
:1004E00063210D9416310D94468F0D9437580D9459
:1004F000F1070D941B310D94C3270D942F8F0D948C
:1005000052140D94C4570D94BF070D9468920D9426
:10051000F32A0D94A01A0D94688C0D9489390D94CA
:100520009A010D94838C0D945E8C0D946B8C0D94BC
:100530001E310D9453920D942B480D942D310D9432
:1005400010310D94040E0D9464920D940D310D94A0
:10055000F8040D942A314E414E494E495459494EA2
:1005600046CDCCCC3D0AD7233C17B7D13877CC2B1E
:10057000329595E6241FB14F0A000020410000C8C3
:100580004200401C4620BCBE4CCA1B0E5AAEC59D44
:100590007400407A10F35A00A0724E18090010A59A
:1005A000D4E80000E87648170000E40B540200008D
:1005B000CA9A3B000000E1F5050000809698000013
:1005C0000040420F000000A086010000001027003C
:1005D000000000E803000000006400000000000AC2
:1005E00000000000000100000000002C76D888DC2C
:1005F000674F0823DFC1DFAE59E1B1B796E5E3E409
:1006000053C63AE651997696E8E6C28426EB898C81
:100610009B62ED407C6FFCEFBC9C9F40F2BAA56FE3
:10062000A5F490055A2AF75C936B6CF9676DC11BB2
:10063000FCE0E40D47FEF520E6B500D0ED902E037A
:1006400000943577050080841E080000204E0A00C3
:100650000000C80C333333330F986E12831141EF0F
:100660008D2114893BE65516CFFEE6DB18D1844B6D
:10067000381BF77C1D901DA4BBE424203284725EDD
:10068000228100C9F124ECA1E53D2700000A0B02FC
:10069000090C0D0E08070304010000000000000013
:1006A000000000000000000000000000000000004A
:1006B0000000000000000012111000000000000007
:1006C000000000000000000000000000000000002A
:1006D0000001021020200808102040102040800255
:1006E0000102010804020101020408102040808078
:1006F00040201008040201800402018040201008FC
:1007000004020108040201010204081020408001D3
:1007100002040810204080050505050705080808A3
:1007200008020202020A0A08080404040401010182
:10073000010101010103030303030303030407078A
:10074000070C0C0C0C0C0C0C0C0202020206060628
:1007500006060606060B0B0B0B0B0B0B0B00002003
:10076000002300260029002C002F00320000010089
:100770000003010601090100002200250028002BCA
:10078000002E003100340002010000050108010BB9
:100790000100002100240027002A002D0030003332
:1007A0000001010000040107010A01024D31313747
:1007B000004D33310043616E6E6F7420656E746559
:1007C00072207375626469723A20002E0A006F709D
:1007D000656E206661696C65642C2046696C653ABB
:1007E00020006175746F25632E67006572726F72E9
:1007F0002077726974696E6720746F2066696C6512
:100800000A004E6F74205344207072696E74696ED2
:10081000670A005344207072696E74696E672062C3
:1008200079746520002E0A0044656C6574696F6EEA
:10083000206661696C65642C2046696C653A20000D
:1008400046696C652064656C657465643A0057722E
:100850006974696E6720746F2066696C653A200060
:100860002E0A006F70656E206661696C65642C20CD
:1008700046696C653A20002E0A006F70656E20662E
:1008800061696C65642C2046696C653A2000466994
:100890006C652073656C65637465640A0020536938
:1008A0007A653A200046696C65206F70656E6564F4
:1008B0003A20002066696C653A20006672657368AC
:1008C00000646F696E67004E6F772000454E4420CC
:1008D000535542524F5554494E450A002220706FDD
:1008E00073002220706172656E743A220053554283
:1008F000524F5554494E452043414C4C207461722F
:100900006765743A2200747279696E6720746F208B
:1009100063616C6C207375622D67636F646520661C
:10092000696C6573207769746820746F6F206D61DE
:100930006E79206C6576656C732E204D4158206C65
:100940006576656C2069733A310A004D3234004D8A
:1009500032332025730053442063617264206F6B2F
:100960000A006F70656E526F6F74206661696C6506
:10097000640A00766F6C756D652E696E6974206609
:1009800061696C65640A00534420696E697420666D
:1009900061696C0A00286E6F2066696C65290043E6
:1009A000616E6E6F74206F70656E2073756264691E
:1009B0007220007C3C3E5E2B3D3F2F5B5D3B2C2A32
:1009C000225C004F4646004F4E006563686F3A0058
:1009D0004572726F723A004572726F722077726957
:1009E00074696E6720746F20454550524F4D210A3F
:1009F00000205A3A0020423A0020436F756E74205E
:100A0000413A00043700001E290000511B00005825
:100A100010000010090000CC040000780200004122
:100A200001000024F4D43050C38E20C2A2401782AB
:100A30008B7011127A910D816CD90AA861E108C7F7
:100A4000586607615143061E4B5D05C145A7041A50
:100A5000411104093D9803713931034036DB0265C9
:100A6000339102D4305402802E1D02632CEE0175A6
:100A70002AC501B028A001102781018F2564012B10
:100A8000244B01E0223401AC211F018D200D018097
:100A90001FFC00841EED00971DDF00B81CD200E68D
:100AA0001BC600201BBC00641AB200B219A8000AC1
:100AB00019A0006A189900D117910040178B00B552
:100AC00016840031167E00B31579003A157300C7FD
:100AD000146F0058146A00EE136600881363002533
:100AE000135E00C7125B006C12570015125400C150
:100AF00011510070114F0021114B00D61049008D8B
:100B00001047004610440002104200C00F40008011
:100B10000F3E00420F3C00060F3B00CB0E38009307
:100B20000E37005C0E3500270E3400F30D3200C185
:100B30000D3100900D3000600D2E00320D2D00059E
:100B40000D2C00D90C2B00AE0C2900850C29005C63
:100B50000C2700350C27000E0C2600E80B2400C4DF
:100B60000B2400A00B23007D0B23005A0B2100391E
:100B70000B2100180B2000F80A1F00D90A1E00BB29
:100B80000A1E009D0A1D00800A1D00630A1C004702
:100B90000A1B002C0A1B00110A1A00F7091A00DDB3
:100BA000091900C4091900AB091900920917007B43
:100BB000091800630917004C0916003609160020B1
:100BC0000916000A091500F5081500E0081400CC04
:100BD000081400B8081400A4081400900813007D3D
:100BE0000812006B0813005808120046081200345F
:100BF000081100230811001208110001081100F06B
:100C0000071000E0071000D0071000C0071000B068
:100C1000070F00A107100091070E0083070F007453
:100C2000070F0065070E0057070E0049070E003B2F
:100C3000070D002E070E0020070D0013070D0006FC
:100C4000070D00F9060C00ED060D00E0060C00D4BF
:100C5000060C00C8060C00BC060C00B0060C00A474
:100C6000060B0099060C008D060B0082060B007720
:100C7000060B006C060B0061060A0057060B004CC1
:100C8000060A0042060A0038060A002E060A002458
:100C9000060A001A060A001006090007060A00FDE7
:100CA000050900F4050900EB050900E2050900D972
:100CB000050900D0050900C7050900BE050900B5F2
:100CC000050800AD050800A50509009C050800946D
:100CD0000508008C050800840508007C05080074E0
:100CE0000508006C050700650508005D050700564E
:100CF0000508004E050700470507004005080038B5
:100D0000050700310507002A050700230507001C19
:100D1000050600160507000F050700080506000276
:100D2000050700FB040600F5040700EE040600E8D2
:100D3000040600E2040700DB040600D5040600CF29
:100D4000040600C9040600C3040600BD040600B77B
:100D5000040600B1040500AC040600A6040600A0C9
:100D60000405009B04060095040500900406008A13
:100D700004050085040500800406007A040500755A
:100D8000040500700405006B04050066040500619D
:100D90000405005C04050057040500520405004DDD
:100DA00004050048040500430405003E0404003A1D
:100DB00004050035040500300404002C0405002758
:100DC000040400230405001E0404001A0404001691
:100DD000040500110404000D0404000904050004C6
:100DE00004040000040400FC030400F8030400F4FD
:100DF000030400F0030400EC030400E8030400E42F
:100E0000030400E0030400DC030400D8030400D45E
:100E1000030400D0030400CC030400C8030300C58E
:100E200003030024F404D9201BC40C5C0E9804C4F2
:100E3000095F0265077101F405F900FB04B300487E
:100E4000048700C10369005803550003034500BE31
:100E5000023A008402310053022A002902250004CC
:100E6000022000E4011C00C8011900AF011700981E
:100E70000114008401130071011000610110005180
:100E8000010E0043010D0036010B002B010B002069
:100E9000010B00150109000C01090003010800FB0A
:100EA000000800F3000800EB000700E4000600DE85
:100EB000000600D8000600D2000600CC000500C7DE
:100EC000000500C2000500BD000400B9000400B523
:100ED000000400B1000400AD000400A9000400A556
:100EE000000300A20003009F0004009B0003009881
:100EF0000003009500020093000300900003008DA2
:100F00000002008B000300880002008600020084BB
:100F1000000300810002007F0002007D0002007BD0
:100F200000020079000200770001007600020074E0
:100F300000020072000100710002006F0002006DEB
:100F40000001006C0002006A0001006900020067F5
:100F500000010066000100650001006400020062FB
:100F600000010061000100600001005F0002005DFF
:100F70000001005C0001005B0001005A0001005903
:100F80000001005800010057000100560001005503
:100F90000001005400010053000000530001005202
:100FA00000010051000100500001004F0001004EFF
:100FB0000000004E0001004D0001004C0001004BFC
:100FC0000000004B0001004A0001004900010048F8
:100FD00000000048000100470001004600000046F4
:100FE00000010045000000450001004400010043ED
:100FF00000000043000100420000004200010041E7
:1010000000000041000100400001003F0000003FDF
:101010000001003E0000003E0001003D0000003DD8
:101020000001003C0000003C0000003C0001003BCF
:101030000000003B0001003A0000003A00010039C6
:1010400000000039000100380000003800000038BE
:1010500000010037000000370001003600000036B4
:1010600000000036000100350000003500000035AA
:10107000000100340000003400000034000100339F
:101080000000003300000033000100320000003295
:10109000000000320001003100000031000000318A
:1010A0000001003000000030000000300001002F7F
:1010B0000000002F0000002F0000002F0001002E74
:1010C0000000002E0000002E0001002D0000002D69
:1010D0000000002D0000002D0001002C0000002C5D
:1010E0000000002C0000002C0001002B0000002B51
:1010F0000000002B0000002B0001002A0000002A45
:101100000000002A0000002A000100290000002938
:10111000000000290000002900000029000100282B
:10112000000000280000002800000028000000281F
:101130000001002700000027000000270000002712
:101140000000002700010026000000260000002605
:1011500000000026000000260001002500000025F8
:1011600000000025000000250000002500000025EB
:1011700000010024000000240000002400000024DE
:1011800000000024000100230000002300000023D1
:1011900000000023000000230000002300000023C3
:1011A00000010022000000220000002200000022B6
:1011B00000000022000000220001002100000021A8
:1011C000000000210000002100000021000000219B
:1011D000000000210001002000000020000000208D
:1011E000000000200000002000000020000000207F
:1011F000000000200001001F0000001F0000001F71
:101200000000001F0000001F0000001F0000001F62
:101210000001001E0000001E0000001E0000001E55
:1012200000000050726F62696E67204661696C65EC
:10123000640A0050726F62696E67204661696C656E
:101240006400496E76616C696420657874727564B7
:1012500065720A0020746F6F206C6F6E672065786E
:1012600074727573696F6E2070726576656E7465E1
:10127000640A0020636F6C6420657874727573690A
:101280006F6E2070726576656E7465640A005761D2
:10129000726E696E673A20486F6D696E672042759D
:1012A0006D702044697669736F72203C20310A00AA
:1012B000020204486F6D652025732573257320464F
:1012C00069727374002046697273740A00486F6D06
:1012D00065200020746F6F206C6F6E6720657874D6
:1012E000727573696F6E2070726576656E74656471
:1012F0000A0020636F6C6420657874727573696F7F
:101300006E2070726576656E7465640A0020453AD9
:1013100000205A3A0020593A00583A00FFFFFF00D7
:1013200000A0400000A04000000040000048430032
:1013300000484300002A43000000000000000000B5
:10134000000000000048430000484300002A43001A
:10135000000000000000000000000020573A0020BC
:10136000573A004520436F6F6C696E672E2E2E0032
:10137000452048656174696E672E2E2E00202F006F
:101380002042403A0020403A00546865726D616C1A
:101390002052756E6177617900453120544845527D
:1013A0004D414C2052554E41574159004245442031
:1013B000544845524D414C2052554E4157415900D9
:1013C000202D20496E76616C696420657874727591
:1013D000646572206E756D62657220210A00486531
:1013E0006174696E67206661696C6564004265645A
:1013F0002048656174696E67204661696C656400A8
:10140000546865726D616C2052756E617761790008
:1014100042454420544845524D414C2052554E417E
:101420005741590048656174696E67206661696C4F
:1014300065640045312048656174696E67204661C6
:10144000696C656400546865726D616C2052756EDC
:101450006177617900453120544845524D414C2017
:1014600052554E41574159004D494E54454D50201B
:1014700074726967676572656400453120457272F0
:101480003A204D494E54454D50004572723A204D18
:10149000494E54454D5020424544004D4158544515
:1014A0004D5020747269676765726564004531202C
:1014B0004572723A204D415854454D500045727264
:1014C0003A204D415854454D5020424544006265F4
:1014D00064002C2073797374656D2073746F707061
:1014E000656421204865617465725F49443A200053
:1014F0004B6420004B6920004B7020005049442071
:101500004175746F74756E652066696E6973686580
:1015100064212050757420746865206C6173742098
:101520004B702C204B6920616E64204B6420636FEC
:101530006E7374616E74732066726F6D2062656C79
:101540006F7720696E746F20436F6E66696775727E
:101550006174696F6E2E680A0050494420417574A9
:101560006F74756E65206661696C656421207469AD
:101570006D656F75740A00546865726D616C2052F8
:10158000756E6177617900453120544845524D416F
:101590004C2052554E415741590042454420544831
:1015A00045524D414C2052554E41574159004865D6
:1015B0006174696E67206661696C656400453120FD
:1015C00048656174696E67204661696C65640042B4
:1015D00065642048656174696E67204661696C6561
:1015E0006400504944204175746F74756E652066BF
:1015F00061696C6564212054656D706572617475F4
:10160000726520746F6F20686967680A00204B64F8
:101610003A2000204B693A2000204B703A20000A03
:1016200020436C617373696320504944200A002091
:101630004B643A2000204B693A2000204B703A203E
:10164000000A204E6F206F76657273686F6F740AA0
:10165000002054753A2000204B753A2000206D611F
:10166000783A2000206D696E3A200020643A20000C
:1016700020626961733A2000504944204175746FBB
:1016800074756E652073746172740A005049442049
:101690004175746F74756E65206661696C6564214F
:1016A0002054656D706572617475726520746F6F1A
:1016B00020686967680A0023646566696E6520446E
:1016C000454641554C545F004D3834205820592030
:1016D0005A20450070012C0190012701B001220120
:1016E000C0011D01F00118011002130130020E01AA
:1016F0006002090190020401C002FF000003FA0029
:101700004003F5008003F000D003EB002004E60066
:101710007004E100E004DC004005D700C005D20001
:101720004006CD00D006C8008007C3003008BE00C8
:10173000F008B900C009B400B00AAF00B00BAA00AD
:10174000D00CA500000EA000500F9B00C01096000A
:101750005012910000148C00C0158700B017820051
:10176000B0197D00D01B7800001E730040206E0071
:1017700090226900F024640040275F0090295A00FD
:10178000E02B5500102E500020304B001032460048
:10179000E033410090353C0010373700703832009C
:1017A000A0392D00B03A2800A03B2300603C1E0069
:1017B000103D1900903D1400103E0F00703E0A00CD
:1017C000C03E0500003F0000403FFBFF803FF6FFAA
:1017D000C03FF1FF2055004C0046696C616D656E9D
:1017E00074206C6F61642F756E6C6F6164206C6522
:1017F0006E677468733A0A0020204D383531205ADC
:10180000005A2D50726F6265204F666673657400D2
:1018100020440020490020204D333031205000501A
:1018200049442073657474696E67733A0A002046F0
:101830000020420020480020204D31343520530044
:101840004D6174657269616C2068656174757020A2
:10185000706172616D65746572733A0A0020590097
:101860002020473239205333205800205A002020AE
:101870004D3432302053004D65736820426564203A
:101880004C6576656C696E673A0A00205A002059EB
:101890000020204D323036205800486F6D65206F93
:1018A00066667365743A0A00204500205A00205984
:1018B0000020580020540020530020204D323035A5
:1018C00020420020453C6D61785F655F6A65726B00
:1018D0003E0020583C6D61785F785F6A65726B3EB0
:1018E00020593C6D61785F795F6A65726B3E205A62
:1018F0003C6D61785F7A5F6A65726B3E0041647629
:10190000616E6365643A20423C6D696E5F73656722
:101910006D656E745F74696D655F75733E20533CD1
:101920006D696E5F66656564726174653E20543CE6
:101930006D696E5F74726176656C5F666565647211
:101940006174653E0020540020520020204D32304A
:1019500034205000416363656C65726174696F6E19
:101960002028756E6974732F7332293A20503C70A9
:1019700072696E745F616363656C3E20523C726590
:1019800074726163745F616363656C3E20543C7480
:10199000726176656C5F616363656C3E0A00204529
:1019A00000205A0020590020204D323031205800AC
:1019B0004D6178696D756D20416363656C65726119
:1019C00074696F6E2028756E6974732F7332293AAB
:1019D0000A00204500205A0020590020204D3230B6
:1019E000332058004D6178696D756D2066656564BA
:1019F00072617465732028756E6974732F73293A48
:101A00000A0053746570732070657220756E697476
:101A10003A0A0020204D3230302044300A00202085
:101A20004D3230302044002044697361626C65643B
:101A30000A0046696C616D656E7420736574746923
:101A40006E67733A0020204D3134392043203B200B
:101A5000556E69747320696E2043656C7369757384
:101A60000A002020473231202020203B20556E697B
:101A7000747320696E206D6D0048617264636F64D9
:101A800065642044656661756C742053657474697F
:101A90006E6773204C6F616465640A002003000068
:101AA00020030000C8000000E803000000A00C466E
:101AB00000A00C4600007A4400007A44000048422E
:101AC0000000484200007A4300009342290A0020A7
:101AD00062797465733B2063726320002073746FB6
:101AE0007265642073657474696E677320726574BF
:101AF000726965766564202800202863616C6375CF
:101B00006C6174656429210A0020213D200045454F
:101B100050524F4D20435243206D69736D61746381
:101B200068202D202873746F72656429200020536B
:101B3000697A653A2000496E6465783A2000204D44
:101B400061726C696E3D563638290A00454550521F
:101B50004F4D2076657273696F6E206D69736D618C
:101B60007463682028454550524F4D3D004E6F200C
:101B7000454550524F4D2E0A00290A0020627974C3
:101B800065733B20637263200053657474696E67EC
:101B9000732053746F7265642028004E6F20454592
:101BA00050524F4D2E0A00454550524F4D20646112
:101BB000746173697A65206572726F722E0A003AD9
:101BC0000A0020286D6D290020204D36303320007A
:101BD0006F70656E00545249474745524544003A7C
:101BE00020007A5F6D696E00795F6D696E00785FC5
:101BF0006D696E005265706F7274696E6720656EF4
:101C00006473746F70207374617475730A00456E29
:101C10006473746F7073202563202563202563200F
:101C2000256300205A3A0020593A0020583A0065AE
:101C30006E6473746F7073206869743A2000486F23
:101C40006D696E67204661696C656400473238587B
:101C500059002020506C616E6E6572427566666533
:101C60007242797465733A20002046726565204D92
:101C7000656D6F72793A2000436F6D70696C6564B1
:101C80003A2041756720323320323031390A002042
:101C90007C20417574686F723A20286E6F6E652CD7
:101CA0002064656661756C7420636F6E6669672970
:101CB0000A00323031392D30382D323100204C615C
:101CC000737420557064617465643A2000627567AE
:101CD0006669782D322E302E780A004D61726C695B
:101CE0006E0020536F66747761726520526573656C
:101CF000740A00205761746368646F6720526573CB
:101D000065740A002042726F776E206F75742052DE
:101D1000657365740A002045787465726E616C2085
:101D200052657365740A00506F77657255700A00CA
:101D300073746172740A004B494C4C45442E200068
:101D40005072696E7465722068616C7465642E20CF
:101D50006B696C6C28292063616C6C6564210A00D6
:101D60004B494C4C20636175736564206279204B4C
:101D7000494C4C20627574746F6E2F70696E0A0046
:101D80004B494C4C20636175736564206279207403
:101D90006F6F206D75636820696E61637469766525
:101DA0002074696D65202D2063757272656E7420D4
:101DB000636F6D6D616E643A200050726F7465637D
:101DC0007465642050696E0A00363726033C3D383E
:101DD0000E2E303E121A1C1808440AFF4308090050
:101DE000015072696E742066726F6D204D65646972
:101DF00061005072696E742066726F6D204D65646B
:101E0000696100052E2E004D61696E005072696E89
:101E1000740043616E63656C00537461727420508A
:101E200072696E7420003F0053746F7265205365B1
:101E30007474696E6773004C6F61642053657474C9
:101E4000696E67730050726F6265205A204F666634
:101E50007365740050726F6265205A204F66667316
:101E6000657400426564205A00426564205A004649
:101E7000616465204865696768740046616465202F
:101E800048656967687400426564204C6576656CD6
:101E9000696E67004F6666004F6E00426564204CB5
:101EA0006576656C696E670045646974204D65737D
:101EB00068004C6576656C20426564004D6F7469FE
:101EC0006F6E005A2056616C7565005A2056616C21
:101ED000756500496E646578205900496E646578BF
:101EE000205900496E646578205800496E64657811
:101EF000205800426564204C6576656C696E670009
:101F000047323800436C69636B20746F2042656709
:101F1000696E00473239205331004732392053323D
:101F2000004E65787420506F696E74002569202F0B
:101F3000202575004D6F7665205A004732392053B1
:101F400032004C6576656C696E6720446F6E652162
:101F500000486F6D696E672058595A004D6F766959
:101F60006E672E2E2E00466C6F7700466C6F7700E2
:101F700046616E2053706565640046616E20537043
:101F80006565640042656400426564004E6F7A7A5C
:101F90006C65004E6F7A7A6C6500426564205A0069
:101FA000426564205A00537065656400537065652E
:101FB00064004D61696E00526573746F72652066CE
:101FC00061696C73616665004C6F61642053657470
:101FD00074696E67730053746F726520536574740F
:101FE000696E677300507265686561742041425381
:101FF00020436F6E66005072656865617420504CB6
:102000004120436F6E660050726F6265205A204F08
:1020100066667365740050726F6265205A204F6661
:102020006673657400416476616E63656420536510
:102030007474696E6773004D61696E0053746F72DA
:10204000652053657474696E67730042656400426D
:102050006564004E6F7A7A6C65004E6F7A7A6C65B3
:102060000046616E2053706565640046616E2053C2
:102070007065656400436F6E666967757261746947
:102080006F6E0044697361626C6520537465707093
:10209000657273004D383400426564204C65766586
:1020A0006C696E6700486F6D65205A0047323820B2
:1020B0005A00486F6D652059004732382059004852
:1020C0006F6D652058004732382058004175746F95
:1020D00020486F6D6500473238004D6F76652041AE
:1020E000786973004D61696E004578747275646536
:1020F00072004D6F7665205A004D6F76652059004D
:102100004D6F7665205800536F667420456E64737A
:10211000746F7073004F6666004F6E00536F667485
:1021200020456E6473746F7073004D6F74696F6EC9
:10213000004578747275646572004D6F7665202570
:10214000736D6D00004D6F766520302E316D6D0022
:102150004D6F766520316D6D004D6F7665203130A5
:102160006D6D004D6F7665204178697300486F741E
:10217000656E6420746F6F20636F6C6400457874C3
:102180007275646572004D6F7665205A004D6F76EA
:10219000652059004D6F76652058004D6F7665209B
:1021A0005A004D6F76652059004D6F7665205800B6
:1021B000496E69740043616E63656C00496E6974B1
:1021C00069616C697A6520454550524F4D003F006A
:1021D000496E697469616C697A6520454550524F52
:1021E0004D0046696C616D656E740054656D706577
:1021F0007261747572650053746570732F6D6D0034
:102200004A65726B00416363656C65726174696FE6
:102210006E0056656C6F6369747900446576656C11
:102220006F706572204F7074696F6E7300536574C0
:1022300020486F6D65204F66667365747300436F49
:102240006E66696775726174696F6E004573746557
:1022500070732F6D6D004573746570732F6D6D0015
:102260005A73746570732F6D6D005A737465707353
:102270002F6D6D005973746570732F6D6D005973F8
:10228000746570732F6D6D005873746570732F6D66
:102290006D005873746570732F6D6D0041647661C5
:1022A0006E6365642053657474696E677300566568
:1022B0002D4A65726B0056652D4A65726B00567A21
:1022C0002D4A65726B00567A2D4A65726B005679FD
:1022D0002D4A65726B0056792D4A65726B005678EF
:1022E0002D4A65726B0056782D4A65726B00416409
:1022F00076616E6365642053657474696E677300FC
:10230000416D6178204500416D6178204500416D47
:102310006178205A00416D6178205A00416D6178E2
:10232000205900416D6178205900416D6178205835
:1023300000416D6178205800412D54726176656CC2
:1023400000412D54726176656C00412D52657472A6
:1023500061637400412D526574726163740041635E
:1023600063656C00416363656C00416476616E6314
:1023700065642053657474696E67730056547261A6
:1023800076204D696E005654726176204D696E005C
:10239000566D696E00566D696E00566D6178204508
:1023A00000566D6178204500566D6178205A0056C0
:1023B0006D6178205A00566D6178205900566D6124
:1023C00078205900566D6178205800566D6178204C
:1023D0005800416476616E63656420536574746966
:1023E0006E67730046616B652054656D7065726140
:1023F0007475726500486F6D696E67204665656427
:102400007261746500416476616E63656420536532
:102410007474696E6773004C6F61642053657474E3
:10242000696E67730053746F7265205365747469C5
:102430006E677300526573657420466565647261EA
:102440007465005A204665656472617465005A209F
:1024500046656564726174650059204665656472FD
:102460006174650059204665656472617465005841
:102470002046656564726174650058204665656430
:102480007261746500446576656C6F706572204F8B
:102490007074696F6E730042656400426564004544
:1024A0006E61626C652042656400456E61626C65B8
:1024B00020426564004E6F7A7A6C65004E6F7A7ABE
:1024C0006C6500456E61626C65204E6F7A7A6C6552
:1024D00000456E61626C65204E6F7A7A6C650044CF
:1024E0006576656C6F706572204F7074696F6E737E
:1024F00000504944204175746F74756E65005049F1
:1025000044204175746F74756E6500200220466129
:1025100063740020022046616374002002204D6134
:1025200078002002204D6178002002204D696E0065
:102530002002204D696E004175746F74656D7000E6
:102540004F6666004F6E004175746F74656D700064
:10255000416476616E6365642053657474696E6767
:1025600073004D33303320553120452569205325E4
:1025700069004C6F6164206D6D004C6F6164206D6B
:102580006D00556E6C6F6164206D6D00556E6C6FE3
:102590006164206D6D0046696C2E204469612E00D7
:1025A00046696C2E204469612E004520696E206DBD
:1025B0006D5E33004F6666004F6E004520696E20E9
:1025C0006D6D5E3300416476616E636564205365B2
:1025D0007474696E6773004D34323800436F6F6CEA
:1025E000646F776E00507265686561742041425374
:1025F000005072656865617420504C410046616E00
:102600002053706565640046616E20537065656493
:102610000042656400426564004E6F7A7A6C650022
:102620004E6F7A7A6C65004D61696E005072656814
:1026300065617420414253204265640050726568B0
:102640006561742041425320456E64005072656894
:10265000656174204142530054656D706572617408
:10266000757265005072656865617420504C412038
:10267000426564005072656865617420504C412069
:10268000456E64005072656865617420504C41006D
:1026900054656D7065726174757265004E6F204D82
:1026A00065646961005072696E742066726F6D2096
:1026B0004D65646961004368616E6765204D6564BE
:1026C0006961004D3231004368616E67652046697B
:1026D0006C616D656E74004368616E676520466964
:1026E0006C616D656E74004D3630302042300043B1
:1026F0006F6E66696775726174696F6E0054656D9F
:102700007065726174757265004D6F74696F6E00EB
:10271000526573756D65205072696E740054756EE4
:10272000650053746F70205072696E74005061754B
:102730007365205072696E7400496E666F20536332
:102740007265656E0053746F70004261636B005375
:10275000746F70205072696E74003F005761697425
:1027600020666F720066696C616D656E74207075AD
:10277000726765005761697420666F7220707269B4
:102780006E7400746F20726573756D652E2E2E0049
:10279000507265737320427574746F6E00746F208D
:1027A000726573756D65207072696E74005761692A
:1027B0007420666F720066696C616D656E74206C62
:1027C0006F616400496E736572742066696C616D37
:1027D000656E7400616E642070726573732062753B
:1027E00074746F6E00507265737320627574746FC9
:1027F0006E00746F2068656174206E6F7A7A6C6504
:10280000004E6F7A7A6C652068656174696E670046
:10281000506C6561736520776169742E2E2E0057A8
:1028200061697420666F720066696C616D656E74B3
:1028300020756E6C6F6164005761697420666F72F9
:102840000066696C616D656E74206368616E6765B2
:10285000005061726B696E672E2E2E005052494EE9
:10286000542050415553454400554E4C4F4144204F
:1028700046494C414D454E54004C4F414420464939
:102880004C414D454E540020204E6F7A7A6C653A8B
:1028900020002000436F6E74696E7565005075727C
:1028A0006765206D6F726500524553554D45204F49
:1028B0005054494F4E533A004368616E6765204655
:1028C000696C616D656E7400507265686561742035
:1028D000437573746F6D0050726568656174204351
:1028E0007573746F6D005072656865617420414244
:1028F00053005072656865617420504C410042611C
:10290000636B004D36303020423020542564004D3A
:10291000373032203B2564004D3730322054256457
:10292000004D37303120542564004D3234004D3293
:1029300035005072696E7420506175736564005083
:1029400061757365205072696E74005072696E749F
:102950002041626F72746564003344205072696E66
:102960007465722052656164792E005072696E74CC
:10297000696E672E2E2E005072696E74205061753C
:10298000736564004D656469612052656D6F76659D
:1029900064004D6564696120496E73657274656495
:1029A00000A10000006900A20000006300B0000068
:1029B000000900C10000004100C20000004100C346
:1029C0000000004100C40000004100C500000041BB
:1029D00000C60000004145C70000004300C80000D9
:1029E000004500C90000004500CD0000004900D1AD
:1029F0000000004E00D50000004F00D60000004F40
:102A000000D70000007800DC0000005500DD000069
:102A1000005900E00000006100E10000006100E2F8
:102A20000000006100E30000006100E400000061BC
:102A300000E50000006100E60000006165E70000BD
:102A4000006300E80000006500E90000006500EA9E
:102A50000000006500EB0000006500EC000000696C
:102A600000ED0000006900EE0000006900EF0000CA
:102A7000006900F10000006E00F20000006F00F33A
:102A80000000006F00F40000006F00F50000006F10
:102A900000F60000006F00F80000006F00F9000071
:102AA000007500FA0000007500FB0000007500FCD6
:102AB0000000007500FD0000007900FF00000079B3
:102AC0000004010000410005010000610006010052
:102AD0000043000701000063000C01000043000DEB
:102AE00001000063000E01000044000F01000064BB
:102AF000001101000064001901000065001F0100C1
:102B00000067003001000049003101000069004108
:102B10000100004C00420100006C00430100004E27
:102B200000440100006E00480100006E00590100E1
:102B30000072005A01000053005B01000073005F47
:102B40000100007300600100005300610100007388
:102B5000006501000074006F01000075007C010039
:102B6000007A007D0100005A007E0100007A009288
:102B70000100006600E302000078008403000027E3
:102B80000085030000270086030000410087030042
:102B9000002E008803000045008903000048008AD9
:102BA00003000049008C0300004F008E0300005911
:102BB000008F0300004F00900300006900910300A4
:102BC000004100920300004200930300005400946F
:102BD0000300003400950300004500960300005AEE
:102BE000009703000048009803000030009903009C
:102BF0000049009A0300004B009B0300005E009C0C
:102C00000300004D009D0300004E009E03000033B2
:102C1000009F0300004F00A00300006E00A103000E
:102C2000005000A30300004500A40300005400A5C9
:102C30000300005900A60300007000A7030000581D
:102C400000A80300005000A90300004F00AA0300E1
:102C5000004900AB0300005900AC0300006100AD67
:102C60000300006500AE0300006E00AF03000069C2
:102C700000B00300007600B10300006100B2030061
:102C8000004200B30300007600B40300006400B506
:102C90000300006500B60300005A00B70300006E91
:102CA00000B80300003000B90300006900BA030057
:102CB000006B00BB0300004C00BC0300007500BDAE
:102CC0000300007600BE0300006500BF0300006F34
:102CD00000C00300006E00C10300007000C20300CA
:102CE000006300C30300006F00C40300007400C54C
:102CF0000300007600C60300007000C70300005800
:102D000000C80300005700C90300007700CA030091
:102D1000006900CB0300007600CC0300006F00CDFB
:102D20000300007600CE0300007700010400004598
:102D300000100400004100110400006200120400B1
:102D40000042001304000054001404000051001558
:102D50000400004500160400002A00170400004586
:102D600000180400004E00190400004E001A040070
:102D7000004B001B04000054001C0400004D001D0B
:102D800004000048001E0400004F001F0400006EF5
:102D90000020040000500021040000430022040031
:102DA000005400230400005900240400006F002593
:102DB0000400005800260400005500270400007994
:102DC000002804000057002904000057002A0400CE
:102DD0000062002B040000627C2C04000062002DC5
:102DE00004000065002E0400007C4F2F0400003911
:102DF0007C30040000610031040000360032040021
:102E00000042003304000072003404000061003509
:102E10000400006500360400002A00370400006545
:102E2000003804000075003904000075003A040001
:102E3000006B003B0400006E003C0400006D003D90
:102E400004000048003E0400006F003F0400006ED4
:102E500000400400007000410400006300420400D0
:102E600000740043040000790044040000717045C0
:102E70000400007800460400007500470400007953
:102E8000004804000077004904000077004A04006D
:102E90000062004B040000627C4C04000062004DA4
:102EA00004000065004E0400007C6F4F04000067C2
:102EB00000510400006500222000002E001E2100A9
:102EC00000507822210000544D902100003C2D92AA
:102ED0002100002D3EB02100000300BB21000004B2
:102EE000003C2200007E00482200007E3D6022005F
:102EF00000213D612200003D00642200003C3D6550
:102F00002200003E3DF12300000700A03000003DFC
:102F10000021F301000200C2F401000500A200003C
:102F200000EC00B0000000DF00E4000000E100F66B
:102F3000000000EF00F7000000FD00FC000000F5BD
:102F400000E3020000EB0087030000A5008F0300F0
:102F500000F40098030000F2009E030000E300A3C9
:102F6000030000F600A9030000F400AC030000E039
:102F700000AD030000E300B1030000E000B2030075
:102F800000E200B5030000E300B8030000F200BC5B
:102F9000030000E400BE030000E300C0030000F7EC
:102FA00000C1030000E600C3030000E5009021001B
:102FB000007F00922100007E001A220000E8001E1F
:102FC000220000F30088250000FF0002300000A16D
:102FD000000C300000A2000D300000A3009B300068
:102FE00000DE009C300000DF00A03000003D00A1AA
:102FF000300000A700A2300000B100A3300000A8FC
:1030000000A4300000B200A5300000A900A63000E6
:1030100000B300A7300000AA00A8300000B400A947
:10302000300000AB00AA300000B500AB300000B6A5
:1030300000AC300000B6DEAD300000B700AE3000AE
:1030400000B7DEAF300000B800B0300000B8DEB12D
:10305000300000B900B2300000B9DEB3300000BA71
:1030600000B4300000BADEB5300000BB00B630005E
:1030700000BBDEB7300000BC00B8300000BCDEB9D9
:10308000300000BD00BA300000BDDEBB300000BE25
:1030900000BC300000BEDEBD300000BF00BE30000E
:1030A00000BFDEBF300000C000C0300000C0DEC185
:1030B000300000C100C2300000C1DEC3300000AFEC
:1030C00000C4300000C200C5300000C2DEC63000BF
:1030D00000C300C7300000C3DEC8300000C400C910
:1030E000300000C4DECA300000C500CB300000C68E
:1030F00000CC300000C700CD300000C800CE30004A
:1031000000C900CF300000CA00D0300000CADED1B4
:10311000300000CADFD2300000CB00D3300000CB3B
:10312000DED4300000CBDFD5300000CC00D630003C
:1031300000CCDED7300000CCDFD8300000CD00D985
:10314000300000CDDEDA300000CDDFDB300000CE15
:1031500000DC300000CEDEDD300000CEDFDE3000EF
:1031600000CF00DF300000D000E0300000D100E1EF
:10317000300000D200E2300000D300E3300000ACA9
:1031800000E4300000D400E5300000AD00E630007F
:1031900000D500E7300000AE00E8300000D600E9BE
:1031A000300000D700EA300000D800EB300000D932
:1031B00000EC300000DA00ED300000DB00EF300002
:1031C00000DC00F2300000A600F3300000DD00F467
:1031D000300000B3DEF7300000DCDEFA300000A67D
:1031E000DEFB300000A500FC300000B000FD300028
:1031F00000A400074E0000FB0086510000FC0043C5
:10320000530000FA0064FF0000A40065FF0000A561
:103210000066FF0000A60067FF0000A70068FF002F
:1032200000A80069FF0000A9006AFF0000AA006B67
:10323000FF0000AB006CFF0000AC006DFF0000ADB4
:10324000006EFF0000AE006FFF0000AF0070FF00D7
:1032500000B00071FF0000B10072FF0000B2007307
:10326000FF0000B30074FF0000B40075FF0000B55C
:103270000076FF0000B60077FF0000B70078FF007F
:1032800000B80079FF0000B9007AFF0000BA007BA7
:10329000FF0000BB007CFF0000BC007DFF0000BD04
:1032A000007EFF0000BE007FFF0000BF0080FF0027
:1032B00000C00081FF0000C10082FF0000C2008347
:1032C000FF0000C30084FF0000C40085FF0000C5AC
:1032D0000086FF0000C60087FF0000C70088FF00CF
:1032E00000C80089FF0000C9008AFF0000CA008BE7
:1032F000FF0000CB008CFF0000CC008DFF0000CD54
:10330000008EFF0000CE008FFF0000CF0090FF0076
:1033100000D00091FF0000D10092FF0000D2009386
:10332000FF0000D30094FF0000D40095FF0000D5FB
:103330000096FF0000D60097FF0000D70098FF001E
:1033400000D80099FF0000D9009AFF0000DA009B26
:10335000FF0000DB009CFF0000DC009DFF0000DDA3
:10336000009EFF0000DE009FFF0000DF00E5FF0081
:10337000005C00506C656173652052657365740074
:103380005052494E5445522048414C544544002D1A
:103390002D2D2D2D2D007C4D61726C696E7C002DC4
:1033A0002D2D2D2D2D00687474703A2F2F6D6172A4
:1033B0006C696E66772E6F726700687474703A2F4E
:1033C0002F6D61726C696E66772E6F72670068741C
:1033D00074703A2F2F6D61726C696E66772E6F7202
:1033E00067006275676669782D322E302E7800622C
:1033F00075676669782D322E302E780062756766A3
:1034000069782D322E302E780000687474703A2F4F
:103410002F6D61726C696E66772E6F7267006874CB
:1034200074703A2F2F6D61726C696E66772E6F72B1
:103430006700687474703A2F2F6D61726C696E66E4
:10344000772E6F726700206275676669782D322E5D
:10345000302E7800001C1F11111F000000061918E3
:1034600003130C00040E1F041C000000000E1315B3
:10347000110E00001C10181705060500040A0A0AA0
:103480000A11110E0C12120C00000000001F151181
:10349000151F000000000000010204040000001CD1
:1034A0001C0C0404040201000000000004081000C9
:1034B000000000002D2D2D0053440020202020006E
:1034C000202020202020200025753A25303275004C
:1034D000253032753A25303275005072657373208D
:1034E000627574746F6E20286F72204D31303829E8
:1034F00020746F2068656174206E6F7A7A6C650A3B
:1035000000507265737320627574746F6E20286F3B
:1035100072204D3130382920746F20726573756DBB
:10352000650A00496E736572742066696C616D6529
:103530006E7420616E64207072657373206275749E
:10354000746F6E20286F72204D313038290A004D7B
:103550003630303A20546F6F20436F6C6400486FF0
:1035600074656E6420746F6F20636F6C640A00482A
:103570006F74656E6420746F6F20636F6C640A00F3
:10358000496E736572742066696C616D656E742036
:10359000616E6420707265737320627574746F6EEF
:1035A00020286F72204D313038290A000A4D65619C
:1035B000737572656420706F696E74733A0A0045A2
:1035C0006E642066696C65206C6973740A004265DC
:1035D00067696E2066696C65206C6973740A0043C4
:1035E000757272656E742066696C653A200043617D
:1035F000703A004348414D4245525F54454D504555
:10360000524154555245004D4F54494F4E5F4D4F16
:1036100044455300544845524D414C5F50524F541D
:10362000454354494F4E004155544F5245504F5217
:10363000545F53445F5354415455530050524F4DBF
:1036400050545F535550504F525400454D455247CA
:10365000454E43595F5041525345520043415345F3
:103660005F4C494748545F4252494748544E45537E
:103670005300544F47474C455F4C4947485453000B
:10368000534F4654574152455F504F5745520042A1
:1036900055494C445F50455243454E54004C4556A5
:1036A000454C494E475F44415441005A5F50524F88
:1036B0004245004155544F4C4556454C00505249E7
:1036C0004E545F4A4F420050524F475245535300A9
:1036D0004155544F5245504F52545F54454D500040
:1036E000564F4C554D455452494300454550524F55
:1036F0004D0042494E4152595F46494C455F545234
:10370000414E534645520053455249414C5F584F34
:103710004E5F584F4646004649524D574152455F0D
:103720004E414D453A4D61726C696E206275676617
:1037300069782D322E302E7820284769746875629A
:103740002920534F555243455F434F44455F5552DF
:103750004C3A68747470733A2F2F67697468756295
:103760002E636F6D2F4D61726C696E4669726D7755
:103770006172652F4D61726C696E2050524F544FCB
:10378000434F4C5F56455253494F4E3A312E3020ED
:103790004D414348494E455F545950453A334420C2
:1037A0005072696E746572204558545255444552A2
:1037B0005F434F554E543A3120555549443A63655D
:1037C0006465326132662D343161322D34373438DC
:1037D0002D396231322D63353563363266333637F3
:1037E00066660A004D3131332053002F2F200049E7
:1037F0006E76616C69642065787472756465720AAE
:103800000020643A0020693A0020703A0043290AF7
:103810000061626C656420286D696E2074656D704E
:10382000200064697300656E00436F6C64206578E6
:1038300074727564657320617265200020450020F4
:103840005A00205900204D39322058005741524E1D
:10385000494E4721204C6F77205A204A65726B20D1
:103860006D6179206C65616420746F20756E77617D
:103870006E746564207061757365732E0A00205440
:1038800000205200416363656C65726174696F6EFC
:103890003A20500020466C6F773A200047322F477D
:1038A000332062616420706172616D65746572734A
:1038B0000A00536C6565702E2E2E004D65736820CE
:1038C000706F696E742063616E6E6F742062652024
:1038D0007265736F6C7665640A00206F6620004D18
:1038E000424C2047323920706F696E742000290ADB
:1038F000004A206F7574206F662072616E676520C4
:1039000028302D00290A0049206F7574206F662029
:1039100072616E67652028302D004D6573682070D8
:10392000726F62696E6720646F6E652E0A00537451
:10393000617274206D6573682070726F62696E6762
:10394000207769746820224732392053312220665B
:10395000697273742E0A004732380A47323920538D
:103960003200686173206E6F20646174612E0A00FA
:103970004D65736820426564204C6576656C696EA0
:1039800067200053206F7574206F662072616E6728
:10399000652028302D35292E0A00206E6F74206591
:1039A0006E74657265642E0A00473238004D657387
:1039B0006820706F696E742063616E6E6F74206230
:1039C00065207265736F6C7665640A004D34323120
:1039D00020696E636F727265637420706172616DCD
:1039E000657465722075736167650A004F46460A03
:1039F0000046616465204865696768742000426517
:103A000064204C6576656C696E6720004661696C60
:103A1000656420746F20656E61626C652042656428
:103A2000204C6576656C696E670A004D6573682089
:103A3000426564204C6576656C20646174613A0A65
:103A400000496E76616C6964206D6573682E0A00AA
:103A5000627573793A2070617573656420666F7260
:103A600020696E7075740A00627573793A2070610E
:103A70007573656420666F7220757365720A0062E3
:103A80007573793A2070726F63657373696E670A34
:103A90000020496E76616C69642065787472756483
:103AA00065722000446F6E6520736176696E6720D1
:103AB00066696C652E0A0053544F505045442E20C1
:103AC000005072696E7465722073746F70706564F3
:103AD0002064756520746F206572726F72732E207A
:103AE00046697820746865206572726F7220616E15
:103AF0006420757365204D39393920746F207265E3
:103B000073746172742E202854656D7065726174CF
:103B10007572652069732072657365742E20536514
:103B200074206974206166746572207265737461B3
:103B30007274696E67290A004E6F20436865636B73
:103B400073756D2077697468206C696E65206E7579
:103B50006D6265722C204C617374204C696E653AFD
:103B600020004E6F20436865636B73756D20776925
:103B70007468206C696E65206E756D6265722C20AC
:103B80004C617374204C696E653A2000636865630C
:103B90006B73756D206D69736D617463682C204C57
:103BA000617374204C696E653A20004C696E652023
:103BB0004E756D626572206973206E6F74204C6162
:103BC0007374204C696E65204E756D6265722B3181
:103BD0002C204C617374204C696E653A20004D3185
:103BE000313000526573656E643A20006F6B0022BD
:103BF0000A00656E7175657565696E6720220053F0
:103C0000442072656164206572726F720A00446FAD
:103C10006E65207072696E74696E672066696C6586
:103C20000A004D323900436C69636B20746F205277
:103C30006573756D652E2E2E004D31343520533C45
:103C4000696E6465783E206F7574206F66207261BE
:103C50006E67652028302D31290A004F666673652E
:103C60007473204170706C696564004572723A200B
:103C7000546F6F206661722100546F6F206661720D
:103C80002066726F6D207265666572656E63652071
:103C9000706F696E740A00454550524F4D204F4B6E
:103CA0000A00504944204175746F74756E65206632
:103CB00061696C6564212042616420657874727565
:103CC000646572206E756D6265720A0042656420DB
:103CD000436F6F6C696E672E2E2E0042656420481C
:103CE000656174696E672E2E2E006F6B00220A00CC
:103CF000556E6B6E6F776E20636F6D6D616E643A9B
:103D0000202200205A00205900580020204D6178C0
:103D10003A2000205A00205900580020204D696E9A
:103D20003A2000536F667420656E6473746F70730D
:103D30003A20003344205072696E746572204F46F9
:103D4000462E004E6F204D6F76652E004543484F3E
:103D500000494E464F004552524F5253004452596B
:103D600052554E00434F4D4D554E49434154494FD6
:103D70004E006F6666004C3D513D563D5D3D643DD5
:103D800044454255473A005072696E742074696D1B
:103D9000653A20002569730025696D202569730047
:103DA0002569682025696D202569730025696420CF
:103DB0002569682025696D202569730025697920AA
:103DC000256964202569682025696D2025697300AF
:103DD00050726F6265205A204F66667365743A2090
:103DE000003F5A206F7574206F662072616E6765A0
:103DF00020282D323020746F203230290A00205ABA
:103E00003A200020593A200042656420583A2000A8
:103E100082430B93BECB47D78D029B0275023B02B8
:103E20005D02BA4311241FBECFEFD1E2DEBFCDBF8A
:103E300000E00CBF13E0A0E0B2E0ECE4F1EA03E044
:103E40000BBF02C007900D92AA38B107D9F723E142
:103E5000AAE8B3E001C01D92A831B207E1F71FE163
:103E6000C1E1DFE100E006C021970109802FFE01DA
:103E70000F9470C6C830D10780E00807A9F70E94E8
:103E8000B82B0D9494D00C9400001F920F920FB693
:103E90000F9211242F933F938F939F93AF93BF93D0
:103EA00080918B0390918C03A0918D03B0918E0330
:103EB00030918A0323E0230F2D3768F126E8230F82
:103EC0000296A11DB11D20938A0380938B039093CA
:103ED0008C03A0938D03B0938E0380918F039091F8
:103EE0009003A0919103B09192030196A11DB11D81
:103EF00080938F0390939003A0939103B0939203C8
:103F0000BF91AF919F918F913F912F910F900FBED5
:103F10000F901F9018950196A11DB11DD4CF2FB7FA
:103F2000F89460918B0370918C0380918D03909134
:103F30008E032FBF08958F929F92AF92BF92CF9220
:103F4000DF92EF92FF924B015C019FB7F894C09013
:103F50008F03D0909003E0909103F090920386B588
:103F6000A89B07C08F3F29F02FEFC21AD20AE20A9E
:103F7000F20A9FBFFE2CED2CDC2CCC24C80ED11CE9
:103F8000E11CF11CCC0CDD1CEE1CFF1CCC0CDD1C60
:103F9000EE1CFF1C81149104A104B10409F43DC07E
:103FA000D9D33FB7F89480918F0390919003A0915B
:103FB0009103B091920326B5A89B05C02F3F19F03D
:103FC0000196A11DB11D3FBFBA2FA92F982F882799
:103FD000820F911DA11DB11D880F991FAA1FBB1F24
:103FE000880F991FAA1FBB1F8C199D09AE09BF0915
:103FF000883E9340A105B10598F281E0881A9108A6
:10400000A108B10828EEC20E23E0D21EE11CF11C6B
:1040100081149104A104B10421F6FF90EF90DF9088
:10402000CF90BF90AF909F908F9008958230910570
:1040300038F0880F991F880F991F05970197F1F79E
:104040000895789484B5826084BD84B5816084BD10
:1040500085B5826085BD85B5816085BDEEE6F0E001
:10406000808181608083E1E8F0E01082808182605D
:104070008083808181608083E0E8F0E080818160DE
:104080008083E1EBF0E0808184608083E0EBF0E00E
:10409000808181608083E1E9F0E0808182608083BB
:1040A000808181608083E0E9F0E0808181608083AD
:1040B000E1EAF0E08081826080838081816080839A
:1040C000E0EAF0E0808181608083E1E2F1E08081DC
:1040D00082608083808181608083E0E2F1E0808182
:1040E00081608083EAE7F0E0808184608083808162
:1040F000826080838081816080838081806880830A
:104100001092C10008951F93CF93DF93182FEB01F6
:1041100061E024D12097D1F0CF3FD10579F0E12F94
:10412000F0E0E557F94FE4918E2F90E0FC013197D4
:10413000E231F10528F0C038D10544F061E007C054
:104140008827EE58FF4F8F4F0D9470C660E0812F87
:10415000DF91CF911F9143C184B5806884BDC7BDF5
:10416000DF91CF911F91089584B5806284BDC8BD51
:10417000F7CF80918000806880938000D093890081
:10418000C0938800EDCF8091800080628093800092
:10419000D0938B00C0938A00E3CF80918000886029
:1041A00080938000D0938D00C0938C00D9CF8091F4
:1041B000B00080688093B000C093B300D1CF8091ED
:1041C000B00080628093B000C093B400C9CF8091EA
:1041D0009000806880939000D0939900C0939800DD
:1041E000BFCF80919000806280939000D0939B001D
:1041F000C0939A00B5CF8091900088608093900022
:10420000D0939D00C0939C00ABCF8091A0008068AC
:104210008093A0008091A0008F7B8093A000D0931A
:10422000A900C093A8009CCF8091A00080628093D9
:10423000A000D093AB00C093AA0092CF8091A000C1
:1042400088608093A000D093AD00C093AC0088CF6D
:1042500080912001806880932001D0932901C09330
:1042600028017ECF80912001806280932001D0932D
:104270002B01C0932A0174CF809120018860809324
:104280002001D0932D01C0932C016ACF90E0FC0156
:104290003197E231F10558F48827EC57FF4F8F4FE3
:1042A0000D9470C680912001877F8093200108952E
:1042B00084B58F7784BD089584B58F7D84BD0895BE
:1042C000809180008F778093800008958091800096
:1042D0008F7D80938000089580918000877F8093F8
:1042E000800008958091B0008F778093B00008958A
:1042F0008091B0008F7D8093B000089580919000F0
:104300008F77809390000895809190008F7D8093A7
:104310009000089580919000877F80939000089589
:104320008091A0008F778093A00008958091A000D5
:104330008F7D8093A00008958091A000877F809357
:10434000A0000895809120018F7780932001089527
:10435000809120018F7D809320010895CF93DF937A
:1043600090E0FC01EF52F94F2491FC01E95EF84F17
:1043700084918823B9F090E0880F991FFC01EF56D3
:10438000F84FA591B491FC01E958F84FC591D4912B
:10439000662359F06230B9F08FB7F894EC91E22BB4
:1043A000EC938FBFDF91CF9108959FB7F8948C91D4
:1043B000E22FE0958E238C932881E223E8839FBF30
:1043C000DF91CF9108959FB7F8948C91322F30955B
:1043D00083238C93E881E22BE8839FBFE3CF1F9375
:1043E000CF93DF93282F30E0F901E557F94F8491FF
:1043F000F901EF52F94F1491F901E95EF84FC491B8
:10440000CC23A9F0D62F81111BC0EC2FF0E0EE0FCA
:10441000FF1FE958F84FA591B4918FB7F894D111C7
:104420000AC09C91E12FE095E923EC938FBFDF91C7
:10443000CF911F910895EC91E12BEC938FBFF7CFB3
:1044400025DFE3CFCF93DF93282F30E0F901E55745
:10445000F94F8491F901EF52F94FD491F901E95ED6
:10446000F84FC491CC23B1F0811119C0EC2FF0E0CA
:10447000EE0FFF1FE35AF84FA591B491EC91ED2395
:1044800081E090E019F0DF91CF91089580E0DF9115
:10449000CF91089580E090E0DF91CF910895F6DE0E
:1044A000E5CF08951F920F920FB60F9211240BB60D
:1044B0000F922F933F934F935F936F937F938F93BD
:1044C0009F93AF93BF93EF93FF93E0910402F0911A
:1044D00005021995FF91EF91BF91AF919F918F9137
:1044E0007F916F915F914F913F912F910F900BBEF4
:1044F0000F900FBE0F901F9018951F920F920FB63E
:104500000F9211240BB60F922F933F934F935F930B
:104510006F937F938F939F93AF93BF93EF93FF938B
:10452000E0910602F09107021995FF91EF91BF917A
:10453000AF919F918F917F916F915F914F913F913B
:104540002F910F900BBE0F900FBE0F901F901895DC
:104550001F920F920FB60F9211240BB60F922F934A
:104560003F934F935F936F937F938F939F93AF93FB
:10457000BF93EF93FF93E0910802F0910902199520
:10458000FF91EF91BF91AF919F918F917F916F912B
:104590005F914F913F912F910F900BBE0F900FBEE7
:1045A0000F901F9018951F920F920FB60F92112423
:1045B0000BB60F922F933F934F935F936F937F931D
:1045C0008F939F93AF93BF93EF93FF93E0910A0272
:1045D000F0910B021995FF91EF91BF91AF919F91CF
:1045E0008F917F916F915F914F913F912F910F909C
:1045F0000BBE0F900FBE0F901F9018951F920F9239
:104600000FB60F9211240BB60F922F933F934F9337
:104610005F936F937F938F939F93AF93BF93EF932A
:10462000FF93E0910002F09101021995FF91EF9143
:10463000BF91AF919F918F917F916F915F914F91BA
:104640003F912F910F900BBE0F900FBE0F901F90B8
:1046500018951F920F920FB60F9211240BB60F925E
:104660002F933F934F935F936F937F938F939F937A
:10467000AF93BF93EF93FF93E0910202F091030297
:104680001995FF91EF91BF91AF919F918F917F917C
:104690006F915F914F913F912F910F900BBE0F90B3
:1046A0000FBE0F901F9018951F920F920FB60F928A
:1046B00011240BB60F922F933F934F935F936F93F9
:1046C0007F938F939F93AF93BF93EF93FF93E0916B
:1046D0000C02F0910D021995FF91EF91BF91AF91EE
:1046E0009F918F917F916F915F914F913F912F910A
:1046F0000F900BBE0F900FBE0F901F9018951F923A
:104700000F920FB60F9211240BB60F922F933F9377
:104710004F935F936F937F938F939F93AF93BF93C9
:10472000EF93FF93E0910E02F0910F021995FF9124
:10473000EF91BF91AF919F918F917F916F915F9119
:104740004F913F912F910F900BBE0F900FBE0F9086
:104750001F901895089580E090E008950895CF92F5
:10476000DF92EF92FF920F931F93CF93DF93411548
:10477000510509F16A018C017B01C0E0D0E004C061
:104780002196CC16DD0669F0D7016D917D01D80127
:10479000ED91FC910190F081E02DC8011995892BD4
:1047A00079F7CE01DF91CF911F910F91FF90EF909C
:1047B000DF90CF900895C0E0D0E0F3CF4F925F92AA
:1047C0006F927F928F929F92AF92BF92CF92DF9221
:1047D000EF92FF921F93CF93DF9300D000D0CDB71D
:1047E000DEB77E836D8349015A01909110028917CB
:1047F000C9F09F3F09F425C126960FB6F894DEBF95
:104800000FBECDBFDF91CF911F91FF90EF90DF9052
:10481000CF90BF90AF909F908F907F906F905F9060
:104820004F900895EBEAF7E0149117FDE5CF61E0B2
:1048300095DD11114FC38D819E812C01612C712C4E
:1048400060E072E18AE790E0A30192010F9454C600
:1048500029833A834B835C8369017A0191E0C91A09
:10486000D108E108F1082FEFC216D104E104F104E8
:1048700009F0C8F581E095B5987F892B85BD811435
:104880009104A104B10409F4A7C010E0AD81BE8178
:10489000AA0FBB1FA50194010F9487C628EE33E031
:1048A00040E050E00F9432C6123009F485C00CF499
:1048B0004AC0143009F4B1C00CF46CC0153009F0D2
:1048C0009BCFD0922901C092280120939603309368
:1048D00097034093980350939903809173008260EB
:1048E0008093730089CF60E472E48FE090E0A301CD
:1048F00092010F9454C669017A0181E0C81AD10867
:10490000E108F1089FEFC916D104E104F10409F0B0
:1049100008F495C068E478EE81E090E0A30192018C
:104920000F9454C669017A0181E0C81AD108E108E0
:10493000F1089FEFC916D104E104F10411F008F069
:1049400045C283E098CF112309F449C0113009F022
:1049500053CFD0928900C09288002093B203309345
:10496000B3034093B4035093B50380916F0082600A
:1049700080936F0041CF90919100987F892B809315
:10498000910081149104A104B10409F07FCF2FEFAD
:104990003FEFA901D0929900C09298002093A40300
:1049A0003093A5034093A6035093A7038091710011
:1049B00082608093710020CFC092B3002093AB033C
:1049C0003093AC034093AD035093AE0380917000DD
:1049D00082608093700010CF2FEF3FEFA901C7BC1A
:1049E0002093B9033093BA034093BB035093BC03A5
:1049F00080916E00826080936E00FECE9091A10047
:104A0000987F892B8093A10081149104A104B104A3
:104A100009F03CCF2FEF3FEFA901D092A900C0923F
:104A2000A80020939D0330939E0340939F035093CF
:104A3000A00380917200826080937200DDCE82E0DC
:104A40001ACF80931002EBEAF7E014911F3F09F4AC
:104A5000D3CE123009F4A2C008F471C0143009F4A6
:104A60002BC108F402C1153009F0DFCE10922001ED
:104A700010922101909121019860909321019091D1
:104A80002101916090932101282F30E0F901E95E26
:104A9000F84FE491F0E0EE0FFF1FE958F84F459111
:104AA00054915093950340939403F901EF52F94FB9
:104AB00024912093930315E061E050DC8D819E8169
:104AC0002C01612C712C60E072E18AE790E0A30177
:104AD00092010F9454C669017A0191E0C91AD10874
:104AE000E108F108C114D10421E0E206F10408F460
:104AF00053C068E478EE81E090E0A30192010F9446
:104B000054C669017A0181E0C81AD108E108F108A8
:104B100083E0113009F419C1133009F42CCF14309B
:104B200009F46CCF153009F46AC181149104A10411
:104B3000B10409F0ABCE2FEF3FEFA901B5CE1123A1
:104B400009F4E1C0113009F070CE1092800010928B
:104B500081009091810098609093810090918100F4
:104B6000916090938100282F30E0F901E95EF84FC1
:104B7000E491F0E0EE0FFF1FE958F84F4591549192
:104B80005093B1034093B003F901EF52F94F2491D0
:104B90002093AF0311E090CF81E0BBCF1092B00023
:104BA0001092B1009091B00092609093B0009091FB
:104BB000B10091609093B100282F30E0F901E95ED7
:104BC000F84FE491F0E0EE0FFF1FE958F84F4591E0
:104BD00054915093AA034093A903F901EF52F94F5E
:104BE00024912093A80361E0B9DB8D819E812C0183
:104BF000612C712C60E072E18AE790E0A3019201E0
:104C00000F9454C629833A834B835C8369017A01EC
:104C100091E0C91AD108E108F1082FEFC216D104BA
:104C2000E104F10409F008F4A0C060E472E48FE04C
:104C300090E0A30192010F9454C669017A0191E0BA
:104C4000C91AD108E108F1082FEFC216D104E10416
:104C5000F10411F008F08BC092E08091B100887FE0
:104C6000892B8093B10012E060CF109290001092D7
:104C70009100909191009860909391009091910093
:104C8000916090939100282F30E0F901E95EF84F90
:104C9000E491F0E0EE0FFF1FE958F84F4591549171
:104CA0005093A3034093A203F901EF52F94F2491CB
:104CB0002093A10313E000CF1092A0001092A10056
:104CC0009091A10098609093A1009091A1009160B3
:104CD0009093A100282F30E0F901E95EF84FE491AC
:104CE000F0E0EE0FFF1FE958F84F459154915093B3
:104CF0009C0340939B03F901EF52F94F24912093B9
:104D00009A0314E0D9CE14BC15BC94B5926094BD3E
:104D100095B5916095BD282F30E0F901E95EF84F17
:104D2000E491F0E0EE0FFF1FE958F84F45915491E0
:104D30005093B8034093B703F901EF52F94F249110
:104D40002093B60361E00ADB76CD90918100987FD5
:104D5000892B8093810081149104A104B10409F08E
:104D600095CD2FEF3FEFA901F4CD91E076CF60E92B
:104D700070ED83E090E0A30192010F9454C66901A5
:104D80007A0181E0C81AD108E108F1089FEFC9163D
:104D9000D104E104F10409F008F498C068E478EE65
:104DA00081E090E0A30192010F9454C669017A0159
:104DB00081E0C81AD108E108F1089FEFC916D104B3
:104DC000E104F10409F058F594E047CF62E17AE795
:104DD00080E090E0A30192010F9454C669017A012A
:104DE00081E0C81AD108E108F1089FEFC916D10483
:104DF000E104F10411F008F041C084E03CCD909151
:104E00002101987F892B8093210181149104A104B1
:104E1000B10409F03BCD2FEF3FEFA90152CD64E281
:104E200074EF80E090E0A30192010F9454C66901F1
:104E30007A0181E0C81AD108E108F1089FEFC9168C
:104E4000D104E104F10409F008F442C062E17AE718
:104E500080E090E0A30192010F9454C669017A01A9
:104E600081E0C81AD108E108F1089FEFC916D10402
:104E7000E104F10409F0B0F496E0EFCE89819A8163
:104E8000AB81BC813AE0B595A795979587953A9502
:104E9000D1F76C017D0121E0C21AD108E108F108C7
:104EA00085E0E9CC89819A81AB81BC812AE0B59506
:104EB000A795979587952A95D1F76C017D0121E0FB
:104EC000C21AD108E108F10897E0C7CE93E0C5CE39
:104ED00095E0C3CE123009F488CEF0CD1F920F9228
:104EE0000FB60F9211240BB60F922F933F934F934F
:104EF0005F936F937F938F939F93AF93BF93EF9342
:104F0000FF938091AB039091AC03A091AD03B0915E
:104F1000AE03892B8A2B8B2BE1F19091A803E091B2
:104F2000A903F091AA038081892780838091AB0334
:104F30009091AC03A091AD03B091AE031816190681
:104F40001A061B069CF48091AB039091AC03A091D0
:104F5000AD03B091AE030197A109B1098093AB03F2
:104F60009093AC03A093AD03B093AE03FF91EF9188
:104F7000BF91AF919F918F917F916F915F914F9171
:104F80003F912F910F900BBE0F900FBE0F901F906F
:104F9000189580911002EBEAF7E0E4919FEF90936F
:104FA0001002E23039F168F0E430F1F0B8F0E530A9
:104FB00029F4909173009D7F9093730060E00FDA65
:104FC000D5CFEE2341F0E130C9F790916F009D7F7E
:104FD00090936F00F3CF10926E00F0CF909171001C
:104FE0009D7F90937100EACF909172009D7F909386
:104FF0007200E4CF909170009D7F9093700091E0DB
:105000009093B0009091B100987F94609093B1001C
:105010001092B300D3CF8F929F92AF92BF92CF9254
:10502000DF92EF92FF920F931F93CF93DF938C0148
:10503000E62E61E0FC018481D2D9F80185818F3FA1
:1050400011F060E0CCD9F8018785F12C84FD72C0A5
:105050005701B594A794B594A794B594A794B59423
:10506000A7946801F7E0CF0ED11CE601812C912CAA
:10507000B501082C02C0759567950A94E2F7617036
:105080008991ADD98FEF881A980AE4E08E169104C1
:1050900079F760E0F8018681A2D981E090E00E9472
:1050A000162061E0F80186819AD981E090E00E94A3
:1050B000162060E0F801868192D984E690E00E9493
:1050C0001620C0E0D0E0B7010C2E02C075956795A0
:1050D0000A94E2F76170F60181916F0180D92196FF
:1050E000C430D10581F760E0F801868178D981E08C
:1050F00090E00E94162061E0F801868170D981E07D
:1051000090E00E94162060E0F801868168D984E66C
:1051100090E00E94162081E090E0DF91CF911F91F6
:105120000F91FF90EF90DF90CF90BF90AF909F9046
:105130008F9008956801F7E0CF0ED11CC0E0D0E059
:10514000B7010C2E02C0759567950A94E2F761705D
:10515000F60181916F0143D92196C830D10581F7BD
:10516000C2CF8F929F92AF92BF92CF92DF92EF9277
:10517000FF920F931F93CF93DF938C01E62E60E095
:10518000FC0184812CD9F80185818F3F11F060E00A
:1051900026D9F8018785F12C84FD6FC05701B5949D
:1051A000A794B594A794B594A794B594A7946801CF
:1051B000F7E0CF0ED11CE601812C912CB501082C13
:1051C00002C0759567950A94E2F76170899107D9D5
:1051D0008FEF881A980AE4E08E16910479F760E060
:1051E000F8018681FCD881E090E00E94162061E001
:1051F000F8018681F4D881E090E00E94162060E0FA
:10520000F8018681ECD884E690E00E941620C0E088
:10521000D0E0B7010C2E02C0759567950A94E2F7AD
:105220006170F60181916F01DAD82196C430D10501
:1052300081F760E0F8018681D2D881E090E00E9499
:10524000162061E0F8018681CAD881E090E00E94D2
:10525000162060E0F8018681C2D884E690E0DF91F4
:10526000CF911F910F91FF90EF90DF90CF90BF9063
:10527000AF909F908F900C9416206801F7E0CF0EAE
:10528000D11CC0E0D0E0B7010C2E02C07595679527
:105290000A94E2F76170F60181916F01A0D821961E
:1052A000C830D10581F7C5CFAF92BF92CF92DF92C0
:1052B000EF92FF920F931F93CF93DF93EC01423055
:1052C00018F08F8588608F874B8B1C8A80E48D8BCC
:1052D0006E8B70E0605C7F4F6F8B222319F0413042
:1052E00009F436C161E08C8139D88D818F3F11F08E
:1052F00061E034D861E08E8131D86E0187E0C80E5C
:10530000D11C760100E010E00CC084E090E00817AA
:1053100019077CF461E0F70181917F011FD80F5FCD
:105320001F4F8F8584FFF1CF88E090E008171907A1
:105330008CF380E593EC0E94162060E08C814FD8BE
:1053400060E08E814CD88D818F3F11F060E047D8AE
:105350006F8564FF32C06062CE0103DF84E991E1B2
:105360000E9416206F856062CE01FBDE86E990E028
:105370000E9416206F856062CE01F3DE6F85606249
:10538000CE01EFDE84E0888B6CE0CE01EADE61E0E6
:10539000CE01E7DE80ED97E00E94162082E0898B47
:1053A00066E0CE01DF91CF911F910F91FF90EF90BA
:1053B000DF90CF90BF90AF90D4CE760100E010E0A8
:1053C00033E0A32EB12CB501002E02C07595679570
:1053D0000A94E2F76170F70181917F0100D80F5FB5
:1053E0001F4F0430110579F760E08E810E94EF2194
:1053F00081E090E00E94162061E08E810E94EF2102
:1054000081E090E00E94162060E08E810E94EF21F2
:1054100084E690E00E94162084E991E10E94162023
:10542000760100E010E023E0A22EB12CB501002EA1
:1054300002C0759567950A94E2F76170F701819152
:105440007F010E94EF210F5F1F4F0430110571F79C
:1054500060E08E810E94EF2181E090E00E941620A2
:1054600061E08E810E94EF2181E090E00E94162091
:1054700060E08E810E94EF2184E690E00E94162079
:1054800084E991E10E941620760100E010E093E0AB
:10549000A92EB12CB501002E02C0759567950A940E
:1054A000E2F76170F70181917F010E94EF210F5FA8
:1054B0001F4F0430110571F760E08E810E94EF21CB
:1054C00081E090E00E94162061E08E810E94EF2131
:1054D00081E090E00E94162060E08E810E94EF2122
:1054E00084E690E00E94162086E990E00E94162053
:1054F00000E010E082E0E82EF12CB701002E02C09F
:10550000759567950A94E2F76170F60181916F01D4
:105510000E94EF210F5F1F4F0430110571F760E00B
:105520008E810E94EF2181E090E00E94162061E0D0
:105530008E810E94EF2181E090E00E94162060E0C1
:105540008E810E94EF2184E690E00E94162016CF03
:105550008F8584608F87C6CECF92EF920F93FC0128
:105560001382128288E093E09183808364838FEFBB
:105570008583468327830087E186C2861386148647
:1055800015861686178620E041E060E1CF010F9175
:10559000EF90CF9089CE61E0E4DD80ED97E00C9450
:1055A0001620FC01443008F043E08389481710F0CE
:1055B0004FEF480FDF01A40FB11D54969C91690F66
:1055C0006068CF01CECD4F925F926F927F928F92A3
:1055D0009F92AF92BF92CF92DF92EF92FF920F9382
:1055E0001F93CF93DF93EC018A016770660F660FFC
:1055F000660F6064B6DD4801280188E0480E511C42
:10560000E881F9810190F081E02DD401ED904D0108
:10561000B8E2EB30FB0709F0A3C061E08C810E9487
:10562000EF218D818F3F19F060E00E94EF218F857F
:10563000F12C84FD7BC03701759467947594679451
:1056400075946794759467946E01A7E0CA0ED11C97
:10565000560100E010E0B301002E02C07595679579
:105660000A94E2F76170F50181915F010E94EF21D8
:105670000F5F1F4F0430110571F760E08E810E94AB
:10568000EF2181E090E00E94162061E08E810E946F
:10569000EF2181E090E00E94162060E08E810E9460
:1056A000EF2184E690E00E94162000E010E0B701B0
:1056B000002E02C0759567950A94E2F76170D601D5
:1056C0008D916D010E94EF210F5F1F4F0430110576
:1056D00071F760E08E810E94EF2181E090E00E94EE
:1056E000162061E08E810E94EF2181E090E00E940F
:1056F000162060E08E810E94EF2184E690E00E94F7
:1057000016204814590409F07BCFDF91CF911F91E7
:105710000F91FF90EF90DF90CF90BF90AF909F9050
:105720008F907F906F905F904F9008958E01095FEA
:105730001F4FC12CD12CB7010C2C02C07595679559
:105740000A94E2F76170F80181918F010E94EF21C4
:10575000FFEFCF1ADF0A88E0C816D10461F7B9CF8E
:105760006E2DCE011995CDCF80E090E0089508957B
:105770000E942120FCDF0E9423D6C0E0D0E02097C9
:1057800019F40E9406D7FDCF0E9406D70E940000A0
:10579000F6CF4F925F926F927F928F929F92AF92CD
:1057A000BF92CF92DF92EF92FF920F931F93CF930E
:1057B000DF93EC016A017B01280139018F89803177
:1057C00009F45DC0803291F080E0DF91CF911F91AC
:1057D0000F91FF90EF90DF90CF90BF90AF909F9090
:1057E0008F907F906F905F904F9008958B889C88EA
:1057F000AD88BE88DB01CA0147E0B695A7959795AD
:1058000087954A95D1F7880E991EAA1EBB1E409116
:10581000C4055091C5056091C6057091C7058416F1
:105820009506A606B70609F044C081E08093C1033F
:10583000E894C7F8DD24EE24FF24C601880F991FE1
:10584000880F991FFC01EC53FC4F40825182628209
:1058500073828A89823008F473C08D819E81AF8102
:10586000B885880E991EAA1EBB1E8092BD03909219
:10587000BE03A092BF03B092C00381E0A6CF8D2CDF
:105880009E2CAF2CBB248B899C89AD89BE89880E48
:10589000991EAA1EBB1E4091C4055091C50560917A
:1058A000C6057091C70584169506A606B70609F4C5
:1058B00049C08091C103811128C024EC33E0B501B7
:1058C000A4018091C2039091C3030E945B46882388
:1058D00009F47ACF8092C4059092C505A092C605BE
:1058E000B092C7058F8991E09093C103803109F090
:1058F0009FCFDD24EE24FF24C601880F991FFC01F1
:10590000EC53FC4F51824082A4CF24EC33E08091D1
:10591000C2039091C3030E941047882309F454CF17
:105920004091BD035091BE036091BF037091C003CD
:10593000411551056105710549F41092C103BDCFB0
:1059400081E043CF81E08093C103D3CF24EC33E0E7
:105950008091C2039091C3030E941047882309F4E9
:1059600033CF1092BD031092BE031092BF0310926A
:10597000C003E3CF2F923F924F925F926F927F923C
:105980008F929F92AF92BF92CF92DF92EF92FF924F
:105990000F931F93CF93DF93CDB7DEB72F970FB63B
:1059A000F894DEBF0FBECDBF9A838983DC011996C0
:1059B0008D909D90AD90BC901C97D501C40101962F
:1059C000A11DB11D8D839E83AF83B887F901C0806F
:1059D000D180E280F380C114D104E104F10409F420
:1059E0001EC1FFEFCF1ADF0AEF0AFF0A1D868928C2
:1059F0008A288B2881F1190149875A876B877C8710
:105A000026013701812C912C540109811A811F87AD
:105A10000E872D813E814F8158852C153D054E0501
:105A20005F0550F412E0C12ED12CE12CF12C02E0E4
:105A3000402E512C612C712C8C159D05AE05BF0597
:105A400050F0AE85BF8557968C915797803109F4F9
:105A500090C08032D9F0B12C8B2D2F960FB6F894D0
:105A6000DEBF0FBECDBFDF91CF911F910F91FF9091
:105A7000EF90DF90CF90BF90AF909F908F907F90EE
:105A80006F905F904F903F902F90089553964D9157
:105A90005D916D917C915697D701C601E7E0B6956F
:105AA000A79597958795EA95D1F78C019D01040FED
:105AB000151F261F371F09831A832B833C834091B0
:105AC000C4055091C5056091C6057091C705401782
:105AD00051076207730709F07BC0D701C6018F77B2
