:100000000C945E1B0C949E1E0C94C91E0C94F41E42
:100010000C941F1F0C944A1F0C94751F0C94A01F66
:100020000C94CB1F0C948F1B0C948F1B0C948F1B68
:100030000C948F1B0C942A200C948F1B0C948F1BF8
:100040000C948F1B0C94A3560C948F1B0C948F1B39
:100050000C948F1B0C948F1B0C94509E0C94911B32
:100060000C948F1B0C94744F0C949F4F0C948F1B0B
:100070000C948F1B0C948F1B0C948F1B0C948F1B58
:100080000C948F1B0C948F1B0C948F1B0C948F1B48
:100090000C948F1B0C948F1B0C948F1B0C948F1B38
:1000A0000C948F1B0C948F1B0C948F1B0C948F1B28
:1000B0000C948F1B0C948F1B0C948F1B0C948F1B18
:1000C0000C948F1B0C948F1B0C948F1B0C948F1B08
:1000D0000C948F1B0C948F1B0C948F1B0C948F1BF8
:1000E0000C948F1BF81C001D051D0F1D191DE71C0E
:1000F000231D2B1D331D3D1D471D511D601D6A1DF8
:10010000E71C741D7E1D881DA41DA81DAC1DB21DFD
:10011000B81DA31DBE1DC41DCA1DD01DD61DDC1DCE
:10012000E21DE81DA31DEE1DF41D9E1D35023502C6
:10013000E301E301EB01D301D301D301D301D301E7
:10014000D301D301D301D301D301D301D301D3010F
:10015000D301D301D301E701D301D301D301D301EB
:10016000D301D3011F02E901D301D301D301D3018C
:10017000D301D301D301D301D301D301D301D301DF
:100180003702D301D301D301D301D301D301D3016A
:10019000D301D301D301D301D301D301D301D301BF
:1001A000D301D301D301D301D301D301D301D301AF
:1001B000D301D301D301D301D301D301D301D3019F
:1001C000D301D301D301D301D301D301D301D3018F
:1001D000D301D301D301D301D301D301D301D3017F
:1001E0001D0227020F02E101E101FF01FF012D02C3
:1001F0002B022B022B022B022B022B022B022B0297
:100200002B022B022B022B022B022B022B022B0286
:10021000E5012B022B022B022B022B022B021102D7
:1002200015022B022B022B022B022B022B022B027C
:100230002B022B022B022B022B02DF012B022B02A3
:100240002B022B022B022B022B022B022B022B0246
:100250002B022B022B022B022B022B022B022B0236
:100260002B022B022B022B022B022B022B022B0226
:100270002B022B022B022B022B022B022B022B0216
:100280002B022B022B022B022B022B022B022B0206
:100290002B022B022B022B022B02FD011702ED0178
:1002A00031023102230223020B0229022902290210
:1002B00029022902290229022902290229022902E6
:1002C00029022902290229022902FB012902290205
:1002D000290229022902290219022F0229022902D0
:1002E00029022902290229022902290229022902B6
:1002F00029022902050229022902290229022902CA
:100300002902290229022902290229022902290295
:100310002902290229022902290229022902290285
:100320002902290229022902290229022902290275
:100330002902290229022902290229022902290265
:100340002902290229022902290229022902290255
:1003500029022902F1010702EF01084AD73B3BCEEF
:10036000016E84BCBFFDC12F3D6C74319ABD5683B4
:100370003DDA3D00C77F11BED9E4BB4C3E916BAA6C
:10038000AABE000000803F05A84CCDB2D44EB938BB
:1003900036A9020C50B9918688083CA6AAAA2ABEA2
:1003A000000000803F000D9455540D94DC050D9421
:1003B0005F230D9422060D9418070D9406060D94E4
:1003C000F2570D940A580D9473550D94EC560D94F4
:1003D00059540D9466550D9470550D94F8570D941D
:1003E000DB5A0D94E15A0D94CE230D94811C0D948B
:1003F00001620D9404010D947B590D94EF570D94F7
:1004000002580D94720F0D9469030D94E45A0D94E3
:10041000DE5A0D94B1010D94EE5A0D9441000D94E5
:1004200069550D94FB570D9488030D94F5570D9461
:10043000EB570D94EA5A0D944D0E0D9460550D94A2
:100440006C550D947E1C0D94F15A0D94790F0D94FA
:100450005C550D9477590D94E8560D94FF570D9403
:10046000E75A0D94F95A0D946B1C0D947B550D941D
:1004700063554E414E494E495459494E46CDCCCC18
:100480003D0AD7233C17B7D13877CC2B329595E668
:10049000241FB14F0A000020410000C84200401C48
:1004A0004620BCBE4CCA1B0E5AAEC59D7400000A45
:1004B0000B02090C0D0E08070304010000000000E8
:1004C000000000000000000000000000000000002C
:1004D00000000000000000000012111000000000E9
:1004E000000000000000000000000000000000000C
:1004F00000000001021020200808102040102040B9
:1005000080020102010804020101020408102040D7
:1005100080804020100804020180040201804020F5
:10052000100804020108040201010204081020401E
:100530008001020408102040800505050507050814
:10054000080808020202020A0A0808040404040156
:100550000101010101010103030303030303030478
:100560000707070C0C0C0C0C0C0C0C020202020608
:10057000060606060606060B0B0B0B0B0B0B0B00F9
:100580000020002300260029002C002F003200004C
:1005900001000003010601090100002200250028D6
:1005A000002B002E0031003400020100000501087C
:1005B000010B0100002100240027002A002D00303B
:1005C00000330001010000040107010A01024D335C
:1005D000310043616E6E6F7420656E7465722073B6
:1005E00075626469723A20002E0A006F70656E2091
:1005F0006661696C65642C2046696C653A2000610F
:1006000075746F25632E67006572726F7220777242
:100610006974696E6720746F2066696C650A004EA4
:100620006F74205344207072696E74696E670A009B
:100630005344207072696E74696E672062797465C4
:1006400020002E0A0044656C6574696F6E20666137
:10065000696C65642C2046696C653A200046696CBB
:10066000652064656C657465643A005772697469E5
:100670006E6720746F2066696C653A20002E0A0050
:100680006F70656E206661696C65642C2046696CCC
:10069000653A20002E0A006F70656E206661696CF5
:1006A00065642C2046696C653A200046696C6520BB
:1006B00073656C65637465640A002053697A653AF2
:1006C000200046696C65206F70656E65643A200095
:1006D0002066696C653A2000667265736800646F15
:1006E000696E67004E6F772000454E442053554297
:1006F000524F5554494E450A002220706F73002214
:1007000020706172656E743A2200535542524F5503
:1007100054494E452043414C4C20746172676574C6
:100720003A2200747279696E6720746F2063616C7D
:100730006C207375622D67636F64652066696C65F4
:1007400073207769746820746F6F206D616E7920F3
:100750006C6576656C732E204D4158206C6576650E
:100760006C2069733A310A004D3234004D32332027
:1007700025730053442063617264206F6B0A006F1D
:1007800070656E526F6F74206661696C65640A00F3
:10079000766F6C756D652E696E6974206661696C23
:1007A00065640A00534420696E6974206661696C4F
:1007B0000A00286E6F2066696C65290043616E6EC1
:1007C0006F74206F70656E207375626469722000AB
:1007D0007C3C3E5E2B3D3F2F5B5D3B2C2A225C0028
:1007E0004F4646004F4E006563686F3A004572728F
:1007F0006F723A004572726F722077726974696E17
:100800006720746F20454550524F4D210A000A530E
:10081000746174733A2046696C616D656E742075FD
:100820007365643A20002C204C6F6E6765737420EA
:100830006A6F623A2000546F74616C2074696D6550
:100840003A200053746174733A20002C2046616989
:100850006C65643A20002C2046696E697368656493
:100860003A20005072696E74733A200053746174B8
:10087000733A20002569730025696D20256973008E
:100880002569682025696D20256973002569642024
:100890002569682025696D202569730025697920FF
:1008A000256964202569682025696D202569730004
:1008B000205A3A0020593A0020436F756E74205830
:1008C0003A00043700001E290000511B0000581098
:1008D000000010090000CC04000078020000410173
:1008E000000024F4D43050C38E20C2A24017828B63
:1008F0007011127A910D816CD90AA861E108C7586C
:100900006607615143061E4B5D05C145A7041A41A8
:100910001104093D9803713931034036DB02653318
:100920009102D4305402802E1D02632CEE01752AF0
:10093000C501B028A001102781018F2564012B2457
:100940004B01E0223401AC211F018D200D01801FDD
:10095000FC00841EED00971DDF00B81CD200E61BD2
:10096000C600201BBC00641AB200B219A8000A1904
:10097000A0006A189900D117910040178B00B51696
:10098000840031167E00B31579003A157300C71440
:100990006F0058146A00EE13660088136300251375
:1009A0005E00C7125B006C12570015125400C11193
:1009B000510070114F0021114B00D61049008D10CD
:1009C00047004610440002104200C00F4000800F54
:1009D0003E00420F3C00060F3B00CB0E3800930E4A
:1009E00037005C0E3500270E3400F30D3200C10DC8
:1009F0003100900D3000600D2E00320D2D00050DE0
:100A00002C00D90C2B00AE0C2900850C29005C0CA5
:100A10002700350C27000E0C2600E80B2400C40B21
:100A20002400A00B23007D0B23005A0B2100390B5F
:100A30002100180B2000F80A1F00D90A1E00BB0A6B
:100A40001E009D0A1D00800A1D00630A1C00470A43
:100A50001B002C0A1B00110A1A00F7091A00DD09F5
:100A60001900C4091900AB091900920917007B0984
:100A70001800630917004C091600360916002009F2
:100A800016000A091500F5081500E0081400CC0846
:100A90001400B8081400A4081400900813007D087E
:100AA00012006B08130058081200460812003408A0
:100AB0001100230811001208110001081100F007AD
:100AC0001000E0071000D0071000C0071000B007AA
:100AD0000F00A107100091070E0083070F00740795
:100AE0000F0065070E0057070E0049070E003B0771
:100AF0000D002E070E0020070D0013070D0006073E
:100B00000D00F9060C00ED060D00E0060C00D40601
:100B10000C00C8060C00BC060C00B0060C00A406B5
:100B20000B0099060C008D060B0082060B00770661
:100B30000B006C060B0061060A0057060B004C0602
:100B40000A0042060A0038060A002E060A00240699
:100B50000A001A060A001006090007060A00FD0529
:100B60000900F4050900EB050900E2050900D905B3
:100B70000900D0050900C7050900BE050900B50533
:100B80000800AD050800A50509009C0508009405AE
:100B900008008C050800840508007C050800740521
:100BA00008006C050700650508005D05070056058F
:100BB00008004E05070047050700400508003805F6
:100BC0000700310507002A050700230507001C055B
:100BD0000600160507000F050700080506000205B8
:100BE0000700FB040600F5040700EE040600E80415
:100BF0000600E2040700DB040600D5040600CF046B
:100C00000600C9040600C3040600BD040600B704BC
:100C10000600B1040500AC040600A6040600A0040A
:100C200005009B04060095040500900406008A0454
:100C3000050085040500800406007A04050075049B
:100C40000500700405006B040500660405006104DE
:100C500005005C04050057040500520405004D041E
:100C6000050048040500430405003E0404003A045E
:100C7000050035040500300404002C040500270499
:100C80000400230405001E0404001A0404001604D2
:100C90000500110404000D04040009040500040407
:100CA000040000040400FC030400F8030400F4033F
:100CB0000400F0030400EC030400E8030400E40370
:100CC0000400E0030400DC030400D8030400D403A0
:100CD0000400D0030400CC030400C8030300C503D0
:100CE000030024F404D9201BC40C5C0E9804C4092E
:100CF0005F0265077101F405F900FB04B3004804C5
:100D00008700C10369005803550003034500BE0274
:100D10003A008402310053022A002902250004020D
:100D20002000E4011C00C8011900AF011700980160
:100D300014008401130071011000610110005101C1
:100D40000E0043010D0036010B002B010B002001AA
:100D50000B00150109000C01090003010800FB004C
:100D60000800F3000800EB000700E4000600DE00C6
:100D70000600D8000600D2000600CC000500C7001F
:100D80000500C2000500BD000400B9000400B50064
:100D90000400B1000400AD000400A9000400A50097
:100DA0000300A20003009F0004009B0003009800C2
:100DB00003009500020093000300900003008D00E3
:100DC00002008B00030088000200860002008400FD
:100DD0000300810002007F0002007D0002007B0012
:100DE0000200790002007700010076000200740022
:100DF000020072000100710002006F0002006D002D
:100E000001006C0002006A00010069000200670036
:100E1000010066000100650001006400020062003C
:100E2000010061000100600001005F0002005D0040
:100E300001005C0001005B0001005A000100590044
:100E40000100580001005700010056000100550044
:100E50000100540001005300000053000100520043
:100E6000010051000100500001004F0001004E0040
:100E700000004E0001004D0001004C0001004B003D
:100E800000004B0001004A00010049000100480039
:100E90000000480001004700010046000000460035
:100EA000010045000000450001004400010043002E
:100EB0000000430001004200000042000100410028
:100EC000000041000100400001003F0000003F0021
:100ED00001003E0000003E0001003D0000003D001A
:100EE00001003C0000003C0000003C0001003B0011
:100EF00000003B0001003A0000003A000100390008
:100F000000003900010038000000380000003800FF
:100F100001003700000037000100360000003600F5
:100F200000003600010035000000350000003500EB
:100F300001003400000034000000340001003300E0
:100F400000003300000033000100320000003200D6
:100F500000003200010031000000310000003100CB
:100F600001003000000030000000300001002F00C0
:100F700000002F0000002F0000002F0001002E00B5
:100F800000002E0000002E0001002D0000002D00AA
:100F900000002D0000002D0001002C0000002C009E
:100FA00000002C0000002C0001002B0000002B0092
:100FB00000002B0000002B0001002A0000002A0086
:100FC00000002A0000002A0001002900000029007A
:100FD000000029000000290000002900010028006D
:100FE0000000280000002800000028000000280061
:100FF0000100270000002700000027000000270054
:101000000000270001002600000026000000260046
:101010000000260000002600010025000000250039
:10102000000025000000250000002500000025002C
:10103000010024000000240000002400000024001F
:101040000000240001002300000023000000230012
:101050000000230000002300000023000000230004
:1010600001002200000022000000220000002200F7
:1010700000002200000022000100210000002100E9
:1010800000002100000021000000210000002100DC
:1010900000002100010020000000200000002000CE
:1010A00000002000000020000000200000002000C0
:1010B0000000200001001F0000001F0000001F00B2
:1010C00000001F0000001F0000001F0000001F00A4
:1010D00001001E0000001E0000001E0000001E0097
:1010E0000000496E76616C6964206578747275647D
:1010F00065720A0020746F6F206C6F6E67206578D0
:1011000074727573696F6E2070726576656E746542
:10111000640A0020636F6C6420657874727573696B
:101120006F6E2070726576656E7465640A00576133
:10113000726E696E673A20486F6D696E67204275FE
:101140006D702044697669736F72203C20310A000B
:10115000020204486F6D6520257325732573206690
:1011600069727374002066697273740A00486F6D47
:1011700065200020746F6F206C6F6E672065787437
:10118000727573696F6E2070726576656E746564D2
:101190000A0020636F6C6420657874727573696FE0
:1011A0006E2070726576656E7465640A0020453A3B
:1011B00000205A3A0020593A00583A000000C8422C
:1011C0000000C84200008040FFFFFF0000A0400078
:1011D00000A0400000004000005C4300006C4300A1
:1011E00000AA4300000000000080C10000000000D1
:1011F000005C4300005C430000AA430000000000C4
:101200000080C10000000020573A0020573A0045F6
:1012100020436F6F6C696E672E2E2E004520486547
:101220006174696E672E2E2E00202F002042403AF6
:101230000020403A00546865726D616C2052756EF2
:101240006177617900453120544845524D414C2029
:1012500052554E4157415900424544205448455249
:101260004D414C2052554E4157415900202D2049A7
:101270006E76616C6964206578747275646572203D
:101280006E756D62657220210A0048656174696E31
:1012900067206661696C6564004265642068656109
:1012A00074696E67206661696C6564005468657274
:1012B0006D616C2052756E61776179004245442002
:1012C000544845524D414C2052554E4157415900CA
:1012D00048656174696E67206661696C6564004584
:1012E000312048656174696E67206661696C656468
:1012F00000546865726D616C2052756E617761791A
:1013000000453120544845524D414C2052554E41E4
:10131000574159004D494E54454D502074726967EC
:101320006765726564004531204572723A204D4907
:101330004E54454D50004572723A204D494E544529
:101340004D5020424544004D415854454D50207465
:101350007269676765726564004531204572723A4B
:10136000204D415854454D50004572723A204D4130
:101370005854454D502042454400626564002C207D
:1013800073797374656D2073746F70706564212058
:101390004865617465725F49443A20004B642000DF
:1013A0004B6920004B702000504944204175746FF8
:1013B00074756E652066696E697368656421205076
:1013C000757420746865206C617374204B702C20D8
:1013D0004B6920616E64204B6420636F6E7374618F
:1013E0006E74732066726F6D2062656C6F77206912
:1013F0006E746F20436F6E66696775726174696F92
:101400006E2E680A00504944204175746F74756EE1
:1014100065206661696C6564212074696D656F750E
:10142000740A00546865726D616C2052756E617744
:10143000617900453120544845524D414C20525568
:101440004E415741590042454420544845524D4170
:101450004C2052554E415741590048656174696EA0
:1014600067206661696C6564004531204865617478
:10147000696E67206661696C656400426564206816
:10148000656174696E67206661696C6564005049C6
:1014900044204175746F74756E65206661696C6572
:1014A00064212054656D7065726174757265207475
:1014B0006F6F20686967680A00204B643A2000203B
:1014C0004B693A2000204B703A20000A20436C619F
:1014D0007373696320504944200A002054753A20F0
:1014E00000204B753A2000206D61783A2000206D75
:1014F000696E3A200020643A200020626961733AE4
:101500002000504944204175746F74756E652073D6
:10151000746172740A00504944204175746F747587
:101520006E65206661696C6564212054656D706527
:1015300072617475726520746F6F20686967680ADC
:101540000023646566696E652044454641554C54E8
:101550005F004D383420582059205A204500100093
:10156000C90210012C014001220170011801B001D3
:101570000E01F00104015002FA00B002F000300345
:10158000E600D003DC009004D2007005C800A0067D
:10159000BE000008B400B009AA00D00BA000600E85
:1015A000960060118C000015820020197800C01D83
:1015B0006E00A0226400B0275A00902C5000003129
:1015C0004600E0343C0010383200903A2800603C7D
:1015D0001E00A03D1400803E0A00203F0000204471
:1015E0000020490020204D33303120500050494424
:1015F0002073657474696E67733A0A002046002090
:10160000420020480020204D3134352053004D61E8
:1016100074657269616C20686561747570207061B1
:1016200072616D65746572733A0A0020590020205A
:10163000473239205333205800205A0020204D349F
:1016400032302053004D65736820426564204C653C
:1016500076656C696E673A0A00205A0020590020AE
:10166000204D323036205800486F6D65206F666619
:101670007365743A0A00204500205A002059002062
:10168000580020540020530020204D323035204295
:101690000020453C6D61785F655F6A65726B3E0056
:1016A00020583C6D61785F785F6A65726B3E2059A7
:1016B0003C6D61785F795F6A65726B3E205A3C6D64
:1016C00061785F7A5F6A65726B3E00416476616E35
:1016D0006365643A20423C6D696E5F7365676D6552
:1016E0006E745F74696D655F75733E20533C6D6900
:1016F0006E5F66656564726174653E20543C6D6919
:101700006E5F74726176656C5F6665656472617444
:10171000653E0020540020520020204D32303420FD
:101720005000416363656C65726174696F6E202857
:10173000756E6974732F7332293A20503C70726948
:101740006E745F616363656C3E20523C72657472B7
:101750006163745F616363656C3E20543C747261C5
:1017600076656C5F616363656C3E0A00204500200E
:101770005A0020590020204D3230312058004D6150
:1017800078696D756D20416363656C65726174691C
:101790006F6E2028756E6974732F7332293A0A00B0
:1017A000204500205A0020590020204D323033209F
:1017B00058004D6178696D756D206665656472616C
:1017C0007465732028756E6974732F73293A0A0043
:1017D00053746570732070657220756E69743A0A6F
:1017E0000020204D3230302044300A0020204D327D
:1017F00030302044002044697361626C65640A00E3
:1018000046696C616D656E742073657474696E678A
:10181000733A0020204D3134392043203B20556E4F
:1018200069747320696E2043656C736975730A006F
:101830002020473231202020203B20556E697473D0
:1018400020696E206D6D0048617264636F64656429
:101850002044656661756C742053657474696E67A5
:1018600073204C6F616465640A00E8030000E803BC
:10187000000064000000102700000000C8430000C2
:10188000C8430000004100004842000048420000F8
:1018900048420000484300004842290A002062797B
:1018A0007465733B2063726320002073746F7265EC
:1018B000642073657474696E6773207265747269ED
:1018C00065766564202800202863616C63756C610F
:1018D00074656429210A0020213D200045455052AD
:1018E0004F4D20435243206D69736D6174636820CE
:1018F0002D202873746F7265642920002053697A43
:10190000653A2000496E6465783A2000204D617286
:101910006C696E3D563638290A00454550524F4D88
:101920002076657273696F6E206D69736D61746383
:10193000682028454550524F4D3D00290A0020623D
:10194000797465733B206372632000536574746916
:101950006E67732053746F7265642028004545508C
:10196000524F4D206461746173697A6520657272AB
:101970006F722E0A0020286D6D29006F70656E0051
:10198000545249474745524544003A20007A5F6D1A
:10199000696E00795F6D696E00785F6D696E0052E7
:1019A00065706F7274696E6720656E6473746F70B2
:1019B000207374617475730A00456E6473746F707C
:1019C0007320256320256320256320256300205A8A
:1019D0003A0020593A0020583A00656E6473746FDB
:1019E0007073206869743A2000486F6D696E6720D3
:1019F0006661696C65640047323858590020205090
:101A00006C616E6E65724275666665724279746568
:101A1000733A20002046726565204D656D6F7279BE
:101A20003A2000436F6D70696C65643A204A756CAA
:101A300020323820323031390A00207C2041757440
:101A4000686F723A20286E6F6E652C20646566613F
:101A5000756C7420636F6E666967290A00323031D5
:101A6000392D30372D313400204C6173742055707E
:101A700064617465643A20006275676669782D3226
:101A80002E302E780A004D61726C696E0020536F03
:101A90006674776172652052657365740A00205719
:101AA00061746368646F672052657365740A00200F
:101AB00042726F776E206F75742052657365740A79
:101AC000002045787465726E616C20526573657490
:101AD0000A00506F77657255700A007374617274F2
:101AE0000A004B494C4C45442E20005072696E74DC
:101AF00065722068616C7465642E206B696C6C285B
:101B0000292063616C6C6564210A004B494C4C20B0
:101B1000636175736564206279204B494C4C206287
:101B20007574746F6E2F70696E0A004B494C4C20AF
:101B300063617573656420627920746F6F206D75C1
:101B4000636820696E6163746976652074696D6588
:101B5000202D2063757272656E7420636F6D6D61E8
:101B60006E643A200050726F74656374656420502F
:101B7000696E0A00363726033C3D380E2E303E1281
:101B800024221E1A1C1808440AFF430809000153A6
:101B9000746F72652073657474696E6773004C6F3F
:101BA00061642073657474696E67730042656420B4
:101BB0005A00426564205A004661646520486569A0
:101BC00067687400466164652048656967687400E9
:101BD000426564204C6576656C696E67004F666689
:101BE000004F6E00426564204C6576656C696E67D7
:101BF0000045646974204D657368004C6576656CBA
:101C000020626564004D6F74696F6E005A205661E2
:101C10006C7565005A2056616C756500496E646587
:101C200078205900496E646578205900496E6465D2
:101C300078205800496E6465782058004265642019
:101C40004C6576656C696E670047323800436C6995
:101C5000636B20746F20426567696E0047323920DC
:101C6000533100473239205332004E65787420508A
:101C70006F696E74002569202F202575004D6F76E1
:101C800065205A00473239205332004C6576656C26
:101C9000696E6720446F6E652100486F6D696E67DD
:101CA0002058595A004D6F76696E672E2E2E0046C9
:101CB0006C6F7700466C6F770046616E20737065BD
:101CC00065640046616E20737065656400426564FA
:101CD00000426564004E6F7A7A6C65004E6F7A7AC6
:101CE0006C6500426564205A00426564205A0053C6
:101CF00070656564005370656564004D61696E00D0
:101D0000526573746F7265206661696C7361666594
:101D1000004C6F61642073657474696E677300535F
:101D2000746F72652073657474696E6773005072A6
:101D300065686561742041425320636F6E66005090
:101D400072656865617420504C4120636F6E660057
:101D5000416476616E6365642053657474696E676F
:101D600073004D61696E0053746F72652073657402
:101D700074696E67730042656400426564004E6F6B
:101D80007A7A6C65004E6F7A7A6C650046616E20D7
:101D900073706565640046616E20737065656400EC
:101DA000436F6E66696775726174696F6E0044692E
:101DB0007361626C65207374657070657273004D39
:101DC000383400426564204C6576656C696E670046
:101DD000486F6D65205A00473238205A00486F6DB1
:101DE00065205900473238205900486F6D652058EA
:101DF000004732382058004175746F20686F6D6558
:101E000000473238004D6F76652061786973004D68
:101E100061696E004578747275646572004D6F7605
:101E200065205A004D6F76652059004D6F7665200C
:101E300058004D6F74696F6E0045787472756465F3
:101E400072004D6F766520302E3032356D6D004D4D
:101E50006F766520302E316D6D004D6F76652031C7
:101E60006D6D004D6F76652031306D6D004D6F7674
:101E700065206178697300486F74656E6420746FC3
:101E80006F20636F6C6400457874727564657200CE
:101E90004D6F7665205A004D6F76652059004D6F65
:101EA00076652058004D6F7665205A004D6F766537
:101EB0002059004D6F7665205800496E69740043C3
:101EC000616E63656C00496E697469616C697A65FD
:101ED00020454550524F4D003F00496E697469617D
:101EE0006C697A6520454550524F4D0046696C61DA
:101EF0006D656E740054656D7065726174757265A0
:101F00000053746570732F6D6D004A65726B0041EC
:101F10006363656C65726174696F6E0056656C6FA2
:101F2000636974790053657420686F6D65206F660E
:101F3000667365747300436F6E666967757261746A
:101F4000696F6E004573746570732F6D6D00457316
:101F5000746570732F6D6D005A73746570732F6D97
:101F60006D005A73746570732F6D6D0059737465CD
:101F700070732F6D6D005973746570732F6D6D00E4
:101F80005873746570732F6D6D005873746570733A
:101F90002F6D6D00416476616E63656420536574D6
:101FA00074696E67730056652D6A65726B005665BD
:101FB0002D6A65726B00567A2D6A65726B00567ACF
:101FC0002D6A65726B0056792D6A65726B005679C1
:101FD0002D6A65726B0056782D6A65726B005678B3
:101FE0002D6A65726B00416476616E63656420538F
:101FF000657474696E677300416D617820450041B6
:102000006D6178204500416D6178205A00416D6115
:1020100078205A00416D6178205900416D61782027
:102020005900416D6178205800416D617820580059
:10203000412D74726176656C00412D747261766514
:102040006C00412D7265747261637400412D72657C
:10205000747261637400416363656C00416363651E
:102060006C00416476616E636564205365747469C5
:102070006E6773005654726176206D696E00565417
:10208000726176206D696E00566D696E00566D69DD
:102090006E00566D6178204500566D6178204500D0
:1020A000566D6178205A00566D6178205A00566D41
:1020B0006178205900566D6178205900566D61781D
:1020C000205800566D6178205800416476616E6337
:1020D00065642053657474696E677300200220463E
:1020E0006163740020022046616374002002204D69
:1020F0006178002002204D6178002002204D696E39
:10210000002002204D696E004175746F74656D701A
:10211000004F6666004F6E004175746F74656D7098
:1021200000416476616E6365642053657474696E02
:1021300067730046696C2E204469612E0046696C05
:102140002E204469612E004520696E206D6D5E333E
:10215000004F6666004F6E004520696E206D6D5E13
:102160003300416476616E636564205365747469FD
:102170006E6773004D34323800436F6F6C646F7755
:102180006E00507265686561742041425300507260
:10219000656865617420504C410046616E20737023
:1021A0006565640046616E20737065656400426514
:1021B0006400426564004E6F7A7A6C65004E6F7AF7
:1021C0007A6C65004D61696E005072656865617476
:1021D0002041425320426564005072656865617415
:1021E0002041425320456E640050726568656174F9
:1021F000204142530054656D70657261747572655B
:10220000005072656865617420504C4120426564DD
:10221000005072656865617420504C4120456E64C1
:10222000005072656865617420504C410054656DC2
:102230007065726174757265004E6F20534420633F
:10224000617264005072696E742066726F6D205303
:1022500044004368616E6765205344206361726483
:10226000004D323100436F6E666967757261746943
:102270006F6E0054656D7065726174757265004DA6
:102280006F74696F6E00526573756D652070726949
:102290006E740054756E650053746F7020707269AF
:1022A0006E74005061757365207072696E740049B8
:1022B0006E666F2073637265656E0053746F700095
:1022C0004261636B0053746F70207072696E7400AA
:1022D0003F005072696E742066726F6D2053440027
:1022E0005072696E742066726F6D20534400052E23
:1022F0002E004D61696E005072696E740043616E0C
:1023000063656C005374617274207072696E74201E
:10231000003F004D3234004D3235005072696E740A
:10232000207061757365640050617573652070720B
:10233000696E74005072696E742061626F727465A8
:1023400064003344205072696E7465722052656176
:1023500064792E005072696E74696E672E2E2E009D
:102360005072696E742070617573656400436172A8
:10237000642072656D6F76656400436172642069E4
:102380006E73657274656400A10000006900A200AC
:1023900000006300B00000000900C100000041001F
:1023A000C20000004100C30000004100C400000062
:1023B0004100C50000004100C60000004145C700C3
:1023C00000004300C80000004500C90000004500AF
:1023D000CD0000004900D10000004E00D5000000F3
:1023E0004F00D60000004F00D70000007800DC004E
:1023F00000005500DD0000005900E0000000610011
:10240000E10000006100E20000006100E300000064
:102410006100E40000006100E50000006100E600EA
:1024200000006165E70000006300E800000065004F
:10243000E90000006500EA0000006500EB00000014
:102440006500EC0000006900ED0000006900EE008E
:1024500000006900EF0000006900F10000006E005C
:10246000F20000006F00F30000006F00F4000000B5
:102470006F00F50000006F00F60000006F00F8002C
:1024800000006F00F90000007500FA000000750000
:10249000FB0000007500FC0000007500FD0000005E
:1024A0007900FF00000079000401000041000501EF
:1024B0000000610006010000430007010000630006
:1024C0000C01000043000D01000063000E0100003C
:1024D00044000F01000064001101000064001901B4
:1024E000000065001F010000670030010000490086
:1024F000310100006900410100004C004201000070
:102500006C00430100004E00440100006E004801D1
:1025100000006E005901000072005A0100005300D3
:102520005B01000073005F010000730060010000A8
:1025300053006101000073006501000074006F0129
:10254000000075007C0100007A007D0100005A0047
:102550007E0100007A00920100006600E3020000A4
:10256000780084030000270085030000270086030D
:1025700000004100870300002E0088030000450092
:102580008903000048008A03000049008C03000012
:102590004F008E03000059008F0300004F0090038E
:1025A0000000690091030000410092030000420016
:1025B00093030000540094030000340095030000CE
:1025C0004500960300005A00970300004800980356
:1025D000000030009903000049009A0300004B00FE
:1025E0009B0300005E009C0300004D009D03000063
:1025F0004E009E03000033009F0300004F00A00325
:1026000000006E00A10300005000A303000045007D
:10261000A40300005400A50300005900A603000015
:102620007000A70300005800A80300005000A90391
:1026300000004F00AA0300004900AB03000059004E
:10264000AC0300006100AD0300006500AE030000B4
:102650006E00AF0300006900B00300007600B10314
:1026600000006100B20300004200B30300007600E6
:10267000B40300006400B50300006500B603000069
:102680005A00B70300006E00B80300003000B90321
:1026900000006900BA0300006B00BB0300004C009F
:1026A000BC0300007500BD0300007600BE030000FF
:1026B0006500BF0300006F00C00300006E00C1038F
:1026C00000007000C20300006300C30300006F003D
:1026D000C40300007400C50300007600C6030000B8
:1026E0007000C70300005800C80300005700C9036A
:1026F00000007700CA0300006900CB0300007600E9
:10270000CC0300006F00CD0300007600CE03000074
:10271000770001040000450010040000410011048E
:102720000000620012040000420013040000540084
:1027300014040000510015040000450016040000B8
:102740002A00170400004500180400004E00190478
:1027500000004E001A0400004B001B04000054004F
:102760001C0400004D001D04000048001E04000071
:102770004F001F0400006E002004000050002104E0
:10278000000043002204000054002304000059000C
:10279000240400006F0025040000580026040000F7
:1027A0005500270400007900280400005700290480
:1027B000000057002A04000062002B040000627C25
:1027C0002C04000062002D04000065002E040000AF
:1027D0007C4F2F040000397C30040000610031047C
:1027E0000000360032040000420033040000720092
:1027F0003404000061003504000065003604000068
:102800002A00370400006500380400007500390410
:10281000000075003A0400006B003B0400006E00ED
:102820003C0400006D003D04000048003E04000030
:102830006F003F0400006E0040040000700041047F
:1028400000006300420400007400430400007900AB
:102850004404000071704504000078004604000044
:10286000750047040000790048040000770049041F
:10287000000077004A04000062004B040000627C04
:102880004C04000062004D04000065004E0400008E
:102890007C6F4F0400006700510400006500222097
:1028A00000002E001E210000507822210000544D0F
:1028B000902100003C2D922100002D3EB02100000F
:1028C0000300BB21000004003C2200007E004822DF
:1028D00000007E3D60220000213D612200003D009D
:1028E000642200003C3D652200003E3DF1230000D3
:1028F0000700A03000003D0021F301000200C2F4F7
:1029000001000500A2000000EC00B0000000DF00A4
:10291000E4000000E100F6000000EF00F700000016
:10292000FD00FC000000F500E3020000EB0087035F
:102930000000A5008F030000F40098030000F200DF
:102940009E030000E300A3030000F600A9030000BB
:10295000F400AC030000E000AD030000E300B103AD
:102960000000E000B2030000E200B5030000E30055
:10297000B8030000F200BC030000E400BE03000046
:10298000E300C0030000F700C1030000E600C3033A
:102990000000E500902100007F00922100007E00F1
:1029A0001A220000E8001E220000F3008825000023
:1029B000FF0002300000A1000C300000A2000D302A
:1029C0000000A3009B300000DE009C300000DF0010
:1029D000A03000003D00A1300000A700A2300000A0
:1029E000B100A3300000A800A4300000B200A53060
:1029F0000000A900A6300000B300A7300000AA0024
:102A0000A8300000B400A9300000AB00AA300000DC
:102A1000B500AB300000B600AC300000B6DEAD3023
:102A20000000B700AE300000B7DEAF300000B800E5
:102A3000B0300000B8DEB1300000B900B2300000A4
:102A4000B9DEB3300000BA00B4300000BADEB530F1
:102A50000000BB00B6300000BBDEB7300000BC0099
:102A6000B8300000BCDEB9300000BD00BA30000054
:102A7000BDDEBB300000BE00BC300000BEDEBD309D
:102A80000000BF00BE300000BFDEBF300000C0004D
:102A9000C0300000C0DEC1300000C100C230000004
:102AA000C1DEC3300000AF00C4300000C200C5303A
:102AB0000000C2DEC6300000C300C7300000C3DE25
:102AC000C8300000C400C9300000C4DECA300000B5
:102AD000C500CB300000C600CC300000C700CD30B0
:102AE0000000C800CE300000C900CF300000CA008E
:102AF000D0300000CADED1300000CADFD230000082
:102B0000CB00D3300000CBDED4300000CBDFD5309B
:102B10000000CC00D6300000CCDED7300000CCDF87
:102B2000D8300000CD00D9300000CDDEDA30000012
:102B3000CDDFDB300000CE00DC300000CEDEDD304B
:102B40000000CEDFDE300000CF00DF300000D0001C
:102B5000E0300000D100E1300000D200E23000009F
:102B6000D300E3300000AC00E4300000D400E530D6
:102B70000000AD00E6300000D500E7300000AE00F8
:102B8000E8300000D600E9300000D700EA3000004D
:102B9000D800EB300000D900EC300000DA00ED3056
:102BA0000000DB00EF300000DC00F2300000A60087
:102BB000F3300000DD00F4300000B3DEF730000039
:102BC000DCDEFA300000A6DEFB300000A500FC30A1
:102BD0000000B000FD300000A400074E0000FB0024
:102BE00086510000FC0043530000FA0064FF00001F
:102BF000A40065FF0000A50066FF0000A60067FFB7
:102C00000000A70068FF0000A80069FF0000A900FD
:102C10006AFF0000AA006BFF0000AB006CFF000021
:102C2000AC006DFF0000AD006EFF0000AE006FFF56
:102C30000000AF0070FF0000B00071FF0000B100A5
:102C400072FF0000B20073FF0000B30074FF0000C9
:102C5000B40075FF0000B50076FF0000B60077FFF6
:102C60000000B70078FF0000B80079FF0000B9004D
:102C70007AFF0000BA007BFF0000BB007CFF000071
:102C8000BC007DFF0000BD007EFF0000BE007FFF96
:102C90000000BF0080FF0000C00081FF0000C100F5
:102CA00082FF0000C20083FF0000C30084FF000019
:102CB000C40085FF0000C50086FF0000C60087FF36
:102CC0000000C70088FF0000C80089FF0000C9009D
:102CD0008AFF0000CA008BFF0000CB008CFF0000C1
:102CE000CC008DFF0000CD008EFF0000CE008FFFD6
:102CF0000000CF0090FF0000D00091FF0000D10045
:102D000092FF0000D20093FF0000D30094FF000068
:102D1000D40095FF0000D50096FF0000D60097FF75
:102D20000000D70098FF0000D80099FF0000D900EC
:102D30009AFF0000DA009BFF0000DB009CFF000010
:102D4000DC009DFF0000DD009EFF0000DE009FFF15
:102D50000000DF00E5FF00005C00506C65617365FA
:102D6000207265736574005052494E544552204894
:102D7000414C544544002D2D2D2D2D2D007C4D61B1
:102D8000726C696E7C002D2D2D2D2D2D00687474B4
:102D9000703A2F2F6D61726C696E66772E6F726755
:102DA00000687474703A2F2F6D61726C696E66776B
:102DB0002E6F726700687474703A2F2F6D61726C99
:102DC000696E66772E6F7267006275676669782D27
:102DD000322E302E78006275676669782D322E307B
:102DE0002E78006275676669782D322E302E780055
:102DF00000687474703A2F2F6D61726C696E66771B
:102E00002E6F726700687474703A2F2F6D61726C48
:102E1000696E66772E6F726700687474703A2F2F30
:102E20006D61726C696E66772E6F726700206275D5
:102E3000676669782D322E302E7800001C1F111124
:102E40001F00000006191803130C00040E1F041CB9
:102E5000000000000E1315110E00001C10181705BD
:102E6000060500040A0A0A0A11110E0C12120C00BF
:102E7000000000001F1511151F00000000000001D8
:102E80000204040000001C1C0C04040402010000E5
:102E900000000004081000000000002D2D2D00533C
:102EA0004400202020200020202020202020002559
:102EB000753A2530327500253032753A2530327535
:102EC000000A4D6561737572656420706F696E7478
:102ED000733A0A00456E642066696C65206C6973FC
:102EE000740A00426567696E2066696C65206C69CA
:102EF00073740A0043757272656E742066696C653E
:102F00003A20004361703A004348414D4245525FC8
:102F100054454D5045524154555245004D4F54492A
:102F20004F4E5F4D4F44455300544845524D414C20
:102F30005F50524F54454354494F4E004155544FF2
:102F40005245504F52545F53445F5354415455536C
:102F50000050524F4D50545F535550504F525400F3
:102F6000454D455247454E43595F50415253455296
:102F700000434153455F4C494748545F42524947DB
:102F800048544E45535300544F47474C455F4C49B6
:102F90004748545300534F4654574152455F504F92
:102FA000574552004255494C445F50455243454EA7
:102FB00054004C4556454C494E475F4441544100EE
:102FC0005A5F50524F4245004155544F4C4556456B
:102FD0004C005052494E545F4A4F420050524F47A6
:102FE00052455353004155544F5245504F52545F30
:102FF00054454D5000564F4C554D45545249430091
:10300000454550524F4D0042494E4152595F464945
:103010004C455F5452414E53464552005345524928
:10302000414C5F584F4E5F584F4646004649524DFF
:10303000574152455F4E414D453A4D61726C696E44
:10304000206275676669782D322E302E78202847E9
:1030500069746875622920534F555243455F434F49
:1030600044455F55524C3A68747470733A2F2F6719
:1030700069746875622E636F6D2F4D61726C696E35
:103080004669726D776172652F4D61726C696E2051
:1030900050524F544F434F4C5F56455253494F4E39
:1030A0003A312E30204D414348494E455F545950E6
:1030B000453A3344205072696E7465722045585405
:1030C00052554445525F434F554E543A3120555561
:1030D00049443A63656465326132662D3431613248
:1030E0002D343734382D396231322D63353563361E
:1030F000326633363766660A004D3131332053006D
:103100002F2F2000496E76616C6964206578747297
:10311000756465720A0020643A0020693A002070E4
:103120003A0043290A0061626C656420286D696E6B
:103130002074656D70200064697300656E00436FD4
:103140006C642065787472756465732061726520A3
:1031500000204500205A00205900204D39322058C7
:10316000005741524E494E4721204C6F77205A203C
:103170004A65726B206D6179206C65616420746FA3
:1031800020756E77616E7465642070617573657308
:103190002E0A00205400205200416363656C657262
:1031A0006174696F6E3A20500020466C6F773A2048
:1031B0000047322F47332062616420706172616D75
:1031C00065746572730A00536C6565702E2E2E004F
:1031D0004D65736820706F696E742063616E6E6FE9
:1031E00074206265207265736F6C7665640A0020D6
:1031F0006F6620004D424C2047323920706F696E57
:10320000742000290A004A206F7574206F662072AE
:10321000616E67652028302D00290A0049206F75EE
:1032200074206F662072616E67652028302D004D16
:103230006573682070726F62696E6720646F6E6577
:103240002E0A005374617274206D65736820707269
:103250006F62696E6720776974682022473239206F
:103260005331222066697273742E0A004732380A7D
:1032700047323920533200686173206E6F206461D9
:1032800074612E0A004D65736820426564204C65A8
:1032900076656C696E67200053206F7574206F66C9
:1032A0002072616E67652028302D35292E0A002096
:1032B0006E6F7420656E74657265642E0A00473205
:1032C00038004D65736820706F696E742063616E9D
:1032D0006E6F74206265207265736F6C7665640A28
:1032E000004D34323120696E636F727265637420F1
:1032F000706172616D657465722075736167650ACE
:10330000004F46460A004661646520486569676863
:10331000742000426564204C6576656C696E672098
:10332000004661696C656420746F20656E61626C33
:103330006520426564204C6576656C696E670A009D
:103340004D65736820426564204C6576656C206429
:103350006174613A0A00496E76616C6964206D653A
:1033600073682E0A00627573793A2070617573650F
:103370006420666F7220696E7075740A00627573DE
:10338000793A2070617573656420666F7220757379
:1033900065720A00627573793A2070726F636573A3
:1033A00073696E670A0020496E76616C69642065F6
:1033B000787472756465722000446F6E6520736165
:1033C00076696E672066696C652E0A0053544F500B
:1033D0005045442E20005072696E746572207374DB
:1033E0006F707065642064756520746F20657272FB
:1033F0006F72732E2046697820746865206572723A
:103400006F7220616E6420757365204D39393920E3
:10341000746F20726573746172742E202854656D08
:103420007065726174757265206973207265736569
:10343000742E20536574206974206166746572204F
:1034400072657374617274696E67290A004E6F2029
:10345000436865636B73756D2077697468206C6968
:103460006E65206E756D6265722C204C61737420E0
:103470004C696E653A20004E6F20436865636B733C
:10348000756D2077697468206C696E65206E756D46
:103490006265722C204C617374204C696E653A2011
:1034A00000636865636B73756D206D69736D61741E
:1034B00063682C204C617374204C696E653A20005F
:1034C0004C696E65204E756D626572206973206E61
:1034D0006F74204C617374204C696E65204E756D5D
:1034E0006265722B312C204C617374204C696E65BF
:1034F0003A20004D31313000526573656E643A20D8
:10350000006F6B00220A00656E7175657565696EE6
:103510006720220053442072656164206572726FD7
:10352000720A00446F6E65207072696E74696E670E
:103530002066696C650A004D323900436C69636B23
:1035400020746F20726573756D652E2E2E004D31BF
:10355000343520533C696E6465783E206F75742065
:103560006F662072616E67652028302D31290A0050
:103570004F666673657473206170706C6965640072
:103580004572723A20546F6F206661722100546F49
:103590006F206661722066726F6D2072656665725B
:1035A000656E636520706F696E740A004545505200
:1035B0004F4D204F4B0A00504944204175746F74A1
:1035C000756E65206661696C6564212042616420C6
:1035D0006578747275646572206E756D6265720AC5
:1035E0000042656420636F6F6C696E672E2E2E003B
:1035F0004265642068656174696E672E2E2E006FC7
:103600006B00220A00556E6B6E6F776E20636F6DD4
:103610006D616E643A202200205A00205900580043
:1036200020204D61783A2000205A0020590058008F
:1036300020204D696E3A2000536F667420656E64D9
:1036400073746F70733A20003344205072696E7443
:103650006572204F46462E004E6F206D6F76652EA8
:10366000004543484F00494E464F004552524F5285
:10367000530044525952554E00434F4D4D554E49FB
:10368000434154494F4E006F666600613666366BA3
:10369000367236793644454255473A005072696E63
:1036A000742074696D653A200000FE3BF689BCBD4C
:1036B00042C901023302F301F701363C11241FBE57
:1036C000CFEFD1E2DEBFCDBF00E00CBF13E0A0E042
:1036D000B2E0E4E4F9E103E00BBF02C007900D9211
:1036E000A838B107D9F722E1A8E8B3E001C01D92DC
:1036F000A03CB207E1F71BE1CDE5DBE100E006C04D
:1037000021970109802FFE010F94D184C535D1077F
:1037100080E00807A9F70E9434240D94918C0C9442
:1037200000001F920F920FB60F9211242F933F9318
:103730008F939F93AF93BF938091890390918A0356
:10374000A0918B03B0918C033091880323E0230F69
:103750002D3768F126E8230F0296A11DB11D209395
:1037600088038093890390938A03A0938B03B0937B
:103770008C0380918D0390918E03A0918F03B09163
:1037800090030196A11DB11D80938D0390938E032C
:10379000A0938F03B0939003BF91AF919F918F91AE
:1037A0003F912F910F900FBE0F901F90189501968B
:1037B000A11DB11DD4CF2FB7F894609189037091EA
:1037C0008A0380918B0390918C032FBF08958F9271
:1037D0009F92AF92BF92CF92DF92EF92FF924B01F6
:1037E0005C019FB7F894C0908D03D0908E03E09059
:1037F0008F03F090900386B5A89B07C08F3F29F0F8
:103800002FEFC21AD20AE20AF20A9FBFFE2CED2C59
:10381000DC2CCC24C80ED11CE11CF11CCC0CDD1C12
:10382000EE1CFF1CCC0CDD1CEE1CFF1C8114910453
:10383000A104B10409F43DC0D9D33FB7F8948091F5
:103840008D0390918E03A0918F03B091900326B5C4
:10385000A89B05C02F3F19F00196A11DB11D3FBFC8
:10386000BA2FA92F982F8827820F911DA11DB11D56
:10387000880F991FAA1FBB1F880F991FAA1FBB1F64
:103880008C199D09AE09BF09883E9340A105B10579
:1038900098F281E0881A9108A108B10828EEC20EBA
:1038A00023E0D21EE11CF11C81149104A104B10497
:1038B00021F6FF90EF90DF90CF90BF90AF909F9058
:1038C0008F9008958230910538F0880F991F880FE6
:1038D000991F05970197F1F70895789484B5826050
:1038E00084BD84B5816084BD85B5826085BD85B5A4
:1038F000816085BDEEE6F0E0808181608083E1E853
:10390000F0E010828081826080838081816080838A
:10391000E0E8F0E0808181608083E1EBF0E080818D
:1039200084608083E0EBF0E0808181608083E1E966
:10393000F0E0808182608083808181608083E0E923
:10394000F0E0808181608083E1EAF0E08081826044
:103950008083808181608083E0EAF0E08081816003
:103960008083E1E2F1E080818260808380818160F8
:103970008083E0E2F1E0808181608083EAE7F0E02B
:103980008081846080838081826080838081816087
:1039900080838081806880831092C10008951F9386
:1039A000CF93DF93182FEB0161E024D12097D1F062
:1039B000CF3FD10579F0E12FF0E0E355FB4FE491E3
:1039C0008E2F90E0FC013197E231F10528F0C038EC
:1039D000D10544F061E007C08827EE58FF4F8F4FB4
:1039E0000D94D18460E0812FDF91CF911F9143C16D
:1039F00084B5806884BDC7BDDF91CF911F910895C4
:103A000084B5806284BDC8BDF7CF80918000806896
:103A100080938000D0938900C0938800EDCF80917F
:103A20008000806280938000D0938B00C0938A00D6
:103A3000E3CF80918000886080938000D0938D00D8
:103A4000C0938C00D9CF8091B00080688093B00083
:103A5000C093B300D1CF8091B00080628093B0005A
:103A6000C093B400C9CF809190008068809390008B
:103A7000D0939900C0939800BFCF8091900080624E
:103A800080939000D0939B00C0939A00B5CF809113
:103A90009000886080939000D0939D00C0939C001C
:103AA000ABCF8091A00080688093A0008091A0009F
:103AB0008F7B8093A000D093A900C093A8009CCFD7
:103AC0008091A00080628093A000D093AB00C0934F
:103AD000AA0092CF8091A00088608093A000D0932C
:103AE000AD00C093AC0088CF8091200180688093A6
:103AF0002001D0932901C09328017ECF809120011D
:103B0000806280932001D0932B01C0932A0174CF4F
:103B100080912001886080932001D0932D01C09373
:103B20002C016ACF90E0FC013197E231F10558F4A5
:103B30008827EC57FF4F8F4F0D94D184809120013F
:103B4000877F80932001089584B58F7784BD089581
:103B500084B58F7D84BD0895809180008F77809398
:103B600080000895809180008F7D8093800008956B
:103B700080918000877F8093800008958091B000BD
:103B80008F778093B00008958091B0008F7D8093EF
:103B9000B0000895809190008F77809390000895F1
:103BA000809190008F7D8093900008958091900087
:103BB000877F8093900008958091A0008F778093F5
:103BC000A00008958091A0008F7D8093A0000895AB
:103BD0008091A000877F8093A000089580912001AC
:103BE0008F77809320010895809120018F7D8093AD
:103BF00020010895CF93DF9390E0FC01ED50FB4F3F
:103C00002491FC01E75CFA4F84918823B9F090E09D
:103C1000880F991FFC01ED54FA4FA591B491FC0156
:103C2000E756FA4FC591D491662359F06230B9F046
:103C30008FB7F894EC91E22BEC938FBFDF91CF918B
:103C400008959FB7F8948C91E22FE0958E238C9382
:103C50002881E223E8839FBFDF91CF9108959FB72A
:103C6000F8948C91322F309583238C93E881E22B4A
:103C7000E8839FBFE3CF1F93CF93DF93282F30E0DC
:103C8000F901E355FB4F8491F901ED50FB4F14917D
:103C9000F901E75CFA4FC491CC23A9F0D62F81112A
:103CA0001BC0EC2FF0E0EE0FFF1FE756FA4FA59177
:103CB000B4918FB7F894D1110AC09C91E12FE0958F
:103CC000E923EC938FBFDF91CF911F910895EC9181
:103CD000E12BEC938FBFF7CF25DFE3CFCF93DF93BB
:103CE000282F30E0F901E355FB4F8491F901ED50A5
:103CF000FB4FD491F901E75CFA4FC491CC23B1F0AA
:103D0000811119C0EC2FF0E0EE0FFF1FE158FA4FC0
:103D1000A591B491EC91ED2381E090E019F0DF9151
:103D2000CF91089580E0DF91CF91089580E090E0F9
:103D3000DF91CF910895F6DEE5CF08951F920F929F
:103D40000FB60F9211240BB60F922F933F934F9300
:103D50005F936F937F938F939F93AF93BF93EF93F3
:103D6000FF93E0910402F09105021995FF91EF9104
:103D7000BF91AF919F918F917F916F915F914F9183
:103D80003F912F910F900BBE0F900FBE0F901F9081
:103D900018951F920F920FB60F9211240BB60F9227
:103DA0002F933F934F935F936F937F938F939F9343
:103DB000AF93BF93EF93FF93E0910602F091070258
:103DC0001995FF91EF91BF91AF919F918F917F9145
:103DD0006F915F914F913F912F910F900BBE0F907C
:103DE0000FBE0F901F9018951F920F920FB60F9253
:103DF00011240BB60F922F933F934F935F936F93C2
:103E00007F938F939F93AF93BF93EF93FF93E09133
:103E10000802F09109021995FF91EF91BF91AF91BE
:103E20009F918F917F916F915F914F913F912F91D2
:103E30000F900BBE0F900FBE0F901F9018951F9202
:103E40000F920FB60F9211240BB60F922F933F9340
:103E50004F935F936F937F938F939F93AF93BF9392
:103E6000EF93FF93E0910A02F0910B021995FF91F5
:103E7000EF91BF91AF919F918F917F916F915F91E2
:103E80004F913F912F910F900BBE0F900FBE0F904F
:103E90001F9018951F920F920FB60F9211240BB618
:103EA0000F922F933F934F935F936F937F938F93D3
:103EB0009F93AF93BF93EF93FF93E0910002F09134
:103EC00001021995FF91EF91BF91AF919F918F9151
:103ED0007F916F915F914F913F912F910F900BBE0A
:103EE0000F900FBE0F901F9018951F920F920FB654
:103EF0000F9211240BB60F922F933F934F935F9322
:103F00006F937F938F939F93AF93BF93EF93FF93A1
:103F1000E0910202F09103021995FF91EF91BF9198
:103F2000AF919F918F917F916F915F914F913F9151
:103F30002F910F900BBE0F900FBE0F901F901895F2
:103F40001F920F920FB60F9211240BB60F922F9360
:103F50003F934F935F936F937F938F939F93AF9311
:103F6000BF93EF93FF93E0910C02F0910D0219952E
:103F7000FF91EF91BF91AF919F918F917F916F9141
:103F80005F914F913F912F910F900BBE0F900FBEFD
:103F90000F901F9018951F920F920FB60F92112439
:103FA0000BB60F922F933F934F935F936F937F9333
:103FB0008F939F93AF93BF93EF93FF93E0910E0284
:103FC000F0910F021995FF91EF91BF91AF919F91E1
:103FD0008F917F916F915F914F913F912F910F90B2
:103FE0000BBE0F900FBE0F901F901895089580E0A4
:103FF00090E008950895CF92DF92EF92FF920F9391
:104000001F93CF93DF934115510509F16A018C018C
:104010007B01C0E0D0E004C02196CC16DD0669F03B
:10402000D7016D917D01D801ED91FC910190F08156
:10403000E02DC8011995892B79F7CE01DF91CF9139
:104040001F910F91FF90EF90DF90CF900895C0E007
:10405000D0E0F3CF1F920F920FB60F9211240BB640
:104060000F922F933F934F935F936F937F938F9311
:104070009F93AF93BF93EF93FF938091940390919D
:104080009503A0919603B0919703892B8A2B8B2BD4
:10409000E1F190919103E0919203F091930380817B
:1040A000892780838091940390919503A091960332
:1040B000B0919703181619061A061B069CF48091F6
:1040C000940390919503A0919603B0919703019763
:1040D000A109B1098093940390939503A09396034B
:1040E000B0939703FF91EF91BF91AF919F918F9103
:1040F0007F916F915F914F913F912F910F900BBEE8
:104100000F900FBE0F901F90189580911002EDEC4C
:10411000F5E0E4919FEF90931002E23039F168F0FE
:10412000E430F1F0B8F0E53029F4909173009D7F10
:104130009093730060E09FDDD5CFEE2341F0E13036
:10414000C9F790916F009D7F90936F00F3CF10920D
:104150006E00F0CF909171009D7F90937100EACF37
:10416000909172009D7F90937200E4CF90917000C7
:104170009D7F9093700091E09093B0009091B1007A
:10418000987F94609093B1001092B300D3CF8F9238
:104190009F92AF92BF92CF92DF92EF92FF920F93D6
:1041A0001F93CF93DF938C01E62E61E0FC018481A5
:1041B00062DDF80185818F3F11F060E05CDDF80180
:1041C0008785F12C84FD6CC05701B594A794B594F4
:1041D000A794B594A794B594A7946801F7E0CF0E7F
:1041E000D11CE601812C912CB501082C02C07595DB
:1041F00067950A94E2F7617089913DDD8FEF881A27
:10420000980AE4E08E16910479F760E0F80186815F
:1042100032DD81E090E056DB61E0F80186812BDD44
:1042200081E090E04FDB60E0F801868124DD84E6E8
:1042300090E048DBC0E0D0E0B7010C2E02C07595DD
:1042400067950A94E2F76170F60181916F0113DDC1
:104250002196C430D10581F760E0F80186810BDD3D
:1042600081E090E02FDB61E0F801868104DD81E0F0
:1042700090E028DB60E0F8018681FDDC84E690E0D8
:1042800021DB81E090E0DF91CF911F910F91FF90B2
:10429000EF90DF90CF90BF90AF909F908F90089558
:1042A0006801F7E0CF0ED11CC0E0D0E0B7010C2EC2
:1042B00002C0759567950A94E2F76170F6018191E5
:1042C0006F01D9DC2196C830D10581F7C5CF8F9217
:1042D0009F92AF92BF92CF92DF92EF92FF920F9395
:1042E0001F93CF93DF938C01E62E60E0FC01848165
:1042F000C2DCF80185818F3F11F060E0BCDCF80181
:104300008785F12C84FD69C05701B594A794B594B5
:10431000A794B594A794B594A7946801F7E0CF0E3D
:10432000D11CE601812C912CB501082C02C0759599
:1043300067950A94E2F7617089919DDC8FEF881A86
:10434000980AE4E08E16910479F760E0F80186811E
:1043500092DC81E090E0B6DA61E0F80186818BDCE6
:1043600081E090E0AFDA60E0F801868184DC84E6E9
:1043700090E0A8DAC0E0D0E0B7010C2E02C075953D
:1043800067950A94E2F76170F60181916F0173DC21
:104390002196C430D10581F760E0F80186816BDC9D
:1043A00081E090E08FDA61E0F801868164DC81E0F1
:1043B00090E088DA60E0F80186815DDC84E690E0D8
:1043C000DF91CF911F910F91FF90EF90DF90CF90F1
:1043D000BF90AF909F908F9075CA6801F7E0CF0EA5
:1043E000D11CC0E0D0E0B7010C2E02C075956795D6
:1043F0000A94E2F76170F60181916F013CDC21962D
:10440000C830D10581F7C8CFAF92BF92CF92DF926B
:10441000EF92FF920F931F93CF93DF93EC01423003
:1044200018F08F8588608F874B8B1C8A80E48D8B7A
:104430006E8B70E0605C7F4F6F8B222319F04130F0
:1044400009F414C161E08C81D5DB8D818F3F11F0BF
:1044500061E0D0DB61E08E81CDDB6E0187E0C80ECC
:10446000D11C760100E010E00CC084E090E0081759
:1044700019077CF461E0F70181917F01BBDB0F5FDD
:104480001F4F8F8584FFF1CF88E090E00817190750
:104490008CF380E593EC16DA60E08C81ECDB60E075
:1044A0008E81E9DB8D818F3F11F060E0E4DB6F8569
:1044B00064FF2FC06062CE010ADF84E991E102DA75
:1044C0006F856062CE0103DF86E990E0FBD96F85DE
:1044D0006062CE01FCDE6F856062CE01F8DE84E0B2
:1044E000888B6CE0CE01F3DE61E0CE01F0DE80ED82
:1044F00097E0E8D982E0898B66E0CE01DF91CF9129
:104500001F910F91FF90EF90DF90CF90BF90AF90F1
:10451000DECE760100E010E033E0A32EB12CB50131
:10452000002E02C0759567950A94E2F76170F70155
:1045300081917F01A0DB0F5F1F4F0430110579F7D8
:1045400060E08E8198DB81E090E0BCD961E08E81F3
:1045500092DB81E090E0B6D960E08E818CDB84E66E
:1045600090E0B0D984E991E1ADD9760100E010E0A6
:1045700023E0A22EB12CB501002E02C075956795DF
:104580000A94E2F76170F70181917F0174DB0F5F9C
:104590001F4F0430110579F760E08E816CDB81E0FC
:1045A00090E090D961E08E8166DB81E090E08AD96D
:1045B00060E08E8160DB84E690E084D984E991E15B
:1045C00081D9760100E010E093E0A92EB12CB5016D
:1045D000002E02C0759567950A94E2F76170F701A5
:1045E00081917F0148DB0F5F1F4F0430110579F780
:1045F00060E08E8140DB81E090E064D961E08E81F3
:104600003ADB81E090E05ED960E08E8134DB84E6C5
:1046100090E058D986E990E055D900E010E082E0BA
:10462000E82EF12CB701002E02C0759567950A940B
:10463000E2F76170F60181916F011DDB0F5F1F4F83
:104640000430110579F760E08E8115DB81E090E0A0
:1046500039D961E08E810FDB81E090E033D960E0F1
:104660008E8109DB84E690E02DD935CF8F8584607B
:104670008F87E8CECF92EF920F93FC0113821282C4
:1046800089E093E09183808364838FEF8583468301
:1046900027830087E186C2861386148615861686D0
:1046A000178620E041E060E1CF010F91EF90CF90BD
:1046B000ABCE61E00CDE80ED97E004C9FC01443034
:1046C00008F043E08389481710F04FEF480FDF01EF
:1046D000A40FB11D54969C91690F6068CF01F7CD6E
:1046E0004F925F926F927F928F929F92AF92BF9202
:1046F000CF92DF92EF92FF920F931F93CF93DF93AE
:10470000EC018A016770660F660F660F6064DFDD7B
:104710004801280188E0480E511CE881F981019088
:10472000F081E02DD401ED904D01B0E2E73CFB07B4
:1047300009F092C061E08C819EDA8D818F3F11F08B
:1047400060E099DA8F85F12C84FD6DC03701759496
:1047500067947594679475946794759467946E01E3
:10476000A7E0CA0ED11C560100E010E0B301002EF4
:1047700002C0759567950A94E2F76170F501819121
:104780005F0179DA0F5F1F4F0430110579F760E0A0
:104790008E8171DA81E090E095D861E08E816BDAEC
:1047A00081E090E08FD860E08E8165DA84E690E069
:1047B00089D800E010E0B701002E02C0759567951A
:1047C0000A94E2F76170D6018D916D0154DA0F5FA2
:1047D0001F4F0430110579F760E08E814CDA81E0DB
:1047E00090E070D861E08E8146DA81E090E06AD88E
:1047F00060E08E8140DA84E690E064D84814590481
:1048000009F08BCFDF91CF911F910F91FF90EF9027
:10481000DF90CF90BF90AF909F908F907F906F90E0
:104820005F904F9008958E01095F1F4FC12CD12CCE
:10483000B7010C2C02C0759567950A94E2F7617078
:10484000F80181918F0117DAFFEFCF1ADF0A88E0B4
:10485000C816D10469F7C0CF6E2DCE011995CECF01
:1048600080E090E00895089538D8FDDF0E9417C8D1
:10487000C0E0D0E0209719F40E94F9C8FDCF0E9453
:10488000F9C80E940000F6CF4F925F926F927F921C
:104890008F929F92AF92BF92CF92DF92EF92FF9250
:1048A0000F931F93CF93DF93EC016A017B012801E3
:1048B00039018F89803109F45DC0803291F080E048
:1048C000DF91CF911F910F91FF90EF90DF90CF90EC
:1048D000BF90AF909F908F907F906F905F904F9020
:1048E00008958B889C88AD88BE88DB01CA0147E0AB
:1048F000B695A795979587954A95D1F7880E991EF5
:10490000AA1EBB1E40919F055091A0056091A10574
:104910007091A20584169506A606B70609F044C054
:1049200081E080939C03E894C7F8DD24EE24FF2403
:10493000C601880F991F880F991FFC01E156FC4F93
:1049400040825182628273828A89823008F473C005
:104950008D819E81AF81B885880E991EAA1EBB1ECF
:104960008092980390929903A0929A03B0929B032D
:1049700081E0A6CF8D2C9E2CAF2CBB248B899C89EB
:10498000AD89BE89880E991EAA1EBB1E40919F0547
:104990005091A0056091A1057091A205841695061D
:1049A000A606B70609F449C080919C03811128C06E
:1049B0002FE933E0B501A40180919D0390919E03FE
:1049C0000E94D73E882309F47ACF80929F05909267
:1049D000A005A092A105B092A2058F8991E09093C5
:1049E0009C03803109F09FCFDD24EE24FF24C60113
:1049F000880F991FFC01E156FC4F51824082A4CFE1
:104A00002FE933E080919D0390919E030E948C3F9B
:104A1000882309F454CF40919803509199036091F1
:104A20009A0370919B03411551056105710549F485
:104A300010929C03BDCF81E043CF81E080939C0323
:104A4000D3CF2FE933E080919D0390919E030E9484
:104A50008C3F882309F433CF109298031092990366
:104A600010929A0310929B03E3CF2F923F924F92A2
:104A70005F926F927F928F929F92AF92BF92CF92EE
:104A8000DF92EF92FF920F931F93CF93DF93CDB7F7
:104A9000DEB72F970FB6F894DEBF0FBECDBF9A8357
:104AA0008983DC0119968D909D90AD90BC901C97E8
:104AB000D501C4010196A11DB11D8D839E83AF83D5
:104AC000B887F901C080D180E280F380C114D1049D
:104AD000E104F10409F41EC1FFEFCF1ADF0AEF0A67
:104AE000FF0A1D8689288A288B2881F119014987A8
:104AF0005A876B877C8726013701812C912C5401C2
:104B000009811A811F870E872D813E814F8158852B
:104B10002C153D054E055F0550F412E0C12ED12C39
:104B2000E12CF12C02E0402E512C612C712C8C15C3
:104B30009D05AE05BF0550F0AE85BF8557968C919B
:104B40005797803109F490C08032D9F0B12C8B2D69
:104B50002F960FB6F894DEBF0FBECDBFDF91CF9179
:104B60001F910F91FF90EF90DF90CF90BF90AF908B
:104B70009F908F907F906F905F904F903F902F907D
:104B8000089553964D915D916D917C915697D70103
:104B9000C601E7E0B695A79597958795EA95D1F771
:104BA0008C019D01040F151F261F371F09831A83CF
:104BB0002B833C8340919F055091A0056091A105F6
:104BC0007091A205401751076207730709F07BC077
:104BD000D701C6018F779927AA27BB27880F991F6E
:104BE000880F991FFC01E156FC4F80819181A281C1
:104BF000B381BF70892B8A2B8B2BF1F026013701F3
:104C0000BFEF4B1A5B0A6B0A7B0A730162011FEF4D
:104C1000811A910AA10AB10AEE85FF8581859285E4
:104C2000A385B48588169906AA06BB0608F08ECF20
:104C30000196A11DB11D68CFD701C6010196A11D26
:104C4000B11DAC01BD0144195509660977090985F3
:104C50001A852B853C85041715072607370709F4A5
:104C600098C06C017D01D3CFFD01BB27AF2D9E2DD8
:104C70008D2D43895489658976898C019D01040FA6
:104C8000151F261F371F09831A832B833C834091EE
:104C90009F055091A0056091A1057091A205041790
:104CA00015072607370779F4D701C6019927AA27E0
:104CB000BB27880F991FFC01E156FC4F8081918131
:104CC000A0E0B0E097CF80919C03811133C02FE921
:104CD00033E049815A816B817C8180919D03909161
:104CE0009E030E94D73E882309F430CF29813A8160
:104CF0004B815C8120939F053093A0054093A105D3
:104D00005093A205AE85BF8557968C91803109F0EE
:104D10005FCFCACFE981FA81C080D180E280F38081
:104D2000F1E0FD87413051056105710509F4DACEE6
:104D30001D86D8CE2FE933E080919D0390919E038C
:104D40000E948C3F882309F401CF40919803509131
:104D5000990360919A0370919B0341155105610578
:104D6000710519F410929C03B2CF2FE933E08091C2
:104D70009D0390919E030E948C3F882309F4E6CE08
:104D8000109298031092990310929A0310929B0329
:104D9000E9CF0E851F851A83098312E0C116D1045D
:104DA000E104F10408F4D2CEE981FA81818592858B
:104DB000A385B4850196A11DB11D8C159D05AE0579
:104DC000BF0508F4C3CE0FEF1FEF2FEF3FE0B70191
:104DD000A601CF0159DDB82E882309F4B7CE4C14B3
:104DE0005D046E047F04D0F5F1E0CF1AD108E1082C
:104DF000F10802E0C016D104E104F10408F4A6CEE3
:104E0000E981FA8181859285A385B4850196A11DEA
:104E1000B11D8C159D05AE05BF0508F497CE970111
:104E200086010F5F1F4F2F4F3F4FB701A6018981AA
:104E30009A812ADD882309F489CE4C145D046E041E
:104E40007F0461F0F1E0CF1AD108E108F10801E038
:104E5000C016D104E104F10499F678CED1014D9148
:104E60005D916D917C914115510561057105E1F0F0
:104E7000423051056105710508F468CEE981FA8177
:104E800081859285A385B4850196A11DB11D8417E6
:104E90009507A607B70708F459CE93018201CF0101
:104EA000F3DC882309F452CEF10140825182628200
:104EB0007382FD85FF2309F44ACED301C201019616
:104EC000A11DB11DE981FA8180839183A283B383FF
:104ED0003ECECF9380919C03811104C0C1E08C2F02
:104EE000CF91089540919F055091A0056091A10533
:104EF0007091A2052FE933E080919D0390919E036C
:104F00000E948C3FC82F882329F14091980350912B
:104F1000990360919A0370919B03411551056105B6
:104F2000710529F410929C038C2FCF9108952FE9DD
:104F300033E080919D0390919E030E948C3F8823D3
:104F400049F0109298031092990310929A031092CC
:104F50009B03E8CFC0E08C2FCF910895CF92DF92D2
:104F6000EF92FF92CF936B017C01C42F40919F057C
:104F70005091A0056091A1057091A2054C155D05A9
:104F80006E057F05C1F080919C03811125C02FE93A
:104F900033E0B701A60180919D0390919E030E948A
:104FA000D73E882391F0C0929F05D092A005E09251
:104FB000A105F092A20581E0C11180939C03CF91DD
:104FC000FF90EF90DF90CF90089580E0CF91FF9019
:104FD000EF90DF90CF9008952FE933E080919D030B
:104FE00090919E030E948C3F882379F3409198030F
:104FF0005091990360919A0370919B03411551055B
:105000006105710519F410929C03C1CF2FE933E0BB
:1050100080919D0390919E030E948C3F8823A9F26A
:10502000109298031092990310929A0310929B0386
:10503000EACF2F923F924F925F926F927F928F9220
:105040009F92AF92BF92CF92DF92EF92FF920F9317
:105050001F93CF93DF93CDB7DEB728970FB6F894A1
:10506000DEBF0FBECDBF1C016A017B0138872F83D5
:10507000812C912C5401412CB2E05B2E612C712CBF
:10508000F10181859285A385B4850196A11DB11D8D
:105090008C159D05AE05BF0530F08789803109F478
:1050A00075C08032D1F080E028960FB6F894DEBF4C
:1050B0000FBECDBFDF91CF911F910F91FF90EF9069
:1050C000DF90CF90BF90AF909F908F907F906F9028
:1050D0005F904F903F902F90089543895489658940
:1050E0007689D701C601E7E0B695A795979587958C
:1050F000EA95D1F78C019D01040F151F261F371F5C
:1051000009831A832B833C8340919F055091A0050E
:105110006091A1057091A2050417150726073707AE
:1051200009F053C0E894C7F8DD24EE24FF24C6013B
:10513000880F991F880F991FFC01E156FC4FC08012
:10514000D180E280F3800FE0F022D301C201F101AF
:10515000058404C0880F991FAA1FBB1F0A94D2F7A9
:10516000880E991EAA1EBB1E81E0F8EFCF16FFEF36
:10517000DF06EF06FFE0FF0608F482CFAF81B885B7
:105180008D929D92AD92BC9213978ECFBB27AF2D7F
:105190009E2D8D2D43895489658976898C019D01C9
:1051A000040F151F261F371F09831A832B833C8387
:1051B00040919F055091A0056091A1057091A205B5
:1051C000041715072607370729F180919C038111E1
:1051D00047C02FE933E049815A816B817C818091FE
:1051E0009D0390919E030E94D73E882309F45BCFD4
:1051F00089819A81AB81BC8180939F059093A005A2
:10520000A093A105B093A205D10157968C9180314E
:1052100009F088CFDD24EE24FF24C601880F991FF2
:10522000FC01E156FC4FC080D180E12CF12CD30170
:10523000C201F101058404C0880F991FAA1FBB1F7A
:105240000A94D2F7880E991EAA1EBB1E81E0F8EFC1
:10525000CF16FFEFDF06E104F10408F08FCF10CF87
:105260002FE933E080919D0390919E030E948C3F33
:10527000882309F418CF40919803509199036091C5
:105280009A0370919B03411551056105710519F44D
:1052900010929C039ECF2FE933E080919D03909163
:1052A0009E030E948C3F882309F4FDCE1092980340
:1052B0001092990310929A0310929B03E9CF8F9258
:1052C0009F92AF92BF92CF92DF92EF92FF920F9395
:1052D0001F93CF93DF93E901FC010185128523859C
:1052E00034850F5F1F4F2F4F3F4F041715072607B9
:1052F000370740F06A017B018C018789803181F09A
:105300008032E1F180E0DF91CF911F910F91FF900A
:10531000EF90DF90CF90BF90AF909F908F900895C7
:10532000852E962EA72EBB2483899489A589B689BC
:10533000880E991EAA1EBB1E40919F055091A00584
:105340006091A1057091A20584169506A606B70680
:1053500009F045C0B701A601552766277727440FF6
:10536000551FFA01E156FC4F80819181A0E0B0E029
:1053700088839983AA83BB8381E0C5CF838894887F
:10538000A588B688DB01CA0127E0B695A795979551
:1053900087952A95D1F7880E991EAA1EBB1E4091AB
:1053A0009F055091A0056091A1057091A2058416FA
:1053B0009506A606B70699F4B701A6014F775527BB
:1053C00066277727440F551F440F551FFA01E156F2
:1053D000FC4F80819181A281B381BF70C9CF809140
:1053E0009C0381111AC02FE933E0B501A40180911B
:1053F0009D0390919E030E94D73E882309F482CF9B
:1054000080929F059092A005A092A105B092A2055E
:10541000F8018789803181F69DCF2FE933E08091B3
:105420009D0390919E030E948C3F882309F46ACFCC
:10543000409198035091990360919A0370919B0356
:10544000411551056105710519F410929C03CBCFEC
:105450002FE933E080919D0390919E030E948C3F41
:10546000882309F44FCF1092980310929903109259
:105470009A0310929B03E9CF2F923F924F925F9233
:105480006F927F928F929F92AF92BF92CF92DF9254
:10549000EF92FF920F931F93CF93DF9300D000D032
:1054A000CDB7DEB71C016A017B0182E090E0A0E08D
:1054B000B0E0F10180839183A283B383F101818500
:1054C0009285A385B4850196A11DB11D8C159D05FE
:1054D000AE05BF0530F02789203109F421C1203203
:1054E000D1F080E026960FB6F894DEBF0FBECDBF98
:1054F000DF91CF911F910F91FF90EF90DF90CF90B0
:10550000BF90AF909F908F907F906F905F904F90E3
:105510003F902F9008954388548865887688D701F6
:10552000C60107E0B695A795979587950A95D1F797
:10553000480E591E6A1E7B1E40919F055091A00582
:105540006091A1057091A20544165506660677067E
:1055500009F02DC1D701C6018F779927AA27BB274C
:10556000880F991F880F991FFC01E156FC4F80801E
:105570009180A280B380FFE0BF2232E0C316D10445
:10558000E104F10408F4ADCFF10181859285A38592
:10559000B4850196A11DB11D8C159D05AE05BF05F5
:1055A00008F49FCF203109F46FC0203209F099CF61
:1055B0004389548965897689D701C601E7E0B695A4
:1055C000A79597958795EA95D1F78C019D01040FD2
:1055D000151F261F371F09831A832B833C8304154D
:1055E00015052605370509F067C0E1E0E0939C0347
:1055F000E894C7F8DD24EE24FF24C601880F991F24
:10560000880F991FFC01E156FC4F10821182128213
:105610001382F10182898230A0F085819681A78171
:10562000B08509811A812B813C81800F911FA21FB7
:10563000B31F8093980390939903A0939A03B09318
:105640009B03D10157968C91803179F081E028EF4E
:1056500082162FEF9206A2062FE0B20670F07501B7
:105660006401882309F42ACF3DCF81E018EF811629
:105670001FEF9106A104B10490F780E07501640169
:10568000882309F41BCF2ECFBB27AF2D9E2D8D2D48
:1056900043895489658976898C019D01040F151F02
:1056A000261F371F09831A832B833C830415150596
:1056B0002605370509F49AC080919C03811159C0D1
:1056C0002FE933E049815A816B817C8180919D0370
:1056D00090919E030E94D73E882309F402CF29812E
:1056E0003A814B815C8120939F053093A0054093C4
:1056F000A1055093A205D10157968C91B1E0B093CA
:105700009C03803109F074CFDD24EE24FF24C60110
:10571000880F991FFC01E156FC4F1182108279CF4E
:105720004D2C5E2C6F2C772483899489A589B689AA
:10573000480E591E6A1E7B1E40919F055091A00580
:105740006091A1057091A20544165506660677067C
:1057500071F5D701C6019927AA27BB27880F991F82
:10576000FC01E156FC4F80809180A12CB12C20E1FE
:1057700004CF2FE933E0B301A20180919D03909102
:105780009E030E948C3F882309F4ABCE409198037E
:105790005091990360919A0370919B0341155105B3
:1057A0006105710509F041C010929C0389CF809179
:1057B0009C0381111FC02FE933E0B301A201809146
:1057C0009D0390919E030E94D73E882309F489CEC1
:1057D00040929F055092A0056092A1057092A2058B
:1057E000F1012789203109F0B5CEB3CFB1E0B093F4
:1057F0009C038ACF2FE933E080919D0390919E0313
:105800000E948C3F882309F46CCE409198035091FC
:10581000990360919A0370919B03411551056105AD
:105820007105C9F410929C03C6CF2FE933E0809133
:105830009D0390919E030E948C3F882309F451CED2
:10584000109298031092990310929A0310929B035E
:1058500010929C0335CF2FE933E080919D03909106
:105860009E030E948C3F882309F43BCE109298033C
:105870001092990310929A0310929B03D3CF8F92A8
:105880009F92AF92BF92CF92DF92EF92FF920F93CF
:105890001F93CF93DF938C01CB01C42F60939D03A3
:1058A00090939E03D80157961C9242E050E060E02E
:1058B00070E0F801408351836283738310929C03EC
:1058C000109298031092990310929A0310929B03DE
:1058D0004FEF5FEFBA0140939F055093A00560938F
:1058E000A1057093A205CC2391F0C53008F486C0C1
:1058F000E0E08E2FDF91CF911F910F91FF90EF90FD
:10590000DF90CF90BF90AF909F908F900895C12C63
:10591000D12C76012FE933E0B701A6010E94D73ED2
:10592000E82F882329F3C0929F05D092A005E0922A
:10593000A105F092A2058091AA039091AB03811575
:105940009240B1F69091AF03992391F22091AD036B
:105950003091AE03232B61F28091AC03882341F296
:10596000D80152969C93529714968C9314971D9637
:105970001C9290E0A0E0B0E081309105A105B10556
:1059800009F4ACC021E0E8012D8782309105A10522
:10599000B10509F44BC122E02D8784309105A105A2
:1059A000B10509F447C123E02D8788309105A10591
:1059B000B10509F43DC124E02D8780319105A10591
:1059C000B10509F43FC125E02D8780329105A1057D
:1059D000B10509F435C126E02D8780349105A10574
:1059E000B10509F42BC127E02D8780389105A10569
:1059F000B10509F421C189E08D877ACF2FE933E021
:105A000040E050E0BA010E94D73E882309F470CFED
:105A100010929F051092A0051092A1051092A20568
:105A2000F0E1CF9FA001112441575C4FFA01E254ED
:105A3000FE4F80818F7709F05BCF3C96808191810A
:105A4000A281B38184369105A105B10508F450CF38
:105A50003497C080D180E280F380C114D104E10486
:105A6000F10409F445CF80919D0390919E0320910C
:105A70009C03222309F44ECF2FE933E040E050E0AD
:105A8000BA010E948C3F882309F432CF40919803D9
:105A90005091990360919A0370919B0341155105B0
:105AA0006105710539F410929C0380919D039091DA
:105AB0009E0330CF2FE933E080919D0390919E03A8
:105AC0000E948C3F882309F413CF10929803109200
:105AD000990310929A0310929B03E5CFF0E0209176
