:100000000C94C21D0C9402210C942D210C945821A7
:100010000C9483210C94AE210C94D9210C940422CD
:100020000C942F220C94F31D0C94F31D0C94F31DCF
:100030000C94F31D0C941E260C94F31D0C94F31DCC
:100040000C94F31D0C94665D0C94F31D0C94F31D3D
:100050000C94F31D0C94F31D0C94C8A60C94F51D80
:100060000C94F31D0C94AA550C946C560C94F31D2F
:100070000C94F31D0C94F31D0C94F31D0C94F31DC0
:100080000C94F31D0C94F31D0C94F31D0C94F31DB0
:100090000C94F31D0C94F31D0C94F31D0C94F31DA0
:1000A0000C94F31D0C94F31D0C94F31D0C94F31D90
:1000B0000C94F31D0C94F31D0C94F31D0C94F31D80
:1000C0000C94F31D0C94F31D0C94F31D0C94F31D70
:1000D0000C94F31D0C94F31D0C94F31D0C94F31D60
:1000E0000C94F31D5C1F641F691F731F7D1F4B1F42
:1000F000871F8F1F971FA11FAB1FB51FC41FCE1FC8
:100100004B1FD81FE21FEC1F08200C2010201620C8
:100110001C200720222028202E2034203A20402096
:1001200046204C20072052205820022004562956F1
:10013000185621561256D5553856D55534563C5674
:10014000D555FF5547023D025B028F029502F7012C
:100150006302230249022102430207024D024D02BB
:10016000170217025D02FB01FB01FB01FB01FB0112
:10017000FB01FB01FB01FB01FB01FB01FB01FB019F
:10018000FB01FB01FB01FD01FB01FB01FB01FB018D
:10019000FB017D026B021B02FB01FB01FB01FB016A
:1001A000FB01FB01FB01FB01FB01FB01FB01FB016F
:1001B0006502FB01FB01FB01FB01FB01FB01FB01F4
:1001C000FB01FB01FB01FB01FB01FB01FB01FB014F
:1001D000FB01FB01FB01FB01FB01FB01FB01FB013F
:1001E000FB01FB01FB01FB01FB01FB01FB01FB012F
:1001F000FB01FB01FB01FB01FB01FB01FB01FB011F
:10020000FB01FB01FB01FB01FB01FB01FB01FB010E
:100210005102250291023F023F02850285029902A6
:100220002B022B022B022B022B022B022B022B0266
:100230002B022B022B022B022B022B022B022B0256
:1002400019022B022B022B022B022B021102670236
:10025000EF012B022B022B022B022B022B022B0273
:100260002B022B022B022B022B0287022B022B02CA
:100270002B022B022B022B022B022B022B022B0216
:100280002B022B022B022B022B022B022B022B0206
:100290002B022B022B022B022B022B022B022B02F6
:1002A0002B022B022B022B022B022B022B022B02E6
:1002B0002B022B022B022B022B022B022B022B02D6
:1002C0002B022B022B022B022B026F023702ED01B5
:1002D00003020302530253024B0241024102410254
:1002E00041024102410241024102410241024102F6
:1002F00041024102410241024102690241024102BE
:100300004102410241028102970229024102410257
:1003100041024102410241024102410241024102C5
:10032000410241020B0241024102410241024102EB
:1003300041024102410241024102410241024102A5
:100340004102410241024102410241024102410295
:100350004102410241024102410241024102410285
:100360004102410241024102410241024102410275
:100370004102410241024102410241024102410265
:10038000410241027702F501F901084AD73B3BCE11
:10039000016E84BCBFFDC12F3D6C74319ABD568384
:1003A0003DDA3D00C77F11BED9E4BB4C3E916BAA3C
:1003B000AABE000000803F05A84CCDB2D44EB9388B
:1003C00036A9020C50B9918688083CA6AAAA2ABE72
:1003D000000000803F000D94C24E0D94BD840D942A
:1003E000B3840D9473250D9439100D94CB870D941F
:1003F000C8260D94C8870D9405810D9409810D942C
:100400004B1A0D9477300D94AD870D947B1D0D9490
:10041000D9260D94131F0D94BB870D9443220D9480
:10042000770E0D94BA840D940F270D949A050D94B0
:100430002B820D94AC830D9414820D9458100D945E
:100440001D280D94B1260D94CE260D9421820D9475
:10045000D3030D94C5870D94A8830D9488130D9430
:10046000E33E0D942B270D94FF0C0D949F010D94EA
:10047000C0840D94DB230D94C58E0D94DF260D945E
:10048000C7840D9447860D94D6260D9480010D9453
:10049000DC260D94D3260D94B0870D9428820D94FC
:1004A000534E0D9425820D94B3870D94170A0D9425
:1004B000D03E0D947E300D94E2260D940E820D9464
:1004C000AB200D94522F0D94CB260D9411820D94D8
:1004D000B6840D944B860D9417820D94B3180D9429
:1004E000C4840D941B170D94E0010D94E63E0D9409
:1004F000CE870D94AE010D9416080D941B820D94B9
:10050000C60D0D94C2870D9484150D94CA840D9464
:10051000B0840D94E31B0D94E5260D9424150D94E1
:10052000BA260D941E820D9464510D94C5260D9427
:10053000BE870D94AD844E414E494E495459494EA3
:1005400046CDCCCC3D0AD7233C17B7D13877CC2B3E
:10055000329595E6241FB14F0A000020410000C8E3
:100560004200401C4620BCBE4CCA1B0E5AAEC59D64
:100570007400000A0B02090C0D0E080703040100A9
:10058000000000000000000000000000000000006B
:100590000000000000000000000000000012111028
:1005A000000000000000000000000000000000004B
:1005B00000000000000000010210202008081020A8
:1005C00040102040800201020108040201010204DF
:1005D000081020408080402010080402018004029E
:1005E00001804020100804020108040201010204F5
:1005F00008102040800102040810204080050505F5
:1006000005070508080808020202020A0A08080489
:1006100004040401010101010101010303030303B7
:10062000030303040707070C0C0C0C0C0C0C0C0246
:1006300002020206060606060606060B0B0B0B0B4D
:100640000B0B0B000020002300260029002C002F9C
:100650000032000001000003010601090100002230
:1006600000250028002B002E00310034000201007C
:1006700000050108010B0100002100240027002AC9
:10068000002D003000330001010000040107010AC1
:1006900001024D33310043616E6E6F7420656E74DC
:1006A0006572207375626469723A20002E0A006FC9
:1006B00070656E206661696C65642C2046696C65A6
:1006C0003A20006175746F25632E67006572726F42
:1006D000722077726974696E6720746F2066696C26
:1006E000650A004E6F74205344207072696E7469FD
:1006F0006E670A005344207072696E74696E6720D9
:100700006279746520002E0A0044656C6574696F17
:100710006E206661696C65642C2046696C653A20C0
:100720000046696C652064656C657465643A0057C1
:10073000726974696E6720746F2066696C653A200F
:10074000002E0A006F70656E206661696C65642C0E
:100750002046696C653A20002E0A006F70656E2095
:100760006661696C65642C2046696C653A200046B8
:10077000696C652073656C65637465640A00205359
:10078000697A653A200046696C65206F70656E6510
:10079000643A20002066696C653A200066726573D1
:1007A0006800646F696E67004E6F772000454E44A5
:1007B00020535542524F5554494E450A002220704D
:1007C0006F73002220706172656E743A2200535577
:1007D00042524F5554494E452043414C4C20746180
:1007E000726765743A2200747279696E6720746F5B
:1007F0002063616C6C207375622D67636F64652084
:1008000066696C6573207769746820746F6F206DFA
:10081000616E79206C6576656C732E204D41582091
:100820006C6576656C2069733A310A004D3234008C
:100830004D32332025730053442063617264206F6E
:100840006B0A006F70656E526F6F74206661696C21
:1008500065640A00766F6C756D652E696E6974202B
:100860006661696C65640A00534420696E6974208E
:100870006661696C0A00286E6F2066696C652900E4
:1008800043616E6E6F74206F70656E207375626465
:10089000697220007C3C3E5E2B3D3F2F5B5D3B2C14
:1008A0002A225C004F4646004F4E006563686F3A4F
:1008B000004572726F723A004572726F72207772E1
:1008C0006974696E6720746F20454550524F4D2101
:1008D0000A000A53746174733A2046696C616D654D
:1008E0006E7420757365643A20002C204C6F6E671F
:1008F000657374206A6F623A2000546F74616C20D3
:1009000074696D653A200053746174733A20002C49
:10091000204661696C65643A20002C2046696E6946
:10092000736865643A20005072696E74733A2000EF
:1009300053746174733A20002569730025696D2032
:10094000256973002569682025696D202569730074
:10095000256964202569682025696D202569730053
:1009600025697920256964202569682025696D201D
:1009700025697300205A3A0020593A0020436F75C8
:100980006E7420583A00043700001E290000511BE5
:1009900000005810000010090000CC04000078028C
:1009A00000004101000024F4D43050C38E20C2A2C4
:1009B0004017828B7011127A910D816CD90AA8614F
:1009C000E108C7586607615143061E4B5D05C145E6
:1009D000A7041A411104093D9803713931034036C7
:1009E000DB0265339102D4305402802E1D02632C49
:1009F000EE01752AC501B028A001102781018F25BD
:100A000064012B244B01E0223401AC211F018D2015
:100A10000D01801FFC00841EED00971DDF00B81C37
:100A2000D200E61BC600201BBC00641AB200B2193B
:100A3000A8000A19A0006A189900D1179100401760
:100A40008B00B516840031167E00B31579003A1577
:100A50007300C7146F0058146A00EE136600881301
:100A6000630025135E00C7125B006C12570015125D
:100A70005400C111510070114F0021114B00D610CC
:100A800049008D1047004610440002104200C00F7C
:100A90004000800F3E00420F3C00060F3B00CB0E93
:100AA0003800930E37005C0E3500270E3400F30D2E
:100AB0003200C10D3100900D3000600D2E00320D5E
:100AC0002D00050D2C00D90C2B00AE0C2900850C37
:100AD00029005C0C2700350C27000E0C2600E80BC3
:100AE0002400C40B2400A00B23007D0B23005A0B11
:100AF0002100390B2100180B2000F80A1F00D90A29
:100B00001E00BB0A1E009D0A1D00800A1D00630A0C
:100B10001C00470A1B002C0A1B00110A1A00F709C7
:100B20001A00DD091900C4091900AB09190092095E
:100B300017007B091800630917004C0916003609D5
:100B40001600200916000A091500F5081500E0082E
:100B50001400CC081400B8081400A408140090086D
:100B600013007D0812006B08130058081200460895
:100B700012003408110023081100120811000108A6
:100B80001100F0071000E0071000D0071000C007A8
:100B90001000B0070F00A107100091070E00830797
:100BA0000F0074070F0065070E0057070E00490776
:100BB0000E003B070D002E070E0020070D00130747
:100BC0000D0006070D00F9060C00ED060D00E0060D
:100BD0000C00D4060C00C8060C00BC060C00B006C5
:100BE0000C00A4060B0099060C008D060B00820673
:100BF0000B0077060B006C060B0061060A00570617
:100C00000B004C060A0042060A0038060A002E06AF
:100C10000A0024060A001A060A0010060900070640
:100C20000A00FD050900F4050900EB050900E205CD
:100C30000900D9050900D0050900C7050900BE054E
:100C40000900B5050800AD050800A50509009C05CB
:100C50000800940508008C050800840508007C0540
:100C60000800740508006C050700650508005D05AF
:100C70000700560508004E05070047050700400518
:100C8000080038050700310507002A05070023057D
:100C900007001C050600160507000F0507000805DC
:100CA000060002050700FB040600F5040700EE0439
:100CB0000600E8040600E2040700DB040600D50491
:100CC0000600CF040600C9040600C3040600BD04E4
:100CD0000600B7040600B1040500AC040600A60433
:100CE0000600A00405009B0406009504050090047E
:100CF00006008A04050085040500800406007A04C5
:100D0000050075040500700405006B040500660409
:100D10000500610405005C04050057040500520449
:100D200005004D04050048040500430405003E0489
:100D300004003A04050035040500300404002C04C6
:100D4000050027040400230405001E0404001A04FF
:100D5000040016040500110404000D040400090435
:100D600005000404040000040400FC030400F8036C
:100D70000400F4030400F0030400EC030400E8039F
:100D80000400E4030400E0030400DC030400D803CF
:100D90000400D4030400D0030400CC030400C803FF
:100DA0000300C503030024F404D9201BC40C5C0E0B
:100DB0009804C4095F0265077101F405F900FB049A
:100DC000B30048048700C1036900580355000303BA
:100DD0004500BE023A008402310053022A00290273
:100DE000250004022000E4011C00C8011900AF0125
:100DF00017009801140084011300710110006101B3
:100E0000100051010E0043010D0036010B002B01B3
:100E10000B0020010B00150109000C010900030162
:100E20000800FB000800F3000800EB000700E400E6
:100E30000600DE000600D8000600D2000600CC0046
:100E40000500C7000500C2000500BD000400B90090
:100E50000400B5000400B1000400AD000400A900C6
:100E60000400A5000300A20003009F0004009B00F3
:100E70000300980003009500020093000300900017
:100E800003008D0002008B00030088000200860032
:100E9000020084000300810002007F0002007D0048
:100EA00002007B000200790002007700010076005A
:100EB00002007400020072000100710002006F0065
:100EC00002006D0001006C0002006A000100690070
:100ED0000200670001006600010065000100640077
:100EE00002006200010061000100600001005F007B
:100EF00002005D0001005C0001005B0001005A007F
:100F0000010059000100580001005700010056007F
:100F1000010055000100540001005300000053007F
:100F200001005200010051000100500001004F007B
:100F300001004E0000004E0001004D0001004C0079
:100F400001004B0000004B0001004A000100490075
:100F50000100480000004800010047000100460071
:100F6000000046000100450000004500010044006B
:100F70000100430000004300010042000000420065
:100F800001004100000041000100400001003F005D
:100F900000003F0001003E0000003E0001003D0057
:100FA00000003D0001003C0000003C0000003C004F
:100FB00001003B0000003B0001003A0000003A0045
:100FC000010039000000390001003800000038003D
:100FD0000000380001003700000037000100360033
:100FE000000036000000360001003500000035002A
:100FF000000035000100340000003400000034001F
:101000000100330000003300000033000100320013
:101010000000320000003200010031000000310009
:1010200000003100010030000000300000003000FE
:1010300001002F0000002F0000002F0000002F00F3
:1010400001002E0000002E0000002E0001002D00E7
:1010500000002D0000002D0000002D0001002C00DC
:1010600000002C0000002C0000002C0001002B00D0
:1010700000002B0000002B0000002B0001002A00C4
:1010800000002A0000002A0000002A0001002900B8
:1010900000002900000029000000290000002900AC
:1010A000010028000000280000002800000028009F
:1010B0000000280001002700000027000000270092
:1010C0000000270000002700010026000000260085
:1010D0000000260000002600000026000100250078
:1010E000000025000000250000002500000025006C
:1010F000000025000100240000002400000024005E
:101100000000240000002400010023000000230050
:101110000000230000002300000023000000230043
:101120000000230001002200000022000000220035
:101130000000220000002200000022000100210027
:10114000000021000000210000002100000021001B
:10115000000021000000210001002000000020000C
:1011600000002000000020000000200000002000FF
:10117000000020000000200001001F0000001F00F0
:1011800000001F0000001F0000001F0000001F00E3
:1011900000001F0001001E0000001E0000001E00D5
:1011A00000001E000000496E76616C69642065785D
:1011B0007472756465720A0020746F6F206C6F6EB4
:1011C0006720657874727573696F6E2070726576CA
:1011D000656E7465640A0020636F6C6420657874C2
:1011E000727573696F6E2070726576656E74656472
:1011F0000A005761726E696E673A20486F6D696EBA
:10120000672042756D702044697669736F72203C67
:1012100020310A00020204486F6D65202573257392
:101220002573206669727374002066697273740A8C
:1012300000486F6D65200020746F6F206C6F6E67C3
:1012400020657874727573696F6E2070726576654B
:101250006E7465640A0020636F6C64206578747234
:101260007573696F6E2070726576656E7465640A59
:101270000020453A00205A3A0020593A00583A00D6
:101280000000484200004842ABAABA40FFFF0100FC
:1012900000A0400000A040000000400000484300C3
:1012A000004843AE4741430000000000000000AE8C
:1012B0004741430000484300004843AE47414300D4
:1012C000000000000000000000000020573A00204D
:1012D000573A004520436F6F6C696E672E2E2E00C3
:1012E000452048656174696E672E2E2E00202F0000
:1012F0002042403A0020403A00546865726D616CAB
:101300002052756E6177617900453120544845520D
:101310004D414C2052554E415741590042454420C1
:10132000544845524D414C2052554E415741590069
:10133000202D20496E76616C696420657874727521
:10134000646572206E756D62657220210A004865C1
:101350006174696E67206661696C656400426564EA
:101360002068656174696E67206661696C656400F8
:10137000546865726D616C2052756E617761790099
:1013800042454420544845524D414C2052554E410F
:101390005741590048656174696E67206661696CE0
:1013A00065640045312048656174696E6720666137
:1013B000696C656400546865726D616C2052756E6D
:1013C0006177617900453120544845524D414C20A8
:1013D00052554E41574159004D494E54454D5020AC
:1013E0007472696767657265640045312045727281
:1013F0003A204D494E54454D50004572723A204DA9
:10140000494E54454D5020424544004D41585445A5
:101410004D502074726967676572656400453120BC
:101420004572723A204D415854454D5000457272F4
:101430003A204D415854454D502042454400626584
:1014400064002C2073797374656D2073746F7070F1
:10145000656421204865617465725F49443A2000E3
:101460004B6420004B6920004B70200000626564D3
:1014700000504944204175746F74756E652066692B
:101480006E697368656421205075742074686520E6
:101490006C617374204B702C204B6920616E64204A
:1014A0004B6420636F6E7374616E74732066726F29
:1014B0006D2062656C6F7720696E746F20436F6E6C
:1014C00066696775726174696F6E2E680A005049AB
:1014D00044204175746F74756E65206661696C6532
:1014E00064212074696D656F75740A0054686572B3
:1014F0006D616C2052756E617761790045312054C1
:101500004845524D414C2052554E41574159004299
:10151000454420544845524D414C2052554E415768
:1015200041590048656174696E67206661696C6540
:10153000640045312048656174696E6720666169A1
:101540006C6564004265642068656174696E67203B
:101550006661696C656400504944204175746F741C
:10156000756E65206661696C6564212054656D70D7
:101570006572617475726520746F6F206869676841
:101580000A00204B643A2000204B693A2000204B8F
:10159000703A20000A20436C6173736963205049DC
:1015A00044200A002054753A2000204B753A200050
:1015B000206D61783A2000206D696E3A2000206429
:1015C0003A200020626961733A200050494420416A
:1015D00075746F74756E652073746172740A00504F
:1015E0004944204175746F74756E65206661696C3D
:1015F0006564212054656D70657261747572652033
:10160000746F6F20686967680A0023646566696E95
:10161000652044454641554C545F004D38342058B0
:101620002059205A20450070012C0190012701B05B
:10163000012201C0011D01F0011801100213013047
:10164000020E016002090190020401C002FF0000C5
:1016500003FA004003F5008003F000D003EB002004
:1016600004E6007004E100E004DC004005D700C09F
:1016700005D2004006CD00D006C8008007C3003068
:1016800008BE00F008B900C009B400B00AAF00B04D
:101690000BAA00D00CA500000EA000500F9B00C0AC
:1016A0001096005012910000148C00C0158700B0F5
:1016B000178200B0197D00D01B7800001E73004017
:1016C000206E0090226900F024640040275F0090A3
:1016D000295A00E02B5500102E500020304B0010EE
:1016E000324600E033410090353C0010373700703F
:1016F000383200A0392D00B03A2800A03B2300600A
:101700003C1E00103D1900903D1400103E0F00706B
:101710003E0A00C03E0500003F0000403FFBFF8046
:101720003FF6FFC03FF1FF2055004C0046696C6159
:101730006D656E74206C6F61642F756E6C6F616483
:10174000206C656E677468733A0A00204400204973
:101750000020204D33303420500020440020490028
:1017600020204D333031205000504944207365749F
:1017700074696E67733A0A002046002042002048D0
:101780000020204D3134352053004D61746572695D
:10179000616C2068656174757020706172616D653F
:1017A000746572733A0A00205900202047323920AC
:1017B0005333205800205A0020204D34323020531B
:1017C000004D65736820426564204C6576656C69E0
:1017D0006E673A0A00205A0020590020204D32300E
:1017E00036205800486F6D65206F66667365743AE1
:1017F0000A00204500205A0020590020580020549B
:101800000020530020204D32303520420020453C3E
:101810006D61785F655F6A65726B3E0020583C6D54
:1018200061785F785F6A65726B3E20593C6D6178C4
:101830005F795F6A65726B3E205A3C6D61785F7AB2
:101840005F6A65726B3E00416476616E6365643AFF
:1018500020423C6D696E5F7365676D656E745F7481
:10186000696D655F75733E20533C6D696E5F66659B
:101870006564726174653E20543C6D696E5F74727C
:101880006176656C5F66656564726174653E0020B3
:10189000540020520020204D32303420500041634B
:1018A00063656C65726174696F6E2028756E69740A
:1018B000732F7332293A20503C7072696E745F61E5
:1018C0006363656C3E20523C726574726163745F41
:1018D000616363656C3E20543C74726176656C5F35
:1018E000616363656C3E0A00204500205A00205960
:1018F0000020204D3230312058004D6178696D75DF
:101900006D20416363656C65726174696F6E202838
:10191000756E6974732F7332293A0A0020450020CE
:101920005A0020590020204D3230332058004D619C
:1019300078696D756D206665656472617465732084
:1019400028756E6974732F73293A0A005374657091
:10195000732070657220756E69743A0A0020204DFC
:101960003230302044300A0020204D3230302044C4
:10197000002044697361626C65640A0046696C61A9
:101980006D656E742073657474696E67733A0020B8
:10199000204D3134392043203B20556E697473202B
:1019A000696E2043656C736975730A0020204732A5
:1019B00031202020203B20556E69747320696E20F1
:1019C0006D6D0048617264636F6465642044656690
:1019D00061756C742053657474696E6773204C6F05
:1019E000616465640A002003000020030000C80051
:1019F0000000200300000000FA430000FA4300004A
:101A000010410000C8410000A0420000A042CD0CDF
:101A1000C643CDCCC542290A002062797465733B68
:101A20002063726320002073746F72656420736595
:101A30007474696E67732072657472696576656423
:101A4000202800202863616C63756C6174656429CB
:101A5000210A0020213D2000454550524F4D204392
:101A60005243206D69736D61746368202D20287363
:101A7000746F7265642920002053697A653A2000EA
:101A8000496E6465783A2000204D61726C696E3D44
:101A9000563638290A00454550524F4D207665721A
:101AA00073696F6E206D69736D617463682028457A
:101AB0004550524F4D3D00290A00206279746573EC
:101AC0003B20637263200053657474696E677320F2
:101AD00053746F726564202800454550524F4D2065
:101AE0006461746173697A65206572726F722E0A1F
:101AF0000020286D6D290020204D36303320006FE6
:101B000070656E00545249474745524544003A209B
:101B1000007A5F6D617800795F6D696E00785F6D46
:101B2000696E005265706F7274696E6720656E64CD
:101B300073746F70207374617475730A00456E64FA
:101B400073746F707320256320256320256320251F
:101B50006300205A3A0020593A0020583A00656E36
:101B60006473746F7073206869743A2000486F6DF5
:101B7000696E67206661696C656400473238585940
:101B8000002020506C616E6E6572427566666572EB
:101B900042797465733A20002046726565204D6570
:101BA0006D6F72793A2000436F6D70696C65643AAD
:101BB000204A756C20323820323031390A00207CBE
:101BC00020417574686F723A20286E6F6E652C2004
:101BD00064656661756C7420636F6E666967290A57
:101BE00000323031392D30372D313400204C6173C3
:101BF0007420557064617465643A2000627567668C
:101C000069782D322E302E780A004D61726C696E23
:101C10000020536F66747761726520526573657436
:101C20000A00205761746368646F672052657365AA
:101C3000740A002042726F776E206F7574205265AF
:101C40007365740A002045787465726E616C205269
:101C5000657365740A00506F77657255700A00737A
:101C6000746172740A004B494C4C45442E2000505C
:101C700072696E7465722068616C7465642E206B85
:101C8000696C6C28292063616C6C6564210A004BC7
:101C9000494C4C20636175736564206279204B491F
:101CA0004C4C20627574746F6E2F70696E0A004B15
:101CB000494C4C2063617573656420627920746FB0
:101CC0006F206D75636820696E6163746976652045
:101CD00074696D65202D2063757272656E74206362
:101CE0006F6D6D616E643A200050726F746563743D
:101CF00065642050696E0A00363726033C3D380E75
:101D00002E303E131A1C1808440AFF43080900012C
:101D100053746F72652073657474696E6773004CD9
:101D20006F61642073657474696E677300426564E3
:101D3000205A00426564205A004661646520486567
:101D400069676874004661646520486569676874FE
:101D500000426564204C6576656C696E67004F666D
:101D600066004F6E00426564204C6576656C696E56
:101D7000670045646974204D657368004C6576653D
:101D80006C20626564004D6F74696F6E005A205656
:101D9000616C7565005A2056616C756500496E640A
:101DA0006578205900496E646578205900496E6451
:101DB0006578205800496E64657820580042656453
:101DC000204C6576656C696E670047323800436C5D
:101DD00069636B20746F20426567696E0047323912
:101DE00020533100473239205332004E6578742039
:101DF000506F696E74002569202F202575004D6F86
:101E00007665205A00473239205332004C6576659A
:101E10006C696E6720446F6E652100486F6D696E56
:101E2000672058595A004D6F76696E672E2E2E0026
:101E3000466C6F7700466C6F770046616E2073705A
:101E40006565640046616E20737065656400426577
:101E50006400426564004E6F7A7A6C65004E6F7A5A
:101E60007A6C6500426564205A00426564205A001D
:101E70005370656564005370656564004D61696EFB
:101E800000526573746F7265206661696C73616678
:101E900065004C6F61642073657474696E677300CC
:101EA00053746F72652073657474696E6773005044
:101EB0007265686561742041425320636F6E6600ED
:101EC0005072656865617420504C4120636F6E6686
:101ED00000416476616E6365642053657474696E55
:101EE0006773004D61696E0053746F72652073658E
:101EF0007474696E67730042656400426564004EE5
:101F00006F7A7A6C65004E6F7A7A6C650046616E06
:101F10002073706565640046616E2073706565644A
:101F200000436F6E66696775726174696F6E004415
:101F3000697361626C65207374657070657273009B
:101F40004D383400426564204C6576656C696E6777
:101F500000486F6D65205A00473238205A00486F9C
:101F60006D65205900473238205900486F6D652053
:101F700058004732382058004175746F20686F6DE3
:101F80006500473238004D6F7665206178697300CF
:101F90004D61696E004578747275646572004D6FAD
:101FA0007665205A004D6F76652059004D6F766535
:101FB000205800536F667420456E6473746F70739D
:101FC000004F6666004F6E00536F667420456E6466
:101FD00073746F7073004D6F74696F6E0045787421
:101FE0007275646572004D6F766520302E30323523
:101FF0006D6D004D6F766520302E316D6D004D6F2B
:10200000766520316D6D004D6F76652031306D6DD8
:10201000004D6F7665206178697300486F74656E56
:102020006420746F6F20636F6C6400457874727500
:10203000646572004D6F7665205A004D6F7665209D
:1020400059004D6F76652058004D6F7665205A0017
:102050004D6F76652059004D6F7665205800496EAA
:1020600069740043616E63656C00496E69746961EF
:102070006C697A6520454550524F4D003F00496ECE
:10208000697469616C697A6520454550524F4D000D
:1020900046696C616D656E740054656D7065726142
:1020A000747572650053746570732F6D6D004A65A9
:1020B000726B00416363656C65726174696F6E0079
:1020C00056656C6F636974790053657420686F6D31
:1020D00065206F66667365747300436F6E6669672B
:1020E00075726174696F6E004573746570732F6DDE
:1020F0006D004573746570732F6D6D005A73746550
:1021000070732F6D6D005A73746570732F6D6D0051
:102110005973746570732F6D6D00597374657073A6
:102120002F6D6D005873746570732F6D6D0058734B
:10213000746570732F6D6D00416476616E636564C4
:102140002053657474696E67730056652D6A6572F5
:102150006B0056652D6A65726B00567A2D6A657242
:102160006B00567A2D6A65726B0056792D6A65721E
:102170006B0056792D6A65726B0056782D6A657210
:102180006B0056782D6A65726B00416476616E63F0
:1021900065642053657474696E677300416D61787E
:1021A000204500416D6178204500416D6178205ADD
:1021B00000416D6178205A00416D617820590041DD
:1021C0006D6178205900416D6178205800416D6142
:1021D00078205800412D74726176656C00412D7431
:1021E000726176656C00412D726574726163740072
:1021F000412D7265747261637400416363656C00A4
:10220000416363656C00416476616E63656420536D
:10221000657474696E6773005654726176206D69D7
:102220006E005654726176206D696E00566D696E4F
:1022300000566D696E00566D6178204500566D61DF
:1022400078204500566D6178205A00566D617820DF
:102250005A00566D6178205900566D6178205900FA
:10226000566D6178205800566D61782058004164A1
:1022700076616E6365642053657474696E6773007C
:10228000504944204175746F74756E65005049441F
:10229000204175746F74756E65002002204661637D
:1022A000740020022046616374002002204D617892
:1022B000002002204D6178002002204D696E002030
:1022C00002204D696E004175746F74656D70004F2A
:1022D0006666004F6E004175746F74656D700041E5
:1022E0006476616E6365642053657474696E6773A8
:1022F000004D333033205531204525692053256961
:10230000004C6F6164206D6D004C6F6164206D6DD9
:1023100000556E6C6F6164206D6D00556E6C6F6161
:1023200064206D6D0046696C2E204469612E004664
:10233000696C2E204469612E004520696E206D6D08
:102340005E33004F6666004F6E004520696E206D5B
:102350006D5E3300416476616E636564205365741D
:1023600074696E6773004D34323800436F6F6C646C
:102370006F776E005072656865617420414253004A
:102380005072656865617420504C410046616E2052
:1023900073706565640046616E20737065656400E6
:1023A00042656400426564004E6F7A7A6C65004E47
:1023B0006F7A7A6C65004D61696E00507265686570
:1023C0006174204142532042656400507265686523
:1023D00061742041425320456E6400507265686507
:1023E0006174204142530054656D7065726174756B
:1023F0007265005072656865617420504C412042DE
:102400006564005072656865617420504C412045D8
:102410006E64005072656865617420504C410054D0
:10242000656D7065726174757265004E6F205344FE
:102430002063617264005072696E742066726F6D01
:10244000205344004368616E6765205344206361F4
:102450007264004D3231004368616E6765206669C1
:102460006C616D656E74004368616E6765206669B6
:102470006C616D656E74004D363030204230004323
:102480006F6E66696775726174696F6E0054656D11
:102490007065726174757265004D6F74696F6E005E
:1024A000526573756D65207072696E740054756E37
:1024B000650053746F70207072696E74005061759E
:1024C0007365207072696E7400496E666F20736365
:1024D0007265656E0053746F70004261636B0053E8
:1024E000746F70207072696E74003F005761697478
:1024F00020666F720066696C616D656E7420707520
:10250000726765005761697420666F722070726926
:102510006E7400746F20726573756D652E2E2E00BB
:10252000507265737320627574746F6E00746F20DF
:10253000726573756D65207072696E74005761699C
:102540007420666F720066696C616D656E74206CD4
:102550006F616400496E736572742066696C616DA9
:10256000656E7400616E64207072657373206275AD
:1025700074746F6E00507265737320627574746F3B
:102580006E00746F2068656174206E6F7A7A6C6576
:10259000004E6F7A7A6C652068656174696E6700B9
:1025A000506C6561736520776169742E2E2E00571B
:1025B00061697420666F720066696C616D656E7426
:1025C00020756E6C6F6164005761697420666F726C
:1025D0000066696C616D656E74206368616E676525
:1025E000005061726B696E672E2E2E005052494E5C
:1025F000542050415553454400554E4C4F414420C2
:1026000046494C414D454E54004C4F4144204649AB
:102610004C414D454E540020204E6F7A7A6C653AFD
:1026200020002000436F6E74696E756500507572EE
:102630006765206D6F726500524553554D45204FBB
:102640005054494F4E533A004368616E67652066A7
:10265000696C616D656E74005072656865617420A7
:10266000437573746F6D00507265686561742043C3
:102670007573746F6D0050726568656174204142B6
:1026800053005072656865617420504C410042618E
:10269000636B004D36303020423020542564004DAD
:1026A000373032203B2564004D37303220542564CA
:1026B000004D37303120542564005072696E74200B
:1026C00066726F6D205344005072696E742066729A
:1026D0006F6D20534400052E2E004D61696E005031
:1026E00072696E740043616E63656C00537461724D
:1026F00074207072696E7420003F004D3234004DBA
:102700003235005072696E742070617573656400B3
:102710005061757365207072696E74005072696ED5
:10272000742061626F727465640033442050726972
:102730006E7465722052656164792E005072696E04
:1027400074696E672E2E2E005072696E742070614F
:102750007573656400436172642072656D6F7665A0
:1027600064004361726420696E736572746564000D
:10277000A10000006900A20000006300B00000009A
:102780000900C10000004100C20000004100C30078
:1027900000004100C40000004100C50000004100ED
:1027A000C60000004145C70000004300C80000000B
:1027B0004500C90000004500CD0000004900D100DF
:1027C00000004E00D50000004F00D60000004F0072
:1027D000D70000007800DC0000005500DD0000009C
:1027E0005900E00000006100E10000006100E2002B
:1027F00000006100E30000006100E40000006100EF
:10280000E50000006100E60000006165E7000000EF
:102810006300E80000006500E90000006500EA00D0
:1028200000006500EB0000006500EC00000069009E
:10283000ED0000006900EE0000006900EF000000FC
:102840006900F10000006E00F20000006F00F3006C
:1028500000006F00F40000006F00F50000006F0042
:10286000F60000006F00F80000006F00F9000000A3
:102870007500FA0000007500FB0000007500FC0008
:1028800000007500FD0000007900FF0000007900E5
:102890000401000041000501000061000601000084
:1028A00043000701000063000C01000043000D011C
:1028B000000063000E01000044000F0100006400EE
:1028C0001101000064001901000065001F010000F3
:1028D000670030010000490031010000690041013A
:1028E00000004C00420100006C00430100004E005B
:1028F000440100006E00480100006E005901000014
:1029000072005A01000053005B01000073005F0178
:1029100000007300600100005300610100007300BB
:102920006501000074006F01000075007C0100006B
:102930007A007D0100005A007E0100007A009201B9
:1029400000006600E3020000780084030000270016
:102950008503000027008603000041008703000074
:102960002E008803000045008903000048008A0308
:10297000000049008C0300004F008E030000590046
:102980008F0300004F0090030000690091030000D6
:10299000410092030000420093030000540094039E
:1029A00000003400950300004500960300005A0023
:1029B00097030000480098030000300099030000CE
:1029C00049009A0300004B009B0300005E009C033B
:1029D00000004D009D0300004E009E0300003300E8
:1029E0009F0300004F00A00300006E00A103000041
:1029F0005000A30300004500A40300005400A503F9
:102A000000005900A60300007000A7030000580052
:102A1000A80300005000A90300004F00AA03000013
:102A20004900AB0300005900AC0300006100AD0396
:102A300000006500AE0300006E00AF0300006900F7
:102A4000B00300007600B10300006100B203000093
:102A50004200B30300007600B40300006400B50335
:102A600000006500B60300005A00B70300006E00C6
:102A7000B80300003000B90300006900BA03000089
:102A80006B00BB0300004C00BC0300007500BD03DD
:102A900000007600BE0300006500BF0300006F0069
:102AA000C00300006E00C10300007000C2030000FC
:102AB0006300C30300006F00C40300007400C5037B
:102AC00000007600C60300007000C7030000580035
:102AD000C80300005700C90300007700CA030000C4
:102AE0006900CB0300007600CC0300006F00CD032B
:102AF00000007600CE0300007700010400004500CE
:102B000010040000410011040000620012040000E3
:102B10004200130400005400140400005100150486
:102B200000004500160400002A00170400004500BC
:102B3000180400004E00190400004E001A040000A2
:102B40004B001B04000054001C0400004D001D0439
:102B5000000048001E0400004F001F0400006E002B
:102B60002004000050002104000043002204000063
:102B70005400230400005900240400006F002504C1
:102B800000005800260400005500270400007900CA
:102B90002804000057002904000057002A04000000
:102BA00062002B040000627C2C04000062002D04F3
:102BB000000065002E0400007C4F2F040000397CCB
:102BC00030040000610031040000360032040000CF
:102BD0004200330400007200340400006100350438
:102BE00000006500360400002A003704000065007C
:102BF0003804000075003904000075003A04000034
:102C00006B003B0400006E003C0400006D003D04BE
:102C1000000048003E0400006F003F0400006E000A
:102C20004004000070004104000063004204000002
:102C300074004304000079004404000071704504EE
:102C40000000780046040000750047040000790089
:102C50004804000077004904000077004A0400009F
:102C600062004B040000627C4C04000062004D04D2
:102C7000000065004E0400007C6F4F0400006700F8
:102C8000510400006500222000002E001E210000DB
:102C9000507822210000544D902100003C2D9221BB
:102CA00000002D3EB02100000300BB210000040005
:102CB0003C2200007E00482200007E3D6022000091
:102CC000213D612200003D00642200003C3D652260
:102CD00000003E3DF12300000700A03000003D0051
:102CE00021F301000200C2F401000500A20000006F
:102CF000EC00B0000000DF00E4000000E100F6009E
:102D00000000EF00F7000000FD00FC000000F500EF
:102D1000E3020000EB0087030000A5008F03000022
:102D2000F40098030000F2009E030000E300A303F8
:102D30000000F600A9030000F400AC030000E0006E
:102D4000AD030000E300B1030000E000B2030000A7
:102D5000E200B5030000E300B8030000F200BC038A
:102D60000000E400BE030000E300C0030000F70021
:102D7000C1030000E600C3030000E500902100004D
:102D80007F00922100007E001A220000E8001E222F
:102D90000000F30088250000FF0002300000A100C1
:102DA0000C300000A2000D300000A3009B3000009A
:102DB000DE009C300000DF00A03000003D00A130AC
:102DC0000000A700A2300000B100A3300000A8005E
:102DD000A4300000B200A5300000A900A630000019
:102DE000B300A7300000AA00A8300000B400A9304A
:102DF0000000AB00AA300000B500AB300000B60008
:102E0000AC300000B6DEAD300000B700AE300000E0
:102E1000B7DEAF300000B800B0300000B8DEB1302F
:102E20000000B900B2300000B9DEB3300000BA00D3
:102E3000B4300000BADEB5300000BB00B630000090
:102E4000BBDEB7300000BC00B8300000BCDEB930DB
:102E50000000BD00BA300000BDDEBB300000BE0087
:102E6000BC300000BEDEBD300000BF00BE30000040
:102E7000BFDEBF300000C000C0300000C0DEC13087
:102E80000000C100C2300000C1DEC3300000AF004E
:102E9000C4300000C200C5300000C2DEC6300000F1
:102EA000C300C7300000C3DEC8300000C400C93012
:102EB0000000C4DECA300000C500CB300000C600F0
:102EC000CC300000C700CD300000C800CE3000007C
:102ED000C900CF300000CA00D0300000CADED130B7
:102EE0000000CADFD2300000CB00D3300000CBDEC0
:102EF000D4300000CBDFD5300000CC00D63000004D
:102F0000CCDED7300000CCDFD8300000CD00D93087
:102F10000000CDDEDA300000CDDFDB300000CE0077
:102F2000DC300000CEDEDD300000CEDFDE30000021
:102F3000CF00DF300000D000E0300000D100E130F1
:102F40000000D200E2300000D300E3300000AC000B
:102F5000E4300000D400E5300000AD00E6300000B1
:102F6000D500E7300000AE00E8300000D600E930C0
:102F70000000D700EA300000D800EB300000D90094
:102F8000EC300000DA00ED300000DB00EF30000034
:102F9000DC00F2300000A600F3300000DD00F43069
:102FA0000000B3DEF7300000DCDEFA300000A6DE01
:102FB000FB300000A500FC300000B000FD30000038
:102FC000A400074E0000FB0086510000FC004353A4
:102FD0000000FA0064FF0000A40065FF0000A500E7
:102FE00066FF0000A60067FF0000A70068FF000062
:102FF000A80069FF0000A9006AFF0000AA006BFF9B
:103000000000AB006CFF0000AC006DFF0000AD00E5
:103010006EFF0000AE006FFF0000AF0070FF000009
:10302000B00071FF0000B10072FF0000B20073FF3A
:103030000000B30074FF0000B40075FF0000B5008D
:1030400076FF0000B60077FF0000B70078FF0000B1
:10305000B80079FF0000B9007AFF0000BA007BFFDA
:103060000000BB007CFF0000BC007DFF0000BD0035
:103070007EFF0000BE007FFF0000BF0080FF000059
:10308000C00081FF0000C10082FF0000C20083FF7A
:103090000000C30084FF0000C40085FF0000C500DD
:1030A00086FF0000C60087FF0000C70088FF000001
:1030B000C80089FF0000C9008AFF0000CA008BFF1A
:1030C0000000CB008CFF0000CC008DFF0000CD0085
:1030D0008EFF0000CE008FFF0000CF0090FF0000A9
:1030E000D00091FF0000D10092FF0000D20093FFBA
:1030F0000000D30094FF0000D40095FF0000D5002D
:1031000096FF0000D60097FF0000D70098FF000050
:10311000D80099FF0000D9009AFF0000DA009BFF59
:103120000000DB009CFF0000DC009DFF0000DD00D4
:103130009EFF0000DE009FFF0000DF00E5FF0000B3
:103140005C00506C65617365207265736574005036
:1031500052494E5445522048414C544544002D2D6F
:103160002D2D2D2D007C4D61726C696E7C002D2DF6
:103170002D2D2D2D00687474703A2F2F6D61726C97
:10318000696E66772E6F726700687474703A2F2FBD
:103190006D61726C696E66772E6F72670068747409
:1031A000703A2F2F6D61726C696E66772E6F726741
:1031B000006275676669782D322E302E7800627550
:1031C000676669782D322E302E78006275676669E1
:1031D000782D322E302E780000687474703A2F2FBC
:1031E0006D61726C696E66772E6F726700687474B9
:1031F000703A2F2F6D61726C696E66772E6F7267F1
:1032000000687474703A2F2F6D61726C696E667706
:103210002E6F726700206275676669782D322E30D6
:103220002E7800001C1F11111F0000000619180342
:10323000130C00040E1F041C000000000E131511D7
:103240000E00001C10181705060500040A0A0A0AD9
:1032500011110E0C12120C00000000001F151115A8
:103260001F000000000000010204040000001C1CFC
:103270000C04040402010000000000040810000017
:103280000000002D2D2D0053440020202020002080
:103290002020202020200025753A25303275002579
:1032A0003032753A25303275005072657373206282
:1032B0007574746F6E20286F72204D31303829205C
:1032C000746F2068656174206E6F7A7A6C650A008D
:1032D000507265737320627574746F6E20286F72FC
:1032E000204D3130382920746F20726573756D65FB
:1032F0000A00496E736572742066696C616D656E53
:103300007420616E642070726573732062757474CA
:103310006F6E20286F72204D313038290A004D36EB
:1033200030303A20546F6F20636F6C6400486F74C4
:10333000656E6420746F6F20636F6C640A00486F61
:1033400074656E6420746F6F20636F6C640A00494B
:103350006E736572742066696C616D656E74206150
:103360006E6420707265737320627574746F6E2062
:10337000286F72204D313038290A000A4D6561737B
:103380007572656420706F696E74733A0A00456ED9
:10339000642066696C65206C6973740A0042656715
:1033A000696E2066696C65206C6973740A004375E8
:1033B0007272656E742066696C653A2000436170B4
:1033C0003A004348414D4245525F54454D504552A5
:1033D0004154555245004D4F54494F4E5F4D4F4457
:1033E000455300544845524D414C5F50524F54454F
:1033F0004354494F4E004155544F5245504F52543B
:103400005F53445F5354415455530050524F4D50F5
:10341000545F535550504F525400454D4552474507
:103420004E43595F50415253455200434153455F0B
:103430004C494748545F4252494748544E455353BC
:1034400000544F47474C455F4C494748545300533D
:103450004F4654574152455F504F574552004255D1
:10346000494C445F50455243454E54004C455645E7
:103470004C494E475F44415441005A5F50524F42BD
:1034800045004155544F4C4556454C005052494E0D
:10349000545F4A4F420050524F47524553530041E8
:1034A00055544F5245504F52545F54454D5000565D
:1034B0004F4C554D455452494300454550524F4D90
:1034C0000042494E4152595F46494C455F54524172
:1034D0004E534645520053455249414C5F584F4E5A
:1034E0005F584F4646004649524D574152455F4E40
:1034F000414D453A4D61726C696E2062756766692F
:10350000782D322E302E782028476974687562290C
:1035100020534F555243455F434F44455F55524CEE
:103520003A68747470733A2F2F6769746875622EE5
:10353000636F6D2F4D61726C696E4669726D776154
:1035400072652F4D61726C696E2050524F544F431B
:103550004F4C5F56455253494F4E3A312E30204D15
:10356000414348494E455F545950453A33442050F1
:1035700072696E7465722045585452554445525FC5
:10358000434F554E543A3120555549443A6365648A
:1035900065326132662D343161322D343734382D45
:1035A000396231322D6335356336326633363766EC
:1035B000660A004D3131332053002F2F2000496E11
:1035C00076616C69642065787472756465720A004E
:1035D00020643A0020693A0020703A0043290A002A
:1035E00061626C656420286D696E2074656D702061
:1035F0000064697300656E00436F6C6420657874C5
:103600007275646573206172652000204500205A40
:1036100000205900204D39322058005741524E4960
:103620004E4721204C6F77205A204A65726B206DDF
:103630006179206C65616420746F20756E77616EAE
:10364000746564207061757365732E0A00205400E0
:10365000205200416363656C65726174696F6E3AF4
:1036600020500020643A0020693A0020703A00207F
:10367000466C6F773A200047322F473320626164EF
:1036800020706172616D65746572730A00536C65B8
:1036900065702E2E2E004D65736820706F696E74F4
:1036A0002063616E6E6F74206265207265736F6C4B
:1036B0007665640A00206F6620004D424C20473238
:1036C0003920706F696E742000290A004A206F75D6
:1036D00074206F662072616E67652028302D002986
:1036E0000A0049206F7574206F662072616E6765ED
:1036F0002028302D004D6573682070726F62696EEE
:103700006720646F6E652E0A005374617274206DB9
:103710006573682070726F62696E6720776974687C
:103720002022473239205331222066697273742E69
:103730000A004732380A4732392053320068617331
:10374000206E6F20646174612E0A004D65736820DD
:10375000426564204C6576656C696E672000532075
:103760006F7574206F662072616E67652028302D3A
:1037700035292E0A00206E6F7420656E746572659F
:10378000642E0A00473238004D65736820706F69F7
:103790006E742063616E6E6F742062652072657353
:1037A0006F6C7665640A004D34323120696E636F48
:1037B000727265637420706172616D6574657220E8
:1037C00075736167650A004F46460A004661646585
:1037D000204865696768742000426564204C6576FE
:1037E000656C696E6720004661696C656420746F62
:1037F00020656E61626C6520426564204C6576656B
:103800006C696E670A004D65736820426564204CE0
:103810006576656C20646174613A0A00496E766170
:103820006C6964206D6573682E0A00627573793A5D
:103830002070617573656420666F7220696E7075A3
:10384000740A00627573793A20706175736564203B
:10385000666F7220757365720A00627573793A201B
:1038600070726F63657373696E670A0020496E76C4
:10387000616C6964206578747275646572200044B7
:103880006F6E6520736176696E672066696C652E60
:103890000A0053544F505045442E20005072696E18
:1038A0007465722073746F70706564206475652030
:1038B000746F206572726F72732E2046697820745F
:1038C0006865206572726F7220616E642075736521
:1038D000204D39393920746F2072657374617274A8
:1038E0002E202854656D706572617475726520694B
:1038F000732072657365742E20536574206974207B
:1039000061667465722072657374617274696E6742
:10391000290A004E6F20436865636B73756D2077CD
:10392000697468206C696E65206E756D6265722CB5
:10393000204C617374204C696E653A20004E6F20F4
:10394000436865636B73756D2077697468206C6973
:103950006E65206E756D6265722C204C61737420EB
:103960004C696E653A2000636865636B73756D2002
:103970006D69736D617463682C204C617374204CA5
:10398000696E653A20004C696E65204E756D626502
:1039900072206973206E6F74204C617374204C69BF
:1039A0006E65204E756D6265722B312C204C6173F3
:1039B00074204C696E653A20004D313130005265FB
:1039C00073656E643A20006F6B00220A00656E71A9
:1039D00075657565696E67202200534420726561C4
:1039E00064206572726F720A00446F6E6520707297
:1039F000696E74696E672066696C650A004D3239BC
:103A000000436C69636B20746F20726573756D651C
:103A10002E2E2E004D31343520533C696E6465786E
:103A20003E206F7574206F662072616E6765202876
:103A3000302D31290A004F666673657473206170FA
:103A4000706C696564004572723A20546F6F20662D
:103A500061722100546F6F206661722066726F6D13
:103A6000207265666572656E636520706F696E743D
:103A70000A00454550524F4D204F4B0A00504944D3
:103A8000204175746F74756E65206661696C65643C
:103A90002120426164206578747275646572206EBD
:103AA000756D6265720A0042656420636F6F6C69B0
:103AB0006E672E2E2E004265642068656174696E03
:103AC000672E2E2E006F6B00220A00556E6B6E6FF4
:103AD000776E20636F6D6D616E643A202200205A0C
:103AE00000205900580020204D61783A2000205ACB
:103AF00000205900580020204D696E3A2000536F75
:103B0000667420656E6473746F70733A200033447A
:103B1000205072696E746572204F46462E004E6FBB
:103B2000206D6F76652E004543484F00494E464F45
:103B3000004552524F52530044525952554E004381
:103B40004F4D4D554E49434154494F4E006F6666A7
:103B500000273B2C3B313B383B3F3B4445425547DC
:103B60003A005072696E742074696D653A200000E5
:103B700034425B90E7C877D401025702EB0193020D
:103B80003B026C4211241FBECFEFD1E2DEBFCDBF9E
:103B900000E00CBF13E0A0E0B2E0E0E0FFE703E0EC
:103BA0000BBF02C007900D92A037B107D9F723E1F0
:103BB000A0E7B3E001C01D92A631B207E1F71DE115
:103BC000C1ECDDE100E006C021970109802FFE0174
:103BD0000F94B8B7C83BD10780E00807A9F70E9447
:103BE000682A0D946FBF0C9400001F920F920FB6BD
:103BF0000F9211242F933F938F939F93AF93BF9373
:103C00008091710390917203A0917303B09174033A
:103C10003091700323E0230F2D3768F126E8230F3E
:103C20000296A11DB11D20937003809371039093A0
:103C30007203A0937303B093740380917503909102
:103C40007603A0917703B09178030196A11DB11D71
:103C50008093750390937603A0937703B0937803D2
:103C6000BF91AF919F918F913F912F910F900FBE78
:103C70000F901F9018950196A11DB11DD4CF2FB79D
:103C8000F894609171037091720380917303909125
:103C900074032FBF08958F929F92AF92BF92CF92DD
:103CA000DF92EF92FF924B015C019FB7F894C090B6
:103CB0007503D0907603E0907703F090780386B593
:103CC000A89B07C08F3F29F02FEFC21AD20AE20A41
:103CD000F20A9FBFFE2CED2CDC2CCC24C80ED11C8C
:103CE000E11CF11CCC0CDD1CEE1CFF1CCC0CDD1C03
:103CF000EE1CFF1C81149104A104B10409F43DC021
:103D0000D9D33FB7F8948091750390917603A09131
:103D10007703B091780326B5A89B05C02F3F19F013
:103D20000196A11DB11D3FBFBA2FA92F982F88273B
:103D3000820F911DA11DB11D880F991FAA1FBB1FC6
:103D4000880F991FAA1FBB1F8C199D09AE09BF09B7
:103D5000883E9340A105B10598F281E0881A910848
:103D6000A108B10828EEC20E23E0D21EE11CF11C0E
:103D700081149104A104B10421F6FF90EF90DF902B
:103D8000CF90BF90AF909F908F9008958230910513
:103D900038F0880F991F880F991F05970197F1F741
:103DA0000895789484B5826084BD84B5816084BDB3
:103DB00085B5826085BD85B5816085BDEEE6F0E0A4
:103DC000808181608083E1E8F0E010828081826000
:103DD0008083808181608083E0E8F0E08081816081
:103DE0008083E1EBF0E0808184608083E0EBF0E0B1
:103DF000808181608083E1E9F0E08081826080835E
:103E0000808181608083E0E9F0E08081816080834F
:103E1000E1EAF0E08081826080838081816080833C
:103E2000E0EAF0E0808181608083E1E2F1E080817E
:103E300082608083808181608083E0E2F1E0808124
:103E400081608083EAE7F0E0808184608083808104
:103E500082608083808181608083808180688083AC
:103E60001092C10008951F93CF93DF93182FEB0199
:103E700061E024D12097D1F0CF3FD10579F0E12F37
:103E8000F0E0EF58FA4FE4918E2F90E0FC0131976B
:103E9000E231F10528F0C038D10544F061E007C0F7
:103EA0008827EE58FF4F8F4F0D94B8B760E0812FF1
:103EB000DF91CF911F9143C184B5806884BDC7BD98
:103EC000DF91CF911F91089584B5806284BDC8BDF4
:103ED000F7CF80918000806880938000D093890024
:103EE000C0938800EDCF8091800080628093800035
:103EF000D0938B00C0938A00E3CF809180008860CC
:103F000080938000D0938D00C0938C00D9CF809196
:103F1000B00080688093B000C093B300D1CF80918F
:103F2000B00080628093B000C093B400C9CF80918C
:103F30009000806880939000D0939900C09398007F
:103F4000BFCF80919000806280939000D0939B00BF
:103F5000C0939A00B5CF80919000886080939000C4
:103F6000D0939D00C0939C00ABCF8091A00080684F
:103F70008093A0008091A0008F7B8093A000D093BD
:103F8000A900C093A8009CCF8091A000806280937C
:103F9000A000D093AB00C093AA0092CF8091A00064
:103FA00088608093A000D093AD00C093AC0088CF10
:103FB00080912001806880932001D0932901C093D3
:103FC00028017ECF80912001806280932001D093D0
:103FD0002B01C0932A0174CF8091200188608093C7
:103FE0002001D0932D01C0932C016ACF90E0FC01F9
:103FF0003197E231F10558F48827EC57FF4F8F4F86
:104000000D94B8B780912001877F80932001089597
:1040100084B58F7784BD089584B58F7D84BD089560
:10402000809180008F778093800008958091800038
:104030008F7D80938000089580918000877F80939A
:10404000800008958091B0008F778093B00008952C
:104050008091B0008F7D8093B00008958091900092
:104060008F77809390000895809190008F7D80934A
:104070009000089580919000877F8093900008952C
:104080008091A0008F778093A00008958091A00078
:104090008F7D8093A00008958091A000877F8093FA
:1040A000A0000895809120018F77809320010895CA
:1040B000809120018F7D809320010895CF93DF931D
:1040C00090E0FC01E954FA4F2491FC01E350FA4FCF
:1040D00084918823B9F090E0880F991FFC01E9587A
:1040E000F94FA591B491FC01E35AF94FC591D491D0
:1040F000662359F06230B9F08FB7F894EC91E22B57
:10410000EC938FBFDF91CF9108959FB7F8948C9176
:10411000E22FE0958E238C932881E223E8839FBFD2
:10412000DF91CF9108959FB7F8948C91322F3095FD
:1041300083238C93E881E22BE8839FBFE3CF1F9317
:10414000CF93DF93282F30E0F901EF58FA4F849195
:10415000F901E954FA4F1491F901E350FA4FC4916F
:10416000CC23A9F0D62F81111BC0EC2FF0E0EE0F6D
:10417000FF1FE35AF94FA591B4918FB7F894D1116D
:104180000AC09C91E12FE095E923EC938FBFDF916A
:10419000CF911F910895EC91E12BEC938FBFF7CF56
:1041A00025DFE3CFCF93DF93282F30E0F901EF58DD
:1041B000FA4F8491F901E954FA4FD491F901E3508F
:1041C000FA4FC491CC23B1F0811119C0EC2FF0E06B
:1041D000EE0FFF1FED5BF94FA591B491EC91ED232C
:1041E00081E090E019F0DF91CF91089580E0DF91B8
:1041F000CF91089580E090E0DF91CF910895F6DEB1
:10420000E5CF08951F920F920FB60F9211240BB6AF
:104210000F922F933F934F935F936F937F938F935F
:104220009F93AF93BF93EF93FF93E0910402F091BC
:1042300005021995FF91EF91BF91AF919F918F91D9
:104240007F916F915F914F913F912F910F900BBE96
:104250000F900FBE0F901F9018951F920F920FB6E0
:104260000F9211240BB60F922F933F934F935F93AE
:104270006F937F938F939F93AF93BF93EF93FF932E
:10428000E0910602F09107021995FF91EF91BF911D
:10429000AF919F918F917F916F915F914F913F91DE
:1042A0002F910F900BBE0F900FBE0F901F9018957F
:1042B0001F920F920FB60F9211240BB60F922F93ED
:1042C0003F934F935F936F937F938F939F93AF939E
:1042D000BF93EF93FF93E0910802F09109021995C3
:1042E000FF91EF91BF91AF919F918F917F916F91CE
:1042F0005F914F913F912F910F900BBE0F900FBE8A
:104300000F901F9018951F920F920FB60F921124C5
:104310000BB60F922F933F934F935F936F937F93BF
:104320008F939F93AF93BF93EF93FF93E0910A0214
:10433000F0910B021995FF91EF91BF91AF919F9171
:104340008F917F916F915F914F913F912F910F903E
:104350000BBE0F900FBE0F901F9018951F920F92DB
:104360000FB60F9211240BB60F922F933F934F93DA
:104370005F936F937F938F939F93AF93BF93EF93CD
:10438000FF93E0910002F09101021995FF91EF91E6
:10439000BF91AF919F918F917F916F915F914F915D
:1043A0003F912F910F900BBE0F900FBE0F901F905B
:1043B00018951F920F920FB60F9211240BB60F9201
:1043C0002F933F934F935F936F937F938F939F931D
:1043D000AF93BF93EF93FF93E0910202F09103023A
:1043E0001995FF91EF91BF91AF919F918F917F911F
:1043F0006F915F914F913F912F910F900BBE0F9056
:104400000FBE0F901F9018951F920F920FB60F922C
:1044100011240BB60F922F933F934F935F936F939B
:104420007F938F939F93AF93BF93EF93FF93E0910D
:104430000C02F0910D021995FF91EF91BF91AF9190
:104440009F918F917F916F915F914F913F912F91AC
:104450000F900BBE0F900FBE0F901F9018951F92DC
:104460000F920FB60F9211240BB60F922F933F931A
:104470004F935F936F937F938F939F93AF93BF936C
:10448000EF93FF93E0910E02F0910F021995FF91C7
:10449000EF91BF91AF919F918F917F916F915F91BC
:1044A0004F913F912F910F900BBE0F900FBE0F9029
:1044B0001F901895089580E090E008950895CF9298
:1044C000DF92EF92FF920F931F93CF93DF934115EB
:1044D000510509F16A018C017B01C0E0D0E004C004
:1044E0002196CC16DD0669F0D7016D917D01D801CA
:1044F000ED91FC910190F081E02DC8011995892B77
:1045000079F7CE01DF91CF911F910F91FF90EF903E
:10451000DF90CF900895C0E0D0E0F3CF4F925F924C
:104520006F927F928F929F92AF92BF92CF92DF92C3
:10453000EF92FF921F93CF93DF9300D000D0CDB7BF
:10454000DEB77E836D8349015A019091100289176D
:10455000C9F09F3F09F425C126960FB6F894DEBF37
:104560000FBECDBFDF91CF911F91FF90EF90DF90F5
:10457000CF90BF90AF909F908F907F906F905F9003
:104580004F900895E1E9F6E0149117FDE5CF61E061
:1045900095DD11114FC38D819E812C01612C712CF1
:1045A00060E072E18AE790E0A30192010F949CB76A
:1045B00029833A834B835C8369017A0191E0C91AAC
:1045C000D108E108F1082FEFC216D104E104F1048B
:1045D00009F0C8F581E095B5987F892B85BD8114D8
:1045E0009104A104B10409F4A7C010E0AD81BE811B
:1045F000AA0FBB1FA50194010F94CFB728EE33E09B
:1046000040E050E00F947AB7123009F485C00CF402
:104610004AC0143009F4B1C00CF46CC0153009F074
:104620009BCFD0922901C092280120937C03309324
:104630007D0340937E0350937F03809173008260DB
:104640008093730089CF60E472E48FE090E0A3016F
:1046500092010F949CB769017A0181E0C81AD108D0
:10466000E108F1089FEFC916D104E104F10409F053
:1046700008F495C068E478EE81E090E0A30192012F
:104680000F949CB769017A0181E0C81AD108E1084A
:10469000F1089FEFC916D104E104F10411F008F00C
:1046A00045C283E098CF112309F449C0113009F0C5
:1046B00053CFD0928900C092880020939803309302
:1046C000990340939A0350939B0380916F008260FB
:1046D00080936F0041CF90919100987F892B8093B8
:1046E000910081149104A104B10409F07FCF2FEF50
:1046F0003FEFA901D0929900C092980020938A03BD
:1047000030938B0340938C0350938D038091710001
:1047100082608093710020CFC092B30020939103F8
:1047200030939203409393035093940380917000CD
:1047300082608093700010CF2FEF3FEFA901C7BCBC
:1047400020939F033093A0034093A1035093A203AF
:1047500080916E00826080936E00FECE9091A100E9
:10476000987F892B8093A10081149104A104B10446
:1047700009F03CCF2FEF3FEFA901D092A900C092E2
:10478000A8002093830330938403409385035093C0
:10479000860380917200826080937200DDCE82E099
:1047A0001ACF80931002E1E9F6E014911F3F09F45B
:1047B000D3CE123009F4A2C008F471C0143009F449
:1047C0002BC108F402C1153009F0DFCE1092200190
:1047D0001092210190912101986090932101909174
:1047E0002101916090932101282F30E0F901E350DD
:1047F000FA4FE491F0E0EE0FFF1FE35AF94F4591B5
:10480000549150937B0340937A03F901E954FA4F92
:1048100024912093790315E061E050DC8D819E8125
:104820002C01612C712C60E072E18AE790E0A30119
:1048300092010F949CB769017A0191E0C91AD108DD
:10484000E108F108C114D10421E0E206F10408F402
:1048500053C068E478EE81E090E0A30192010F94E8
:104860009CB769017A0181E0C81AD108E108F10812
:1048700083E0113009F419C1133009F42CCF14303E
:1048800009F46CCF153009F46AC181149104A104B4
:10489000B10409F0ABCE2FEF3FEFA901B5CE112344
:1048A00009F4E1C0113009F070CE1092800010922E
:1048B0008100909181009860909381009091810097
:1048C000916090938100282F30E0F901E350FA4F76
:1048D000E491F0E0EE0FFF1FE35AF94F4591549138
:1048E0005093970340939603F901E954FA4F2491AA
:1048F0002093950311E090CF81E0BBCF1092B000E0
:104900001092B1009091B00092609093B00090919D
:10491000B10091609093B100282F30E0F901E3508D
:10492000FA4FE491F0E0EE0FFF1FE35AF94F459183
:1049300054915093900340938F03F901E954FA4F37
:10494000249120938E0361E0B9DB8D819E812C013F
:10495000612C712C60E072E18AE790E0A301920182
:104960000F949CB729833A834B835C8369017A0156
:1049700091E0C91AD108E108F1082FEFC216D1045D
:10498000E104F10409F008F4A0C060E472E48FE0EF
:1049900090E0A30192010F949CB769017A0191E024
:1049A000C91AD108E108F1082FEFC216D104E104B9
:1049B000F10411F008F08BC092E08091B100887F83
:1049C000892B8093B10012E060CF1092900010927A
:1049D0009100909191009860909391009091910036
:1049E000916090939100282F30E0F901E350FA4F45
:1049F000E491F0E0EE0FFF1FE35AF94F4591549117
:104A00005093890340938803F901E954FA4F2491A4
:104A10002093870313E000CF1092A0001092A10012
:104A20009091A10098609093A1009091A100916055
:104A30009093A100282F30E0F901E350FA4FE49160
:104A4000F0E0EE0FFF1FE35AF94F45915491509358
:104A5000820340938103F901E954FA4F2491209392
:104A6000800314E0D9CE14BC15BC94B5926094BDFB
:104A700095B5916095BD282F30E0F901E350FA4FCC
:104A8000E491F0E0EE0FFF1FE35AF94F4591549186
:104A900050939E0340939D03F901E954FA4F2491EA
:104AA00020939C0361E00ADB76CD90918100987F92
:104AB000892B8093810081149104A104B10409F031
:104AC00095CD2FEF3FEFA901F4CD91E076CF60E9CE
:104AD00070ED83E090E0A30192010F949CB769010F
:104AE0007A0181E0C81AD108E108F1089FEFC916E0
:104AF000D104E104F10409F008F498C068E478EE08
:104B000081E090E0A30192010F949CB769017A01C2
:104B100081E0C81AD108E108F1089FEFC916D10455
:104B2000E104F10409F058F594E047CF62E17AE737
:104B300080E090E0A30192010F949CB769017A0193
:104B400081E0C81AD108E108F1089FEFC916D10425
:104B5000E104F10411F008F041C084E03CCD9091F3
:104B60002101987F892B8093210181149104A10454
:104B7000B10409F03BCD2FEF3FEFA90152CD64E224
:104B800074EF80E090E0A30192010F949CB769015B
:104B90007A0181E0C81AD108E108F1089FEFC9162F
:104BA000D104E104F10409F008F442C062E17AE7BB
:104BB00080E090E0A30192010F949CB769017A0113
:104BC00081E0C81AD108E108F1089FEFC916D104A5
:104BD000E104F10409F0B0F496E0EFCE89819A8106
:104BE000AB81BC813AE0B595A795979587953A95A5
:104BF000D1F76C017D0121E0C21AD108E108F1086A
:104C000085E0E9CC89819A81AB81BC812AE0B595A8
:104C1000A795979587952A95D1F76C017D0121E09D
:104C2000C21AD108E108F10897E0C7CE93E0C5CEDB
:104C300095E0C3CE123009F488CEF0CD1F920F92CA
:104C40000FB60F9211240BB60F922F933F934F93F1
:104C50005F936F937F938F939F93AF93BF93EF93E4
:104C6000FF938091910390919203A0919303B0914F
:104C70009403892B8A2B8B2BE1F190918E03E09189
:104C80008F03F09190038081892780838091910325
:104C900090919203A0919303B09194031816190672
:104CA0001A061B069CF48091910390919203A091A7
:104CB0009303B09194030197A109B10980939103E3
:104CC00090939203A0939303B0939403FF91EF9179
:104CD000BF91AF919F918F917F916F915F914F9114
:104CE0003F912F910F900BBE0F900FBE0F901F9012
:104CF000189580911002E1E9F6E0E4919FEF90931E
:104D00001002E23039F168F0E430F1F0B8F0E5304B
:104D100029F4909173009D7F9093730060E00FDA07
:104D2000D5CFEE2341F0E130C9F790916F009D7F20
:104D300090936F00F3CF10926E00F0CF90917100BE
:104D40009D7F90937100EACF909172009D7F909328
:104D50007200E4CF909170009D7F9093700091E07D
:104D60009093B0009091B100987F94609093B100BF
:104D70001092B300D3CF8F929F92AF92BF92CF92F7
:104D8000DF92EF92FF920F931F93CF93DF938C01EB
:104D9000E62E61E0FC018481D2D9F80185818F3F44
:104DA00011F060E0CCD9F8018785F12C84FD72C048
:104DB0005701B594A794B594A794B594A794B594C6
:104DC000A7946801F7E0CF0ED11CE601812C912C4D
:104DD000B501082C02C0759567950A94E2F76170D9
:104DE0008991ADD98FEF881A980AE4E08E16910464
:104DF00079F760E0F8018681A2D981E090E00E9415
:104E0000C61E61E0F80186819AD981E090E00E9497
:104E1000C61E60E0F801868192D984E690E00E9487
:104E2000C61EC0E0D0E0B7010C2E02C07595679594
:104E30000A94E2F76170F60181916F0180D92196A1
:104E4000C430D10581F760E0F801868178D981E02E
:104E500090E00E94C61E61E0F801868170D981E071
:104E600090E00E94C61E60E0F801868168D984E661
:104E700090E00E94C61E81E090E0DF91CF911F91EB
:104E80000F91FF90EF90DF90CF90BF90AF909F90E9
:104E90008F9008956801F7E0CF0ED11CC0E0D0E0FC
:104EA000B7010C2E02C0759567950A94E2F7617000
:104EB000F60181916F0143D92196C830D10581F760
:104EC000C2CF8F929F92AF92BF92CF92DF92EF921A
:104ED000FF920F931F93CF93DF938C01E62E60E038
:104EE000FC0184812CD9F80185818F3F11F060E0AD
:104EF00026D9F8018785F12C84FD6FC05701B59440
:104F0000A794B594A794B594A794B594A794680171
:104F1000F7E0CF0ED11CE601812C912CB501082CB5
:104F200002C0759567950A94E2F76170899107D977
:104F30008FEF881A980AE4E08E16910479F760E002
:104F4000F8018681FCD881E090E00E94C61E61E0F5
:104F5000F8018681F4D881E090E00E94C61E60E0EE
:104F6000F8018681ECD884E690E00E94C61EC0E07D
:104F7000D0E0B7010C2E02C0759567950A94E2F750
:104F80006170F60181916F01DAD82196C430D105A4
:104F900081F760E0F8018681D2D881E090E00E943C
:104FA000C61E61E0F8018681CAD881E090E00E94C7
:104FB000C61E60E0F8018681C2D884E690E0DF91E9
:104FC000CF911F910F91FF90EF90DF90CF90BF9006
:104FD000AF909F908F900C94C61E6801F7E0CF0EA3
:104FE000D11CC0E0D0E0B7010C2E02C075956795CA
:104FF0000A94E2F76170F60181916F01A0D82196C1
:10500000C830D10581F7C5CFAF92BF92CF92DF9262
:10501000EF92FF920F931F93CF93DF93EC014230F7
:1050200018F08F8588608F874B8B1C8A80E48D8B6E
:105030006E8B70E0605C7F4F6F8B222319F04130E4
:1050400009F436C161E08C8139D88D818F3F11F030
:1050500061E034D861E08E8131D86E0187E0C80EFE
:10506000D11C760100E010E00CC084E090E008174D
:1050700019077CF461E0F70181917F011FD80F5F70
:105080001F4F8F8584FFF1CF88E090E00817190744
:105090008CF380E593EC0E94C61E60E08C814FD8B3
:1050A00060E08E814CD88D818F3F11F060E047D851
:1050B0006F8564FF32C06062CE0103DF84E991E155
:1050C0000E94C61E6F856062CE01FBDE86E990E01D
:1050D0000E94C61E6F856062CE01F3DE6F8560623E
:1050E000CE01EFDE84E0888B6CE0CE01EADE61E089
:1050F000CE01E7DE80ED97E00E94C61E82E0898B3C
:1051000066E0CE01DF91CF911F910F91FF90EF905C
:10511000DF90CF90BF90AF90D4CE760100E010E04A
:1051200033E0A32EB12CB501002E02C07595679512
:105130000A94E2F76170F70181917F0100D80F5F57
:105140001F4F0430110579F760E08E810E949F2087
:1051500081E090E00E94C61E61E08E810E949F2047
:1051600081E090E00E94C61E60E08E810E949F2038
:1051700084E690E00E94C61E84E991E10E94C61E6A
:10518000760100E010E023E0A22EB12CB501002E44
:1051900002C0759567950A94E2F76170F7018191F5
:1051A0007F010E949F200F5F1F4F0430110571F790
:1051B00060E08E810E949F2081E090E00E94C61EE8
:1051C00061E08E810E949F2081E090E00E94C61ED7
:1051D00060E08E810E949F2084E690E00E94C61EBF
:1051E00084E991E10E94C61E760100E010E093E0A0
:1051F000A92EB12CB501002E02C0759567950A94B1
:10520000E2F76170F70181917F010E949F200F5F9B
:105210001F4F0430110571F760E08E810E949F20BE
:1052200081E090E00E94C61E61E08E810E949F2076
:1052300081E090E00E94C61E60E08E810E949F2067
:1052400084E690E00E94C61E86E990E00E94C61E99
:1052500000E010E082E0E82EF12CB701002E02C041
:10526000759567950A94E2F76170F60181916F0177
:105270000E949F200F5F1F4F0430110571F760E0FF
:105280008E810E949F2081E090E00E94C61E61E016
:105290008E810E949F2081E090E00E94C61E60E007
:1052A0008E810E949F2084E690E00E94C61E16CF49
:1052B0008F8584608F87C6CECF92EF920F93FC01CB
:1052C0001382128280E093E09183808364838FEF66
:1052D0008583468327830087E186C28613861486EA
:1052E00015861686178620E041E060E1CF010F9118
:1052F000EF90CF9089CE61E0E4DD80ED97E00C94F3
:10530000C61EFC01443008F043E08389481710F0C2
:105310004FEF480FDF01A40FB11D54969C91690F08
:105320006068CF01CECD4F925F926F927F928F9245
:105330009F92AF92BF92CF92DF92EF92FF920F9324
:105340001F93CF93DF93EC018A016770660F660F9E
:10535000660F6064B6DD4801280188E0480E511CE4
:10536000E881F9810190F081E02DD401ED904D01AB
:10537000B6E2EB3BFB0709F0A3C061E08C810E9421
:105380009F208D818F3F19F060E00E949F208F85C4
:10539000F12C84FD7BC037017594679475946794F4
:1053A00075946794759467946E01A7E0CA0ED11C3A
:1053B000560100E010E0B301002E02C0759567951C
:1053C0000A94E2F76170F50181915F010E949F20CC
:1053D0000F5F1F4F0430110571F760E08E810E944E
:1053E0009F2081E090E00E94C61E61E08E810E94B5
:1053F0009F2081E090E00E94C61E60E08E810E94A6
:105400009F2084E690E00E94C61E00E010E0B701F5
:10541000002E02C0759567950A94E2F76170D60177
:105420008D916D010E949F200F5F1F4F0430110569
:1054300071F760E08E810E949F2081E090E00E94E1
:10544000C61E61E08E810E949F2081E090E00E9454
:10545000C61E60E08E810E949F2084E690E00E943C
:10546000C61E4814590409F07BCFDF91CF911F91DC
:105470000F91FF90EF90DF90CF90BF90AF909F90F3
:105480008F907F906F905F904F9008958E01095F8D
:105490001F4FC12CD12CB7010C2C02C075956795FC
:1054A0000A94E2F76170F80181918F010E949F20B8
:1054B000FFEFCF1ADF0A88E0C816D10461F7B9CF31
:1054C0006E2DCE011995CDCF80E090E0089508951E
:1054D0000E94D11EFCDF0E944CD3C0E0D0E0209798
:1054E00019F40E942ED4FDCF0E942ED40E940000F9
:1054F000F6CF4F925F926F927F928F929F92AF9270
:10550000BF92CF92DF92EF92FF920F931F93CF93B0
:10551000DF93EC016A017B01280139018F89803119
:1055200009F45DC0803291F080E0DF91CF911F914E
:105530000F91FF90EF90DF90CF90BF90AF909F9032
:105540008F907F906F905F904F9008958B889C888C
:10555000AD88BE88DB01CA0147E0B695A79597954F
:1055600087954A95D1F7880E991EAA1EBB1E4091B9
:10557000AA055091AB056091AC057091AD058416FC
:105580009506A606B70609F044C081E08093A703FC
:10559000E894C7F8DD24EE24FF24C601880F991F84
:1055A000880F991FFC01E655FC4F408251826282B0
:1055B00073828A89823008F473C08D819E81AF81A5
:1055C000B885880E991EAA1EBB1E8092A3039092D6
:1055D000A403A092A503B092A60381E0A6CF8D2CD0
:1055E0009E2CAF2CBB248B899C89AD89BE89880EEB
:1055F000991EAA1EBB1E4091AA055091AB05609151
:10560000AC057091AD0584169506A606B70609F49B
:1056100049C08091A703811128C02AEA33E0B5016F
:10562000A4018091A8039091A9030E940D458823AD
:1056300009F47ACF8092AA059092AB05A092AC05AE
:10564000B092AD058F8991E09093A703803109F066
:105650009FCFDD24EE24FF24C601880F991FFC0193
:10566000E655FC4F51824082A4CF2AEA33E0809174
:10567000A8039091A9030E94C245882309F454CF3E
:105680004091A3035091A4036091A5037091A603D8
:10569000411551056105710549F41092A703BDCF6D
:1056A00081E043CF81E08093A703D3CF2AEA33E0A0
:1056B0008091A8039091A9030E94C245882309F410
:1056C00033CF1092A3031092A4031092A50310925B
:1056D000A603E3CF2F923F924F925F926F927F92F9
:1056E0008F929F92AF92BF92CF92DF92EF92FF92F2
:1056F0000F931F93CF93DF93CDB7DEB72F970FB6DE
:10570000F894DEBF0FBECDBF9A838983DC01199662
:105710008D909D90AD90BC901C97D501C4010196D1
:10572000A11DB11D8D839E83AF83B887F901C08011
:10573000D180E280F380C114D104E104F10409F4C2
:105740001EC1FFEFCF1ADF0AEF0AFF0A1D86892864
:105750008A288B2881F1190149875A876B877C87B2
:1057600026013701812C912C540109811A811F8750
:105770000E872D813E814F8158852C153D054E05A4
:105780005F0550F412E0C12ED12CE12CF12C02E087
:10579000402E512C612C712C8C159D05AE05BF053A
:1057A00050F0AE85BF8557968C915797803109F49C
:1057B00090C08032D9F0B12C8B2D2F960FB6F89473
:1057C000DEBF0FBECDBFDF91CF911F910F91FF9034
:1057D000EF90DF90CF90BF90AF909F908F907F9091
:1057E0006F905F904F903F902F90089553964D91FA
:1057F0005D916D917C915697D701C601E7E0B69512
:10580000A79597958795EA95D1F78C019D01040F8F
:10581000151F261F371F09831A832B833C83409152
:10582000AA055091AB056091AC057091AD0540178C
:1058300051076207730709F07BC0D701C6018F7754
:105840009927AA27BB27880F991F880F991FFC014A
:10585000E655FC4F80819181A281B381BF70892B75
:105860008A2B8B2BF1F026013701BFEF4B1A5B0A15
:105870006B0A7B0A730162011FEF811A910AA10A68
:10588000B10AEE85FF8581859285A385B48588164A
:105890009906AA06BB0608F08ECF0196A11DB11D80
:1058A00068CFD701C6010196A11DB11DAC01BD0194
:1058B000441955096609770909851A852B853C85A0
:1058C000041715072607370709F498C06C017D01F6
:1058D000D3CFFD01BB27AF2D9E2D8D2D438954893C
:1058E000658976898C019D01040F151F261F371FBE
:1058F00009831A832B833C834091AA055091AB0501
:105900006091AC057091AD050417150726073707A0
:1059100079F4D701C6019927AA27BB27880F991FB9
:10592000FC01E655FC4F80819181A0E0B0E097CF6B
:105930008091A703811133C02AEA33E049815A815B
:105940006B817C818091A8039091A9030E940D45F1
:10595000882309F430CF29813A814B815C812093DF
:10596000AA053093AB054093AC055093AD05AE85C9
:10597000BF8557968C91803109F05FCFCACFE981FE
:10598000FA81C080D180E280F380F1E0FD87413070
:1059900051056105710509F4DACE1D86D8CE2AEAD3
:1059A00033E08091A8039091A9030E94C245882307
:1059B00009F401CF4091A3035091A4036091A50382
:1059C0007091A603411551056105710519F41092F6
:1059D000A703B2CF2AEA33E08091A8039091A903EC
:1059E0000E94C245882309F4E6CE1092A3031092C8
:1059F000A4031092A5031092A603E9CF0E851F857C
:105A00001A83098312E0C116D104E104F10408F4F9
:105A1000D2CEE981FA8181859285A385B4850196EC
:105A2000A11DB11D8C159D05AE05BF0508F4C3CEA3
:105A30000FEF1FEF2FEF3FE0B701A601CF0159DDB8
:105A4000B82E882309F4B7CE4C145D046E047F048D
:105A5000D0F5F1E0CF1AD108E108F10802E0C01654
:105A6000D104E104F10408F4A6CEE981FA8181852C
:105A70009285A385B4850196A11DB11D8C159D0548
:105A8000AE05BF0508F497CE970186010F5F1F4F43
:105A90002F4F3F4FB701A60189819A812ADD8823C4
:105AA00009F489CE4C145D046E047F0461F0F1E0CA
:105AB000CF1AD108E108F10801E0C016D104E104D1
:105AC000F10499F678CED1014D915D916D917C9163
:105AD0004115510561057105E1F04230510561053F
