:100000000C94851C0C94BA1F0C94E51F0C941020C2
:100010000C943B200C9466200C9491200C94BC20F2
:100020000C94E7200C94B61C0C94B61C0C94B61CD3
:100030000C94B61C0C942F2B0C94B61C0C94B61C70
:100040000C94B61C0C94235A0C94B61C0C94B61C3D
:100050000C94B61C0C94B61C0C946DA20C94B81C99
:100060000C94B61C0C9415570C9440570C94B61C69
:100070000C94B61C0C94B61C0C94B61C0C94B61CB8
:100080000C94B61C0C94B61C0C94B61C0C94B61CA8
:100090000C94B61C0C94B61C0C94B61C0C94B61C98
:1000A0000C94B61C0C94B61C0C94B61C0C94B61C88
:1000B0000C94B61C0C94B61C0C94B61C0C94B61C78
:1000C0000C94B61C0C94B61C0C94B61C0C94B61C68
:1000D0000C94B61C0C94B61C0C94B61C0C94B61C58
:1000E0000C94B61C141E1C1E211E2B1E351E031E36
:1000F0003F1E471E4F1E591E631E6D1E7C1E861E10
:10010000031E901E9A1EA41EC01EC41EC81ECE1E14
:10011000D41EBF1EDA1EE01EE61EEC1EF21EF81EE6
:10012000FE1E041FBF1E0A1F101FBA1E8422A42217
:100130006222AB226C2275225922E528FB28A528D1
:100140000C29A528A528A528A528A528A528A528DF
:10015000A528A528A528A528A528A528A528A52837
:10016000A528A528A528A528A528A528A528A52827
:10017000A528A528A5281829A528A528A528A528A3
:10018000A528A528A528A528B528A528A528A528F7
:10019000A528A528A528A528A528A528A528242977
:1001A000D928560232025C027202A002BC026A0224
:1001B0001C02700222026002B602CA02CA02B8021F
:1001C000B802C802260226022602260226022602BB
:1001D00026022602260226022602260226022602DF
:1001E000260226029A02260226022602260226025B
:1001F0002802300292022602260226022602260247
:1002000026022602260226022602260226029E0236
:10021000260226022602260226022602260226029E
:10022000260226022602260226022602260226028E
:10023000260226022602260226022602260226027E
:10024000260226022602260226022602260226026E
:10025000260226022602260226022602260226025E
:1002600026022602260226022602260226023E0236
:100270005E02960294029402B202B2028602680200
:10028000680268026802680268026802680268021E
:1002900068026802680268026802680268026E0208
:1002A0006802680268026802680274027C023A020C
:1002B00068026802680268026802680268026802EE
:1002C000680268026802680238026802680268020E
:1002D00068026802680268026802680268026802CE
:1002E00068026802680268026802680268026802BE
:1002F00068026802680268026802680268026802AE
:10030000680268026802680268026802680268029D
:10031000680268026802680268026802680268028D
:1003200068026802680268022C027802BE02C202F9
:10033000C202340234029002C402C402C402C402E3
:10034000C402C402C402C402C402C402C402C4027D
:10035000C402C402C402C402CC02C402C402C40265
:10036000C402C4022A0236026402C402C402C402E5
:10037000C402C402C402C402C402C402C402C4024D
:10038000C4028002C402C402C402C402C402C40281
:10039000C402C402C402C402C402C402C402C4022D
:1003A000C402C402C402C402C402C402C402C4021D
:1003B000C402C402C402C402C402C402C402C4020D
:1003C000C402C402C402C402C402C402C402C402FD
:1003D000C402C402C402C402C402C402C402C402ED
:1003E000C402500244028202084AD73B3BCE016E4F
:1003F00084BCBFFDC12F3D6C74319ABD56833DDA7C
:100400003D00C77F11BED9E4BB4C3E916BAAAABE8A
:10041000000000803F05A84CCDB2D44EB93836A9B3
:10042000020C50B9918688083CA6AAAA2ABE0000F0
:1004300000803F000D94421B0D94AC220D94D40E0D
:100440000D944A1F0D948F220D94D0200D94F46CBE
:100450000D94066E0D94C5730D94BD700D94461EDB
:100460000D94026E0D94BD220D94A7730D94C1736B
:100470000D94C0700D94A5700D940B030D94176E20
:100480000D94930A0D94FE000D94B5730D948E088F
:100490000D94FE230D94F22C0D949D080D94EB2CDD
:1004A0000D94B8730D949A160D94F52C0D94BA22F0
:1004B0000D946B060D94B9160D94C0220D941D6E0B
:1004C0000D94B4220D9409030D94BE730D945D1A1E
:1004D0000D949E6F0D94A9220D94D13C0D94A26FA2
:1004E0000D94B1220D9498220D94AC700D94C62BEE
:1004F0000D94C3700D9422020D94A8700D94461CA7
:100500000D94BB730D94B2730D9477100D94AF706E
:100510000D94C3220D94CC1F0D94D8140D94623CFD
:100520000D94C8730D94FF6D0D94BA700D94FC6D0D
:100530000D94580C0D94F86C0D945E130D941A6E76
:100540000D94A3220D94DB190D94E67A0D942614D4
:100550000D94E21A0D946F080D940D030D94C81EAE
:100560000D94ED220D94B2700D9452210D94B7228A
:100570000D940C6E0D940A230D94A6220D94A27076
:100580000D944E200D94AF730D9444720D94C41BC2
:100590000D94096E0D94146E0D9448724E414E499F
:1005A0004E495459494E46CDCCCC3D0AD7233C1731
:1005B000B7D13877CC2B329595E6241FB14F0A007E
:1005C0000020410000C84200401C4620BCBE4CCA6E
:1005D0001B0E5AAEC59D7400000A0B02090C0D0ECD
:1005E00008070304010000000000000000000000F4
:1005F00000000000000000000000000000000000FB
:1006000000000012111000000000000000000000B7
:1006100000000000000000000000000000010210C7
:10062000202008081020401020408002010201080C
:1006300004020101020408102040808040201008BC
:100640000402018004020180402010080402010815
:100650000402010102040810204080010204081075
:100660002040800505050507050808080802020264
:10067000020A0A080804040404010101010101013D
:10068000010303030303030303040707070C0C0C14
:100690000C0C0C0C0C0202020206060606060606EC
:1006A000060B0B0B0B0B0B0B0B0000200023002683
:1006B0000029002C002F0032000001000003010679
:1006C00001090100002200250028002B002E003126
:1006D00000340002010000050108010B01000021A7
:1006E00000240027002A002D003000330001010003
:1006F00000040107010A012200250028002B002E1A
:10070000003100340002012100240027002A002DBE
:1007100000300033000101FFE0FFD11000FFFEFFB9
:10072000D0FFE0FFC1FFD1E240A0C8A6A22FF80091
:10073000238127AC00AFFF64A5FF64FF64A4FFD052
:10074000FFFE024D33310043616E6E6F7420656EA3
:10075000746572207375626469723A20002E0A0013
:100760006F70656E206661696C65642C2046696CEB
:10077000653A20006175746F25632E67006572729B
:100780006F722077726974696E6720746F20666972
:100790006C650A004E6F74205344207072696E7449
:1007A000696E670A005344207072696E74696E67DF
:1007B000206279746520002E0A0044656C657469B6
:1007C0006F6E206661696C65642C2046696C653AC1
:1007D000200046696C652064656C657465643A0048
:1007E00057726974696E6720746F2066696C653A28
:1007F00020002E0A006F70656E206661696C65646A
:100800002C2046696C653A20002E0A006F70656ED8
:10081000206661696C65642C2046696C653A20002D
:1008200046696C652073656C65637465640A0020B5
:1008300053697A653A200046696C65206F70656E71
:1008400065643A20002066696C653A20006672652E
:10085000736800646F696E67004E6F772000454EC5
:100860004420535542524F5554494E450A002220C8
:10087000706F73002220706172656E743A220053AB
:100880005542524F5554494E452043414C4C2074DB
:1008900061726765743A2200747279696E672074B8
:1008A0006F2063616C6C207375622D67636F646584
:1008B0002066696C6573207769746820746F6F2097
:1008C0006D616E79206C6576656C732E204D415894
:1008D000206C6576656C2069733A310A004D3234BC
:1008E000004D32332025730053442063617264202D
:1008F0006F6B0A006F70656E526F6F74206661696E
:100900006C65640A00766F6C756D652E696E69742E
:10091000206661696C65640A00534420696E6974DD
:10092000206661696C0A00286E6F2066696C652913
:100930000043616E6E6F74206F70656E2073756218
:1009400064697220007C3C3E5E2B3D3F2F5B5D3B2B
:100950002C2A225C004F4646004F4E006563686FAC
:100960003A004572726F723A004572726F72207768
:10097000726974696E6720746F20454550524F4DFF
:10098000210A00205A3A0020593A0020436F756E20
:100990007420583A00043700001E290000511B0043
:1009A000005810000010090000CC0400007802007C
:1009B000004101000024F4D43050C38E20C2A24074
:1009C00017828B7011127A910D816CD90AA861E19E
:1009D00008C7586607615143061E4B5D05C145A710
:1009E000041A411104093D9803713931034036DB83
:1009F0000265339102D4305402802E1D02632CEE26
:100A000001752AC501B028A001102781018F256436
:100A1000012B244B01E0223401AC211F018D200D5C
:100A200001801FFC00841EED00971DDF00B81CD262
:100A300000E61BC600201BBC00641AB200B219A855
:100A4000000A19A0006A189900D117910040178B6D
:100A500000B516840031167E00B31579003A15737F
:100A600000C7146F0058146A00EE13660088136301
:100A70000025135E00C7125B006C1257001512545C
:100A800000C111510070114F0021114B00D61049C7
:100A9000008D1047004610440002104200C00F4075
:100AA00000800F3E00420F3C00060F3B00CB0E388B
:100AB00000930E37005C0E3500270E3400F30D3224
:100AC00000C10D3100900D3000600D2E00320D2D53
:100AD00000050D2C00D90C2B00AE0C2900850C292B
:100AE000005C0C2700350C27000E0C2600E80B24B8
:100AF00000C40B2400A00B23007D0B23005A0B2104
:100B000000390B2100180B2000F80A1F00D90A1E1B
:100B100000BB0A1E009D0A1D00800A1D00630A1CFE
:100B200000470A1B002C0A1B00110A1A00F7091AB9
:100B300000DD091900C4091900AB09190092091751
:100B4000007B091800630917004C091600360916C6
:100B500000200916000A091500F5081500E0081420
:100B600000CC081400B8081400A40814009008135E
:100B7000007D0812006B0813005808120046081286
:100B80000034081100230811001208110001081197
:100B900000F0071000E0071000D0071000C0071099
:100BA00000B0070F00A107100091070E0083070F88
:100BB0000074070F0065070E0057070E0049070E67
:100BC000003B070D002E070E0020070D0013070D38
:100BD0000006070D00F9060C00ED060D00E0060CFE
:100BE00000D4060C00C8060C00BC060C00B0060CB5
:100BF00000A4060B0099060C008D060B0082060B64
:100C00000077060B006C060B0061060A0057060B06
:100C1000004C060A0042060A0038060A002E060AA0
:100C20000024060A001A060A001006090007060A30
:100C300000FD050900F4050900EB050900E20509BE
:100C400000D9050900D0050900C7050900BE05093E
:100C500000B5050800AD050800A50509009C0508BC
:100C600000940508008C050800840508007C050830
:100C700000740508006C050700650508005D0507A0
:100C800000560508004E0507004705070040050807
:100C90000038050700310507002A0507002305076E
:100CA000001C050600160507000F050700080506CD
:100CB0000002050700FB040600F5040700EE040629
:100CC00000E8040600E2040700DB040600D5040681
:100CD00000CF040600C9040600C3040600BD0406D4
:100CE00000B7040600B1040500AC040600A6040623
:100CF00000A00405009B040600950405009004066E
:100D0000008A04050085040500800406007A0405B5
:100D10000075040500700405006B040500660405F9
:100D200000610405005C0405005704050052040539
:100D3000004D04050048040500430405003E04047A
:100D4000003A04050035040500300404002C0405B5
:100D50000027040400230405001E0404001A0404F0
:100D60000016040500110404000D04040009040524
:100D7000000404040000040400FC030400F803045D
:100D800000F4030400F0030400EC030400E803048F
:100D900000E4030400E0030400DC030400D80304BF
:100DA00000D4030400D0030400CC030400C80303F0
:100DB00000C503030024F404D9201BC40C5C0E9866
:100DC00004C4095F0265077101F405F900FB04B36F
:100DD0000048048700C10369005803550003034518
:100DE00000BE023A008402310053022A0029022583
:100DF0000004022000E4011C00C8011900AF011723
:100E000000980114008401130071011000610110A9
:100E10000051010E0043010D0036010B002B010BA8
:100E20000020010B00150109000C01090003010855
:100E300000FB000800F3000800EB000700E40006D8
:100E400000DE000600D8000600D2000600CC000537
:100E500000C7000500C2000500BD000400B9000481
:100E600000B5000400B1000400AD000400A90004B6
:100E700000A5000300A20003009F0004009B0003E4
:100E80000098000300950002009300030090000307
:100E9000008D0002008B0003008800020086000223
:100EA0000084000300810002007F0002007D000238
:100EB000007B00020079000200770001007600024A
:100EC000007400020072000100710002006F000255
:100ED000006D0001006C0002006A00010069000260
:100EE0000067000100660001006500010064000267
:100EF000006200010061000100600001005F00026B
:100F0000005D0001005C0001005B0001005A00016F
:100F1000005900010058000100570001005600016F
:100F2000005500010054000100530000005300016F
:100F3000005200010051000100500001004F00016B
:100F4000004E0000004E0001004D0001004C000169
:100F5000004B0000004B0001004A00010049000165
:100F60000048000000480001004700010046000062
:100F7000004600010045000000450001004400015A
:100F80000043000000430001004200000042000155
:100F9000004100000041000100400001003F00004E
:100FA000003F0001003E0000003E0001003D000047
:100FB000003D0001003C0000003C0000003C00013E
:100FC000003B0000003B0001003A0000003A000135
:100FD000003900000039000100380000003800002E
:100FE0000038000100370000003700010036000023
:100FF000003600000036000100350000003500001A
:10100000003500010034000000340000003400010D
:101010000033000000330000003300010032000004
:1010200000320000003200010031000000310000F9
:1010300000310001003000000030000000300001ED
:10104000002F0000002F0000002F0000002F0001E3
:10105000002E0000002E0000002E0001002D0000D8
:10106000002D0000002D0000002D0001002C0000CC
:10107000002C0000002C0000002C0001002B0000C0
:10108000002B0000002B0000002B0001002A0000B4
:10109000002A0000002A0000002A000100290000A8
:1010A000002900000029000000290000002900019B
:1010B0000028000000280000002800000028000090
:1010C0000028000100270000002700000027000082
:1010D0000027000000270001002600000026000075
:1010E0000026000000260000002600010025000068
:1010F000002500000025000000250000002500005C
:10110000002500010024000000240000002400004D
:101110000024000000240001002300000023000040
:101120000023000000230000002300000023000033
:101130000023000100220000002200000022000025
:101140000022000000220000002200010021000017
:10115000002100000021000000210000002100000B
:1011600000210000002100010020000000200000FC
:1011700000200000002000000020000000200000EF
:101180000020000000200001001F0000001F0000E0
:10119000001F0000001F0000001F0000001F0000D3
:1011A000001F0001001E0000001E0000001E0000C5
:1011B000001E000000496E76616C696420657874D9
:1011C00072756465720A0020746F6F206C6F6E67B1
:1011D00020657874727573696F6E207072657665BC
:1011E0006E7465640A0020636F6C642065787472A5
:1011F0007573696F6E2070726576656E7465640ACA
:10120000005761726E696E673A20486F6D696E674C
:101210002042756D702044697669736F72203C209E
:10122000310A00020204486F6D652025732573257D
:1012300073206669727374002066697273740A00A1
:10124000486F6D65200020746F6F206C6F6E672093
:10125000657874727573696F6E2070726576656EED
:101260007465640A0020636F6C642065787472751D
:1012700073696F6E2070726576656E7465640A00BE
:1012800020453A00205A3A0020593A00583A0000C6
:1012900000484200004842555585400101010000C8
:1012A000A0400000A04000000040000057430000A4
:1012B000574300004D4300005743000057430000D0
:1012C0004D43000057430000574300004D430000CA
:1012D0000000000000000000000020573A002057E6
:1012E0003A004520436F6F6C696E672E2E2E0045C5
:1012F0002048656174696E672E2E2E00202F002015
:1013000042403A0020403A00546865726D616C209A
:1013100052756E6177617900453120544845524DD0
:10132000414C2052554E41574159004245442054AA
:101330004845524D414C2052554E4157415900208D
:101340002D20496E76616C696420657874727564CD
:101350006572206E756D62657220210A00486561B4
:1013600074696E67206661696C656400426564201B
:1013700068656174696E67206661696C65640054B4
:101380006865726D616C2052756E6177617900429B
:10139000454420544845524D414C2052554E4157EA
:1013A00041590048656174696E67206661696C65C2
:1013B000640045312048656174696E672066616923
:1013C0006C656400546865726D616C2052756E6165
:1013D00077617900453120544845524D414C2052A7
:1013E000554E41574159004D494E54454D5020747A
:1013F0007269676765726564004531204572723AAB
:10140000204D494E54454D50004572723A204D4989
:101410004E54454D5020424544004D415854454D91
:1014200050207472696767657265640045312045B4
:1014300072723A204D415854454D50004572723AEF
:10144000204D415854454D5020424544006265644A
:10145000002C2073797374656D2073746F707065E0
:101460006421204865617465725F49443A20004BED
:101470006420004B6920004B7020005049442041FB
:1014800075746F74756E652066696E6973686564DE
:10149000212050757420746865206C617374204B32
:1014A000702C204B6920616E64204B6420636F6E4A
:1014B0007374616E74732066726F6D2062656C6FF9
:1014C0007720696E746F20436F6E6669677572610D
:1014D00074696F6E2E680A00504944204175746F1C
:1014E00074756E65206661696C6564212074696D30
:1014F000656F75740A00546865726D616C20527571
:101500006E6177617900453120544845524D414C18
:101510002052554E415741590042454420544845B8
:10152000524D414C2052554E41574159004865613A
:1015300074696E67206661696C6564004531204896
:10154000656174696E67206661696C6564004265F7
:10155000642068656174696E67206661696C6564A2
:1015600000504944204175746F74756E6520666142
:10157000696C6564212054656D7065726174757263
:101580006520746F6F20686967680A00204B643AB1
:101590002000204B693A2000204B703A20000A209E
:1015A000436C617373696320504944200A002054DE
:1015B000753A2000204B753A2000206D61783A2062
:1015C00000206D696E3A200020643A200020626994
:1015D00061733A2000504944204175746F74756EF0
:1015E000652073746172740A005049442041757417
:1015F0006F74756E65206661696C65642120546541
:101600006D706572617475726520746F6F206869A2
:1016100067680A0023646566696E65204445464133
:10162000554C545F004D383420582059205A2045DD
:101630000070012C0190012701B0012201C0011DA1
:1016400001F00118011002130130020E01600209BD
:101650000190020401C002FF000003FA004003F5FC
:10166000008003F000D003EB002004E6007004E1EA
:1016700000E004DC004005D700C005D2004006CDE4
:1016800000D006C8008007C3003008BE00F008B9CB
:1016900000C009B400B00AAF00B00BAA00D00CA57E
:1016A00000000EA000500F9B00C010960050129139
:1016B0000000148C00C0158700B0178200B0197D9F
:1016C00000D01B7800001E730040206E009022693D
:1016D00000F024640040275F0090295A00E02B5559
:1016E00000102E500020304B0010324600E03341F5
:1016F0000090353C001037370070383200A0392D8B
:1017000000B03A2800A03B2300603C1E00103D19A9
:1017100000903D1400103E0F00703E0A00C03E05D0
:1017200000003F0000403FFBFF803FF6FFC03FF15D
:10173000FF2055004C0046696C616D656E74206C2D
:101740006F61642F756E6C6F6164206C656E677479
:1017500068733A0A0020204D3235302043004C4354
:101760004420436F6E74726173743A0A002044001F
:1017700020490020204D3330312050005049442072
:1017800073657474696E67733A0A002046002042DC
:101790000020480020204D3134352053004D617425
:1017A000657269616C206865617475702070617222
:1017B000616D65746572733A0A00205900202047F4
:1017C0003239205333205800205A0020204D343223
:1017D000302053004D65736820426564204C657667
:1017E000656C696E673A0A00205A00205900202073
:1017F0004D323036205800486F6D65206F66667335
:1018000065743A0A00204500205A002059002058EB
:101810000020540020530020204D3230352042005B
:1018200020453C6D61785F655F6A65726B3E0020A4
:10183000583C6D61785F785F6A65726B3E20593CF9
:101840006D61785F795F6A65726B3E205A3C6D61AD
:10185000785F7A5F6A65726B3E00416476616E63A1
:1018600065643A20423C6D696E5F7365676D656EB5
:10187000745F74696D655F75733E20533C6D696E6E
:101880005F66656564726174653E20543C6D696E87
:101890005F74726176656C5F6665656472617465BC
:1018A0003E0020540020520020204D323034205081
:1018B00000416363656C65726174696F6E202875A1
:1018C0006E6974732F7332293A20503C7072696EBE
:1018D000745F616363656C3E20523C726574726133
:1018E00063745F616363656C3E20543C747261761F
:1018F000656C5F616363656C3E0A00204500205A99
:101900000020590020204D3230312058004D6178A0
:10191000696D756D20416363656C65726174696F93
:101920006E2028756E6974732F7332293A0A00206D
:101930004500205A0020590020204D3230332058D5
:10194000004D6178696D756D2066656564726174BE
:1019500065732028756E6974732F73293A0A0053D2
:10196000746570732070657220756E69743A0A0030
:1019700020204D3230302044300A0020204D3230BB
:10198000302044002044697361626C65640A00463B
:10199000696C616D656E742073657474696E6773CC
:1019A0003A0020204D3134392043203B20556E69C8
:1019B000747320696E2043656C736975730A002027
:1019C00020473231202020203B20556E697473203F
:1019D000696E206D6D0048617264636F6465642098
:1019E00044656661756C742053657474696E6773C1
:1019F000204C6F616465640A00E8030000E803009E
:101A000000C8000000E803000000007A4300007AEC
:101A100043000010410000DC420000C8420000C842
:101A2000420000C843D7A3BF42290A00206279744C
:101A300065733B2063726320002073746F7265646A
:101A40002073657474696E6773207265747269655A
:101A5000766564202800202863616C63756C61746E
:101A6000656429210A0020213D2000454550524F40
:101A70004D20435243206D69736D61746368202D5E
:101A8000202873746F7265642920002053697A6579
:101A90003A2000496E6465783A2000204D61726CEE
:101AA000696E3D563638290A00454550524F4D2043
:101AB00076657273696F6E206D69736D61746368AA
:101AC0002028454550524F4D3D00290A002062799B
:101AD0007465733B20637263200053657474696E90
:101AE00067732053746F7265642028004545505217
:101AF0004F4D206461746173697A65206572726FFD
:101B0000722E0A0020286D6D290020204D363033BA
:101B100020006F70656E0054524947474552454456
:101B2000003A20007A5F6D617800795F6D6178001E
:101B3000785F6D6178005265706F7274696E6720AE
:101B4000656E6473746F70207374617475730A00CA
:101B5000456E6473746F70732025632025632025A0
:101B60006320256300205A3A0020593A0020583A51
:101B700000656E6473746F7073206869743A200036
:101B8000486F6D696E67206661696C6564004732F5
:101B9000385859002020506C616E6E65724275662F
:101BA00066657242797465733A20002046726565F5
:101BB000204D656D6F72793A2000436F6D70696CCE
:101BC00065643A204A756C20323820323031390A47
:101BD00000207C20417574686F723A20286E6F6E09
:101BE000652C2064656661756C7420636F6E666930
:101BF00067290A00323031392D30372D3134002039
:101C00004C61737420557064617465643A2000629D
:101C100075676669782D322E302E780A004D617214
:101C20006C696E0020536F6674776172652052652F
:101C30007365740A00205761746368646F6720528B
:101C4000657365740A002042726F776E206F757439
:101C50002052657365740A002045787465726E6160
:101C60006C2052657365740A00506F776572557009
:101C70000A0073746172740A004B494C4C45442E3F
:101C800020005072696E7465722068616C746564BE
:101C90002E206B696C6C28292063616C6C65642153
:101CA0000A004B494C4C206361757365642062796E
:101CB000204B494C4C20627574746F6E2F70696EA6
:101CC0000A004B494C4C206361757365642062794E
:101CD00020746F6F206D75636820696E616374692D
:101CE00076652074696D65202D2063757272656E4E
:101CF0007420636F6D6D616E643A200050726F7472
:101D000065637465642050696E0A00363726023CAC
:101D10003D380F2E303E131A1C1808440AFF4308A2
:101D20000900012020202000202020202020200049
:101D300025753A2530327500253032753A25303216
:101D4000750025756420253032753A2530327500CE
:101D50003FFFF03800703186302387102787902F9F
:101D600087D02F03D020301020781020781020301A
:101D7000102F03D02F87D0278790238710318630EC
:101D80003800703FFFF03FFFF038007030FC30202B
:101D9000FC102078102030102C00D02E31D02F7B5A
:101DA000D02F7BD02E31D02C00D0203010207810B6
:101DB00020FC1030FC303800703FFFF0041040026F
:101DC0000820020820041040082080104100104123
:101DD000000820800410400000001FFFF81FFFF8DB
:101DE0001FFFF81FFFF81FE0201020102010102008
:101DF00010202010201030300840048003001FE025
:101E00003FF03FF03FF01FE01FE03FF03FF03FF0BA
:101E10000FC007800300506C6561736520726573A5
:101E20006574005052494E5445522048414C544527
:101E3000440000060C00FE07022603BC017FFE08DA
:101E4000FE08FE05080806000040F0C8888898785B
:101E500010050808060000C0F88888888888F805FA
:101E600005050600012030F83020050808060000AE
:101E70002070F820202020E00509090600FF2070CE
:101E8000A8A8B888887020050606060001E08CEA3C
:101E90008C8A0A0509090600FFF8A88888888888BE
:101EA000A8F8050A0A0600FE205050505088A8A83D
:101EB000887003030306000340A040FFFFFFFFFFFD
:101EC000FFFFFFFFFFFFFFFFFFFFFFFFFFFFFFFF22
:101ED000FF0000000605FF01070706020080808062
:101EE00080800080030303060105A0A0A00506066C
:101EF00006000050F85050F8500509090600FF2070
:101F000070A8A07028A87020050707060000C8C8A0
:101F1000102040989805070706000040A0A040A8A0
:101F20009068010303060205808080030909060109
:101F3000FF2040408080804040200309090601FFC7
:101F400080404020202040408005070706000020F8
:101F5000A8702070A8200505050600012020F820A3
:101F6000200203030601FFC04080050101060003B3
:101F7000F8020202060100C0C005070706000008BB
:101F8000101020404080050707060000708898A8C0
:101F9000C8887003070706010040C040404040E089
:101FA000050707060000708808102040F80507079D
:101FB000060000F8081030088870050707060000C2
:101FC00010305090F81010050707060000F880F058
:101FD00008088870050707060000304080F08888F0
:101FE00070050707060000F80810102020200507DC
:101FF000070600007088887088887005070706004B
:102000000070888878081060020505060100C0C0CD
:1020100000C0C00206060601FFC0C000C040800329
:10202000050506010120408040200503030600024B
:10203000F800F803050506010180402040800507EF
:102040000706000070881020200020050707060002
:10205000007088B8A8B8807005070706000070886F
:1020600088F8888888050707060000F04848704807
:1020700048F005070706000070888080808870059A
:102080000707060000F04848484848F005070706DB
:102090000000F88080F08080F8050707060000F84F
:1020A0008080F080808005070706000070888080AF
:1020B000988870050707060000888888F88888884F
:1020C000030707060100E04040404040E0050707E5
:1020D0000600003810101010906005070706000079
:1020E0008890A0C0A0908805070706000080808027
:1020F000808080F805070706000088D8A8888888AF
:10210000880507070600008888C8A89888880507FA
:102110000706000070888888888870050707060011
:1021200000F08888F080808005070706000070882E
:102130008888A89068050707060000F08888F0A046
:102140009088050707060000708880700888700571
:102150000707060000F8202020202020050707069A
:10216000000088888888888870050707060000882E
:1021700088888850502005070706000088888888CE
:10218000A8A85005070706000088885020508888B6
:102190000507070600008888502020202005070733
:1021A000060000F80810204080F80309090601FF26
:1021B000E080808080808080E00507070600008046
:1021C0004040201010080309090601FFE0202020EC
:1021D00020202020E005030306000520508805018B
:1021E000010600FEF80303030601058040200505F3
:1021F000050600007008788878050707060000804B
:1022000080F0888888F005050506000070808088C9
:102210007005070706000008087888888878050593
:10222000050600007088F080700507070600003082
:102230004840E04040400507070600FE7088888857
:102240007808700507070600008080F08888888875
:102250000307070601004000C0404040E0040909B0
:102260000601FE10003010101010906005070706E0
:10227000000080808890E09088030707060100C076
:102280004040404040E0050505060000D0A8A8A851
:10229000A8050505060000B0C8888888050505065C
:1022A000000070888888700507070600FEF088889F
:1022B00088F080800507070600FE788888887808FF
:1022C00008050505060000B0C880808005050506E4
:1022D000000078807008F00507070600002020F84D
:1022E00020202018050505060000888888986805C4
:1022F00005050600008888885020050505060000B1
:102300008888A8A850050505060000885020508838
:102310000507070600FE88888850204080050505CF
:10232000060000F8102040F80309090601FF2040CC
:10233000404080404040200109090602FF80808023
:102340008080808080800309090601FF8040404032
:10235000204040408005030306000248A890FF018A
:10236000FFFFFFFFFFFFFFFFFFFFFFFFFF0FFFFF6D
:10237000FFFFFFFFFFFFFFFFFFFFFF1E000000004A
:1023800000000000000007FFFF3800000000000010
:102390000000000003FFFF700000000000000000CC
:1023A000000001FFFF6000000000000000000000CE
:1023B00000FFFF6000000000000000000000007F40
:1023C000FFC000000000000000007800003FFFC0D8
:1023D0000FC0FC00000000007818001FFFC03FE1A4
:1023E000FF0000000000783C000FFFC07FF3FF807B
:1023F00000000000783C0007FFC0FFFFFFC00000A6
:102400000000783C0003FFC1F87F87E00000000077
:1024100078000001FFC1F03F03E0000000007800F9
:102420000000FFC1E01E01E01F0003E0783C03F064
:102430007FC1E01E01E07FC00FF8783C07FC3FC180
:10244000E01E01E1FFE01FFC783C0FFE1FC1E01E13
:1024500001E3FFF03FFE783C1FFE0FC1E01E01E3E9
:10246000F3F83F3E783C3F3F07C1E01E01E7E0FC48
:102470007C1F783C3E1F07C1E01E01E7C07C7C0F3B
:10248000783C3C0F03C1E01E01E7807C780F783C6C
:102490003C0F03C1E01E01E7803C7800783C3C0F14
:1024A00003C1E01E01E7803C7800783C3C0F03C18B
:1024B000E01E01E7803C7800783C3C0F03C1E01E41
:1024C00001E7C03C7800783C3C0F03C1E01E01E30B
:1024D000E03C78007C3C3C0F03C1E01E01E3FF3F81
:1024E000F8007FBC3C0F03C1E01E01E1FF3FF80094
:1024F0003FBFFC0F03C1E01E01E0FF3FF8001FBF1C
:10250000FC0F03C1E01E01E07F3FF8000FBFFC0F8E
:1025100003600000000000000000000000000760F1
:102520000000000000000000000000000670000035
:10253000000000000000000000000E380000000055
:1025400000000000000000001C1E00000000000051
:10255000000000000000780FFFFFFFFFFFFFFFFFFC
:10256000FFFFFFFFF001FFFFFFFFFFFFFFFFFFFF88
:10257000FFFF804572723A207574663820666F6E70
:1025800074206E6F7420696E697469616C697A6514
:10259000642E004572723A207574663820666F6E3C
:1025A00074206E6F7420696E697469616C697A65F4
:1025B000642E004572723A207574663820666F6E1C
:1025C00074206E6F7420696E697469616C697A65D4
:1025D000642E0053746F72652073657474696E673E
:1025E00073004C6F61642073657474696E67730067
:1025F000426564205A00426564205A004661646561
:1026000020486569676874004661646520486569AB
:1026100067687400426564204C6576656C696E6716
:10262000004F6666004F6E00426564204C6576651B
:102630006C696E670045646974204D657368004C71
:102640006576656C20626564004D6F74696F6E001D
:102650005A2056616C7565005A2056616C7565008C
:10266000496E646578205900496E64657820590088
:10267000496E646578205800496E6465782058007A
:10268000426564204C6576656C696E670047323838
:1026900000436C69636B20746F20426567696E004C
:1026A00047323920533100473239205332004E65CA
:1026B000787420506F696E74002569202F2025756D
:1026C000004D6F7665205A00473239205332004C56
:1026D0006576656C696E6720446F6E652100486F92
:1026E0006D696E672058595A004D6F76696E672E76
:1026F0002E2E00466C6F7700466C6F770046616E39
:102700002073706565640046616E20737065656452
:102710000042656400426564004E6F7A7A6C650021
:102720004E6F7A7A6C6500426564205A0042656497
:10273000205A005370656564005370656564004DF0
:1027400061696E00526573746F7265206661696CB1
:1027500073616665004C6F61642073657474696EA3
:1027600067730053746F72652073657474696E6764
:102770007300507265686561742041425320636F35
:102780006E66005072656865617420504C4120632C
:102790006F6E66004C434420636F6E747261737495
:1027A000004C434420636F6E747261737400416423
:1027B00076616E6365642053657474696E67730037
:1027C0004D61696E0053746F72652073657474692E
:1027D0006E67730042656400426564004E6F7A7AEA
:1027E0006C65004E6F7A7A6C650046616E2073707E
:1027F0006565640046616E20737065656400436FB3
:102800006E66696775726174696F6E0044697361A1
:10281000626C65207374657070657273004D383436
:1028200000426564204C6576656C696E6700417591
:10283000746F20686F6D6500473238004D6F7665A4
:102840002061786973004D61696E00457874727516
:10285000646572004D6F7665205A004D6F76652075
:1028600059004D6F7665205800536F667420456E91
:102870006473746F7073004F6666004F6E00536F21
:10288000667420456E6473746F7073004D6F746965
:102890006F6E004578747275646572004D6F766571
:1028A00020302E3032356D6D004D6F766520302E24
:1028B000316D6D004D6F766520316D6D004D6F7619
:1028C000652031306D6D004D6F76652061786973DC
:1028D00000486F74656E6420746F6F20636F6C6462
:1028E000004578747275646572004D6F7665205A84
:1028F000004D6F76652059004D6F76652058004D6C
:102900006F7665205A004D6F76652059004D6F76C1
:1029100065205800496E69740043616E63656C0000
:10292000496E697469616C697A6520454550524FFA
:102930004D003F00496E697469616C697A65204594
:102940004550524F4D0046696C616D656E74005480
:10295000656D70657261747572650053746570732E
:102960002F6D6D004A65726B00416363656C657223
:102970006174696F6E0056656C6F6369747900539A
:10298000657420686F6D65206F666673657473008B
:10299000436F6E66696775726174696F6E00457327
:1029A000746570732F6D6D004573746570732F6D52
:1029B0006D005A73746570732F6D6D005A73746572
:1029C00070732F6D6D005973746570732F6D6D008A
:1029D0005973746570732F6D6D00587374657073DF
:1029E0002F6D6D005873746570732F6D6D004164A9
:1029F00076616E6365642053657474696E677300F5
:102A000056652D6A65726B0056652D6A65726B009E
:102A1000567A2D6A65726B00567A2D6A65726B0064
:102A200056792D6A65726B0056792D6A65726B0056
:102A300056782D6A65726B0056782D6A65726B0048
:102A4000416476616E6365642053657474696E6772
:102A50007300416D6178204500416D61782045002B
:102A6000416D6178205A00416D6178205A00416DB6
:102A70006178205900416D6178205900416D61787D
:102A8000205800416D6178205800412D74726176A4
:102A9000656C00412D74726176656C00412D726524
:102AA000747261637400412D7265747261637400A5
:102AB000416363656C00416363656C0041647661EA
:102AC0006E6365642053657474696E677300565451
:102AD000726176206D696E005654726176206D6960
:102AE0006E00566D696E00566D696E00566D6178A8
:102AF000204500566D6178204500566D6178205A5A
:102B000000566D6178205A00566D61782059005644
:102B10006D6178205900566D6178205800566D61BE
:102B200078205800416476616E6365642053657453
:102B300074696E6773002008204661637400200882
:102B40002046616374002008204D61780020082031
:102B50004D6178002008204D696E002008204D69E5
:102B60006E004175746F74656D70004F6666004F3E
:102B70006E004175746F74656D7000416476616EAE
:102B80006365642053657474696E6773004C6F618C
:102B900064206D6D004C6F6164206D6D00556E6C2E
:102BA0006F6164206D6D00556E6C6F6164206D6D9A
:102BB0000046696C2E204469612E0046696C2E2007
:102BC0004469612E004520696E206D6D5E33004FB3
:102BD0006666004F6E004520696E206D6D5E3300A5
:102BE000416476616E6365642053657474696E67D1
:102BF00073004D34323800436F6F6C646F776E0032
:102C00005072656865617420414253005072656876
:102C100065617420504C410046616E20737065659B
:102C2000640046616E2073706565640042656400EF
:102C3000426564004E6F7A7A6C65004E6F7A7A6CEA
:102C400065004D61696E0050726568656174204170
:102C5000425320426564005072656865617420418A
:102C6000425320456E64005072656865617420416E
:102C700042530054656D70657261747572650050E1
:102C800072656865617420504C4120426564005053
:102C900072656865617420504C4120456E64005037
:102CA00072656865617420504C410054656D7065B3
:102CB000726174757265004E6F20534420636172B7
:102CC00064005072696E742066726F6D2053440008
:102CD0004368616E67652053442063617264004DF0
:102CE0003231004368616E67652066696C616D65AD
:102CF0006E74004368616E67652066696C616D651E
:102D00006E74004D36303020423000436F6E66697D
:102D10006775726174696F6E0054656D706572617C
:102D200074757265004D6F74696F6E0052657375CE
:102D30006D65207072696E740054756E6500537411
:102D40006F70207072696E740050617573652070C9
:102D500072696E7400496E666F2073637265656E8A
:102D60000053746F70004261636B0053746F702086
:102D70007072696E74003F005761697420666F72EB
:102D80000066696C616D656E7420707572676500B0
:102D90005761697420666F72207072696E74007476
:102DA0006F20726573756D652E2E2E0050726573DF
:102DB0007320627574746F6E00746F207265737522
:102DC0006D65207072696E74005761697420666F5A
:102DD000720066696C616D656E74206C6F61640071
:102DE000496E736572742066696C616D656E7400FE
:102DF000616E6420707265737320627574746F6E97
:102E000000746F20636F6E74696E75650050726533
:102E1000737320627574746F6E00746F20686561DF
:102E200074206E6F7A7A6C65004E6F7A7A6C6520CA
:102E300068656174696E6700506C656173652077C1
:102E40006169742E2E2E005761697420666F7200BE
:102E500066696C616D656E7420756E6C6F6164007F
:102E60005761697420666F720066696C616D656E8A
:102E700074206368616E676500746F20737461729B
:102E800074005061726B696E672E2E2E005052498D
:102E90004E542050415553454400554E4C4F4144EB
:102EA0002046494C414D454E54004C4F414420462C
:102EB000494C414D454E540020204E6F7A7A6C6546
:102EC0003A20002000436F6E74696E75650050757E
:102ED000726765206D6F726500524553554D4520F0
:102EE0004F5054494F4E533A004368616E67652016
:102EF00066696C616D656E740050726568656174B9
:102F000020437573746F6D0050726568656174203D
:102F1000437573746F6D005072656865617420410C
:102F20004253005072656865617420504C41004204
:102F300061636B004D3630302042302054256400F0
:102F40004D373032203B2564004D37303220542538
:102F500064004D37303120542564005072696E741E
:102F60002066726F6D205344005072696E74206643
:102F7000726F6D20534400022E2E004D61696E0069
:102F80005072696E740043616E63656C00537461C6
:102F90007274207072696E7420003F004D323400EC
:102FA0004D3235005072696E7420706175736564BE
:102FB000005061757365207072696E74005072699B
:102FC0006E742061626F72746564003344205072C5
:102FD000696E7465722052656164792E0050726961
:102FE0006E74696E672E2E2E005072696E7420709A
:102FF000617573656400436172642072656D6F76FC
:103000006564004361726420696E736572746564FF
:1030100000507265737320627574746F6E20746FE4
:103020002068656174206E6F7A7A6C650A00507250
:1030300065737320627574746F6E20746F2072658F
:1030400073756D650A00496E736572742066696CEC
:10305000616D656E7420616E64207072657373209B
:10306000627574746F6E0A004D3630303A20546FBA
:103070006F20636F6C6400486F74656E6420746FBA
:103080006F20636F6C640A00486F74656E6420740F
:103090006F6F20636F6C640A00496E7365727420F1
:1030A00066696C616D656E7420616E642070726516
:1030B000737320627574746F6E20286F72204D31A7
:1030C0003038290A000A4D65617375726564207095
:1030D0006F696E74733A0A00456E642066696C65A8
:1030E000206C6973740A00426567696E2066696CBA
:1030F00065206C6973740A0043757272656E742082
:1031000066696C653A20004361703A004348414D5E
:103110004245525F54454D50455241545552450029
:103120004D4F54494F4E5F4D4F4445530054484511
:10313000524D414C5F50524F54454354494F4E00FD
:103140004155544F5245504F52545F53445F53546E
:10315000415455530050524F4D50545F53555050A9
:103160004F525400454D455247454E43595F5041DB
:103170005253455200434153455F4C494748545FC1
:103180004252494748544E45535300544F47474CC9
:10319000455F4C494748545300534F46545741529A
:1031A000455F504F574552004255494C445F50458A
:1031B0005243454E54004C4556454C494E475F449A
:1031C000415441005A5F50524F4245004155544FBF
:1031D0004C4556454C005052494E545F4A4F4200B0
:1031E00050524F4752455353004155544F5245504A
:1031F0004F52545F54454D5000564F4C554D455419
:1032000052494300454550524F4D0042494E4152AC
:10321000595F46494C455F5452414E534645520012
:1032200053455249414C5F584F4E5F584F464600F8
:103230004649524D574152455F4E414D453A4D61C9
:10324000726C696E206275676669782D322E302E39
:103250007820284769746875622920534F55524376
:10326000455F434F44455F55524C3A6874747073E0
:103270003A2F2F6769746875622E636F6D2F4D61E9
:10328000726C696E4669726D776172652F4D6172FD
:103290006C696E2050524F544F434F4C5F5645520D
:1032A00053494F4E3A312E30204D414348494E4507
:1032B0005F545950453A3344205072696E746572B8
:1032C0002045585452554445525F434F554E543A49
:1032D0003120555549443A63656465326132662D43
:1032E000343161322D343734382D396231322D6327
:1032F00035356336326633363766660A004D31310E
:10330000332053002F2F2000496E76616C696420B2
:1033100065787472756465720A0020643A002069E9
:103320003A0020703A0043290A0061626C6564200B
:10333000286D696E2074656D702000646973006586
:103340006E00436F6C6420657874727564657320D9
:103350006172652000204500205A00205900204D50
:1033600039322058005741524E494E4721204C6F68
:1033700077205A204A65726B206D6179206C6561F7
:103380006420746F20756E77616E7465642070615F
:10339000757365732E0A0020540020520041636348
:1033A000656C65726174696F6E3A20500020466CDE
:1033B0006F773A200047322F4733206261642070D4
:1033C0006172616D65746572730A00536C65657036
:1033D0002E2E2E004D65736820706F696E74206309
:1033E000616E6E6F74206265207265736F6C7665B6
:1033F000640A00206F6620004D424C20473239207D
:10340000706F696E742000290A004A206F7574205D
:103410006F662072616E67652028302D00290A00D2
:1034200049206F7574206F662072616E6765202871
:10343000302D004D6573682070726F62696E672071
:10344000646F6E652E0A005374617274206D65732B
:10345000682070726F62696E6720776974682022D5
:10346000473239205331222066697273742E0A0064
:103470004732380A47323920533200686173206E70
:103480006F20646174612E0A004D65736820426587
:1034900064204C6576656C696E67200053206F75FB
:1034A00074206F662072616E67652028302D352983
:1034B0002E0A00206E6F7420656E74657265642E2E
:1034C0000A00473238004D65736820706F696E746A
:1034D0002063616E6E6F74206265207265736F6C1D
:1034E0007665640A004D34323120696E636F727202
:1034F00065637420706172616D65746572207573A7
:103500006167650A004F46460A00466164652048C7
:1035100065696768742000426564204C6576656C57
:10352000696E6720004661696C656420746F206570
:103530006E61626C6520426564204C6576656C69DD
:103540006E670A004D65736820426564204C65769D
:10355000656C20646174613A0A00496E76616C6939
:1035600064206D6573682E0A00627573793A207065
:10357000617573656420666F7220696E7075740A78
:1035800000627573793A2070617573656420666FA7
:103590007220757365720A00627573793A207072D1
:1035A0006F63657373696E670A0020496E76616C9C
:1035B00069642065787472756465722000446F6E6A
:1035C0006520736176696E672066696C652E0A00F6
:1035D00053544F505045442E20005072696E74650C
:1035E000722073746F707065642064756520746FE9
:1035F000206572726F72732E204669782074686538
:10360000206572726F7220616E6420757365204D43
:1036100039393920746F20726573746172742E2089
:103620002854656D706572617475726520697320C8
:1036300072657365742E2053657420697420616609
:103640007465722072657374617274696E67290A99
:10365000004E6F20436865636B73756D20776974E6
:1036600068206C696E65206E756D6265722C204CE9
:10367000617374204C696E653A20004E6F20436878
:1036800065636B73756D2077697468206C696E650E
:10369000206E756D6265722C204C617374204C69CC
:1036A0006E653A2000636865636B73756D206D69A4
:1036B000736D617463682C204C617374204C696E67
:1036C000653A20004C696E65204E756D626572200A
:1036D0006973206E6F74204C617374204C696E6541
:1036E000204E756D6265722B312C204C61737420F5
:1036F0004C696E653A20004D31313000526573657A
:103700006E643A20006F6B00220A00656E71756569
:103710007565696E672022005344207265616420DC
:103720006572726F720A00446F6E65207072696E06
:1037300074696E672066696C650A004D3239004312
:103740006C69636B20746F20726573756D652E2EC6
:103750002E004C434420436F6E74726173743A20A0
:10376000004D31343520533C696E6465783E206FDE
:103770007574206F662072616E67652028302D3168
:10378000290A004F666673657473206170706C69F6
:103790006564004572723A20546F6F206661722131
:1037A00000546F6F206661722066726F6D207265C3
:1037B000666572656E636520706F696E740A004598
:1037C0004550524F4D204F4B0A00504944204175FF
:1037D000746F74756E65206661696C656421204242
:1037E0006164206578747275646572206E756D62AF
:1037F00065720A0042656420636F6F6C696E672EA4
:103800002E2E004265642068656174696E672E2EF5
:103810002E006F6B00220A00556E6B6E6F776E2064
:10382000636F6D6D616E643A202200205A0020594A
:1038300000580020204D61783A2000205A0020597D
:1038400000580020204D696E3A2000536F667420A6
:10385000656E6473746F70733A2000334420507245
:10386000696E746572204F46462E004E6F206D6F54
:1038700076652E004543484F00494E464F0045525D
:10388000524F52530044525952554E00434F4D4DE2
:10389000554E49434154494F4E006F666600743897
:1038A00079387E3885388C3844454255473A00503F
:1038B00072696E742074696D653A20002569730021
:1038C00025696D20256973002569682025696D20AB
:1038D00025697300256964202569682025696D20A4
:1038E0002569730025697920256964202569682088
:1038F00025696D20256973009F43238DE5C266CE3F
:1039000042D94E026C02A402D74311241FBECFEF4E
:10391000D1E2DEBFCDBF00E00CBF13E0A0E0B2E01B
:10392000EAE6F7E503E00BBF02C007900D92A23A6A
:10393000B107D9F724E1A2EAB3E001C01D92A03398
:10394000B207E1F71CE1C4E8DCE100E006C0219722
:103950000109802FFE010F94DDA3CC37D10780E051
:103960000807A9F70E94DA2B0D94A4AB0C94000071
:103970001F920F920FB60F9211242F933F938F93A4
:103980009F93AF93BF938091A3039091A403A091C1
:10399000A503B091A6033091A20323E0230F2D3796
:1039A00068F126E8230F0296A11DB11D2093A20302
:1039B0008093A3039093A403A093A503B093A603BD
:1039C0008091A7039091A803A091A903B091AA03A5
:1039D0000196A11DB11D8093A7039093A803A09306
:1039E000A903B093AA03BF91AF919F918F913F918B
:1039F0002F910F900FBE0F901F9018950196A11D4B
:103A0000B11DD4CF2FB7F8946091A3037091A40394
:103A10008091A5039091A6032FBF08958F929F9246
:103A2000AF92BF92CF92DF92EF92FF924B015C0177
:103A30009FB7F894C090A703D090A803E090A90383
:103A4000F090AA0386B5A89B07C08F3F29F02FEFFF
:103A5000C21AD20AE20AF20A9FBFFE2CED2CDC2C1D
:103A6000CC24C80ED11CE11CF11CCC0CDD1CEE1CBE
:103A7000FF1CCC0CDD1CEE1CFF1C81149104A10466
:103A8000B10409F43DC0CED33FB7F8948091A703A9
:103A90009091A803A091A903B091AA0326B5A89B71
:103AA00005C02F3F19F00196A11DB11D3FBFBA2FD0
:103AB000A92F982F8827820F911DA11DB11D880F56
:103AC000991FAA1FBB1F880F991FAA1FBB1F8C1904
:103AD0009D09AE09BF09883E9340A105B10598F242
:103AE00081E0881A9108A108B10828EEC20E23E0EF
:103AF000D21EE11CF11C81149104A104B10421F631
:103B0000FF90EF90DF90CF90BF90AF909F908F90FD
:103B10000895789484B5826084BD84B5816084BD45
:103B200085B5826085BD85B5816085BDEEE6F0E036
:103B3000808181608083E1E8F0E010828081826092
:103B40008083808181608083E0E8F0E08081816013
:103B50008083E1EBF0E0808184608083E0EBF0E043
:103B6000808181608083E1E9F0E0808182608083F0
:103B7000808181608083E0E9F0E0808181608083E2
:103B8000E1EAF0E0808182608083808181608083CF
:103B9000E0EAF0E0808181608083E1E2F1E0808111
:103BA00082608083808181608083E0E2F1E08081B7
:103BB00081608083EAE7F0E0808184608083808197
:103BC000826080838081816080838081806880833F
:103BD0001092C10008951F93CF93DF93182FEB012C
:103BE00061E024D12097D1F0CF3FD10579F0E12FCA
:103BF000F0E0E952FA4FE4918E2F90E0FC0131970A
:103C0000E231F10528F0C038D10544F061E007C089
:103C10008827EE58FF4F8F4F0D94DDA360E0812F72
:103C2000DF91CF911F9143C184B5806884BDC7BD2A
:103C3000DF91CF911F91089584B5806284BDC8BD86
:103C4000F7CF80918000806880938000D0938900B6
:103C5000C0938800EDCF80918000806280938000C7
:103C6000D0938B00C0938A00E3CF8091800088605E
:103C700080938000D0938D00C0938C00D9CF809129
:103C8000B00080688093B000C093B300D1CF809122
:103C9000B00080628093B000C093B400C9CF80911F
:103CA0009000806880939000D0939900C093980012
:103CB000BFCF80919000806280939000D0939B0052
:103CC000C0939A00B5CF8091900088608093900057
:103CD000D0939D00C0939C00ABCF8091A0008068E2
:103CE0008093A0008091A0008F7B8093A000D09350
:103CF000A900C093A8009CCF8091A000806280930F
:103D0000A000D093AB00C093AA0092CF8091A000F6
:103D100088608093A000D093AD00C093AC0088CFA2
:103D200080912001806880932001D0932901C09365
:103D300028017ECF80912001806280932001D09362
:103D40002B01C0932A0174CF809120018860809359
:103D50002001D0932D01C0932C016ACF90E0FC018B
:103D60003197E231F10558F48827EC57FF4F8F4F18
:103D70000D94DDA380912001877F80932001089519
:103D800084B58F7784BD089584B58F7D84BD0895F3
:103D9000809180008F7780938000089580918000CB
:103DA0008F7D80938000089580918000877F80932D
:103DB000800008958091B0008F778093B0000895BF
:103DC0008091B0008F7D8093B00008958091900025
:103DD0008F77809390000895809190008F7D8093DD
:103DE0009000089580919000877F809390000895BF
:103DF0008091A0008F778093A00008958091A0000B
:103E00008F7D8093A00008958091A000877F80938C
:103E1000A0000895809120018F778093200108955C
:103E2000809120018F7D809320010895CF93DF93AF
:103E300090E0FC01E35EF94F2491FC01ED59F94F4C
:103E400084918823B9F090E0880F991FFC01E35218
:103E5000F94FA591B491FC01ED53F94FC591D4915F
:103E6000662359F06230B9F08FB7F894EC91E22BE9
:103E7000EC938FBFDF91CF9108959FB7F8948C9109
:103E8000E22FE0958E238C932881E223E8839FBF65
:103E9000DF91CF9108959FB7F8948C91322F309590
:103EA00083238C93E881E22BE8839FBFE3CF1F93AA
:103EB000CF93DF93282F30E0F901E952FA4F849134
:103EC000F901E35EF94F1491F901ED59F94FC491ED
:103ED000CC23A9F0D62F81111BC0EC2FF0E0EE0F00
:103EE000FF1FED53F94FA591B4918FB7F894D111FD
:103EF0000AC09C91E12FE095E923EC938FBFDF91FD
:103F0000CF911F910895EC91E12BEC938FBFF7CFE8
:103F100025DFE3CFCF93DF93282F30E0F901E9527B
:103F2000FA4F8491F901E35EF94FD491F901ED590B
:103F3000F94FC491CC23B1F0811119C0EC2FF0E0FE
:103F4000EE0FFF1FE755F94FA591B491EC91ED23CA
:103F500081E090E019F0DF91CF91089580E0DF914A
:103F6000CF91089580E090E0DF91CF910895F6DE43
:103F7000E5CF08951F920F920FB60F9211240BB642
:103F80000F922F933F934F935F936F937F938F93F2
:103F90009F93AF93BF93EF93FF93E0910402F0914F
:103FA00005021995FF91EF91BF91AF919F918F916C
:103FB0007F916F915F914F913F912F910F900BBE29
:103FC0000F900FBE0F901F9018951F920F920FB673
:103FD0000F9211240BB60F922F933F934F935F9341
:103FE0006F937F938F939F93AF93BF93EF93FF93C1
:103FF000E0910602F09107021995FF91EF91BF91B0
:10400000AF919F918F917F916F915F914F913F9170
:104010002F910F900BBE0F900FBE0F901F90189511
:104020001F920F920FB60F9211240BB60F922F937F
:104030003F934F935F936F937F938F939F93AF9330
:10404000BF93EF93FF93E0910802F0910902199555
:10405000FF91EF91BF91AF919F918F917F916F9160
:104060005F914F913F912F910F900BBE0F900FBE1C
:104070000F901F9018951F920F920FB60F92112458
:104080000BB60F922F933F934F935F936F937F9352
:104090008F939F93AF93BF93EF93FF93E0910A02A7
:1040A000F0910B021995FF91EF91BF91AF919F9104
:1040B0008F917F916F915F914F913F912F910F90D1
:1040C0000BBE0F900FBE0F901F9018951F920F926E
:1040D0000FB60F9211240BB60F922F933F934F936D
:1040E0005F936F937F938F939F93AF93BF93EF9360
:1040F000FF93E0910002F09101021995FF91EF9179
:10410000BF91AF919F918F917F916F915F914F91EF
:104110003F912F910F900BBE0F900FBE0F901F90ED
:1041200018951F920F920FB60F9211240BB60F9293
:104130002F933F934F935F936F937F938F939F93AF
:10414000AF93BF93EF93FF93E0910202F0910302CC
:104150001995FF91EF91BF91AF919F918F917F91B1
:104160006F915F914F913F912F910F900BBE0F90E8
:104170000FBE0F901F9018951F920F920FB60F92BF
:1041800011240BB60F922F933F934F935F936F932E
:104190007F938F939F93AF93BF93EF93FF93E091A0
:1041A0000C02F0910D021995FF91EF91BF91AF9123
:1041B0009F918F917F916F915F914F913F912F913F
:1041C0000F900BBE0F900FBE0F901F9018951F926F
:1041D0000F920FB60F9211240BB60F922F933F93AD
:1041E0004F935F936F937F938F939F93AF93BF93FF
:1041F000EF93FF93E0910E02F0910F021995FF915A
:10420000EF91BF91AF919F918F917F916F915F914E
:104210004F913F912F910F900BBE0F900FBE0F90BB
:104220001F90189508952F923F924F925F926F9230
:104230007F928F929F92AF92BF92CF92DF92EF9236
:10424000FF920F931F93CF93DF935C01362E242EA2
:10425000422E502E220F220F220F39D0882321F117
:10426000002311F1642C712C88248A94840C912CE5
:104270008FEF881A980A442089F06701C80CD91C6E
:10428000132DE701FE01049120E0422D612FC501AD
:1042900097D62196185FCC15DD05A1F7E60CF71C23
:1042A00023945A945110E7CFDF91CF911F910F9132
:1042B000FF90EF90DF90CF90BF90AF909F908F9046
:1042C0007F906F905F904F903F902F9008950F9345
:1042D000FC010150040F84A996A9941768F00817EF
:1042E00068F02150260F83A995A9961760F028172A
:1042F00060F081E00F910895081710F0041788F31B
:1043000080E00F9108952817D8F381E02617C0F7B1
:104310000F910895DB011496ED91FC91159720E023
:1043200030E061E01994DB011496ED91FC91159752
:1043300020E030E063E01994DB011496ED91FC91EC
:10434000159720E030E062E01994DB011496ED91BE
:10435000FC91159720E030E065E01994DB0114969C
:10436000ED91FC91159766E01994CF92DF92EF9250
:10437000FF920F931F93CF93DF936C017B018A0110
:1043800080E0F801C491811116C0CF3F41F1D701FF
:104390001496ED91FC91159720E030E04C2F65E0EC
:1043A000C6011995882351F180E00F5F1F4FF80176
:1043B000C491882351F3CF3FA1F0CE3F09F45BC0F5
:1043C000C03F90F7C03EE0F4C03D40F5C03C98F5DA
:1043D000C7FDEACF8C2F90E044D180E0E6CF81E0AA
:1043E000E4CFD7011496ED91FC91159720E030E0D1
:1043F0004FEF65E0C60119958111D6CF80E03CC032
:104400004C2F4F70D7011496ED91FC91159720E039
:1044100030E062E0C601199580E0C7CF4C2F4F70A5
:10442000D7011496ED91FC91159720E030E063E000
:10443000C6011995B9CFD7011496ED91FC91159746
:1044400020E030E040E064E0C6011995C295C07FED
:10445000CE5FD0E0CE0105D1D7011496ED91FC914D
:10446000159720E030E041E064E0C6011995CE01E7
:10447000F8D080E09ACF81E0DF91CF911F910F912A
:10448000FF90EF90DF90CF900895CF93DF93EC01F2
:10449000862F90E0FC013197E730F105C8F48827BA
:1044A000EA56FF4F8F4F0D94DDA38EB52F5F3F4F20
:1044B0004150442369F0F90184918EBD0DB407FE8B
:1044C000FDCFF3CF41114EC041E062E0CE017ED07E
:1044D00081E0DF91CF9108954EBD0DB407FEFDCF71
:1044E0008EB581E0DF91CF910895442389F3F901DE
:1044F00081918EBD0DB407FEFDCF8EB54150C1F741
:1045000081E0DF91CF91089562E0CE0131D061E08A
:10451000CE012ED060E0CE012BD08FB7809329142E
:10452000F894239A259A229A2B982D9880912914F1
:104530008FBF41E062E0CE0149D01CBC80E58CBD5C
:1045400081E0DF91CF91089561E0CE013FD081E01D
:10455000DF91CF91089560E0CE0138D081E0DF9106
:10456000CF9108952D9840E062E0CE012FD0B0CFDA
:104570001F93CF93DF931F921F92CDB7DEB7860FA5
:10458000911DFC0113A11F3FD9F0612F669566951F
:10459000669570E0660F771F695F784F42E050E0E4
:1045A000CE0101960F949CA7E981FA8120811770B2
:1045B00081E090E001C0880F1A95EAF7822B808392
:1045C0000F900F90DF91CF911F9108950F931F933C
:1045D000CF93DF931F921F92CDB7DEB7860F911D49
:1045E000FC0113A11F3F09F1042F612F6695669509
:1045F000669570E0660F771F6950794F42E050E092
:10460000CE0101960F949CA7E981FA810023A1F0C5
:104610002FB7F8943081177081E090E001C0880FC7
:104620001A95EAF7832B80832FBF0F900F90DF91AD
:10463000CF911F910F9108953FB7F8942081177083
:1046400081E090E001C0880F1A95EAF780958223F7
:1046500080833FBF0F900F90DF91CF911F910F91FB
:104660000895009739F02EE93FE0F9013197F1F70D
:104670000197D9F70895AF92BF92CF92DF92FF9240
:104680000F931F93CF93DF938C01EB01F42E6901FD
:104690008FE0481709F458C0E5E14E17D1F0FAE071
:1046A0004F1771F096014F2DBE01C801DF91CF91D8
:1046B0001F910F91FF90DF90CF90BF90AF9035C5C5
:1046C00042E0C80127DE4FE157E0BE01C8014DDEE0
:1046D000E9CFAA80BB8047E157E0C80146DEF5017B
:1046E0004481440F406BBE01C8012FDE41E0BE0192
:1046F000C80122DEF501268137814581BE01C8014E
:104700002DDE40E0BE01C8010EDE47E157E0BE01EC
:10471000C8012BDEF5014481440F4F5F406BBE01A1
:10472000C80113DE41E0BE01C80106DEF501458186
:1047300026813781240F311DBE01C8010FDE40E004
:10474000BE01C801F0DDAECF41E0C801ECDD40E0C4
:10475000BE01C801F1DD41E8BE01C801F6DDF60188
:10476000408146954695BE01C801EFDD40E0BE019F
:10477000C801D9DD81E0DF91CF911F910F91FF90AA
:10478000DF90CF90BF90AF900895FC01E60FF11D30
:10479000849190E0982F88273196E4918E0F911D97
:1047A0000895FC0184910895FCDF882321F0823074
:1047B00011F083E0089586E0089580E0089566E0B2
:1047C000E4CF68E0E2CF0A96FC01849108950B964D
:1047D000FC0184910895DC011496ED91FC911597EC
:1047E000319684910895BF92CF92DF92EF92FF921B
:1047F0000F931F93CF93DF937C01D62EDC01149689
:10480000CD91DC911597CE01CCDF182FF701848173
:104810009581CADFB82E113009F496C0CC24CA9411
:10482000D70114968D919C911597CDDF182FF70124
:1048300084819581CCDF082FD70114968D919C91AE
:104840001597BFDFB0E6BD1508F048C0009709F422
:104850003BC0C80FD91F11E60D15D8F00117C8F0DD
:104860004B2D50E00FC01D1509F441C0FE013296DA
:10487000E491EC219A012E0F311DC20FD31F1017A6
:1048800041F01F5FFE0194919F3F69F7219610133D
:10489000F8CFD70150961C92509753961C9253977D
:1048A00054961C92549751961C92519752961C9272
:1048B00080E090E0DF91CF911F910F91FF90EF90FA
:1048C000DF90CF90BF900895F7018481958177DFC5
:1048D000009759F0C80FD91F11E4BECFF7018481AA
:1048E00095816DDFF0E4FD1598F36196B5CFD701A2
:1048F00014968D919C91159754DFFE01882339F110
:10490000823029F18491982F9F709250D70152964E
:104910009C93529782958F7051968C9351973196B4
:10492000E4918E2F8F7054968C935497E295EF708C
:104930005396EC935397FE013296E491E295EF7013
:104940005096EC93CE01B6CF8FE0C82E69CF8491FC
:10495000D70153968C9353973196E4915496EC93E8
:104960005497FE013396E4915096EC935097FE01D4
:104970003496E4915196EC935197FE013596E4916B
:104980005296EC93CE0196CF5F926F927F928F9268
:104990009F92AF92BF92CF92DF92EF92FF920F93CE
:1049A0001F93CF93DF936C01D62F642E622F1BDFF2
:1049B0005C01892B09F453C0F60184819581F4DEF2
:1049C000F82EF601C389148951885D0E8289681A10
:1049D000D62DD11B012F2C2F4D2F652DC60177DC35
:1049E000882359F1C95F7C2E7694769476941123AE
:1049F00021F1AF0CB11C172D110F110F110F150D57
:104A000088248A94870C912CFFEF8F1A9F0A7720B5
:104A100089F0C52D7501F701049120E04D2F6C2F11
:104A2000C601CED2FFEFEF1AFF0AC85FC113F3CF62
:104A3000A80CB91CDF5FD611EACFF6018089DF919F
:104A4000CF911F910F91FF90EF90DF90CF90BF908B
:104A5000AF909F908F907F906F905F90089580E0CF
:104A6000EECFFF920F931F93CF93DF93EC01062FAE
:104A7000142FF22EED89FE891995482F410F2F2D05
:104A8000602FCE01DF91CF911F910F91FF907CCFCE
:104A9000CF92DF92FF920F931F93CF93DF936C011E
:104AA000C62FF42E8901DC015596ED91FC915697A5
:104AB0001995F80EF80120812223B9F00F5F1F4FDE
:104AC000D0E04F2D6C2FC6015FDFC80FD80FD80183
:104AD0002D918D012111F5CF8D2FDF91CF911F9158
:104AE0000F91FF90DF90CF900895D0E0F5CFCF9257
:104AF000DF92FF920F931F93CF93DF936C01162FDA
:104B0000F42EE901DC015596ED91FC91569719952B
:104B1000F80EFE01249100E0222359F04F2D612F61
:104B2000C60132DF180F080F2196FE0124912111D2
:104B3000F5CF802FDF91CF911F910F91FF90DF90E4
:104B4000CF9008952DED33E2FC01368B258B08952F
:104B5000EF92FF920F931F93CF93DF93FB0100819E
:104B6000011108C080E0DF91CF911F910F91FF905C
:104B7000EF900895EB017C01602F35DEF70111897C
:104B800011959981992359F02296F7018089180F80
:104B9000092F692FC70127DE99919111F6CFF701EF
:104BA000003259F093898189890F810FDF91CF916C
:104BB0001F910F91FF90EF9008958089810FDF91F1
:104BC000CF911F910F91FF90EF900895DC01149603
:104BD0008D919C9115978617970709F43BC0159600
:104BE0007C936E9314976115710571F157968C91B2
:104BF0005797FB01882379F1813009F437C03D963E
:104C0000849158968C9358973196649159966C93E9
:104C10005997E82F880FFF0BE61BF10967FDF39505
:104C20005A968C915A97803461F0E89FF0011124D4
:104C30000024EE0FFF1F001CEE0FFF1F001CEF2FC4
:104C4000F02D5B96EC935B978DED93E256969C93DB
:104C50008E93559708953596849158968C935897CE
:104C60003796649159966C935997D3CF3F96C8CF96
:104C7000EF92FF920F931F93CF93DF931F92CDB7C5
:104C8000DEB78C01DC011296ED90FC901397D19663
:104C9000ED91FC91D29782E01995D701ED91FC91AD
:104CA00020E030E04AE0B701C8011995F82ED8019C
:104CB000D196ED91FC91D29783E01995D801D196C8
:104CC000ED91FC91D29780E01995FF20B1F1F801A8
:104CD00062817381DB01ED91FC919E012F5F3F4F5B
:104CE00046E4C80119958981F80180836281738146
:104CF000DB01ED91FC919E012F5F3F4F47E4C8011E
:104D000019958981F801818362817381DB01ED91BD
:104D1000FC9120E030E048E4C8011995F801838750
:104D20006281738198012D5C3F4FDB01ED91FC9115
:104D300047E1C8011995FF24F3948F2D0F90DF915F
:104D4000CF911F910F91FF90EF900895AF92BF9276
:104D5000CF92DF92EF92FF920F931F93CF93DF9347
:104D60001F92CDB7DEB77C016B01A42EB22EDC0101
:104D700015961C921E92149717961C921E921697C7
:104D800019961C92199711E018961C93189782E2B5
:104D90001A968C931A971F961C921E921E974EE09D
:104DA00050E06FEF70E0C70183960F9410A8F701F1
:104DB00010A3C701C7DED70157961C935797589683
:104DC0001C92589759961C92599780E45A968C9346
:104DD0005A975B961C925B9784EF9AE2D2969C93CB
:104DE0008E93D1971396DC92CE9212979596AC92B1
:104DF00095979496BC92949793960C9382E0F4D3F3
:104E0000D601ED91FC9120E030E04AE0B601C70107
:104E10001995182FD701D196ED91FC91D29783E087
:104E20001995D701D196ED91FC91D29780E0199513
:104E30001123A9F1F70162817381DB01ED91FC91EE
:104E40009E012F5F3F4F46E4C70119958981F70105
:104E5000808362817381DB01ED91FC919E012F5F64
:104E60003F4F47E4C70119958981F701818362812A
:104E70007381DB01ED91FC9120E030E048E4C70153
:104E80001995F70183876281738197012D5C3F4FEC
:104E9000DB01ED91FC9147E1C701199511E0812FEC
:104EA0000F90DF91CF911F910F91FF90EF90DF90C6
:104EB000CF90BF90AF9008950F931F93CF93DF9340
:104EC000EC010A811B81E9A9FAA982E01995E9A9F7
:104ED000FAA981E01995D801ED91FC9120E030E02C
:104EE00044E1B801CE0119959E012D5C3F4FD801D8
:104EF000ED91FC9147E1B801CE011995E9A9FAA914
:104F000080E0DF91CF911F910F911994FF920F9341
:104F10001F93CF93DF93EC01EE85FF85309709F067
:104F200019950A811B81E9A9FAA982E01995E9A9D5
:104F3000FAA981E01995D801ED91FC9120E030E0CB
:104F400045E1B801CE011995F82E882351F0D8011A
:104F5000ED91FC919E012D5C3F4F47E1B801CE01E0
:104F60001995E9A9FAA980E019958F2DDF91CF91C4
:104F70001F910F91FF900895CF93DF931F92CDB7AC
:104F8000DEB7FC01A281B3816983ED91FC91119799
:104F90009E012F5F3F4F4FE0BD0119950F90DF91AC
:104FA000CF910895FC01A281B381648F458F9C014C
:104FB000245E3F4FED91FC91119742E3BD0119949E
:104FC0000F93CF93DF93DC011296CD91DC91139771
:104FD0005C966C935C975D964C935D975F962C9373
:104FE0005F975E960C939C01245E3F4FE881F981A8
:104FF0004BE3BE01DF91CF910F911994FC0160A3A7
:105000000895FC0112828081815083831482089567
:10501000FC0120818281820F82839181891760F453
:1050200084818F5F84838381820F891710F08FEFD3
:10503000890F838381E0089580E00895DC01FB01FE
:10504000108212968C911297818315968C911597E8
:105050008150828313968C9183830895FC01DB0138
:1050600011962C91119713968C918130E9F0833031
:1050700041F438EF320F91E02317E0F4822F232F11
:1050800002C0822F90E031E04381421708F430E003
:1050900021E04281841708F420E0892F832B282304
:1050A000832F8923822B089588E0820F91E0821755
:1050B00050F3E8CF90E0822F232FE5CFDC01169646
:1050C000ED91FC91179712968C911297481B4830DE
:1050D00028F015968C91E80FF11D477081E090E063
:1050E00001C0880F4A95EAF7E60FF11D211105C0AE
:1050F000809590818923808308959081892B808376
:105100000895FB014181FC012281421748F023816F
:10511000241730F0FB013081FC012581321708F0A3
:105120000895FB012481632FC9CFDF92EF92FF9294
:105130000F931F93CF93DF93FB010281138150E004
:10514000FA017497E433F10548F081E0DF91CF91E3
:105150001F910F91FF90EF90DF900895E90188274C
:10516000E356FF4F8F4F0D94DDA3B901C80176DFE1
:10517000882359F3FA808B81813009F47CC008F4CC
:1051800076C0823009F46FC0833009F069C0DD2435
:10519000DA94E12C08C088818E0D888389818D0D79
:1051A0008983FF0C91F2F7FEF6CFBE01C801A9DF9B
:1051B000F2CFF8018181888381E0DF91CF911F9147
:1051C0000F91FF90EF90DF900895F801458150E036
:1051D000440F551F60E070E0868197810F9410A8FE
:1051E000C8010FDF81E0DF91CF911F910F91FF90F8
:1051F000EF90DF900895C8010BDF882309F4A6CF54
:10520000F801458150E0440F551F60E070E0868151
:1052100097810F9410A899CFB901C8010FDF81E0E1
:10522000DF91CF911F910F91FF90EF90DF90089544
:10523000B901C80166DF81E0DF91CF911F910F9125
:10524000FF90EF90DF900895F8018581888381E0D9
:10525000DF91CF911F910F91FF90EF90DF90089514
:10526000D12CE12CA0CFD12CEE24EA949CCFD12CD0
:10527000EE24E39498CFDD24D394E12C94CFCF9205
:10528000DF92EF92FF920F931F93CF93DF937C01F6
:10529000C62E142FD22E01E01AD8811109C0DF9139
:1052A000CF911F910F91FF90EF90DF90CF900895D5
:1052B00047E04D1548F5E6010FEF20E0412F6C2F38
:1052C000C7017EDED850C85FD830B0F79D2D9770EB
:1052D00028E02C0D88EF8D0D887FC82EC20E9923F3
:1052E000F1F287E089278F5F87702FEF30E0A90107
:1052F00002C0440F551F8A95E2F7042F20E0412F8A
:105300006C2DC7015DDECBCF9D2DE9CF8F929F9293
:10531000AF92BF92CF92DF92EF92FF920F931F93C3
:10532000CF93DF9300D0CDB7DEB79B838A83C62EA1
:10533000E42EB22ED02E0E946721811110C00F9052
:105340000F900F90DF91CF911F910F91FF90EF90F1
:10535000DF90CF90BF90AF909F908F90089587E09F
:105360008B1508F0CAC0FB2C1C2D0FEF20E04E2D32
:10537000612F8A819B8124DE88EFF80E185F87E019
:105380008F1598F39B2D977068EF6B0D687F685FA2
:105390006C0D992379F087E089278F5F87700FEF75
:1053A00010E001C0000F8A95EAF720E04E2D8A81B7
:1053B0009B8106DE87E08D1508F075C0FD2C1E2D43
:1053C0000FEF21E0412F6C2D8A819B81F9DD88EF61
:1053D000F80E185F87E08F1598F38D2D8770982E43
:1053E00088E0882E8E0C88EF8D0D8983482F487FAA
:1053F000480D992079F087E089258F5F87700FEF3E
:1054000010E001C0000F8A95EAF721E06C2D8A8137
:105410009B81D6DDAA24AA94AB0CAC0CFD2C1E2DCE
:105420000FEF21E0412F6A2D8A819B81C9DD88EF32
:10543000F80E185F87E08F1598F3892D4981487F12
:10544000480D911048C0DA94ED0C87E08B1508F0F8
:1054500052C0FB2C1C2D0FEF20E04E2D612F8A81B6
:105460009B81AEDD88EFF80E185F87E08F1598F30B
:105470009B2D977088EF8B0D887F885FC80E9923CE
:1054800009F45DCF87E089278F5F87700FEF10E009
:1054900001C0000F8A95EAF720E04E2D6C2D8A811D
:1054A0009B818EDD4CCFDD2071F287E08D258F5FF3
:1054B00087700FEF10E001C0000F8A95EAF721E036
:1054C0004E2D6C2D8A819B817BDDAA24AA94AB0C86
:1054D000AC0C8D2D4E2D97E089278F5F87700FEFD5
:1054E00010E001C0000F8A95EAF721E06A2D8A8159
:1054F0009B8166DDA8CF9B2DC2CF9B2D6C2D49CF04
:105500006F927F928F929F92AF92BF92CF92DF92D3
:10551000EF92FF920F931F93CF93DF937C01862E20
:10552000142FA22EB02E98E0960F88EF820F887F5E
:10553000982E990E2770722E87E0682ECC24CA947C
:10554000D12C37E03A1588F5DA2DC82D0FEF20E081
:10555000412F6C2FC70134DDD850C85FD830B0F769
:10556000872D692D882371F086258F5F87709601BE
:1055700002C0220F331F8A95E2F7022F20E0412F4D
:10558000C7011EDD1F5FBA94B110DBCFDF91CF9151
:105590001F910F91FF90EF90DF90CF90BF90AF9051
:1055A0009F908F907F906F9008958A2D682DDACF0D
:1055B000DF92EF92FF920F931F93CF93DF93EC0153
:1055C000162FF42EE22E0E946721882329F02E2D1B
:1055D0004F2D612FCE0194DFDF91CF911F910F915D
:1055E000FF90EF90DF900895089580E090E0089597
:1055F0000895CF92DF92EF92FF920F931F93CF9374
:10560000DF934115510509F16A018C017B01C0E06E
:10561000D0E004C02196CC16DD0669F0D7016D916B
:105620007D01D801ED91FC910190F081E02DC80140
:105630001995892B79F7CE01DF91CF911F910F91A9
:10564000FF90EF90DF90CF900895C0E0D0E0F3CFCF
:10565000DC01ED91FC910190F081E02D19941F92F5
:105660000F920FB60F9211240BB60F922F933F9308
:105670004F935F936F937F938F939F93AF93BF935A
:10568000EF93FF938091AE049091AF04A091B0048A
:10569000B091B104892B8A2B8B2BE1F19091AB0453
:1056A000E091AC04F091AD048081892780838091E2
:1056B000AE049091AF04A091B004B091B10418165B
:1056C00019061A061B069CF48091AE049091AF0453
:1056D000A091B004B091B1040197A109B1098093E0
:1056E000AE049093AF04A093B004B093B104FF91C3
:1056F000EF91BF91AF919F918F917F916F915F914A
:105700004F913F912F910F900BBE0F900FBE0F90B6
:105710001F90189580911E02E2E4F7E0E4919FEF5C
:1057200090931E02E23041F170F0E430F9F0C0F0E5
:10573000E53029F4909173009D7F9093730060E0B1
:105740000E94571FD4CFEE2341F0E130C1F7909172
:105750006F009D7F90936F00F2CF10926E00EFCF9D
:10576000909171009D7F90937100E9CF90917200AC
:105770009D7F90937200E3CF909170009D7F9093F6
:10578000700091E09093B0009091B100987F946088
:105790009093B1001092B300D2CF0F93FC0113AEDF
:1057A00014AE15AE0496D2DA0F91089580E090E021
:1057B000089508950E94891DFCDF0E9438CDC0E045
:1057C000D0E0209719F40E9420CEFDCF0E9420CE79
:1057D0000E940000F6CF4F925F926F927F928F925D
:1057E0009F92AF92BF92CF92DF92EF92FF920F9370
:1057F0001F93CF93DF93EC016A017B0128013901EC
:105800008F89803109F45DC0803291F080E0DF91B2
:10581000CF911F910F91FF90EF90DF90CF90BF90AD
:10582000AF909F908F907F906F905F904F90089572
:105830008B889C88AD88BE88DB01CA0147E0B6959D
:10584000A795979587954A95D1F7880E991EAA1E18
:10585000BB1E4091B9065091BA066091BB0670918B
:10586000BC0684169506A606B70609F044C081E07A
:105870008093B604E894C7F8DD24EE24FF24C60123
:10588000880F991F880F991FFC01E754FB4F408236
:105890005182628273828A89823008F473C08D815A
:1058A0009E81AF81B885880E991EAA1EBB1E80926C
:1058B000B2049092B304A092B404B092B50481E013
:1058C000A6CF8D2C9E2CAF2CBB248B899C89AD89B7
:1058D000BE89880E991EAA1EBB1E4091B906509122
:1058E000BA066091BB067091BC0684169506A606A2
:1058F000B70609F449C08091B604811128C029EB8C
:1059000034E0B501A4018091B7049091B8040E94DD
:105910007846882309F47ACF8092B9069092BA0625
:10592000A092BB06B092BC068F8991E09093B6041A
:10593000803109F09FCFDD24EE24FF24C601880FBB
:10594000991FFC01E754FB4F51824082A4CF29EB01
:1059500034E08091B7049091B8040E942D478823C9
:1059600009F454CF4091B2045091B3046091B4044F
:105970007091B504411551056105710549F4109206
:10598000B604BDCF81E043CF81E08093B604D3CF8E
:1059900029EB34E08091B7049091B8040E942D4720
:1059A000882309F433CF1092B2041092B3041092FA
:1059B000B4041092B504E3CF2F923F924F925F92BE
:1059C0006F927F928F929F92AF92BF92CF92DF920F
:1059D000EF92FF920F931F93CF93DF93CDB7DEB774
:1059E0002F970FB6F894DEBF0FBECDBF9A83898381
:1059F000DC0119968D909D90AD90BC901C97D501BF
:105A0000C4010196A11DB11D8D839E83AF83B8870C
:105A1000F901C080D180E280F380C114D104E10497
:105A2000F10409F41EC1FFEFCF1ADF0AEF0AFF0AE3
:105A30001D8689288A288B2881F1190149875A8770
:105A40006B877C8726013701812C912C54010981B9
:105A50001A811F870E872D813E814F8158852C1515
:105A60003D054E055F0550F412E0C12ED12CE12C0E
:105A7000F12C02E0402E512C612C712C8C159D05CF
:105A8000AE05BF0550F0AE85BF8557968C915797F0
:105A9000803109F490C08032D9F0B12C8B2D2F9633
:105AA0000FB6F894DEBF0FBECDBFDF91CF911F912F
:105AB0000F91FF90EF90DF90CF90BF90AF909F90AD
:105AC0008F907F906F905F904F903F902F900895B0
:105AD00053964D915D916D917C915697D701C6017A
