:100000000C94AF1E0C94EF210C941A220C944522F0
:100010000C9470220C949B220C94C6220C94F12216
:100020000C941C230C94E01E0C94E01E0C94E01E17
:100030000C94E01E0C947B230C94E01E0C94E01EA8
:100040000C94E01E0C9469560C94E01E0C94E01E77
:100050000C94E01E0C94E01E0C947EA40C94E21E02
:100060000C94E01E0C94C4520C9486530C94E01E25
:100070000C94E01E0C94E01E0C94E01E0C94E01E08
:100080000C94E01E0C94E01E0C94E01E0C94E01EF8
:100090000C94E01E0C94E01E0C94E01E0C94E01EE8
:1000A0000C94E01E0C94E01E0C94E01E0C94E01ED8
:1000B0000C94E01E0C94E01E0C94E01E0C94E01EC8
:1000C0000C94E01E0C94E01E0C94E01E0C94E01EB8
:1000D0000C94E01E0C94E01E0C94E01E0C94E01EA8
:1000E0000C94E01E49205120562060206A203820C0
:1000F00074207C2084208E209820A220B120BB2058
:100100003820C520CF20D920F520F920FD2003215B
:100110000921F4200F2115211B21212127212D2127
:1001200033213921F4203F214521EF201E53435331
:1001300032533B532C53EF525253EF524E535653BC
:10014000EF521953110287028F028D0213026102CE
:1001500051024302730253020B02FF015B025B0276
:10016000670267020D02EB01EB01EB01EB01EB0112
:10017000EB01EB01EB01EB01EB01EB01EB01EB011F
:10018000EB01EB01EB010F02EB01EB01EB01EB01EA
:10019000EB017D02F30199023102EB01EB01EB016E
:1001A000EB01EB01EB01EB01EB01EB01EB01EB01EF
:1001B000EF01EB01EB01EB01EB01EB01EB01EB01DB
:1001C000EB01EB01EB01EB01EB01EB01EB01EB01CF
:1001D000EB01EB01EB01EB01EB01EB01EB01EB01BF
:1001E000EB01EB01EB01EB01EB01EB01EB01EB01AF
:1001F000EB01EB01EB01EB01EB01EB01EB01EB019F
:10020000EB01EB01EB01EB01EB01EB01EB01EB018E
:10021000370217025F02410241023B023B02150214
:10022000F701F701F701F701F701F701F701F7010E
:10023000F701F701F701F701F701F701F701F701FE
:100240002F02F701F701F701F701F7018B023302E3
:100250001B02F101F701F701F701F701F701F701BF
:10026000F701F701F701F701F7012D02F701F70197
:10027000F701F701F701F701F701F701F701F701BE
:10028000F701F701F701F701F701F701F701F701AE
:10029000F701F701F701F701F701F701F701F7019E
:1002A000F701F701F701F701F701F701F701F7018E
:1002B000F701F701F701F701F701F701F701F7017E
:1002C000F701F701F701F701F701ED01FD01650203
:1002D000250225027B027B02550271027102710226
:1002E0007102710271027102710271027102710276
:1002F0007102710271027102710257027102710280
:10030000710271027102910293026F026B0271021B
:100310007102710271027102710271027102710245
:10032000710271021902710271027102710271028D
:100330007102710271027102710271027102710225
:100340007102710271027102710271027102710215
:100350007102710271027102710271027102710205
:1003600071027102710271027102710271027102F5
:1003700071027102710271027102710271027102E5
:10038000710271027F0275028902084AD73B3BCE97
:10039000016E84BCBFFDC12F3D6C74319ABD568384
:1003A0003DDA3D00C77F11BED9E4BB4C3E916BAA3C
:1003B000AABE000000803F05A84CCDB2D44EB9388B
:1003C00036A9020C50B9918688083CA6AAAA2ABE72
:1003D000000000803F000D94257D0D94EC800D946D
:1003E000427E0D94DF800D94387E0D94A5190D94F6
:1003F000D77F0D94A04F0D942B3D0D94F2800D945A
:1004000033260D948F4C0D94A22E0D94CF000D9495
:100410004C0C0D94118B0D9430260D94497E0D9447
:10042000297D0D9436260D941F260D94F6800D948B
:10043000457E0D9410840D94E2800D946D1E0D94F4
:10044000EE000D94C40D0D94B20F0D94EC830D9439
:10045000D51C0D942F010D943D1B0D94EF800D9430
:10046000DB7F0D94327E0D94E5800D947E140D9407
:100470003F7E0D94E7040D94F9800D94CD240D94E6
:10048000E2120D9401810D9428260D94283D0D94BF
:10049000130D0D943F260D94FE4C0D94DE140D9417
:1004A00075160D9425260D940B260D94EF830D944F
:1004B00088820D9420030D94547E0D9463070D944F
:1004C0002F7E0D9422260D940D180D94DC800D9432
:1004D0004C7E0D94FD000D94FA830D94930F0D94B2
:1004E00004840D9484820D942D260D940A840D9419
:1004F00035230D9464090D94F2830D943C7E0D9484
:100500000D840D949D210D9405200D949B2E0D942A
:1005100039260D9407840D94E9800D9414260D94CA
:100520003C260D9401840D94FD830D94762D0D943D
:10053000153D0D94357E4E414E494E495459494E14
:1005400046CDCCCC3D0AD7233C17B7D13877CC2B3E
:10055000329595E6241FB14F0A000020410000C8E3
:100560004200401C4620BCBE4CCA1B0E5AAEC59D64
:100570007400407A10F35A00A0724E18090010A5BA
:10058000D4E80000E87648170000E40B54020000AD
:10059000CA9A3B000000E1F5050000809698000033
:1005A0000040420F000000A086010000001027005C
:1005B000000000E803000000006400000000000AE2
:1005C00000000000000100000000002C76D888DC4C
:1005D000674F0823DFC1DFAE59E1B1B796E5E3E429
:1005E00053C63AE651997696E8E6C28426EB898CA2
:1005F0009B62ED407C6FFCEFBC9C9F40F2BAA56F04
:10060000A5F490055A2AF75C936B6CF9676DC11BD2
:10061000FCE0E40D47FEF520E6B500D0ED902E039A
:1006200000943577050080841E080000204E0A00E3
:100630000000C80C333333330F986E12831141EF2F
:100640008D2114893BE65516CFFEE6DB18D1844B8D
:10065000381BF77C1D901DA4BBE424203284725EFD
:10066000228100C9F124ECA1E53D2700000A0B021C
:10067000090C0D0E08070304010000000000000033
:10068000000000000000000000000000000000006A
:100690000000000000000012111000000000000027
:1006A000000000000000000000000000000000004A
:1006B0000001021020200808102040102040800275
:1006C0000102010804020101020408102040808098
:1006D000402010080402018004020180402010081C
:1006E00004020108040201010204081020408001F4
:1006F00002040810204080050505050705080808C4
:1007000008020202020A0A080804040404010101A2
:1007100001010101010303030303030303040707AA
:10072000070C0C0C0C0C0C0C0C0202020206060648
:1007300006060606060B0B0B0B0B0B0B0B00002023
:10074000002300260029002C002F003200000100A9
:100750000003010601090100002200250028002BEA
:10076000002E003100340002010000050108010BD9
:100770000100002100240027002A002D0030003352
:100780000001010000040107010A01024D31313767
:10079000004D33310043616E6E6F7420656E746579
:1007A00072207375626469723A20002E0A006F70BD
:1007B000656E206661696C65642C2046696C653ADB
:1007C00020006175746F25632E67006572726F7209
:1007D0002077726974696E6720746F2066696C6532
:1007E0000A004E6F74205344207072696E74696EF3
:1007F000670A005344207072696E74696E672062E4
:1008000079746520002E0A0044656C6574696F6E0A
:10081000206661696C65642C2046696C653A20002D
:1008200046696C652064656C657465643A0057724E
:100830006974696E6720746F2066696C653A200080
:100840002E0A006F70656E206661696C65642C20ED
:1008500046696C653A20002E0A006F70656E20664E
:1008600061696C65642C2046696C653A20004669B4
:100870006C652073656C65637465640A0020536958
:100880007A653A200046696C65206F70656E656414
:100890003A20002066696C653A20006672657368CC
:1008A00000646F696E67004E6F772000454E4420EC
:1008B000535542524F5554494E450A002220706FFD
:1008C00073002220706172656E743A2200535542A3
:1008D000524F5554494E452043414C4C207461724F
:1008E0006765743A2200747279696E6720746F20AC
:1008F00063616C6C207375622D67636F646520663D
:10090000696C6573207769746820746F6F206D61FE
:100910006E79206C6576656C732E204D4158206C85
:100920006576656C2069733A310A004D3234004DAA
:1009300032332025730053442063617264206F6B4F
:100940000A006F70656E526F6F74206661696C6526
:10095000640A00766F6C756D652E696E6974206629
:1009600061696C65640A00534420696E697420668D
:1009700061696C0A00286E6F2066696C6529004306
:10098000616E6E6F74206F70656E2073756264693E
:100990007220007C3C3E5E2B3D3F2F5B5D3B2C2A52
:1009A000225C004F4646004F4E006563686F3A0078
:1009B0004572726F723A004572726F722077726977
:1009C00074696E6720746F20454550524F4D210A5F
:1009D00000205A3A0020423A0020436F756E74207E
:1009E000413A00043700001E290000511B00005846
:1009F00010000010090000CC040000780200004143
:100A000001000024F4D43050C38E20C2A2401782CB
:100A10008B7011127A910D816CD90AA861E108C717
:100A2000586607615143061E4B5D05C145A7041A70
:100A3000411104093D9803713931034036DB0265E9
:100A4000339102D4305402802E1D02632CEE0175C6
:100A50002AC501B028A001102781018F2564012B30
:100A6000244B01E0223401AC211F018D200D0180B7
:100A70001FFC00841EED00971DDF00B81CD200E6AD
:100A80001BC600201BBC00641AB200B219A8000AE1
:100A900019A0006A189900D117910040178B00B572
:100AA00016840031167E00B31579003A157300C71D
:100AB000146F0058146A00EE136600881363002553
:100AC000135E00C7125B006C12570015125400C170
:100AD00011510070114F0021114B00D61049008DAB
:100AE0001047004610440002104200C00F40008032
:100AF0000F3E00420F3C00060F3B00CB0E38009328
:100B00000E37005C0E3500270E3400F30D3200C1A5
:100B10000D3100900D3000600D2E00320D2D0005BE
:100B20000D2C00D90C2B00AE0C2900850C29005C83
:100B30000C2700350C27000E0C2600E80B2400C4FF
:100B40000B2400A00B23007D0B23005A0B2100393E
:100B50000B2100180B2000F80A1F00D90A1E00BB49
:100B60000A1E009D0A1D00800A1D00630A1C004722
:100B70000A1B002C0A1B00110A1A00F7091A00DDD3
:100B8000091900C4091900AB091900920917007B63
:100B9000091800630917004C0916003609160020D1
:100BA0000916000A091500F5081500E0081400CC24
:100BB000081400B8081400A4081400900813007D5D
:100BC0000812006B0813005808120046081200347F
:100BD000081100230811001208110001081100F08B
:100BE000071000E0071000D0071000C0071000B089
:100BF000070F00A107100091070E0083070F007474
:100C0000070F0065070E0057070E0049070E003B4F
:100C1000070D002E070E0020070D0013070D00061C
:100C2000070D00F9060C00ED060D00E0060C00D4DF
:100C3000060C00C8060C00BC060C00B0060C00A494
:100C4000060B0099060C008D060B0082060B007740
:100C5000060B006C060B0061060A0057060B004CE1
:100C6000060A0042060A0038060A002E060A002478
:100C7000060A001A060A001006090007060A00FD07
:100C8000050900F4050900EB050900E2050900D992
:100C9000050900D0050900C7050900BE050900B512
:100CA000050800AD050800A50509009C050800948D
:100CB0000508008C050800840508007C0508007400
:100CC0000508006C050700650508005D050700566E
:100CD0000508004E050700470507004005080038D5
:100CE000050700310507002A050700230507001C3A
:100CF000050600160507000F050700080506000297
:100D0000050700FB040600F5040700EE040600E8F2
:100D1000040600E2040700DB040600D5040600CF49
:100D2000040600C9040600C3040600BD040600B79B
:100D3000040600B1040500AC040600A6040600A0E9
:100D40000405009B04060095040500900406008A33
:100D500004050085040500800406007A040500757A
:100D6000040500700405006B0405006604050061BD
:100D70000405005C04050057040500520405004DFD
:100D800004050048040500430405003E0404003A3D
:100D900004050035040500300404002C0405002778
:100DA000040400230405001E0404001A04040016B1
:100DB000040500110404000D0404000904050004E6
:100DC00004040000040400FC030400F8030400F41D
:100DD000030400F0030400EC030400E8030400E44F
:100DE000030400E0030400DC030400D8030400D47F
:100DF000030400D0030400CC030400C8030300C5AF
:100E000003030024F404D9201BC40C5C0E9804C412
:100E1000095F0265077101F405F900FB04B300489E
:100E2000048700C10369005803550003034500BE51
:100E3000023A008402310053022A002902250004EC
:100E4000022000E4011C00C8011900AF011700983E
:100E500001140084011300710110006101100051A0
:100E6000010E0043010D0036010B002B010B002089
:100E7000010B00150109000C01090003010800FB2A
:100E8000000800F3000800EB000700E4000600DEA5
:100E9000000600D8000600D2000600CC000500C7FE
:100EA000000500C2000500BD000400B9000400B543
:100EB000000400B1000400AD000400A9000400A576
:100EC000000300A20003009F0004009B00030098A1
:100ED0000003009500020093000300900003008DC2
:100EE0000002008B000300880002008600020084DC
:100EF000000300810002007F0002007D0002007BF1
:100F00000002007900020077000100760002007400
:100F100000020072000100710002006F0002006D0B
:100F20000001006C0002006A000100690002006715
:100F3000000100660001006500010064000200621B
:100F400000010061000100600001005F0002005D1F
:100F50000001005C0001005B0001005A0001005923
:100F60000001005800010057000100560001005523
:100F70000001005400010053000000530001005222
:100F800000010051000100500001004F0001004E1F
:100F90000000004E0001004D0001004C0001004B1C
:100FA0000000004B0001004A000100490001004818
:100FB0000000004800010047000100460000004614
:100FC000000100450000004500010044000100430D
:100FD0000000004300010042000000420001004107
:100FE00000000041000100400001003F0000003F00
:100FF0000001003E0000003E0001003D0000003DF9
:101000000001003C0000003C0000003C0001003BEF
:101010000000003B0001003A0000003A00010039E6
:1010200000000039000100380000003800000038DE
:1010300000010037000000370001003600000036D4
:1010400000000036000100350000003500000035CA
:1010500000010034000000340000003400010033BF
:1010600000000033000000330001003200000032B5
:1010700000000032000100310000003100000031AA
:101080000001003000000030000000300001002F9F
:101090000000002F0000002F0000002F0001002E94
:1010A0000000002E0000002E0001002D0000002D89
:1010B0000000002D0000002D0001002C0000002C7D
:1010C0000000002C0000002C0001002B0000002B71
:1010D0000000002B0000002B0001002A0000002A65
:1010E0000000002A0000002A000100290000002959
:1010F000000000290000002900000029000100284C
:10110000000000280000002800000028000000283F
:101110000001002700000027000000270000002732
:101120000000002700010026000000260000002625
:101130000000002600000026000100250000002518
:10114000000000250000002500000025000000250B
:1011500000010024000000240000002400000024FE
:1011600000000024000100230000002300000023F1
:1011700000000023000000230000002300000023E3
:1011800000010022000000220000002200000022D6
:1011900000000022000000220001002100000021C8
:1011A00000000021000000210000002100000021BB
:1011B00000000021000100200000002000000020AD
:1011C000000000200000002000000020000000209F
:1011D000000000200001001F0000001F0000001F91
:1011E0000000001F0000001F0000001F0000001F83
:1011F0000001001E0000001E0000001E0000001E76
:1012000000000050726F62696E67204661696C650C
:10121000640A0050726F62696E67204661696C658E
:101220006400496E76616C696420657874727564D7
:1012300065720A0020746F6F206C6F6E672065788E
:1012400074727573696F6E2070726576656E746501
:10125000640A0020636F6C6420657874727573692A
:101260006F6E2070726576656E7465640A005761F2
:10127000726E696E673A20486F6D696E67204275BD
:101280006D702044697669736F72203C20310A00CA
:10129000020204486F6D652025732573257320466F
:1012A00069727374002046697273740A00486F6D26
:1012B00065200020746F6F206C6F6E6720657874F6
:1012C000727573696F6E2070726576656E74656491
:1012D0000A0020636F6C6420657874727573696F9F
:1012E0006E2070726576656E7465640A0020453AFA
:1012F00000205A3A0020593A00583A00000048426B
:101300000000484200008040FFFFFF0000A04000B6
:1013100000A0400000004000004843000048430097
:101320000048430000000000000000000000000032
:10133000004843000048430000484300000000000C
:101340000000000000000020573A0020573A0045F6
:1013500020436F6F6C696E672E2E2E004520486506
:101360006174696E672E2E2E00202F002042403AB5
:101370000020403A00546865726D616C2052756EB1
:101380006177617900453120544845524D414C20E8
:1013900052554E4157415900424544205448455208
:1013A0004D414C2052554E4157415900202D204966
:1013B0006E76616C696420657874727564657220FC
:1013C0006E756D62657220210A0048656174696EF0
:1013D00067206661696C65640042656420486561E8
:1013E00074696E67204661696C6564005468657253
:1013F0006D616C2052756E617761790042454420C1
:10140000544845524D414C2052554E415741590088
:1014100048656174696E67206661696C6564004542
:10142000312048656174696E67204661696C656446
:1014300000546865726D616C2052756E61776179D8
:1014400000453120544845524D414C2052554E41A3
:10145000574159004D494E54454D502074726967AB
:101460006765726564004531204572723A204D49C6
:101470004E54454D50004572723A204D494E5445E8
:101480004D5020424544004D415854454D50207424
:101490007269676765726564004531204572723A0A
:1014A000204D415854454D50004572723A204D41EF
:1014B0005854454D502042454400626564002C203C
:1014C00073797374656D2073746F70706564212017
:1014D0004865617465725F49443A20004B6420009E
:1014E0004B6920004B702000504944204175746FB7
:1014F00074756E652066696E697368656421205035
:10150000757420746865206C617374204B702C2096
:101510004B6920616E64204B6420636F6E7374614D
:101520006E74732066726F6D2062656C6F772069D0
:101530006E746F20436F6E66696775726174696F50
:101540006E2E680A00504944204175746F74756EA0
:1015500065206661696C6564212074696D656F75CD
:10156000740A00546865726D616C2052756E617703
:10157000617900453120544845524D414C20525527
:101580004E415741590042454420544845524D412F
:101590004C2052554E415741590048656174696E5F
:1015A00067206661696C6564004531204865617437
:1015B000696E67204661696C656400426564204815
:1015C000656174696E67204661696C6564005049A5
:1015D00044204175746F74756E65206661696C6531
:1015E00064212054656D7065726174757265207434
:1015F0006F6F20686967680A00204B643A200020FA
:101600004B693A2000204B703A20000A20436C615D
:101610007373696320504944200A00204B643A20C8
:1016200000204B693A2000204B703A20000A204EDF
:101630006F206F76657273686F6F740A002054753F
:101640003A2000204B753A2000206D61783A200046
:10165000206D696E3A200020643A200020626961A2
:10166000733A2000504944204175746F74756E655B
:101670002073746172740A00504944204175746F7C
:1016800074756E65206661696C6564212054656DB2
:10169000706572617475726520746F6F2068696718
:1016A000680A0023646566696E65204445464155B5
:1016B0004C545F004D383420582059205A204500A2
:1016C0001000AE0160038900B0066B00000A5B00E9
:1016D000500D5000A0104700F01340004017390093
:1016E000901A3300E01D2E003021290080242300B1
:1016F000D0271E00202B1900702E1400C0310E00C0
:101700001035070060380000B03BF5FF003FDDFFFB
:1017100070012C0190012701B0012201C0011D01BF
:10172000F00118011002130130020E0160020901DC
:1017300090020401C002FF000003FA004003F5001C
:101740008003F000D003EB002004E6007004E10009
:10175000E004DC004005D700C005D2004006CD0003
:10176000D006C8008007C3003008BE00F008B900EA
:10177000C009B400B00AAF00B00BAA00D00CA5009D
:10178000000EA000500F9B00C01096005012910058
:1017900000148C00C0158700B0178200B0197D00BE
:1017A000D01B7800001E730040206E00902269005C
:1017B000F024640040275F0090295A00E02B550078
:1017C000102E500020304B0010324600E033410014
:1017D00090353C001037370070383200A0392D00AA
:1017E000B03A2800A03B2300603C1E00103D1900C9
:1017F000903D1400103E0F00703E0A00C03E0500F0
:10180000003F0000403FFBFF803FF6FFC03FF1FF7D
:101810002055004C0046696C616D656E74206C6FDC
:1018200061642F756E6C6F6164206C656E6774689F
:10183000733A0A0020204D383531205A005A2D5075
:10184000726F6265204F66667365740020440020E5
:10185000490020204D33303120500050494420733E
:10186000657474696E67733A0A002046002042006E
:1018700020480020204D3134352053004D617465DF
:101880007269616C20686561747570207061726145
:101890006D65746572733A0A002059002020473242
:1018A00039205333205800205A0020204D34323044
:1018B0002053004D65736820426564204C65766551
:1018C0006C696E673A0A00205A0020590020204DAA
:1018D000323036205800486F6D65206F666673653C
:1018E000743A0A00204500205A0020590020580070
:1018F00020540020530020204D323035204200205B
:10190000453C6D61785F655F6A65726B3E0020588B
:101910003C6D61785F785F6A65726B3E20593C6D03
:1019200061785F795F6A65726B3E205A3C6D6178C1
:101930005F7A5F6A65726B3E00416476616E6365D3
:10194000643A20423C6D696E5F7365676D656E74C5
:101950005F74696D655F75733E20533C6D696E5FA2
:1019600066656564726174653E20543C6D696E5FA6
:1019700074726176656C5F66656564726174653EFC
:101980000020540020520020204D323034205000DE
:10199000416363656C65726174696F6E2028756E52
:1019A0006974732F7332293A20503C7072696E74D7
:1019B0005F616363656C3E20523C72657472616363
:1019C000745F616363656C3E20543C74726176653C
:1019D0006C5F616363656C3E0A00204500205A001D
:1019E00020590020204D3230312058004D61786957
:1019F0006D756D20416363656C65726174696F6EAE
:101A00002028756E6974732F7332293A0A002045B5
:101A100000205A0020590020204D32303320580039
:101A20004D6178696D756D20666565647261746578
:101A3000732028756E6974732F73293A0A005374E2
:101A40006570732070657220756E69743A0A0020A3
:101A5000204D3230302044300A0020204D323030CA
:101A60002044002044697361626C65640A00466921
:101A70006C616D656E742073657474696E67733A1A
:101A80000020204D3134392043203B20556E6974AD
:101A90007320696E2043656C736975730A0020209A
:101AA000473231202020203B20556E697473206915
:101AB0006E206D6D0048617264636F6465642044DC
:101AC000656661756C742053657474696E67732004
:101AD0004C6F616465640A00E8030000E8030000DD
:101AE000C8000000E80300000000FA430000FA43C9
:101AF0000000A0400000C8410000A0420000A04239
:101B0000CD0C464300003A42290A002062797465F0
:101B1000733B2063726320002073746F72656420CE
:101B200073657474696E6773207265747269657623
:101B30006564202800202863616C63756C6174659E
:101B40006429210A0020213D2000454550524F4D77
:101B500020435243206D69736D61746368202D20AA
:101B60002873746F7265642920002053697A653A7E
:101B70002000496E6465783A2000204D61726C69DE
:101B80006E3D563638290A00454550524F4D207655
:101B9000657273696F6E206D69736D61746368201F
:101BA00028454550524F4D3D004E6F2045455052FF
:101BB0004F4D2E0A00290A002062797465733B207C
:101BC000637263200053657474696E677320537485
:101BD0006F7265642028004E6F20454550524F4D6E
:101BE0002E0A00454550524F4D206461746173695F
:101BF0007A65206572726F722E0A003A0A002028F8
:101C00006D6D290020204D36303320006F70656ED9
:101C100000545249474745524544003A20007A5FF4
:101C20006D696E00795F6D696E00785F6D696E0039
:101C30005265706F7274696E6720656E6473746F3D
:101C400070207374617475730A00456E6473746FE9
:101C500070732025632025632025632025630020E1
:101C60005A3A0020593A0020583A00656E6473745D
:101C70006F7073206869743A2000486F6D696E67F1
:101C8000204661696C65640047323858590020204D
:101C9000506C616E6E6572427566666572427974EB
:101CA00065733A20002046726565204D656D6F7240
:101CB000793A2000436F6D70696C65643A20417514
:101CC0006720323320323031390A00207C204175C0
:101CD00074686F723A20286E6F6E652C206465669A
:101CE00061756C7420636F6E666967290A00323013
:101CF00031392D30382D323100204C61737420552C
:101D00007064617465643A20006275676669782D55
:101D1000322E302E780A004D61726C696E002053AD
:101D20006F6674776172652052657365740A00206E
:101D30005761746368646F672052657365740A0045
:101D40002042726F776E206F7574205265736574D0
:101D50000A002045787465726E616C205265736567
:101D6000740A00506F77657255700A00737461725F
:101D7000740A004B494C4C45442E20005072696E49
:101D80007465722068616C7465642E206B696C6C7C
:101D900028292063616C6C6564210A004B494C4C16
:101DA00020636175736564206279204B494C4C2037
:101DB000627574746F6E2F70696E0A004B494C4CDB
:101DC0002063617573656420627920746F6F206D84
:101DD00075636820696E6163746976652074696DE6
:101DE00065202D2063757272656E7420636F6D6D52
:101DF000616E643A200050726F746563746564208C
:101E000050696E0A00363726033C3D380E2E303EB0
:101E1000121A1C1808440AFF43080900015072698D
:101E20006E742066726F6D204D656469610050723A
:101E3000696E742066726F6D204D6564696100057E
:101E40002E2E004D61696E005072696E7400436100
:101E50006E63656C005374617274205072696E74A5
:101E600020003F0053746F72652053657474696E6F
:101E70006773004C6F61642053657474696E677397
:101E80000050726F6265205A204F66667365740059
:101E900050726F6265205A204F6666736574004207
:101EA0006564205A00426564205A004661646520DA
:101EB00048656967687400466164652048656967BC
:101EC000687400426564204C6576656C696E6700D5
:101ED0004F6666004F6E00426564204C6576656C07
:101EE000696E670045646974204D657368004C65D0
:101EF00076656C20426564004D6F74696F6E005AA0
:101F00002056616C7565005A2056616C75650049F4
:101F10006E646578205900496E64657820590049DF
:101F20006E646578205800496E64657820580042D8
:101F30006564204C6576656C696E670047323800D1
:101F4000436C69636B20746F20426567696E00475C
:101F5000323920533100473239205332004E6578F0
:101F60007420506F696E74002569202F202575003C
:101F70004D6F7665205A00473239205332004C6548
:101F800076656C696E6720446F6E652100486F6DE1
:101F9000696E672058595A004D6F76696E672E2E0C
:101FA0002E00466C6F7700466C6F770046616E209E
:101FB00053706565640046616E205370656564000A
:101FC00042656400426564004E6F7A7A6C65004E2B
:101FD0006F7A7A6C6500426564205A00426564201D
:101FE0005A005370656564005370656564004D6107
:101FF000696E00526573746F7265206661696C73F7
:10200000616665004C6F61642053657474696E6726
:10201000730053746F72652053657474696E6773CF
:1020200000507265686561742041425320436F6EB1
:1020300066005072656865617420504C4120436FA2
:102040006E660050726F6265205A204F6666736537
:10205000740050726F6265205A204F666673657413
:1020600000416476616E6365642053657474696EC3
:102070006773004D61696E0053746F72652053651C
:102080007474696E67730042656400426564004E53
:102090006F7A7A6C65004E6F7A7A6C650046616E75
:1020A0002053706565640046616E205370656564F9
:1020B00000436F6E66696775726174696F6E004484
:1020C000697361626C65205374657070657273002A
:1020D0004D383400426564204C6576656C696E67E6
:1020E00000486F6D65205A00473238205A00486F0B
:1020F0006D65205900473238205900486F6D6520C2
:1021000058004732382058004175746F20486F6D71
:102110006500473238004D6F76652041786973005D
:102120004D61696E004578747275646572004D6F1B
:102130007665205A004D6F76652059004D6F7665A3
:10214000205800536F667420456E6473746F70730B
:10215000004F6666004F6E00536F667420456E64D4
:1021600073746F7073004D6F74696F6E004578748F
:102170007275646572004D6F76652025736D6D0014
:10218000004D6F766520302E316D6D004D6F766598
:1021900020316D6D004D6F76652031306D6D004DD5
:1021A0006F7665204178697300486F74656E6420AE
:1021B000746F6F20636F6C6400457874727564652A
:1021C00072004D6F7665205A004D6F76652059007C
:1021D0004D6F76652058004D6F7665205A004D6F23
:1021E00076652059004D6F7665205800496E6974F8
:1021F0000043616E63656C00496E697469616C6966
:102200007A6520454550524F4D003F00496E697434
:1022100069616C697A6520454550524F4D004669A9
:102220006C616D656E740054656D70657261747576
:1022300072650053746570732F6D6D004A65726B23
:1022400000416363656C65726174696F6E00566509
:102250006C6F636974790053657420486F6D6520F5
:102260004F66667365747300436F6E666967757257
:102270006174696F6E004573746570732F6D6D00C6
:102280004573746570732F6D6D005A737465707348
:102290002F6D6D005A73746570732F6D6D005973D7
:1022A000746570732F6D6D005973746570732F6D45
:1022B0006D005873746570732F6D6D00587374657D
:1022C00070732F6D6D00416476616E636564205399
:1022D000657474696E67730056652D4A65726B008C
:1022E00056652D4A65726B00567A2D4A65726B00F1
:1022F000567A2D4A65726B0056792D4A65726B00CD
:1023000056792D4A65726B0056782D4A65726B00BE
:1023100056782D4A65726B00416476616E63656420
:102320002053657474696E677300416D6178204550
:1023300000416D6178204500416D6178205A00416F
:102340006D6178205A00416D6178205900416D61BE
:1023500078205900416D6178205800416D617820E6
:102360005800412D54726176656C00412D547261A4
:1023700076656C00412D5265747261637400412D65
:102380005265747261637400416363656C004163FC
:1023900063656C00416476616E63656420536574A7
:1023A00074696E6773005654726176204D696E00D1
:1023B0005654726176204D696E00566D696E0056F6
:1023C0006D696E00566D6178204500566D6178200C
:1023D0004500566D6178205A00566D6178205A008C
:1023E000566D6178205900566D6178205900566D00
:1023F0006178205800566D617820580041647661FC
:102400006E6365642053657474696E677300504928
:1024100044204175746F74756E65005049442041C5
:1024200075746F74756E65002002204661637400D8
:1024300020022046616374002002204D6178002054
:1024400002204D6178002002204D696E002002209C
:102450004D696E004175746F74656D70004F6666EE
:10246000004F6E004175746F74656D700041647645
:10247000616E6365642053657474696E6773004DA3
:102480003330332055312045256920532569004CD0
:102490006F6164206D6D004C6F6164206D6D00553F
:1024A0006E6C6F6164206D6D00556E6C6F616420A1
:1024B0006D6D0046696C2E204469612E0046696C82
:1024C0002E204469612E004520696E206D6D5E33BB
:1024D000004F6666004F6E004520696E206D6D5E90
:1024E0003300416476616E6365642053657474697A
:1024F0006E6773004D34323800436F6F6C646F77D2
:102500006E005072656865617420414253005072DC
:10251000656865617420504C410046616E205370BF
:102520006565640046616E205370656564004265B0
:102530006400426564004E6F7A7A6C65004E6F7A73
:102540007A6C65004D61696E0050726568656174F2
:102550002041425320426564005072656865617491
:102560002041425320456E64005072656865617475
:10257000204142530054656D7065726174757265D7
:10258000005072656865617420504C41204265645A
:10259000005072656865617420504C4120456E643E
:1025A000005072656865617420504C410054656D3F
:1025B0007065726174757265004E6F204D65646957
:1025C00061005072696E742066726F6D204D656493
:1025D0006961004368616E6765204D6564696100EB
:1025E0004D3231004368616E67652046696C616DEC
:1025F000656E74004368616E67652046696C616D45
:10260000656E74004D36303020423000436F6E6688
:10261000696775726174696F6E0054656D7065727B
:102620006174757265004D6F74696F6E00526573E9
:10263000756D65205072696E740054756E65005337
:10264000746F70205072696E7400506175736520EC
:102650005072696E7400496E666F205363726565CF
:102660006E0053746F70004261636B0053746F703F
:10267000205072696E74003F005761697420666F64
:10268000720066696C616D656E7420707572676545
:10269000005761697420666F72207072696E7400F1
:1026A000746F20726573756D652E2E2E00507265E5
:1026B000737320427574746F6E00746F207265734B
:1026C000756D65207072696E74005761697420665B
:1026D0006F720066696C616D656E74206C6F616409
:1026E00000496E736572742066696C616D656E7405
:1026F00000616E6420707265737320627574746F0C
:102700006E00507265737320627574746F6E00741E
:102710006F2068656174206E6F7A7A6C65004E6F09
:102720007A7A6C652068656174696E6700506C65C3
:1027300061736520776169742E2E2E00576169746C
:1027400020666F720066696C616D656E7420756ECF
:102750006C6F6164005761697420666F720066690E
:102760006C616D656E74206368616E6765005061B1
:10277000726B696E672E2E2E005052494E542050B7
:10278000415553454400554E4C4F41442046494C19
:10279000414D454E54004C4F41442046494C414D1B
:1027A000454E540020204E6F7A7A6C653A20002006
:1027B00000436F6E74696E756500507572676520B1
:1027C0006D6F726500524553554D45204F50544929
:1027D0004F4E533A004368616E67652046696C61ED
:1027E0006D656E7400507265686561742043757321
:1027F000746F6D0050726568656174204375737401
:102800006F6D0050726568656174204142530050DD
:1028100072656865617420504C41004261636B00D1
:102820004D36303020423020542564004D37303250
:10283000203B2564004D37303220542564004D374D
:10284000303120542564004D3234004D3235005073
:1028500072696E74205061757365640050617573A0
:1028600065205072696E74005072696E7420416206
:102870006F72746564003344205072696E746572BF
:102880002052656164792E005072696E74696E67BA
:102890002E2E2E005072696E74205061757365641F
:1028A000004D656469612052656D6F766564004D09
:1028B0006564696120496E73657274656400A10086
:1028C00000006900A20000006300B00000000900E1
:1028D000C10000004100C20000004100C300000030
:1028E0004100C40000004100C50000004100C600D6
:1028F00000004145C70000004300C800000045003B
:10290000C90000004500CD0000004900D1000000D2
:102910004E00D50000004F00D60000004F00D70049
:1029200000007800DC0000005500DD0000005900C8
:10293000E00000006100E10000006100E200000032
:102940006100E30000006100E40000006100E500B8
:1029500000006100E60000006165E7000000630020
:10296000E80000006500E90000006500EA000000E2
:102970006500EB0000006500EC0000006900ED0060
:1029800000006900EE0000006900EF00000069002F
:10299000F10000006E00F20000006F00F300000084
:1029A0006F00F40000006F00F50000006F00F600FB
:1029B00000006F00F80000006F00F90000007500D3
:1029C000FA0000007500FB0000007500FC0000002C
:1029D0007500FD0000007900FF000000790004018F
:1029E00000004100050100006100060100004300F5
:1029F0000701000063000C01000043000D0100000E
:102A000063000E01000044000F010000640011018A
:102A1000000064001901000065001F01000067004C
:102A2000300100004900310100006900410100004F
:102A30004C00420100006C00430100004E004401C4
:102A400000006E00480100006E0059010000720095
:102A50005A01000053005B01000073005F01000099
:102A60007300600100005300610100007300650104
:102A7000000074006F01000075007C0100007A0006
:102A80007D0100005A007E0100007A0092010000E2
:102A90006600E3020000780084030000270085033D
:102AA00000002700860300004100870300002E007D
:102AB0008803000045008903000048008A030000E5
:102AC00049008C0300004F008E03000059008F0363
:102AD00000004F00900300006900910300004100D6
:102AE000920300004200930300005400940300008E
:102AF0003400950300004500960300005A00970338
:102B000000004800980300003000990300004900CD
:102B10009A0300004B009B0300005E009C03000032
:102B20004D009D0300004E009E03000033009F03F4
:102B300000004F00A00300006E00A1030000500041
:102B4000A30300004500A40300005400A5030000F7
:102B50005900A60300007000A70300005800A80356
:102B600000005000A90300004F00AA030000490024
:102B7000AB0300005900AC0300006100AD0300008E
:102B80006500AE0300006E00AF0300006900B003F3
:102B900000007600B10300006100B20300004200B3
:102BA000B30300007600B40300006400B503000026
:102BB0006500B60300005A00B70300006E00B803BA
:102BC00000003000B90300006900BA0300006B0088
:102BD000BB0300004C00BC0300007500BD030000F7
:102BE0007600BE0300006500BF0300006F00C00355
:102BF00000006E00C10300007000C203000063000B
:102C0000C30300006F00C40300007400C50300008C
:102C10007600C60300007000C70300005800C80318
:102C200000005700C90300007700CA0300006900D4
:102C3000CB0300007600CC0300006F00CD03000042
:102C40007600CE0300007700010400004500100468
:102C50000000410011040000620012040000420064
:102C60001304000054001404000051001504000077
:102C70004500160400002A0017040000450018044F
:102C800000004E00190400004E001A0400004B0022
:102C90001B04000054001C0400004D001D04000033
:102CA00048001E0400004F001F0400006E002004B6
:102CB00000005000210400004300220400005400E2
:102CC000230400005900240400006F0025040000C4
:102CD000580026040000550027040000790028044D
:102CE000000057002904000057002A040000620079
:102CF0002B040000627C2C04000062002D04000004
:102D000065002E0400007C4F2F040000397C300445
:102D1000000061003104000036003204000042006F
:102D20003304000072003404000061003504000028
:102D30006500360400002A003704000065003804EE
:102D4000000075003904000075003A0400006B00B3
:102D50003B0400006E003C0400006D003D040000D8
:102D600048003E0400006F003F0400006E00400475
:102D70000000700041040000630042040000740081
:102D80004304000079004404000071704504000011
:102D900078004604000075004704000079004804EC
:102DA000000077004904000077004A040000620038
:102DB0004B040000627C4C04000062004D040000E3
:102DC00065004E0400007C6F4F0400006700510452
:102DD00000006500222000002E001E210000507817
:102DE00022210000544D902100003C2D9221000032
:102DF0002D3EB02100000300BB21000004003C2256
:102E000000007E00482200007E3D60220000213D3F
:102E1000612200003D00642200003C3D652200006C
:102E20003E3DF12300000700A03000003D0021F3EB
:102E300001000200C2F401000500A2000000EC0045
:102E4000B0000000DF00E4000000E100F600000038
:102E5000EF00F7000000FD00FC000000F500E302B9
:102E60000000EB0087030000A5008F030000F400C2
:102E700098030000F2009E030000E300A30300009B
:102E8000F600A9030000F400AC030000E000AD036D
:102E90000000E300B1030000E000B2030000E20024
:102EA000B5030000E300B8030000F200BC0300001B
:102EB000E400BE030000E300C0030000F700C1030C
:102EC0000000E600C3030000E500902100007F0041
:102ED000922100007E001A220000E8001E2200005D
:102EE000F30088250000FF0002300000A1000C3034
:102EF0000000A2000D300000A3009B300000DE00A7
:102F00009C300000DF00A03000003D00A130000038
:102F1000A700A2300000B100A3300000A800A43038
:102F20000000B200A5300000A900A6300000B300E8
:102F3000A7300000AA00A8300000B400A9300000AB
:102F4000AB00AA300000B500AB300000B600AC30DA
:102F50000000B6DEAD300000B700AE300000B7DED6
:102F6000AF300000B800B0300000B8DEB130000073
:102F7000B900B2300000B9DEB3300000BA00B4309E
:102F80000000BADEB5300000BB00B6300000BBDE8A
:102F9000B7300000BC00B8300000BCDEB930000023
:102FA000BD00BA300000BDDEBB300000BE00BC304A
:102FB0000000BEDEBD300000BF00BE300000BFDE3E
:102FC000BF300000C000C0300000C0DEC1300000D3
:102FD000C100C2300000C1DEC3300000AF00C43009
:102FE0000000C200C5300000C2DEC6300000C300D1
:102FF000C7300000C3DEC8300000C400C930000084
:10300000C4DECA300000C500CB300000C600CC30A2
:103010000000C700CD300000C800CE300000C9005D
:10302000CF300000CA00D0300000CADED13000002E
:10303000CADFD2300000CB00D3300000CBDED4306A
:103040000000CBDFD5300000CC00D6300000CCDE55
:10305000D7300000CCDFD8300000CD00D9300000E0
:10306000CDDEDA300000CDDFDB300000CE00DC301A
:103070000000CEDEDD300000CEDFDE300000CF000D
:10308000DF300000D000E0300000D100E13000006F
:10309000D200E2300000D300E3300000AC00E430A6
:1030A0000000D400E5300000AD00E6300000D5009F
:1030B000E7300000AE00E8300000D600E930000044
:1030C000D700EA300000D800EB300000D900EC3027
:1030D0000000DA00ED300000DB00EF300000DC0023
:1030E000F2300000A600F3300000DD00F4300000F4
:1030F000B3DEF7300000DCDEFA300000A6DEFB3085
:103100000000A500FC300000B000FD300000A4006D
:10311000074E0000FB0086510000FC0043530000F6
:10312000FA0064FF0000A40065FF0000A50066FF30
:103130000000A60067FF0000A70068FF0000A800CD
:1031400069FF0000A9006AFF0000AA006BFF0000F1
:10315000AB006CFF0000AC006DFF0000AD006EFF27
:103160000000AE006FFF0000AF0070FF0000B00075
:1031700071FF0000B10072FF0000B20073FF000099
:10318000B30074FF0000B40075FF0000B50076FFC7
:103190000000B60077FF0000B70078FF0000B8001D
:1031A00079FF0000B9007AFF0000BA007BFF000041
:1031B000BB007CFF0000BC007DFF0000BD007EFF67
:1031C0000000BE007FFF0000BF0080FF0000C000C5
:1031D00081FF0000C10082FF0000C20083FF0000E9
:1031E000C30084FF0000C40085FF0000C50086FF07
:1031F0000000C60087FF0000C70088FF0000C8006D
:1032000089FF0000C9008AFF0000CA008BFF000090
:10321000CB008CFF0000CC008DFF0000CD008EFFA6
:103220000000CE008FFF0000CF0090FF0000D00014
:1032300091FF0000D10092FF0000D20093FF000038
:10324000D30094FF0000D40095FF0000D50096FF46
:103250000000D60097FF0000D70098FF0000D800BC
:1032600099FF0000D9009AFF0000DA009BFF0000E0
:10327000DB009CFF0000DC009DFF0000DD009EFFE6
:103280000000DE009FFF0000DF00E5FF00005C00A3
:10329000506C6561736520526573657400505249C6
:1032A0004E5445522048414C544544002D2D2D2D5F
:1032B0002D2D007C4D61726C696E7C002D2D2D2DA5
:1032C0002D2D00687474703A2F2F6D61726C696EC9
:1032D00066772E6F726700687474703A2F2F6D6175
:1032E000726C696E66772E6F726700687474703ADC
:1032F0002F2F6D61726C696E66772E6F7267006238
:1033000075676669782D322E302E78006275676693
:1033100069782D322E302E78006275676669782DB7
:10332000322E302E780000687474703A2F2F6D6141
:10333000726C696E66772E6F726700687474703A8B
:103340002F2F6D61726C696E66772E6F72670068E1
:103350007474703A2F2F6D61726C696E66772E6F80
:10336000726700206275676669782D322E302E787C
:1033700000001C1F11111F00000006191803130C78
:1033800000040E1F041C000000000E1315110E0097
:10339000001C10181705060500040A0A0A0A111174
:1033A0000E0C12120C00000000001F1511151F005A
:1033B0000000000000010204040000001C1C0C04BA
:1033C00004040201000000000004081000000000D6
:1033D000002D2D2D005344002020202000202020EF
:1033E000202020200025753A253032750025303206
:1033F000753A2530327500507265737320627574AA
:10340000746F6E20286F72204D3130382920746F10
:103410002068656174206E6F7A7A6C650A0050725C
:1034200065737320627574746F6E20286F72204DFF
:103430003130382920746F20726573756D650A000C
:10344000496E736572742066696C616D656E742077
:10345000616E6420707265737320627574746F6E30
:1034600020286F72204D313038290A004D36303017
:103470003A20546F6F20436F6C6400486F74656E20
:103480006420746F6F20636F6C640A00486F74650A
:103490006E6420746F6F20636F6C640A00496E73F2
:1034A0006572742066696C616D656E7420616E640E
:1034B00020707265737320627574746F6E20286F4C
:1034C00072204D313038290A000A4D6561737572DA
:1034D000656420706F696E74733A0A00456E6420EB
:1034E00066696C65206C6973740A00426567696E71
:1034F0002066696C65206C6973740A00437572728A
:10350000656E742066696C653A20004361703A000C
:103510004348414D4245525F54454D5045524154F8
:10352000555245004D4F54494F4E5F4D4F44455302
:1035300000544845524D414C5F50524F54454354FE
:10354000494F4E004155544F5245504F52545F53CE
:10355000445F5354415455530050524F4D50545FA3
:10356000535550504F525400454D455247454E43D8
:10357000595F50415253455200434153455F4C49B6
:103580004748545F4252494748544E4553530054AC
:103590004F47474C455F4C494748545300534F46AB
:1035A00054574152455F504F574552004255494C80
:1035B000445F50455243454E54004C4556454C4996
:1035C0004E475F44415441005A5F50524F424500BC
:1035D0004155544F4C4556454C005052494E545F4E
:1035E0004A4F420050524F475245535300415554A1
:1035F0004F5245504F52545F54454D5000564F4C1A
:10360000554D455452494300454550524F4D004297
:10361000494E4152595F46494C455F5452414E53C1
:103620004645520053455249414C5F584F4E5F58F2
:103630004F4646004649524D574152455F4E414D17
:10364000453A4D61726C696E206275676669782DC6
:10365000322E302E782028476974687562292053ED
:103660004F555243455F434F44455F55524C3A686E
:10367000747470733A2F2F6769746875622E636F64
:103680006D2F4D61726C696E4669726D77617265FE
:103690002F4D61726C696E2050524F544F434F4C06
:1036A0005F56455253494F4E3A312E30204D4143DB
:1036B00048494E455F545950453A33442050726949
:1036C0006E7465722045585452554445525F434FBD
:1036D000554E543A3120555549443A636564653234
:1036E0006132662D343161322D343734382D3962F0
:1036F00031322D6335356336326633363766660AC6
:10370000004D3131332053002F2F2000496E766158
:103710006C69642065787472756465720A0020644F
:103720003A0020693A0020703A0043290A00616299
:103730006C656420286D696E2074656D702000646E
:10374000697300656E00436F6C64206578747275F0
:10375000646573206172652000204500205A0020B6
:103760005900204D39322058005741524E494E479A
:1037700021204C6F77205A204A65726B206D617949
:10378000206C65616420746F20756E77616E74655E
:1037900064207061757365732E0A002054002052F6
:1037A00000416363656C65726174696F6E3A2050A5
:1037B0000020466C6F773A200047322F4733206253
:1037C000616420706172616D65746572730A005383
:1037D0006C6565702E2E2E004D65736820706F69C4
:1037E0006E742063616E6E6F742062652072657303
:1037F0006F6C7665640A00206F6620004D424C2095
:1038000047323920706F696E742000290A004A20FF
:103810006F7574206F662072616E67652028302D89
:1038200000290A0049206F7574206F662072616E4E
:1038300067652028302D004D6573682070726F62B7
:10384000696E6720646F6E652E0A0053746172742E
:10385000206D6573682070726F62696E672077698A
:1038600074682022473239205331222066697273EE
:10387000742E0A004732380A473239205332006822
:103880006173206E6F20646174612E0A004D657350
:103890006820426564204C6576656C696E6720001F
:1038A00053206F7574206F662072616E67652028E3
:1038B000302D35292E0A00206E6F7420656E7465D8
:1038C0007265642E0A00473238004D6573682070B7
:1038D0006F696E742063616E6E6F74206265207212
:1038E00065736F6C7665640A004D34323120696E01
:1038F000636F727265637420706172616D65746567
:10390000722075736167650A004F46460A0046617A
:103910006465204865696768742000426564204CCE
:103920006576656C696E6720004661696C65642028
:10393000746F20656E61626C6520426564204C6521
:1039400076656C696E670A004D6573682042656430
:10395000204C6576656C20646174613A0A00496E9A
:1039600076616C6964206D6573682E0A00627573F8
:10397000793A2070617573656420666F7220696E94
:103980007075740A00627573793A20706175736599
:103990006420666F7220757365720A0062757379B0
:1039A0003A2070726F63657373696E670A0020490D
:1039B0006E76616C696420657874727564657220D6
:1039C00000446F6E6520736176696E672066696C6E
:1039D000652E0A0053544F505045442E200050721B
:1039E000696E7465722073746F707065642064759D
:1039F0006520746F206572726F72732E204669782D
:103A000020746865206572726F7220616E64207523
:103A10007365204D39393920746F20726573746174
:103A200072742E202854656D7065726174757265AC
:103A30002069732072657365742E20536574206944
:103A40007420616674657220726573746172746942
:103A50006E67290A004E6F20436865636B73756D4E
:103A60002077697468206C696E65206E756D62657B
:103A7000722C204C617374204C696E653A20004EA4
:103A80006F20436865636B73756D20776974682078
:103A90006C696E65206E756D6265722C204C617369
:103AA00074204C696E653A2000636865636B7375BA
:103AB0006D206D69736D617463682C204C61737443
:103AC000204C696E653A20004C696E65204E756D1C
:103AD000626572206973206E6F74204C617374206C
:103AE0004C696E65204E756D6265722B312C204CD1
:103AF000617374204C696E653A20004D313130009D
:103B0000526573656E643A20006F6B00220A00658F
:103B10006E7175657565696E672022005344207269
:103B2000656164206572726F720A00446F6E652071
:103B30007072696E74696E672066696C650A004D03
:103B4000323900436C69636B20746F205265737562
:103B50006D652E2E2E004D31343520533C696E6438
:103B600065783E206F7574206F662072616E6765A0
:103B70002028302D31290A00486F6D6520585920C2
:103B800046697273740A00486F6D65205859204663
:103B900069727374004F6666736574732041707048
:103BA0006C696564004572723A20546F6F206661DB
:103BB000722100546F6F206661722066726F6D20F3
:103BC0007265666572656E636520706F696E740AF2
:103BD00000454550524F4D204F4B0A00504944205C
:103BE0004175746F74756E65206661696C656421DA
:103BF00020426164206578747275646572206E7508
:103C00006D6265720A0042656420436F6F6C696E75
:103C1000672E2E2E004265642048656174696E67C8
:103C20002E2E2E006F6B00220A00556E6B6E6F7782
:103C30006E20636F6D6D616E643A202200205A0021
:103C4000205900580020204D61783A2000205A0069
:103C5000205900580020204D696E3A2000536F66AD
:103C60007420656E6473746F70733A20003344205F
:103C70005072696E746572204F46462E004E6F205A
:103C80004D6F76652E004543484F00494E464F0024
:103C90004552524F52530044525952554E00434FD1
:103CA0004D4D554E49434154494F4E006F66660095
:103CB000863C8B3C903C973C9E3C44454255473A61
:103CC000005072696E742074696D653A2000256930
:103CD000730025696D2025697300256968202569B1
:103CE0006D20256973002569642025696820256990
:103CF0006D2025697300256979202569642025696F
:103D0000682025696D202569730050726F626520F7
:103D10005A204F66667365743A20003F5A206F75CB
:103D200074206F662072616E676520282D32302006
:103D3000746F203230290A00205A3A200020593A64
:103D4000200042656420583A20004E3FAC8E8AC560
:103D500013D1850297024B02F9010902863F112413
:103D60001FBECFEFD1E2DEBFCDBF00E00CBF13E03E
:103D7000A0E0B2E0ECEBF4E803E00BBF02C0079078
:103D80000D92AE37B107D9F722E1AEE7B3E001C03B
:103D90001D92AD3DB207E1F71EE1CEEADEE100E0A3
:103DA00006C021970109802FFE010F9428B8C53A5B
:103DB000D10780E00807A9F70E9485270D944CC21F
:103DC0000C9400001F920F920FB60F9211242F93A4
:103DD0003F938F939F93AF93BF9380917F03909175
:103DE0008003A0918103B091820330917E0323E090
:103DF000230F2D3768F126E8230F0296A11DB11D70
:103E000020937E0380937F0390938003A09381038C
:103E1000B09382038091830390918403A0918503E2
:103E2000B09186030196A11DB11D809383039093E9
:103E30008403A0938503B0938603BF91AF919F91B4
:103E40008F913F912F910F900FBE0F901F9018955B
:103E50000196A11DB11DD4CF2FB7F89460917F03B7
:103E60007091800380918103909182032FBF089508
:103E70008F929F92AF92BF92CF92DF92EF92FF927A
:103E80004B015C019FB7F894C0908303D0908403EA
:103E9000E0908503F090860386B5A89B07C08F3F0E
:103EA00029F02FEFC21AD20AE20AF20A9FBFFE2CB3
:103EB000ED2CDC2CCC24C80ED11CE11CF11CCC0C4C
:103EC000DD1CEE1CFF1CCC0CDD1CEE1CFF1C811449
:103ED0009104A104B10409F43DC0D9D33FB7F894CB
:103EE0008091830390918403A0918503B091860310
:103EF00026B5A89B05C02F3F19F00196A11DB11D45
:103F00003FBFBA2FA92F982F8827820F911DA11D7F
:103F1000B11D880F991FAA1FBB1F880F991FAA1FC9
:103F2000BB1F8C199D09AE09BF09883E9340A105AE
:103F3000B10598F281E0881A9108A108B10828EE2D
:103F4000C20E23E0D21EE11CF11C81149104A104D5
:103F5000B10421F6FF90EF90DF90CF90BF90AF902B
:103F60009F908F9008958230910538F0880F991FA7
:103F7000880F991F05970197F1F70895789484B5F4
:103F8000826084BD84B5816084BD85B5826085BD55
:103F900085B5816085BDEEE6F0E08081816080833B
:103FA000E1E8F0E01082808182608083808181601E
:103FB0008083E0E8F0E0808181608083E1EBF0E0E5
:103FC000808184608083E0EBF0E080818160808389
:103FD000E1E9F0E08081826080838081816080837C
:103FE000E0E9F0E0808181608083E1EAF0E08081B7
:103FF00082608083808181608083E0EAF0E080815C
:1040000081608083E1E2F1E0808182608083808151
:1040100081608083E0E2F1E0808181608083EAE773
:10402000F0E08081846080838081826080838081F1
:10403000816080838081806880831092C1000895B0
:104040001F93CF93DF93182FEB0161E024D12097CA
:10405000D1F0CF3FD10579F0E12FF0E0E559F94FEC
:10406000E4918E2F90E0FC013197E231F10528F0C8
:10407000C038D10544F061E007C08827EE58FF4FF3
:104080008F4F0D9428B860E0812FDF91CF911F9161
:1040900043C184B5806884BDC7BDDF91CF911F91B6
:1040A000089584B5806284BDC8BDF7CF809180003B
:1040B000806880938000D0938900C0938800EDCF02
:1040C00080918000806280938000D0938B00C093A9
:1040D0008A00E3CF80918000886080938000D09335
:1040E0008D00C0938C00D9CF8091B0008068809300
:1040F000B000C093B300D1CF8091B00080628093B4
:10410000B000C093B400C9CF8091900080688093C4
:104110009000D0939900C0939800BFCF80919000F9
:10412000806280939000D0939B00C0939A00B5CF9B
:1041300080919000886080939000D0939D00C09300
:104140009C00ABCF8091A00080688093A0008091FC
:10415000A0008F7B8093A000D093A900C093A800FB
:104160009CCF8091A00080628093A000D093AB0090
:10417000C093AA0092CF8091A00088608093A00095
:10418000D093AD00C093AC0088CF809120018068AF
:1041900080932001D0932901C09328017ECF809184
:1041A0002001806280932001D0932B01C0932A01CB
:1041B00074CF80912001886080932001D0932D01DD
:1041C000C0932C016ACF90E0FC013197E231F105F8
:1041D00058F48827EC57FF4F8F4F0D9428B88091E3
:1041E0002001877F80932001089584B58F7784BD57
:1041F000089584B58F7D84BD0895809180008F7768
:10420000809380000895809180008F7D809380004E
:10421000089580918000877F809380000895809129
:10422000B0008F778093B00008958091B0008F7DAB
:104230008093B0000895809190008F7780939000D4
:104240000895809190008F7D8093900008958091D3
:104250009000877F8093900008958091A0008F77D1
:104260008093A00008958091A0008F7D8093A0008E
:1042700008958091A000877F8093A0000895809189
:1042800020018F77809320010895809120018F7DF8
:10429000809320010895CF93DF9390E0FC01EF54C9
:1042A000F94F2491FC01E950F94F84918823B9F02A
:1042B00090E0880F991FFC01EF58F84FA591B49139
:1042C000FC01E95AF84FC591D491662359F0623048
:1042D000B9F08FB7F894EC91E22BEC938FBFDF919C
:1042E000CF9108959FB7F8948C91E22FE0958E239B
:1042F0008C932881E223E8839FBFDF91CF910895BB
:104300009FB7F8948C91322F309583238C93E8815A
:10431000E22BE8839FBFE3CF1F93CF93DF93282F38
:1043200030E0F901E559F94F8491F901EF54F94F63
:104330001491F901E950F94FC491CC23A9F0D62F7B
:1043400081111BC0EC2FF0E0EE0FFF1FE95AF84F70
:10435000A591B4918FB7F894D1110AC09C91E12F27
:10436000E095E923EC938FBFDF91CF911F910895E2
:10437000EC91E12BEC938FBFF7CF25DFE3CFCF9309
:10438000DF93282F30E0F901E559F94F8491F901C5
:10439000EF54F94FD491F901E950F94FC491CC236E
:1043A000B1F0811119C0EC2FF0E0EE0FFF1FE35CBC
:1043B000F84FA591B491EC91ED2381E090E019F0D4
:1043C000DF91CF91089580E0DF91CF91089580E053
:1043D00090E0DF91CF910895F6DEE5CF08951F922A
:1043E0000F920FB60F9211240BB60F922F933F939B
:1043F0004F935F936F937F938F939F93AF93BF93ED
:10440000EF93FF93E0910402F09105021995FF915B
:10441000EF91BF91AF919F918F917F916F915F913C
:104420004F913F912F910F900BBE0F900FBE0F90A9
:104430001F9018951F920F920FB60F9211240BB672
:104440000F922F933F934F935F936F937F938F932D
:104450009F93AF93BF93EF93FF93E0910602F09188
:1044600007021995FF91EF91BF91AF919F918F91A5
:104470007F916F915F914F913F912F910F900BBE64
:104480000F900FBE0F901F9018951F920F920FB6AE
:104490000F9211240BB60F922F933F934F935F937C
:1044A0006F937F938F939F93AF93BF93EF93FF93FC
:1044B000E0910802F09109021995FF91EF91BF91E7
:1044C000AF919F918F917F916F915F914F913F91AC
:1044D0002F910F900BBE0F900FBE0F901F9018954D
:1044E0001F920F920FB60F9211240BB60F922F93BB
:1044F0003F934F935F936F937F938F939F93AF936C
:10450000BF93EF93FF93E0910A02F0910B0219958C
:10451000FF91EF91BF91AF919F918F917F916F919B
:104520005F914F913F912F910F900BBE0F900FBE57
:104530000F901F9018951F920F920FB60F92112493
:104540000BB60F922F933F934F935F936F937F938D
:104550008F939F93AF93BF93EF93FF93E0910002EC
:10456000F09101021995FF91EF91BF91AF919F9149
:104570008F917F916F915F914F913F912F910F900C
:104580000BBE0F900FBE0F901F9018951F920F92A9
:104590000FB60F9211240BB60F922F933F934F93A8
:1045A0005F936F937F938F939F93AF93BF93EF939B
:1045B000FF93E0910202F09103021995FF91EF91B0
:1045C000BF91AF919F918F917F916F915F914F912B
:1045D0003F912F910F900BBE0F900FBE0F901F9029
:1045E00018951F920F920FB60F9211240BB60F92CF
:1045F0002F933F934F935F936F937F938F939F93EB
:10460000AF93BF93EF93FF93E0910C02F0910D02F3
:104610001995FF91EF91BF91AF919F918F917F91EC
:104620006F915F914F913F912F910F900BBE0F9023
:104630000FBE0F901F9018951F920F920FB60F92FA
:1046400011240BB60F922F933F934F935F936F9369
:104650007F938F939F93AF93BF93EF93FF93E091DB
:104660000E02F0910F021995FF91EF91BF91AF915A
:104670009F918F917F916F915F914F913F912F917A
:104680000F900BBE0F900FBE0F901F9018950895BE
:1046900080E090E008950895CF92DF92EF92FF922C
:1046A0000F931F93CF93DF934115510509F16A01D1
:1046B0008C017B01C0E0D0E004C02196CC16DD0661
:1046C00069F0D7016D917D01D801ED91FC910190C8
:1046D000F081E02DC8011995892B79F7CE01DF9182
:1046E000CF911F910F91FF90EF90DF90CF900895A1
:1046F000C0E0D0E0F3CF1F920F920FB60F921124BB
:104700000BB60F922F933F934F935F936F937F93CB
:104710008F939F93AF93BF93EF93FF9380918A03FF
:1047200090918B03A0918C03B0918D03892B8A2BE0
:104730008B2BE1F190918703E0918803F09189033D
:1047400080818927808380918A0390918B03A09137
:104750008C03B0918D03181619061A061B069CF4DB
:1047600080918A0390918B03A0918C03B0918D036B
:104770000197A109B10980938A0390938B03A093B9
:104780008C03B0938D03FF91EF91BF91AF919F91F7
:104790008F917F916F915F914F913F912F910F90EA
:1047A0000BBE0F900FBE0F901F90189580911002B6
:1047B000EBE8F7E0E4919FEF90931002E23039F1DB
:1047C00068F0E430F1F0B8F0E53029F4909173002E
:1047D0009D7F9093730060E09FDDD5CFEE2341F085
:1047E000E130C9F790916F009D7F90936F00F3CFF8
:1047F00010926E00F0CF909171009D7F90937100A8
:10480000EACF909172009D7F90937200E4CF9091D7
:1048100070009D7F9093700091E09093B000909114
:10482000B100987F94609093B1001092B300D3CF01
:104830008F929F92AF92BF92CF92DF92EF92FF92B0
:104840000F931F93CF93DF938C01E62E61E0FC0161
:10485000848162DDF80185818F3F11F060E05CDDCD
:10486000F8018785F12C84FD6CC05701B594A7949D
:10487000B594A794B594A794B594A7946801F7E06C
:10488000CF0ED11CE601812C912CB501082C02C061
:10489000759567950A94E2F7617089913DDD8FEF18
:1048A000881A980AE4E08E16910479F760E0F8011E
:1048B000868132DD81E090E056DB61E0F80186819F
:1048C0002BDD81E090E04FDB60E0F801868124DDA4
:1048D00084E690E048DBC0E0D0E0B7010C2E02C0D7
:1048E000759567950A94E2F76170F60181916F0101
:1048F00013DD2196C430D10581F760E0F80186818F
:104900000BDD81E090E02FDB61E0F801868104DDC2
:1049100081E090E028DB60E0F8018681FDDC84E640
:1049200090E021DB81E090E0DF91CF911F910F912A
:10493000FF90EF90DF90CF90BF90AF909F908F90BF
:1049400008956801F7E0CF0ED11CC0E0D0E0B701B8
:104950000C2E02C0759567950A94E2F76170F60116
:1049600081916F01D9DC2196C830D10581F7C5CF7F
:104970008F929F92AF92BF92CF92DF92EF92FF926F
:104980000F931F93CF93DF938C01E62E60E0FC0121
:104990008481C2DCF80185818F3F11F060E0BCDCCE
:1049A000F8018785F12C84FD69C05701B594A7945F
:1049B000B594A794B594A794B594A7946801F7E02B
:1049C000CF0ED11CE601812C912CB501082C02C020
:1049D000759567950A94E2F7617089919DDC8FEF78
:1049E000881A980AE4E08E16910479F760E0F801DD
:1049F000868192DC81E090E0B6DA61E0F8018681A0
:104A00008BDC81E090E0AFDA60E0F801868184DC45
:104A100084E690E0A8DAC0E0D0E0B7010C2E02C036
:104A2000759567950A94E2F76170F60181916F01BF
:104A300073DC2196C430D10581F760E0F8018681EE
:104A40006BDC81E090E08FDA61E0F801868164DC64
:104A500081E090E088DA60E0F80186815DDC84E640
:104A600090E0DF91CF911F910F91FF90EF90DF9039
:104A7000CF90BF90AF909F908F9075CA6801F7E07C
:104A8000CF0ED11CC0E0D0E0B7010C2E02C075954E
:104A900067950A94E2F76170F60181916F013CDC41
:104AA0002196C830D10581F7C8CFAF92BF92CF927F
:104AB000DF92EF92FF920F931F93CF93DF93EC015E
:104AC000423018F08F8588608F874B8B1C8A80E47A
:104AD0008D8B6E8B70E0605C7F4F6F8B222319F0A3
:104AE000413009F414C161E08C81D5DB8D818F3FA9
:104AF00011F061E0D0DB61E08E81CDDB6E0187E0FB
:104B0000C80ED11C760100E010E00CC084E090E0FB
:104B1000081719077CF461E0F70181917F01BBDB85
:104B20000F5F1F4F8F8584FFF1CF88E090E008175B
:104B300019078CF380E593EC16DA60E08C81ECDBEE
:104B400060E08E81E9DB8D818F3F11F060E0E4DB76
:104B50006F8564FF2FC06062CE010ADF84E991E1B6
:104B600002DA6F856062CE0103DF86E990E0FBD94F
:104B70006F856062CE01FCDE6F856062CE01F8DE7B
:104B800084E0888B6CE0CE01F3DE61E0CE01F0DEE4
:104B900080ED97E0E8D982E0898B66E0CE01DF9175
:104BA000CF911F910F91FF90EF90DF90CF90BF902A
:104BB000AF90DECE760100E010E033E0A32EB12C02
:104BC000B501002E02C0759567950A94E2F76170F1
:104BD000F70181917F01A0DB0F5F1F4F04301105AA
:104BE00079F760E08E8198DB81E090E0BCD961E0EC
:104BF0008E8192DB81E090E0B6D960E08E818CDB23
:104C000084E690E0B0D984E991E1ADD9760100E085
:104C100010E023E0A22EB12CB501002E02C0759544
:104C200067950A94E2F76170F70181917F0174DB67
:104C30000F5F1F4F0430110579F760E08E816CDB48
:104C400081E090E090D961E08E8166DB81E090E0C8
:104C50008AD960E08E8160DB84E690E084D984E9C3
:104C600091E181D9760100E010E093E0A92EB12C0A
:104C7000B501002E02C0759567950A94E2F7617040
:104C8000F70181917F0148DB0F5F1F4F0430110551
:104C900079F760E08E8140DB81E090E064D961E0EB
:104CA0008E813ADB81E090E05ED960E08E8134DB7A
:104CB00084E690E058D986E990E055D900E010E00C
:104CC00082E0E82EF12CB701002E02C075956795A1
:104CD0000A94E2F76170F60181916F011DDB0F5FAD
:104CE0001F4F0430110579F760E08E8115DB81E0FC
:104CF00090E039D961E08E810FDB81E090E033D91B
:104D000060E08E8109DB84E690E02DD935CF8F8578
:104D100084608F87E8CECF92EF920F93FC011382CD
:104D200012828CEF92E09183808364838FEF85837E
:104D3000468327830087E186C286138614861586FC
:104D40001686178620E041E060E1CF010F91EF90D9
:104D5000CF90ABCE61E00CDE80ED97E004C9FC01A2
:104D6000443008F043E08389481710F04FEF480FB4
:104D7000DF01A40FB11D54969C91690F6068CF01AB
:104D8000F7CD4F925F926F927F928F929F92AF92E8
:104D9000BF92CF92DF92EF92FF920F931F93CF9328
:104DA000DF93EC018A016770660F660F660F60641F
:104DB000DFDD4801280188E0480E511CE881F981B7
:104DC0000190F081E02DD401ED904D01B4E2E83185
:104DD000FB0709F092C061E08C819EDA8D818F3FE4
:104DE00011F060E099DA8F85F12C84FD6DC03701F8
:104DF00075946794759467947594679475946794A3
:104E00006E01A7E0CA0ED11C560100E010E0B3010C
:104E1000002E02C0759567950A94E2F76170F5015E
:104E200081915F0179DA0F5F1F4F0430110579F727
:104E300060E08E8171DA81E090E095D861E08E814A
:104E40006BDA81E090E08FD860E08E8165DA84E6ED
:104E500090E089D800E010E0B701002E02C07595FF
:104E600067950A94E2F76170D6018D916D0154DA6D
:104E70000F5F1F4F0430110579F760E08E814CDA27
:104E800081E090E070D861E08E8146DA81E090E0C8
:104E90006AD860E08E8140DA84E690E064D84814F5
:104EA000590409F08BCFDF91CF911F910F91FF90A3
:104EB000EF90DF90CF90BF90AF909F908F907F90BA
:104EC0006F905F904F9008958E01095F1F4FC12C26
:104ED000D12CB7010C2C02C0759567950A94E2F7A6
:104EE0006170F80181918F0117DAFFEFCF1ADF0AA5
:104EF00088E0C816D10469F7C0CF6E2DCE01199590
:104F0000CECF80E090E00895089538D8FDDF0E946C
:104F1000EFCFC0E0D0E0209719F40E94D2D0FDCFAF
:104F20000E94D2D00E940000F6CF4F925F926F9203
:104F30007F928F929F92AF92BF92CF92DF92EF9229
:104F4000FF920F931F93CF93DF93EC016A017B01D4
:104F5000280139018F89803109F45DC0803291F0D8
:104F600080E0DF91CF911F910F91FF90EF90DF9044
:104F7000CF90BF90AF909F908F907F906F905F90F9
:104F80004F9008958B889C88AD88BE88DB01CA014C
:104F900047E0B695A795979587954A95D1F7880EDE
:104FA000991EAA1EBB1E40919505509196056091D1
:104FB00097057091980584169506A606B70609F020
:104FC00044C081E080939203E894C7F8DD24EE2486
:104FD000FF24C601880F991F880F991FFC01EB560B
:104FE000FC4F40825182628273828A89823008F447
:104FF00073C08D819E81AF81B885880E991EAA1ECF
:10500000BB1E80928E0390928F03A0929003B09269
:10501000910381E0A6CF8D2C9E2CAF2CBB248B89D5
:105020009C89AD89BE89880E991EAA1EBB1E40911F
:105030009505509196056091970570919805841695
:105040009506A606B70609F449C08091920381111E
:1050500028C025E933E0B501A40180919303909124
:1050600094030E942742882309F47ACF8092950501
:1050700090929605A0929705B09298058F8991E03D
:1050800090939203803109F09FCFDD24EE24FF241A
:10509000C601880F991FFC01EB56FC4F51824082DC
:1050A000A4CF25E933E080919303909194030E946B
:1050B000DC42882309F454CF40918E0350918F0332
:1050C000609190037091910341155105610571053F
:1050D00049F410929203BDCF81E043CF81E08093E9
:1050E0009203D3CF25E933E0809193039091940309
:1050F0000E94DC42882309F433CF10928E03109271
:105100008F031092900310929103E3CF2F923F925E
:105110004F925F926F927F928F929F92AF92BF92C7
:10512000CF92DF92EF92FF920F931F93CF93DF9373
:10513000CDB7DEB72F970FB6F894DEBF0FBECDBF49
:105140009A838983DC0119968D909D90AD90BC90D7
:105150001C97D501C4010196A11DB11D8D839E83AD
:10516000AF83B887F901C080D180E280F380C11499
:10517000D104E104F10409F41EC1FFEFCF1ADF0AE4
:10518000EF0AFF0A1D8689288A288B2881F11901D8
:1051900049875A876B877C8726013701812C912CA0
:1051A000540109811A811F870E872D813E814F810D
:1051B00058852C153D054E055F0550F412E0C12EB3
:1051C000D12CE12CF12C02E0402E512C612C712CC1
:1051D0008C159D05AE05BF0550F0AE85BF85579671
:1051E0008C915797803109F490C08032D9F0B12C5E
:1051F0008B2D2F960FB6F894DEBF0FBECDBFDF917B
:10520000CF911F910F91FF90EF90DF90CF90BF90C3
:10521000AF909F908F907F906F905F904F903F9056
:105220002F90089553964D915D916D917C91569775
:10523000D701C601E7E0B695A79597958795EA95BA
:10524000D1F78C019D01040F151F261F371F0983FD
:105250001A832B833C83409195055091960560916C
:10526000970570919805401751076207730709F079
:105270007BC0D701C6018F779927AA27BB27880F44
:10528000991F880F991FFC01EB56FC4F808191817B
:10529000A281B381BF70892B8A2B8B2BF1F0260161
:1052A0003701BFEF4B1A5B0A6B0A7B0A730162017D
:1052B0001FEF811A910AA10AB10AEE85FF85818547
:1052C0009285A385B48588169906AA06BB0608F0C0
:1052D0008ECF0196A11DB11D68CFD701C6010196E1
:1052E000A11DB11DAC01BD0144195509660977091D
:1052F00009851A852B853C8504171507260737076E
:1053000009F498C06C017D01D3CFFD01BB27AF2DFF
:105310009E2D8D2D43895489658976898C019D0147
:10532000040F151F261F371F09831A832B833C8305
:10533000409195055091960560919705709198055B
:10534000041715072607370779F4D701C6019927EF
:10535000AA27BB27880F991FFC01EB56FC4F8081C1
:105360009181A0E0B0E097CF80919203811133C08A
:1053700025E933E049815A816B817C8180919303D7
:10538000909194030E942742882309F430CF298109
:105390003A814B815C81209395053093960540932B
:1053A000970550939805AE85BF8557968C918031AF
:1053B00009F05FCFCACFE981FA81C080D180E28055
:1053C000F380F1E0FD87413051056105710509F475
:1053D000DACE1D86D8CE25E933E0809193039091F3
:1053E00094030E94DC42882309F401CF40918E038C
:1053F00050918F0360919003709191034115510575
:105400006105710519F410929203B2CF25E933E0DA
:1054100080919303909194030E94DC42882309F4C5
:10542000E6CE10928E0310928F031092900310928A
:105430009103E9CF0E851F851A83098312E0C116F7
:10544000D104E104F10408F4D2CEE981FA81818526
:105450009285A385B4850196A11DB11D8C159D056E
:10546000AE05BF0508F4C3CE0FEF1FEF2FEF3FE0EF
:10547000B701A601CF0159DDB82E882309F4B7CEB4
:105480004C145D046E047F04D0F5F1E0CF1AD1080E
:10549000E108F10802E0C016D104E104F10408F4C7
:1054A000A6CEE981FA8181859285A385B48501968E
:1054B000A11DB11D8C159D05AE05BF0508F497CE45
:1054C000970186010F5F1F4F2F4F3F4FB701A60176
:1054D00089819A812ADD882309F489CE4C145D04E0
:1054E0006E047F0461F0F1E0CF1AD108E108F10801
:1054F00001E0C016D104E104F10499F678CED1019F
:105500004D915D916D917C9141155105610571053C
:10551000E1F0423051056105710508F468CEE9817A
:10552000FA8181859285A385B4850196A11DB11D5F
:1055300084179507A607B70708F459CE930182018F
:10554000CF01F3DC882309F452CEF101408251826D
:1055500062827382FD85FF2309F44ACED301C20122
:105560000196A11DB11DE981FA8180839183A283F7
:10557000B3833ECECF9380919203811104C0C1E0EA
:105580008C2FCF910895409195055091960560918B
:1055900097057091980525E933E0809193039091E8
:1055A00094030E94DC42C82F882329F140918E0386
:1055B00050918F03609190037091910341155105B3
:1055C0006105710529F4109292038C2FCF910895F3
:1055D00025E933E080919303909194030E94DC428B
:1055E000882349F010928E0310928F03109290033B
:1055F00010929103E8CFC0E08C2FCF910895CF9205
:10560000DF92EF92FF92CF936B017C01C42F409108
:1056100095055091960560919705709198054C15E8
:105620005D056E057F05C1F080919203811125C053
:1056300025E933E0B701A60180919303909194038B
:105640000E942742882391F0C0929505D09296053A
:10565000E0929705F092980581E0C1118093920342
:10566000CF91FF90EF90DF90CF90089580E0CF91A1
:10567000FF90EF90DF90CF90089525E933E080917F
:105680009303909194030E94DC42882379F3409124
:105690008E0350918F036091900370919103411597
:1056A00051056105710519F410929203C1CF25E9E6
:1056B00033E080919303909194030E94DC4288230D
:1056C000A9F210928E0310928F0310929003109201
:1056D0009103EACF2F923F924F925F926F927F9207
:1056E0008F929F92AF92BF92CF92DF92EF92FF92F2
:1056F0000F931F93CF93DF93CDB7DEB728970FB6E5
:10570000F894DEBF0FBECDBF1C016A017B01388754
:105710002F83812C912C5401412CB2E05B2E612C03
:10572000712CF10181859285A385B4850196A11D17
:10573000B11D8C159D05AE05BF0530F08789803100
:1057400009F475C08032D1F080E028960FB6F89445
:10575000DEBF0FBECDBFDF91CF911F910F91FF90A4
:10576000EF90DF90CF90BF90AF909F908F907F9001
:105770006F905F904F903F902F9008954389548988
:1057800065897689D701C601E7E0B695A795979513
:105790008795EA95D1F78C019D01040F151F261FEF
:1057A000371F09831A832B833C83409195055091C1
:1057B00096056091970570919805041715072607BF
:1057C000370709F053C0E894C7F8DD24EE24FF241E
:1057D000C601880F991F880F991FFC01EB56FC4FDB
:1057E000C080D180E280F3800FE0F022D301C201BB
:1057F000F101058404C0880F991FAA1FBB1F0A94DA
:10580000D2F7880E991EAA1EBB1E81E0F8EFCF16B4
:10581000FFEFDF06EF06FFE0FF0608F482CFAF815F
:10582000B8858D929D92AD92BC9213978ECFBB2777
:10583000AF2D9E2D8D2D43895489658976898C01E4
:105840009D01040F151F261F371F09831A832B8301
:105850003C83409195055091960560919705709114
:105860009805041715072607370729F18091920339
:10587000811147C025E933E049815A816B817C81E0
:1058800080919303909194030E942742882309F406
:105890005BCF89819A81AB81BC8180939505909380
:1058A0009605A0939705B0939805D10157968C91D2
:1058B000803109F088CFDD24EE24FF24C601880F53
:1058C000991FFC01EB56FC4FC080D180E12CF12CDC
:1058D000D301C201F101058404C0880F991FAA1FDA
:1058E000BB1F0A94D2F7880E991EAA1EBB1E81E028
:1058F000F8EFCF16FFEFDF06E104F10408F08FCFD9
:1059000010CF25E933E080919303909194030E9496
:10591000DC42882309F418CF40918E0350918F0305
:1059200060919003709191034115510561057105D6
:1059300019F4109292039ECF25E933E080919303EE
:10594000909194030E94DC42882309F4FDCE1092CA
:105950008E0310928F031092900310929103E9CF5F
:105960008F929F92AF92BF92CF92DF92EF92FF926F
:105970000F931F93CF93DF93E901FC0101851285FB
:10598000238534850F5F1F4F2F4F3F4F0417150797
:105990002607370740F06A017B018C018789803137
:1059A00081F08032E1F180E0DF91CF911F910F9182
:1059B000FF90EF90DF90CF90BF90AF909F908F902F
:1059C0000895852E962EA72EBB2483899489A589B8
:1059D000B689880E991EAA1EBB1E4091950550914E
:1059E0009605609197057091980584169506A60610
:1059F000B70609F045C0B701A601552766277727E6
:105A0000440F551FFA01EB56FC4F80819181A0E0B5
:105A1000B0E088839983AA83BB8381E0C5CF838864
:105A20009488A588B688DB01CA0127E0B695A795BA
:105A3000979587952A95D1F7880E991EAA1EBB1EA9
:105A40004091950550919605609197057091980544
:105A500084169506A606B70699F4B701A6014F77F6
:105A6000552766277727440F551F440F551FFA0106
:105A7000EB56FC4F80819181A281B381BF70C9CF69
:105A80008091920381111AC025E933E0B501A40188
:105A900080919303909194030E942742882309F4F4
:105AA00082CF8092950590929605A0929705B0922C
:105AB0009805F8018789803181F69DCF25E933E08B
:105AC00080919303909194030E94DC42882309F40F
:105AD0006ACF40918E0350918F0360919003709133
