:100000000C940C1E0C944C210C9477210C94A2217E
:100010000C94CD210C94F8210C9423220C944E22A4
:100020000C9479220C943D1E0C943D1E0C943D1EA4
:100030000C943D1E0C94D8220C943D1E0C943D1E35
:100040000C943D1E0C94C8550C943D1E0C943D1E02
:100050000C943D1E0C943D1E0C94C4A30C943F1EA6
:100060000C943D1E0C9423520C94E5520C943D1EAE
:100070000C943D1E0C943D1E0C943D1E0C943D1E94
:100080000C943D1E0C943D1E0C943D1E0C943D1E84
:100090000C943D1E0C943D1E0C943D1E0C943D1E74
:1000A0000C943D1E0C943D1E0C943D1E0C943D1E64
:1000B0000C943D1E0C943D1E0C943D1E0C943D1E54
:1000C0000C943D1E0C943D1E0C943D1E0C943D1E44
:1000D0000C943D1E0C943D1E0C943D1E0C943D1E34
:1000E0000C943D1EA61FAE1FB31FBD1FC71F951F3B
:1000F000D11FD91FE11FEB1FF51FFF1F0E20182076
:10010000951F22202C203620522056205A20602075
:10011000662051206C20722078207E2084208A2046
:100120009020962051209C20A2204C207D52A2524B
:1001300091529A528B524E52B1524E52AD52B552CA
:100140004E52785229020D02830281027102ED01A2
:100150002B02130291020702F70177023F023F02CE
:100160003B023B021B02F501F501F501F501F5012A
:10017000F501F501F501F501F501F501F501F501CF
:10018000F501F501F5014702F501F501F501F5016C
:10019000F50169028D02F1012302F501F501F50176
:1001A000F501F501F501F501F501F501F501F5019F
:1001B0003902F501F501F501F501F501F501F5014A
:1001C000F501F501F501F501F501F501F501F5017F
:1001D000F501F501F501F501F501F501F501F5016F
:1001E000F501F501F501F501F501F501F501F5015F
:1001F000F501F501F501F501F501F501F501F5014F
:10020000F501F501F501F501F501F501F501F5013E
:1002100085026D024902790279029502950219025E
:1002200061026102610261026102610261026102B6
:1002300061026102610261026102610261026102A6
:10024000F301610261026102610261021F02FF01AA
:10025000F9016F02610261026102610261026102E1
:10026000610261026102610261025F026102610278
:100270006102610261026102610261026102610266
:100280006102610261026102610261026102610256
:100290006102610261026102610261026102610246
:1002A0006102610261026102610261026102610236
:1002B0006102610261026102610261026102610226
:1002C000610261026102610261028B028F027D02A2
:1002D0007F027F0259025902FD0105020502050253
:1002E00005020502050205020502050205020502D6
:1002F000050205020502050205025102050205027A
:10030000050205020502550221022502930205029B
:1003100005020502050205020502050205020502A5
:100320000502050209020502050205020502050291
:100330000502050205020502050205020502050285
:100340000502050205020502050205020502050275
:100350000502050205020502050205020502050265
:100360000502050205020502050205020502050255
:100370000502050205020502050205020502050245
:1003800005020502650241024B02084AD73B3BCEFB
:10039000016E84BCBFFDC12F3D6C74319ABD568384
:1003A0003DDA3D00C77F11BED9E4BB4C3E916BAA3C
:1003B000AABE000000803F05A84CCDB2D44EB9388B
:1003C00036A9020C50B9918688083CA6AAAA2ABE72
:1003D000000000803F000D941C0A0D946D220D94C6
:1003E00071880D94957B0D943B7D0D94857A0D94C9
:1003F0007B220D94427E0D943F010D944F810D940C
:10040000457E0D94C2230D94EF490D94E47F0D9425
:1004100056220D9470810D94BC050D9484220D9488
:10042000C0120D94753A0D9473220D94F0150D942D
:10043000FD0B0D94567E0D94A97B0D94C9100D945F
:10044000497E0D945D810D94927B0D9464810D9491
:10045000B81A0D9481220D9470220D94004D0D94C4
:100460001C2C0D948A220D9418210D945E4A0D9433
:10047000883A0D94A27B0D94AC7B0D94B4220D941C
:10048000B47B0D946A810D946B090D9429110D9420
:10049000897A0D948F7B0D9467810D94BB030D9425
:1004A00058140D94E87F0D9488170D9461810D9474
:1004B000501C0D9452810D948B3A0D94232C0D9465
:1004C0004F7E0D94377D0D942D0F0D946D810D94FD
:1004D000E81D0D949C7B0D94F72A0D94A57B0D943B
:1004E0003F7E0D946A220D94801F0D9420190D9467
:1004F0007E220D94617E0D94A4080D943C7E0D9493
:100500004C810D945F220D9487220D949F7B0D9456
:10051000DE0B0D94D0220D944C7E0D94987B0D949F
:10052000527E0D9478220D945A810D94597E4E413D
:100530004E494E495459494E46CDCCCC3D0AD7235D
:100540003C17B7D13877CC2B329595E6241FB14FA5
:100550000A000020410000C84200401C4620BCBEEA
:100560004CCA1B0E5AAEC59D7400000A0B02090C42
:100570000D0E080703040100000000000000000049
:10058000000000000000000000000000000000006B
:100590000000000000121110000000000000000028
:1005A000000000000000000000000000000000014A
:1005B0000210202008081020401020408002010274
:1005C000010804020101020408102040808040203C
:1005D0001008040201800402018040201008040277
:1005E00001080402010102040810204080010204F5
:1005F00008102040800505050507050808080802C1
:100600000202020A0A0808040404040101010101AB
:100610000101010303030303030303040707070C9A
:100620000C0C0C0C0C0C0C02020202060606060650
:100630000606060B0B0B0B0B0B0B0B00002000230D
:1006400000260029002C002F0032000001000003CA
:10065000010601090100002200250028002B002EC0
:10066000003100340002010000050108010B010007
:10067000002100240027002A002D00300033000153
:10068000010000040107010A01024D3331004361FA
:100690006E6E6F7420656E74657220737562646926
:1006A000723A20002E0A006F70656E206661696CD8
:1006B00065642C2046696C653A20006175746F256D
:1006C000632E67006572726F722077726974696E4B
:1006D0006720746F2066696C650A004E6F74205342
:1006E00044207072696E74696E670A00534420700A
:1006F00072696E74696E67206279746520002E0AD3
:100700000044656C6574696F6E206661696C656430
:100710002C2046696C653A200046696C652064654A
:100720006C657465643A0057726974696E67207409
:100730006F2066696C653A20002E0A006F70656E46
:10074000206661696C65642C2046696C653A2000FE
:100750002E0A006F70656E206661696C65642C20DE
:1007600046696C653A200046696C652073656C6566
:10077000637465640A002053697A653A200046690B
:100780006C65206F70656E65643A20002066696C48
:10079000653A2000667265736800646F696E670071
:1007A0004E6F772000454E4420535542524F5554CA
:1007B000494E450A002220706F730022207061723A
:1007C000656E743A2200535542524F5554494E4576
:1007D0002043414C4C207461726765743A22007466
:1007E0007279696E6720746F2063616C6C20737519
:1007F000622D67636F64652066696C657320776935
:10080000746820746F6F206D616E79206C657665F9
:100810006C732E204D4158206C6576656C20697391
:100820003A310A004D3234004D32332025730053E3
:10083000442063617264206F6B0A006F70656E52B2
:100840006F6F74206661696C65640A00766F6C7501
:100850006D652E696E6974206661696C65640A0055
:10086000534420696E6974206661696C0A00286EC1
:100870006F2066696C65290043616E6E6F74206F2E
:1008800070656E2073756264697220007C3C3E5E08
:100890002B3D3F2F5B5D3B2C2A225C004F464600E0
:1008A0004F4E006563686F3A004572726F723A008E
:1008B0004572726F722077726974696E6720746F07
:1008C00020454550524F4D210A00205A3A002042FF
:1008D0003A0020436F756E7420413A0004370000DF
:1008E0001E290000511B00005810000010090000D4
:1008F000CC040000780200004101000024F4D43050
:1009000050C38E20C2A24017828B7011127A910DB3
:10091000816CD90AA861E108C7586607615143068E
:100920001E4B5D05C145A7041A411104093D9803FA
:10093000713931034036DB0265339102D430540201
:10094000802E1D02632CEE01752AC501B028A0017E
:10095000102781018F2564012B244B01E0223401F3
:10096000AC211F018D200D01801FFC00841EED00B5
:10097000971DDF00B81CD200E61BC600201BBC0080
:10098000641AB200B219A8000A19A0006A189900E6
:10099000D117910040178B00B516840031167E00E8
:1009A000B31579003A157300C7146F0058146A0024
:1009B000EE1366008813630025135E00C7125B0008
:1009C0006C12570015125400C111510070114F00E4
:1009D00021114B00D61049008D10470046104400ED
:1009E00002104200C00F4000800F3E00420F3C004A
:1009F000060F3B00CB0E3800930E37005C0E35001F
:100A0000270E3400F30D3200C10D3100900D30007F
:100A1000600D2E00320D2D00050D2C00D90C2B0081
:100A2000AE0C2900850C29005C0C2700350C270032
:100A30000E0C2600E80B2400C40B2400A00B23009E
:100A40007D0B23005A0B2100390B2100180B2000CD
:100A5000F80A1F00D90A1E00BB0A1E009D0A1D00CD
:100A6000800A1D00630A1C00470A1B002C0A1B0099
:100A7000110A1A00F7091A00DD091900C409190042
:100A8000AB091900920917007B09180063091700C8
:100A90004C09160036091600200916000A0915002F
:100AA000F5081500E0081400CC081400B80814007C
:100AB000A4081400900813007D0812006B081300AE
:100AC00058081200460812003408110023081100CB
:100AD0001208110001081100F0071000E0071000D3
:100AE000D0071000C0071000B0070F00A1071000CA
:100AF00091070E0083070F0074070F0065070E00B3
:100B000057070E0049070E003B070D002E070E0089
:100B100020070D0013070D0006070D00F9060C0055
:100B2000ED060D00E0060C00D4060C00C8060C0013
:100B3000BC060C00B0060C00A4060B0099060C00C5
:100B40008D060B0082060B0077060B006C060B006F
:100B500061060A0057060B004C060A0042060A000E
:100B600038060A002E060A0024060A001A060A00A1
:100B70001006090007060A00FD050900F405090032
:100B8000EB050900E2050900D9050900D0050900B7
:100B9000C7050900BE050900B5050800AD05080038
:100BA000A50509009C050800940508008C050800AF
:100BB000840508007C050800740508006C05070022
:100BC000650508005D050700560508004E0507008D
:100BD00047050700400508003805070031050700F4
:100BE0002A050700230507001C0506001605070057
:100BF0000F0507000805060002050700FB040600B4
:100C0000F5040700EE040600E8040600E20407000D
:100C1000DB040600D5040600CF040600C904060064
:100C2000C3040600BD040600B7040600B1040500B5
:100C3000AC040600A6040600A00405009B04060000
:100C400095040500900406008A040500850405004B
:100C5000800406007A040500750405007004050090
:100C60006B04050066040500610405005C040500D2
:100C700057040500520405004D0405004804050012
:100C8000430405003E0404003A0405003504050051
:100C9000300404002C04050027040400230405008C
:100CA0001E0404001A0404001604050011040400C4
:100CB0000D040400090405000404040000040400F9
:100CC000FC030400F8030400F4030400F003040030
:100CD000EC030400E8030400E4030400E003040060
:100CE000DC030400D8030400D4030400D003040090
:100CF000CC030400C8030300C503030024F404D993
:100D0000201BC40C5C0E9804C4095F0265077101C6
:100D1000F405F900FB04B30048048700C10369002F
:100D20005803550003034500BE023A008402310017
:100D300053022A002902250004022000E4011C00BD
:100D4000C8011900AF0117009801140084011300B5
:100D5000710110006101100051010E0043010D00EE
:100D600036010B002B010B0020010B0015010900BF
:100D70000C01090003010800FB000800F300080053
:100D8000EB000700E4000600DE000600D8000600C5
:100D9000D2000600CC000500C7000500C200050017
:100DA000BD000400B9000400B5000400B100040057
:100DB000AD000400A9000400A5000300A200030088
:100DC0009F0004009B0003009800030095000200B0
:100DD00093000300900003008D0002008B000300CD
:100DE00088000200860002008400030081000200E7
:100DF0007F0002007D0002007B00020079000200FB
:100E00007700010076000200740002007200010009
:100E1000710002006F0002006D0001006C00020012
:100E20006A0001006900020067000100660001001D
:100E30006500010064000200620001006100010021
:100E4000600001005F0002005D0001005C00010025
:100E50005B0001005A000100590001005800010028
:100E60005700010056000100550001005400010028
:100E70005300000053000100520001005100010026
:100E8000500001004F0001004E0000004E00010024
:100E90004D0001004C0001004B0000004B00010020
:100EA0004A0001004900010048000000480001001C
:100EB0004700010046000000460001004500000018
:100EC0004500010044000100430000004300010010
:100ED000420000004200010041000000410001000A
:100EE000400001003F0000003F0001003E00000004
:100EF0003E0001003D0000003D0001003C000000FC
:100F00003C0000003C0001003B0000003B000100F1
:100F10003A0000003A0001003900000039000100E9
:100F200038000000380000003800010037000000E1
:100F300037000100360000003600000036000100D6
:100F400035000000350000003500010034000000CD
:100F500034000000340001003300000033000000C2
:100F600033000100320000003200000032000100B6
:100F700031000000310000003100010030000000AD
:100F800030000000300001002F0000002F000000A2
:100F90002F0000002F0001002E0000002E00000096
:100FA0002E0001002D0000002D0000002D0000008B
:100FB0002D0001002C0000002C0000002C0000007F
:100FC0002C0001002B0000002B0000002B00000073
:100FD0002B0001002A0000002A0000002A00000067
:100FE0002A0001002900000029000000290000005B
:100FF000290000002900010028000000280000004E
:101000002800000028000000280001002700000040
:101010002700000027000000270000002700010033
:101020002600000026000000260000002600000028
:10103000260001002500000025000000250000001A
:10104000250000002500000025000100240000000C
:1010500024000000240000002400000024000100FF
:1010600023000000230000002300000023000000F4
:1010700023000000230000002300010022000000E4
:1010800022000000220000002200000022000000D8
:1010900022000100210000002100000021000000CA
:1010A00021000000210000002100000021000100BB
:1010B00020000000200000002000000020000000B0
:1010C000200000002000000020000000200001009F
:1010D0001F0000001F0000001F0000001F00000094
:1010E0001F0000001F0000001F0001001E00000084
:1010F0001E0000001E0000001E00000050726F6203
:10110000696E67206661696C65640A0050726F627F
:10111000696E67206661696C656400496E76616C12
:1011200069642065787472756465720A0020746F52
:101130006F206C6F6E6720657874727573696F6E5F
:101140002070726576656E7465640A0020636F6C4A
:101150006420657874727573696F6E20707265763D
:10116000656E7465640A005761726E696E673A2035
:10117000486F6D696E672042756D702044697669AD
:10118000736F72203C20310A00020204486F6D65C3
:101190002025732573257320666972737400206699
:1011A000697273740A00486F6D65200020746F6F58
:1011B000206C6F6E6720657874727573696F6E202E
:1011C00070726576656E7465640A0020636F6C6486
:1011D00020657874727573696F6E207072657665BC
:1011E0006E7465640A0020453A00205A3A0020597E
:1011F0003A00583A0000004842000048420000808F
:1012000040FFFFFF0000A0400000A04000000040A1
:10121000000048430000484300004843000000002D
:1012200000000000000000000000484300004843A8
:101230000000484300000000000000000000000023
:1012400020573A0020573A004520436F6F6C696E73
:10125000672E2E2E00452048656174696E672E2E1C
:101260002E00202F002042403A0020403A005468CF
:1012700065726D616C2052756E61776179004531E0
:1012800020544845524D414C2052554E41574159EA
:101290000042454420544845524D414C2052554E41
:1012A0004157415900202D20496E76616C696420B8
:1012B0006578747275646572206E756D62657220F2
:1012C000210A0048656174696E67206661696C6512
:1012D00064004265642068656174696E67206661B8
:1012E000696C656400546865726D616C2052756E3E
:1012F000617761790042454420544845524D414C44
:101300002052554E415741590048656174696E67D6
:10131000206661696C6564004531204865617469C7
:101320006E67206661696C656400546865726D6102
:101330006C2052756E6177617900453120544845C3
:10134000524D414C2052554E41574159004D494E46
:1013500054454D5020747269676765726564004535
:1013600031204572723A204D494E54454D5000454A
:1013700072723A204D494E54454D5020424544002A
:101380004D415854454D50207472696767657265C8
:1013900064004531204572723A204D415854454D04
:1013A00050004572723A204D415854454D502042EC
:1013B000454400626564002C2073797374656D2068
:1013C00073746F7070656421204865617465725F25
:1013D00049443A20004B6420004B6920004B7020A8
:1013E00000504944204175746F74756E65206669BC
:1013F0006E69736865642120507574207468652077
:101400006C617374204B702C204B6920616E6420DA
:101410004B6420636F6E7374616E74732066726FB9
:101420006D2062656C6F7720696E746F20436F6EFC
:1014300066696775726174696F6E2E680A0050493B
:1014400044204175746F74756E65206661696C65C2
:1014500064212074696D656F75740A005468657243
:101460006D616C2052756E61776179004531205451
:101470004845524D414C2052554E4157415900422A
:10148000454420544845524D414C2052554E4157F9
:1014900041590048656174696E67206661696C65D1
:1014A000640045312048656174696E672066616932
:1014B0006C6564004265642068656174696E6720CC
:1014C0006661696C656400504944204175746F74AD
:1014D000756E65206661696C6564212054656D7068
:1014E0006572617475726520746F6F2068696768D2
:1014F0000A00204B643A2000204B693A2000204B20
:10150000703A20000A20436C61737369632050496C
:1015100044200A002054753A2000204B753A2000E0
:10152000206D61783A2000206D696E3A20002064B9
:101530003A200020626961733A20005049442041FA
:1015400075746F74756E652073746172740A0050DF
:101550004944204175746F74756E65206661696CCD
:101560006564212054656D706572617475726520C3
:10157000746F6F20686967680A0023646566696E26
:10158000652044454641554C545F004D3834205841
:101590002059205A2045001000AE0160038900B098
:1015A000066B00000A5B00500D5000A0104700F0D1
:1015B00013400040173900901A3300E01D2E003010
:1015C00021290080242300D0271E00202B19007021
:1015D0002E1400C0310E001035070060380000B036
:1015E0003BF5FF003FDDFF70012C0190012701B0AA
:1015F000012201C0011D01F0011801100213013088
:10160000020E016002090190020401C002FF000005
:1016100003FA004003F5008003F000D003EB002044
:1016200004E6007004E100E004DC004005D700C0DF
:1016300005D2004006CD00D006C8008007C30030A8
:1016400008BE00F008B900C009B400B00AAF00B08D
:101650000BAA00D00CA500000EA000500F9B00C0EC
:101660001096005012910000148C00C0158700B035
:10167000178200B0197D00D01B7800001E73004057
:10168000206E0090226900F024640040275F0090E3
:10169000295A00E02B5500102E500020304B00102E
:1016A000324600E033410090353C0010373700707F
:1016B000383200A0392D00B03A2800A03B2300604A
:1016C0003C1E00103D1900903D1400103E0F0070AC
:1016D0003E0A00C03E0500003F0000403FFBFF8087
:1016E0003FF6FFC03FF1FF2055004C0046696C619A
:1016F0006D656E74206C6F61642F756E6C6F6164C4
:10170000206C656E677468733A0A0020204D383586
:1017100031205A005A2D50726F6265204F666673F1
:1017200065740020440020490020204D33303120D2
:1017300050005049442073657474696E67733A0AA7
:101740000020460020420020480020204D31343542
:101750002053004D6174657269616C206865617425
:10176000757020706172616D65746572733A0A00FC
:101770002059002020473239205333205800205A66
:101780000020204D3432302053004D6573682042D4
:101790006564204C6576656C696E673A0A00205A6C
:1017A0000020590020204D323036205800486F6DFF
:1017B00065206F66667365743A0A00204500205AFA
:1017C0000020590020580020540020530020204DB4
:1017D00032303520420020453C6D61785F655F6A9C
:1017E00065726B3E0020583C6D61785F785F6A657A
:1017F000726B3E20593C6D61785F795F6A65726BF0
:101800003E205A3C6D61785F7A5F6A65726B3E007C
:10181000416476616E6365643A20423C6D696E5F37
:101820007365676D656E745F74696D655F75733E32
:1018300020533C6D696E5F66656564726174653ED8
:1018400020543C6D696E5F74726176656C5F66658D
:101850006564726174653E002054002052002020AF
:101860004D323034205000416363656C65726174A1
:10187000696F6E2028756E6974732F7332293A2050
:10188000503C7072696E745F616363656C3E205298
:101890003C726574726163745F616363656C3E2062
:1018A000543C74726176656C5F616363656C3E0A7B
:1018B00000204500205A0020590020204D323031B0
:1018C0002058004D6178696D756D20416363656CCA
:1018D00065726174696F6E2028756E6974732F73F9
:1018E00032293A0A00204500205A002059002020C1
:1018F0004D3230332058004D6178696D756D20662A
:1019000065656472617465732028756E6974732FE0
:1019100073293A0A005374657073207065722075DC
:101920006E69743A0A0020204D3230302044300A6B
:101930000020204D32303020440020446973616221
:101940006C65640A0046696C616D656E7420736530
:101950007474696E67733A0020204D313439204326
:10196000203B20556E69747320696E2043656C734B
:101970006975730A002020473231202020203B2047
:10198000556E69747320696E206D6D0048617264D4
:10199000636F6465642044656661756C742053658B
:1019A0007474696E6773204C6F616465640A00E843
:1019B000030000E8030000C8000000E80300000086
:1019C00000FA430000FA430000A0400000C84100B4
:1019D00000A0420000A042CD0C464300003A42293C
:1019E0000A002062797465733B20637263200020D3
:1019F00073746F7265642073657474696E677320A5
:101A000072657472696576656420280020286361B8
:101A10006C63756C6174656429210A0020213D2086
:101A200000454550524F4D20435243206D69736D20
:101A300061746368202D202873746F726564292097
:101A4000002053697A653A2000496E6465783A202F
:101A500000204D61726C696E3D563638290A00458A
:101A60004550524F4D2076657273696F6E206D69D7
:101A7000736D617463682028454550524F4D3D0099
:101A8000290A002062797465733B20637263200029
:101A900053657474696E67732053746F7265642044
:101AA0002800454550524F4D206461746173697A36
:101AB00065206572726F722E0A003A0A0020286D46
:101AC0006D290020204D36303320006F70656E0088
:101AD000545249474745524544003A20007A5F6DC9
:101AE000696E00795F6D696E00785F6D696E005296
:101AF00065706F7274696E6720656E6473746F7061
:101B0000207374617475730A00456E6473746F702A
:101B10007320256320256320256320256300205A38
:101B20003A0020593A0020583A00656E6473746F89
:101B30007073206869743A2000486F6D696E672081
:101B40006661696C6564004732385859002020503E
:101B50006C616E6E65724275666665724279746517
:101B6000733A20002046726565204D656D6F72796D
:101B70003A2000436F6D70696C65643A204A756C59
:101B800020323820323031390A00207C20417574EF
:101B9000686F723A20286E6F6E652C2064656661EE
:101BA000756C7420636F6E666967290A0032303184
:101BB000392D30372D313400204C6173742055702D
:101BC00064617465643A20006275676669782D32D5
:101BD0002E302E780A004D61726C696E0020536FB2
:101BE0006674776172652052657365740A002057C8
:101BF00061746368646F672052657365740A0020BE
:101C000042726F776E206F75742052657365740A27
:101C1000002045787465726E616C2052657365743E
:101C20000A00506F77657255700A007374617274A0
:101C30000A004B494C4C45442E20005072696E748A
:101C400065722068616C7465642E206B696C6C2809
:101C5000292063616C6C6564210A004B494C4C205F
:101C6000636175736564206279204B494C4C206236
:101C70007574746F6E2F70696E0A004B494C4C205E
:101C800063617573656420627920746F6F206D7570
:101C9000636820696E6163746976652074696D6537
:101CA000202D2063757272656E7420636F6D6D6197
:101CB0006E643A200050726F7465637465642050DE
:101CC000696E0A00363726033C3D380E2E303E1230
:101CD0001A1C1808440AFF430809000153746F7264
:101CE000652073657474696E6773004C6F6164205E
:101CF00073657474696E67730050726F6265205A01
:101D0000204F66667365740050726F6265205A20BA
:101D10004F666673657400426564205A00426564CC
:101D2000205A00466164652048656967687400460A
:101D30006164652048656967687400426564204C89
:101D40006576656C696E67004F6666004F6E00428F
:101D50006564204C6576656C696E670045646974DE
:101D6000204D657368004C6576656C206265640083
:101D70004D6F74696F6E005A2056616C7565005A1C
:101D80002056616C756500496E646578205900497C
:101D90006E646578205900496E6465782058004962
:101DA0006E646578205800426564204C6576656CE9
:101DB000696E670047323800436C69636B20746F4B
:101DC00020426567696E004732392053310047323F
:101DD00039205332004E65787420506F696E74005C
:101DE0002569202F202575004D6F7665205A004704
:101DF0003239205332004C6576656C696E67204439
:101E00006F6E652100486F6D696E672058595A00E2
:101E10004D6F76696E672E2E2E00466C6F770046EA
:101E20006C6F770046616E20737065656400466173
:101E30006E207370656564004265640042656400ED
:101E40004E6F7A7A6C65004E6F7A7A6C65004265E7
:101E500064205A00426564205A005370656564002E
:101E60005370656564004D61696E00526573746FEF
:101E70007265206661696C73616665004C6F6164B0
:101E80002073657474696E67730053746F72652094
:101E900073657474696E6773005072656865617408
:101EA0002041425320636F6E660050726568656121
:101EB0007420504C4120636F6E660050726F6265F3
:101EC000205A204F66667365740050726F626520F9
:101ED0005A204F666673657400416476616E63656F
:101EE000642053657474696E6773004D61696E0098
:101EF00053746F72652073657474696E6773004202
:101F0000656400426564004E6F7A7A6C65004E6FBE
:101F10007A7A6C650046616E207370656564004670
:101F2000616E20737065656400436F6E66696775E6
:101F3000726174696F6E0044697361626C652073CD
:101F400074657070657273004D38340042656420AA
:101F50004C6576656C696E6700486F6D65205A0048
:101F6000473238205A00486F6D6520590047323893
:101F7000205900486F6D65205800473238205800BE
:101F80004175746F20686F6D6500473238004D6F82
:101F900076652061786973004D61696E00457874DB
:101FA0007275646572004D6F7665205A004D6F76CC
:101FB000652059004D6F7665205800536F66742078
:101FC000456E6473746F7073004F6666004F6E00E9
:101FD000536F667420456E6473746F7073004D6F39
:101FE00074696F6E004578747275646572004D6F28
:101FF000766520302E3032356D6D004D6F76652060
:10200000302E316D6D004D6F766520316D6D004D58
:102010006F76652031306D6D004D6F76652061788B
:10202000697300486F74656E6420746F6F20636F0E
:102030006C64004578747275646572004D6F7665E6
:10204000205A004D6F76652059004D6F76652058F7
:10205000004D6F7665205A004D6F76652059004D12
:102060006F7665205800496E69740043616E636540
:102070006C00496E697469616C697A6520454550E8
:10208000524F4D003F00496E697469616C697A6511
:1020900020454550524F4D0046696C616D656E7428
:1020A0000054656D70657261747572650053746576
:1020B00070732F6D6D004A65726B00416363656CD0
:1020C00065726174696F6E0056656C6F63697479CF
:1020D0000053657420686F6D65206F666673657464
:1020E0007300436F6E66696775726174696F6E0025
:1020F0004573746570732F6D6D00457374657073EF
:102100002F6D6D005A73746570732F6D6D005A7367
:10211000746570732F6D6D005973746570732F6DD6
:102120006D005973746570732F6D6D00587374650D
:1021300070732F6D6D005873746570732F6D6D0023
:10214000416476616E6365642053657474696E677B
:10215000730056652D6A65726B0056652D6A65724F
:102160006B00567A2D6A65726B00567A2D6A65721D
:102170006B0056792D6A65726B0056792D6A65720F
:102180006B0056782D6A65726B0056782D6A657201
:102190006B00416476616E63656420536574746995
:1021A0006E677300416D6178204500416D61782054
:1021B0004500416D6178205A00416D6178205A00D8
:1021C000416D6178205900416D6178205900416D61
:1021D0006178205800416D6178205800412D74725B
:1021E0006176656C00412D74726176656C00412DDD
:1021F0007265747261637400412D726574726163FB
:102200007400416363656C00416363656C00416405
:1022100076616E6365642053657474696E677300DC
:102220005654726176206D696E0056547261762044
:102230006D696E00566D696E00566D696E00566D63
:102240006178204500566D6178204500566D6178B3
:10225000205A00566D6178205A00566D61782059D9
:1022600000566D6178205900566D617820580056EF
:102270006D6178205800416476616E636564205317
:10228000657474696E677300504944204175746FBA
:1022900074756E6500504944204175746F74756E95
:1022A00065002002204661637400200220466163BD
:1022B00074002002204D6178002002204D617800DA
:1022C0002002204D696E002002204D696E0041758C
:1022D000746F74656D70004F6666004F6E004175D7
:1022E000746F74656D7000416476616E636564201F
:1022F00053657474696E6773004D33303320553104
:102300002045256920532569004C6F6164206D6D5F
:10231000004C6F6164206D6D00556E6C6F616420C0
:102320006D6D00556E6C6F6164206D6D0046696C5B
:102330002E204469612E0046696C2E204469612E6E
:10234000004520696E206D6D5E33004F6666004F5C
:102350006E004520696E206D6D5E330041647661CC
:102360006E6365642053657474696E6773004D34E1
:10237000323800436F6F6C646F776E00507265681F
:102380006561742041425300507265686561742034
:10239000504C410046616E20737065656400466173
:1023A0006E20737065656400426564004265640078
:1023B0004E6F7A7A6C65004E6F7A7A6C65004D616B
:1023C000696E005072656865617420414253204215
:1023D0006564005072656865617420414253204510
:1023E0006E64005072656865617420414253005408
:1023F000656D7065726174757265005072656865AF
:10240000617420504C4120426564005072656865DB
:10241000617420504C4120456E64005072656865BF
:10242000617420504C410054656D70657261747523
:102430007265004E6F2053442063617264005072D5
:10244000696E742066726F6D205344004368616E3C
:1024500067652053442063617264004D323100434C
:1024600068616E67652066696C616D656E740043B6
:1024700068616E67652066696C616D656E74004D9C
:1024800036303020423000436F6E66696775726186
:1024900074696F6E0054656D7065726174757265F4
:1024A000004D6F74696F6E00526573756D652070B5
:1024B00072696E740054756E650053746F7020708D
:1024C00072696E74005061757365207072696E7404
:1024D00000496E666F2073637265656E0053746F9A
:1024E00070004261636B0053746F70207072696E8C
:1024F00074003F005761697420666F720066696CF2
:10250000616D656E742070757267650057616974DE
:1025100020666F72207072696E7400746F2072652D
:1025200073756D652E2E2E00507265737320627563
:1025300074746F6E00746F20726573756D652070B2
:1025400072696E74005761697420666F7200666903
:102550006C616D656E74206C6F616400496E7365AB
:1025600072742066696C616D656E7400616E6420C2
:10257000707265737320627574746F6E005072654B
:10258000737320627574746F6E00746F2068656178
:1025900074206E6F7A7A6C65004E6F7A7A6C652063
:1025A00068656174696E6700506C6561736520775A
:1025B0006169742E2E2E005761697420666F720057
:1025C00066696C616D656E7420756E6C6F61640018
:1025D0005761697420666F720066696C616D656E23
:1025E00074206368616E6765005061726B696E6725
:1025F0002E2E2E005052494E5420504155534544E2
:1026000000554E4C4F41442046494C414D454E5497
:10261000004C4F41442046494C414D454E5400200A
:10262000204E6F7A7A6C653A20002000436F6E74FA
:10263000696E7565005075726765206D6F72650013
:10264000524553554D45204F5054494F4E533A0033
:102650004368616E67652066696C616D656E7400C4
:102660005072656865617420437573746F6D0050B6
:1026700072656865617420437573746F6D00507284
:1026800065686561742041425300507265686561F8
:102690007420504C41004261636B004D3630302055
:1026A000423020542564004D373032203B256400F1
:1026B0004D37303220542564004D373031205425B9
:1026C00064005072696E742066726F6D205344000E
:1026D0005072696E742066726F6D20534400052E2F
:1026E0002E004D61696E005072696E740043616E18
:1026F00063656C005374617274207072696E74202B
:10270000003F004D3234004D3235005072696E7416
:102710002070617573656400506175736520707217
:10272000696E74005072696E742061626F727465B4
:1027300064003344205072696E7465722052656182
:1027400064792E005072696E74696E672E2E2E00A9
:102750005072696E742070617573656400436172B4
:10276000642072656D6F76656400436172642069F0
:102770006E73657274656400A10000006900A200B8
:1027800000006300B00000000900C100000041002B
:10279000C20000004100C30000004100C40000006E
:1027A0004100C50000004100C60000004145C700CF
:1027B00000004300C80000004500C90000004500BB
:1027C000CD0000004900D10000004E00D5000000FF
:1027D0004F00D60000004F00D70000007800DC005A
:1027E00000005500DD0000005900E000000061001D
:1027F000E10000006100E20000006100E300000071
:102800006100E40000006100E50000006100E600F6
:1028100000006165E70000006300E800000065005B
:10282000E90000006500EA0000006500EB00000020
:102830006500EC0000006900ED0000006900EE009A
:1028400000006900EF0000006900F10000006E0068
:10285000F20000006F00F30000006F00F4000000C1
:102860006F00F50000006F00F60000006F00F80038
:1028700000006F00F90000007500FA00000075000C
:10288000FB0000007500FC0000007500FD0000006A
:102890007900FF00000079000401000041000501FB
:1028A0000000610006010000430007010000630012
:1028B0000C01000043000D01000063000E01000048
:1028C00044000F01000064001101000064001901C0
:1028D000000065001F010000670030010000490092
:1028E000310100006900410100004C00420100007C
:1028F0006C00430100004E00440100006E004801DE
:1029000000006E005901000072005A0100005300DF
:102910005B01000073005F010000730060010000B4
:1029200053006101000073006501000074006F0135
:10293000000075007C0100007A007D0100005A0053
:102940007E0100007A00920100006600E3020000B0
:102950007800840300002700850300002700860319
:1029600000004100870300002E008803000045009E
:102970008903000048008A03000049008C0300001E
:102980004F008E03000059008F0300004F0090039A
:102990000000690091030000410092030000420022
:1029A00093030000540094030000340095030000DA
:1029B0004500960300005A00970300004800980362
:1029C000000030009903000049009A0300004B000A
:1029D0009B0300005E009C0300004D009D0300006F
:1029E0004E009E03000033009F0300004F00A00331
:1029F00000006E00A10300005000A303000045008A
:102A0000A40300005400A50300005900A603000021
:102A10007000A70300005800A80300005000A9039D
:102A200000004F00AA0300004900AB03000059005A
:102A3000AC0300006100AD0300006500AE030000C0
:102A40006E00AF0300006900B00300007600B10320
:102A500000006100B20300004200B30300007600F2
:102A6000B40300006400B50300006500B603000075
:102A70005A00B70300006E00B80300003000B9032D
:102A800000006900BA0300006B00BB0300004C00AB
:102A9000BC0300007500BD0300007600BE0300000B
:102AA0006500BF0300006F00C00300006E00C1039B
:102AB00000007000C20300006300C30300006F0049
:102AC000C40300007400C50300007600C6030000C4
:102AD0007000C70300005800C80300005700C90376
:102AE00000007700CA0300006900CB0300007600F5
:102AF000CC0300006F00CD0300007600CE03000081
:102B0000770001040000450010040000410011049A
:102B10000000620012040000420013040000540090
:102B200014040000510015040000450016040000C4
:102B30002A00170400004500180400004E00190484
:102B400000004E001A0400004B001B04000054005B
:102B50001C0400004D001D04000048001E0400007D
:102B60004F001F0400006E002004000050002104EC
:102B70000000430022040000540023040000590018
:102B8000240400006F002504000058002604000003
:102B9000550027040000790028040000570029048C
:102BA000000057002A04000062002B040000627C31
:102BB0002C04000062002D04000065002E040000BB
:102BC0007C4F2F040000397C300400006100310488
:102BD000000036003204000042003304000072009E
:102BE0003404000061003504000065003604000074
:102BF0002A0037040000650038040000750039041D
:102C0000000075003A0400006B003B0400006E00F9
:102C10003C0400006D003D04000048003E0400003C
:102C20006F003F0400006E0040040000700041048B
:102C300000006300420400007400430400007900B7
:102C40004404000071704504000078004604000050
:102C5000750047040000790048040000770049042B
:102C6000000077004A04000062004B040000627C10
:102C70004C04000062004D04000065004E0400009A
:102C80007C6F4F04000067005104000065002220A3
:102C900000002E001E210000507822210000544D1B
:102CA000902100003C2D922100002D3EB02100001B
:102CB0000300BB21000004003C2200007E004822EB
:102CC00000007E3D60220000213D612200003D00A9
:102CD000642200003C3D652200003E3DF1230000DF
:102CE0000700A03000003D0021F301000200C2F403
:102CF00001000500A2000000EC00B0000000DF00B1
:102D0000E4000000E100F6000000EF00F700000022
:102D1000FD00FC000000F500E3020000EB0087036B
:102D20000000A5008F030000F40098030000F200EB
:102D30009E030000E300A3030000F600A9030000C7
:102D4000F400AC030000E000AD030000E300B103B9
:102D50000000E000B2030000E200B5030000E30061
:102D6000B8030000F200BC030000E400BE03000052
:102D7000E300C0030000F700C1030000E600C30346
:102D80000000E500902100007F00922100007E00FD
:102D90001A220000E8001E220000F300882500002F
:102DA000FF0002300000A1000C300000A2000D3036
:102DB0000000A3009B300000DE009C300000DF001C
:102DC000A03000003D00A1300000A700A2300000AC
:102DD000B100A3300000A800A4300000B200A5306C
:102DE0000000A900A6300000B300A7300000AA0030
:102DF000A8300000B400A9300000AB00AA300000E9
:102E0000B500AB300000B600AC300000B6DEAD302F
:102E10000000B700AE300000B7DEAF300000B800F1
:102E2000B0300000B8DEB1300000B900B2300000B0
:102E3000B9DEB3300000BA00B4300000BADEB530FD
:102E40000000BB00B6300000BBDEB7300000BC00A5
:102E5000B8300000BCDEB9300000BD00BA30000060
:102E6000BDDEBB300000BE00BC300000BEDEBD30A9
:102E70000000BF00BE300000BFDEBF300000C00059
:102E8000C0300000C0DEC1300000C100C230000010
:102E9000C1DEC3300000AF00C4300000C200C53046
:102EA0000000C2DEC6300000C300C7300000C3DE31
:102EB000C8300000C400C9300000C4DECA300000C1
:102EC000C500CB300000C600CC300000C700CD30BC
:102ED0000000C800CE300000C900CF300000CA009A
:102EE000D0300000CADED1300000CADFD23000008E
:102EF000CB00D3300000CBDED4300000CBDFD530A8
:102F00000000CC00D6300000CCDED7300000CCDF93
:102F1000D8300000CD00D9300000CDDEDA3000001E
:102F2000CDDFDB300000CE00DC300000CEDEDD3057
:102F30000000CEDFDE300000CF00DF300000D00028
:102F4000E0300000D100E1300000D200E2300000AB
:102F5000D300E3300000AC00E4300000D400E530E2
:102F60000000AD00E6300000D500E7300000AE0004
:102F7000E8300000D600E9300000D700EA30000059
:102F8000D800EB300000D900EC300000DA00ED3062
:102F90000000DB00EF300000DC00F2300000A60093
:102FA000F3300000DD00F4300000B3DEF730000045
:102FB000DCDEFA300000A6DEFB300000A500FC30AD
:102FC0000000B000FD300000A400074E0000FB0030
:102FD00086510000FC0043530000FA0064FF00002B
:102FE000A40065FF0000A50066FF0000A60067FFC3
:102FF0000000A70068FF0000A80069FF0000A9000A
:103000006AFF0000AA006BFF0000AB006CFF00002D
:10301000AC006DFF0000AD006EFF0000AE006FFF62
:103020000000AF0070FF0000B00071FF0000B100B1
:1030300072FF0000B20073FF0000B30074FF0000D5
:10304000B40075FF0000B50076FF0000B60077FF02
:103050000000B70078FF0000B80079FF0000B90059
:103060007AFF0000BA007BFF0000BB007CFF00007D
:10307000BC007DFF0000BD007EFF0000BE007FFFA2
:103080000000BF0080FF0000C00081FF0000C10001
:1030900082FF0000C20083FF0000C30084FF000025
:1030A000C40085FF0000C50086FF0000C60087FF42
:1030B0000000C70088FF0000C80089FF0000C900A9
:1030C0008AFF0000CA008BFF0000CB008CFF0000CD
:1030D000CC008DFF0000CD008EFF0000CE008FFFE2
:1030E0000000CF0090FF0000D00091FF0000D10051
:1030F00092FF0000D20093FF0000D30094FF000075
:10310000D40095FF0000D50096FF0000D60097FF81
:103110000000D70098FF0000D80099FF0000D900F8
:103120009AFF0000DA009BFF0000DB009CFF00001C
:10313000DC009DFF0000DD009EFF0000DE009FFF21
:103140000000DF00E5FF00005C00506C6561736506
:10315000207265736574005052494E5445522048A0
:10316000414C544544002D2D2D2D2D2D007C4D61BD
:10317000726C696E7C002D2D2D2D2D2D00687474C0
:10318000703A2F2F6D61726C696E66772E6F726761
:1031900000687474703A2F2F6D61726C696E667777
:1031A0002E6F726700687474703A2F2F6D61726CA5
:1031B000696E66772E6F7267006275676669782D33
:1031C000322E302E78006275676669782D322E3087
:1031D0002E78006275676669782D322E302E780061
:1031E00000687474703A2F2F6D61726C696E667727
:1031F0002E6F726700687474703A2F2F6D61726C55
:10320000696E66772E6F726700687474703A2F2F3C
:103210006D61726C696E66772E6F726700206275E1
:10322000676669782D322E302E7800001C1F111130
:103230001F00000006191803130C00040E1F041CC5
:10324000000000000E1315110E00001C10181705C9
:10325000060500040A0A0A0A11110E0C12120C00CB
:10326000000000001F1511151F00000000000001E4
:103270000204040000001C1C0C04040402010000F1
:1032800000000004081000000000002D2D2D005348
:103290004400202020200020202020202020002565
:1032A000753A2530327500253032753A2530327541
:1032B00000507265737320627574746F6E20286F8E
:1032C00072204D3130382920746F20686561742078
:1032D0006E6F7A7A6C650A0050726573732062753E
:1032E00074746F6E20286F72204D3130382920742D
:1032F0006F20726573756D650A00496E736572742F
:103300002066696C616D656E7420616E64207072F8
:1033100065737320627574746F6E20286F72204D10
:10332000313038290A004D3630303A20546F6F2042
:10333000636F6C6400486F74656E6420746F6F20F7
:10334000636F6C640A00486F74656E6420746F6FFD
:1033500020636F6C640A00496E736572742066693D
:103360006C616D656E7420616E642070726573733C
:1033700020627574746F6E20286F72204D31303862
:10338000290A000A4D6561737572656420706F6962
:103390006E74733A0A00456E642066696C65206C31
:1033A0006973740A00426567696E2066696C6520FE
:1033B0006C6973740A0043757272656E7420666975
:1033C0006C653A20004361703A004348414D4245E4
:1033D000525F54454D5045524154555245004D4F52
:1033E00054494F4E5F4D4F44455300544845524D4C
:1033F000414C5F50524F54454354494F4E00415544
:10340000544F5245504F52545F53445F53544154AC
:1034100055530050524F4D50545F535550504F52DA
:103420005400454D455247454E43595F5041525314
:10343000455200434153455F4C494748545F42520F
:10344000494748544E45535300544F47474C455FF6
:103450004C494748545300534F4654574152455FD7
:10346000504F574552004255494C445F50455243D6
:10347000454E54004C4556454C494E475F444154D7
:1034800041005A5F50524F4245004155544F4C4500
:1034900056454C005052494E545F4A4F42005052DC
:1034A0004F4752455353004155544F5245504F5288
:1034B000545F54454D5000564F4C554D455452495C
:1034C0004300454550524F4D0042494E4152595FCD
:1034D00046494C455F5452414E5346455200534570
:1034E0005249414C5F584F4E5F584F46460046493F
:1034F000524D574152455F4E414D453A4D61726CB8
:10350000696E206275676669782D322E302E7820BC
:10351000284769746875622920534F555243455FA7
:10352000434F44455F55524C3A68747470733A2F58
:103530002F6769746875622E636F6D2F4D61726CB1
:10354000696E4669726D776172652F4D61726C6943
:103550006E2050524F544F434F4C5F564552534983
:103560004F4E3A312E30204D414348494E455F542D
:103570005950453A3344205072696E746572204543
:10358000585452554445525F434F554E543A31209A
:10359000555549443A63656465326132662D34316C
:1035A00061322D343734382D396231322D6335355F
:1035B0006336326633363766660A004D3131332062
:1035C00053002F2F2000496E76616C696420657866
:1035D0007472756465720A0020643A0020693A00CA
:1035E00020703A0043290A0061626C656420286DEE
:1035F000696E2074656D70200064697300656E00EB
:10360000436F6C64206578747275646573206172B1
:10361000652000204500205A00205900204D3932F5
:103620002058005741524E494E4721204C6F772079
:103630005A204A65726B206D6179206C6561642047
:10364000746F20756E77616E746564207061757338
:1036500065732E0A00205400205200416363656C9C
:1036600065726174696F6E3A20500020466C6F7706
:103670003A200047322F4733206261642070617224
:10368000616D65746572730A00536C6565702E2EEA
:103690002E004D65736820706F696E742063616ED3
:1036A0006E6F74206265207265736F6C7665640A54
:1036B00000206F6620004D424C2047323920706F49
:1036C000696E742000290A004A206F7574206F66A5
:1036D0002072616E67652028302D00290A0049207C
:1036E0006F7574206F662072616E67652028302DBB
:1036F000004D6573682070726F62696E6720646F39
:103700006E652E0A005374617274206D65736820B3
:1037100070726F62696E6720776974682022473221
:1037200039205331222066697273742E0A004732A1
:10373000380A47323920533200686173206E6F2097
:10374000646174612E0A004D6573682042656420CF
:103750004C6576656C696E67200053206F75742028
:103760006F662072616E67652028302D35292E0A1C
:1037700000206E6F7420656E74657265642E0A0099
:10378000473238004D65736820706F696E7420632E
:10379000616E6E6F74206265207265736F6C766502
:1037A000640A004D34323120696E636F7272656352
:1037B0007420706172616D657465722075736167E4
:1037C000650A004F46460A004661646520486569FF
:1037D0006768742000426564204C6576656C696E8C
:1037E0006720004661696C656420746F20656E61B6
:1037F000626C6520426564204C6576656C696E6715
:103800000A004D65736820426564204C6576656CDE
:1038100020646174613A0A00496E76616C696420C3
:103820006D6573682E0A00627573793A2070617550
:1038300073656420666F7220696E7075740A006229
:103840007573793A2070617573656420666F7220B4
:10385000757365720A00627573793A2070726F63CE
:10386000657373696E670A0020496E76616C6964DE
:103870002065787472756465722000446F6E6520EF
:10388000736176696E672066696C652E0A00535411
:103890004F505045442E20005072696E746572205E
:1038A00073746F707065642064756520746F206533
:1038B00072726F72732E2046697820746865206575
:1038C00072726F7220616E6420757365204D393994
:1038D0003920746F20726573746172742E202854BD
:1038E000656D7065726174757265206973207265AB
:1038F0007365742E20536574206974206166746545
:10390000722072657374617274696E67290A004E61
:103910006F20436865636B73756D207769746820E9
:103920006C696E65206E756D6265722C204C6173DA
:1039300074204C696E653A20004E6F2043686563C1
:103940006B73756D2077697468206C696E65206E85
:10395000756D6265722C204C617374204C696E65C4
:103960003A2000636865636B73756D206D69736DD4
:10397000617463682C204C617374204C696E653AE5
:1039800020004C696E65204E756D6265722069730A
:10399000206E6F74204C617374204C696E65204EEC
:1039A000756D6265722B312C204C617374204C69EB
:1039B0006E653A20004D31313000526573656E649A
:1039C0003A20006F6B00220A00656E71756575659F
:1039D000696E67202200534420726561642065721D
:1039E000726F720A00446F6E65207072696E74693E
:1039F0006E672066696C650A004D323900436C6958
:103A0000636B20746F20726573756D652E2E2E00AA
:103A10004D31343520533C696E6465783E206F75B6
:103A200074206F662072616E67652028302D312901
:103A30000A00486F6D652058592066697273740AD0
:103A400000486F6D65205859206669727374004F85
:103A5000666673657473206170706C696564004597
:103A600072723A20546F6F206661722100546F6F3A
:103A7000206661722066726F6D2072656665726580
:103A80006E636520706F696E740A00454550524F31
:103A90004D204F4B0A00504944204175746F747596
:103AA0006E65206661696C656421204261642065F1
:103AB00078747275646572206E756D6265720A0045
:103AC00042656420636F6F6C696E672E2E2E004214
:103AD00065642068656174696E672E2E2E006F6BB9
:103AE00000220A00556E6B6E6F776E20636F6D6DEE
:103AF000616E643A202200205A00205900580020AC
:103B0000204D61783A2000205A00205900580020AA
:103B1000204D696E3A2000536F667420656E6473A1
:103B2000746F70733A20003344205072696E74656C
:103B300072204F46462E004E6F206D6F76652E0028
:103B40004543484F00494E464F004552524F52534D
:103B50000044525952554E00434F4D4D554E494326
:103B60004154494F4E006F666600403B453B4A3B1F
:103B7000513B583B44454255473A005072696E7478
:103B80002074696D653A20002569730025696D20F0
:103B9000256973002569682025696D2025697300F2
:103BA000256964202569682025696D2025697300D1
:103BB00025697920256964202569682025696D209B
:103BC0002569730050726F6265205A204F666673D4
:103BD00065743A20003F5A206F7574206F6620721A
:103BE000616E676520282D323020746F20323029B5
:103BF0000A00205A3A200020593A200042656420E9
:103C0000583A2000AD3EF78D84C410D02F02110227
:103C100035022D02EF01E53E11241FBECFEFD1E2A8
:103C2000DEBFCDBF00E00CBF13E0A0E0B2E0E6EFE6
:103C3000F8E703E00BBF02C007900D92AE37B10763
:103C4000D9F722E1AEE7B3E001C01D92AD3DB20766
:103C5000E1F71EE1CBE0DEE100E006C021970109BB
:103C6000802FFE010F94B3B4C230D10780E0080763
:103C7000A9F70E94E2260D946ABC0C9400001F92E2
:103C80000F920FB60F9211242F933F938F939F9310
:103C9000AF93BF9380917F0390918003A0918103A4
:103CA000B091820330917E0323E0230F2D3768F11A
:103CB00026E8230F0296A11DB11D20937E03809359
:103CC0007F0390938003A0938103B093820380913C
:103CD000830390918403A0918503B091860301969C
:103CE000A11DB11D8093830390938403A09385034A
:103CF000B0938603BF91AF919F918F913F912F9188
:103D00000F900FBE0F901F9018950196A11DB11D29
:103D1000D4CF2FB7F89460917F0370918003809186
:103D20008103909182032FBF08958F929F92AF924B
:103D3000BF92CF92DF92EF92FF924B015C019FB74F
:103D4000F894C0908303D0908403E0908503F090B2
:103D5000860386B5A89B07C08F3F29F02FEFC21AB4
:103D6000D20AE20AF20A9FBFFE2CED2CDC2CCC24F6
:103D7000C80ED11CE11CF11CCC0CDD1CEE1CFF1C80
:103D8000CC0CDD1CEE1CFF1C81149104A104B104B9
:103D900009F43DC0D9D33FB7F89480918303909143
:103DA0008403A0918503B091860326B5A89B05C026
:103DB0002F3F19F00196A11DB11D3FBFBA2FA92FAA
:103DC000982F8827820F911DA11DB11D880F991F63
:103DD000AA1FBB1F880F991FAA1FBB1F8C199D0903
:103DE000AE09BF09883E9340A105B10598F281E074
:103DF000881A9108A108B10828EEC20E23E0D21E4D
:103E0000E11CF11C81149104A104B10421F6FF907E
:103E1000EF90DF90CF90BF90AF909F908F900895DC
:103E20008230910538F0880F991F880F991F0597E8
:103E30000197F1F70895789484B5826084BD84B5C4
:103E4000816084BD85B5826085BD85B5816085BD95
:103E5000EEE6F0E0808181608083E1E8F0E01082AE
:103E6000808182608083808181608083E0E8F0E0EF
:103E7000808181608083E1EBF0E0808184608083D9
:103E8000E0EBF0E0808181608083E1E9F0E0808117
:103E900082608083808181608083E0E9F0E08081BE
:103EA00081608083E1EAF0E08081826080838081AC
:103EB00081608083E0EAF0E0808181608083E1E2DC
:103EC000F1E0808182608083808181608083E0E294
:103ED000F1E0808181608083EAE7F0E080818460A6
:103EE0008083808182608083808181608083808103
:103EF000806880831092C10008951F93CF93DF9351
:103F0000182FEB0161E024D12097D1F0CF3FD105EC
:103F100079F0E12FF0E0E759FA4FE4918E2F90E02D
:103F2000FC013197E231F10528F0C038D10544F0A9
:103F300061E007C08827EE58FF4F8F4F0D94B3B450
:103F400060E0812FDF91CF911F9143C184B58068DC
:103F500084BDC7BDDF91CF911F91089584B5806264
:103F600084BDC8BDF7CF80918000806880938000B9
:103F7000D0938900C0938800EDCF8091800080624B
:103F800080938000D0938B00C0938A00E3CF809110
:103F90008000886080938000D0938D00C0938C0057
:103FA000D9CF8091B00080688093B000C093B300F7
:103FB000D1CF8091B00080628093B000C093B400F4
:103FC000C9CF80919000806880939000D093990031
:103FD000C0939800BFCF8091900080628093900042
:103FE000D0939B00C0939A00B5CF809190008860D9
:103FF00080939000D0939D00C0939C00ABCF8091A4
:10400000A00080688093A0008091A0008F7B8093A7
:10401000A000D093A900C093A8009CCF8091A000DD
:1040200080628093A000D093AB00C093AA0092CF8F
:104030008091A00088608093A000D093AD00C093D1
:10404000AC0088CF80912001806880932001D093BC
:104050002901C09328017ECF809120018062809346
:104060002001D0932B01C0932A0174CF80912001AD
:10407000886080932001D0932D01C0932C016ACFDA
:1040800090E0FC013197E231F10558F48827EC57B4
:10409000FF4F8F4F0D94B3B480912001877F8093A1
:1040A0002001089584B58F7784BD089584B58F7DF0
:1040B00084BD0895809180008F778093800008955B
:1040C000809180008F7D8093800008958091800092
:1040D000877F8093800008958091B0008F778093D0
:1040E000B00008958091B0008F7D8093B000089556
:1040F000809190008F778093900008958091900038
:104100008F7D80939000089580919000877F8093A9
:10411000900008958091A0008F778093A00008956B
:104120008091A0008F7D8093A00008958091A000D1
:10413000877F8093A0000895809120018F778093DE
:1041400020010895809120018F7D809320010895A2
:10415000CF93DF9390E0FC01E155FA4F2491FC01ED
:10416000EB50FA4F84918823B9F090E0880F991FA3
:10417000FC01E159F94FA591B491FC01EB5AF94FBB
:10418000C591D491662359F06230B9F08FB7F89495
:10419000EC91E22BEC938FBFDF91CF9108959FB705
:1041A000F8948C91E22FE0958E238C932881E22362
:1041B000E8839FBFDF91CF9108959FB7F8948C91CA
:1041C000322F309583238C93E881E22BE8839FBFC5
:1041D000E3CF1F93CF93DF93282F30E0F901E75906
:1041E000FA4F8491F901E155FA4F1491F901EB501E
:1041F000FA4FC491CC23A9F0D62F81111BC0EC2F0C
:10420000F0E0EE0FFF1FEB5AF94FA591B4918FB775
:10421000F894D1110AC09C91E12FE095E923EC9329
:104220008FBFDF91CF911F910895EC91E12BEC931B
:104230008FBFF7CF25DFE3CFCF93DF93282F30E079
:10424000F901E759FA4F8491F901E155FA4FD491F8
:10425000F901EB50FA4FC491CC23B1F0811119C090
:10426000EC2FF0E0EE0FFF1FE55CF94FA591B49144
:10427000EC91ED2381E090E019F0DF91CF9108956A
:1042800080E0DF91CF91089580E090E0DF91CF91C1
:104290000895F6DEE5CF08951F920F920FB60F92A4
:1042A00011240BB60F922F933F934F935F936F930D
:1042B0007F938F939F93AF93BF93EF93FF93E0917F
:1042C0000402F09105021995FF91EF91BF91AF9112
:1042D0009F918F917F916F915F914F913F912F911E
:1042E0000F900BBE0F900FBE0F901F9018951F924E
:1042F0000F920FB60F9211240BB60F922F933F938C
:104300004F935F936F937F938F939F93AF93BF93DD
:10431000EF93FF93E0910602F09107021995FF9148
:10432000EF91BF91AF919F918F917F916F915F912D
:104330004F913F912F910F900BBE0F900FBE0F909A
:104340001F9018951F920F920FB60F9211240BB663
:104350000F922F933F934F935F936F937F938F931E
:104360009F93AF93BF93EF93FF93E0910802F09177
:1043700009021995FF91EF91BF91AF919F918F9194
:104380007F916F915F914F913F912F910F900BBE55
:104390000F900FBE0F901F9018951F920F920FB69F
:1043A0000F9211240BB60F922F933F934F935F936D
:1043B0006F937F938F939F93AF93BF93EF93FF93ED
:1043C000E0910A02F0910B021995FF91EF91BF91D4
:1043D000AF919F918F917F916F915F914F913F919D
:1043E0002F910F900BBE0F900FBE0F901F9018953E
:1043F0001F920F920FB60F9211240BB60F922F93AC
:104400003F934F935F936F937F938F939F93AF935C
:10441000BF93EF93FF93E0910002F0910102199591
:10442000FF91EF91BF91AF919F918F917F916F918C
:104430005F914F913F912F910F900BBE0F900FBE48
:104440000F901F9018951F920F920FB60F92112484
:104450000BB60F922F933F934F935F936F937F937E
:104460008F939F93AF93BF93EF93FF93E0910202DB
:10447000F09103021995FF91EF91BF91AF919F9138
:104480008F917F916F915F914F913F912F910F90FD
:104490000BBE0F900FBE0F901F9018951F920F929A
:1044A0000FB60F9211240BB60F922F933F934F9399
:1044B0005F936F937F938F939F93AF93BF93EF938C
:1044C000FF93E0910C02F0910D021995FF91EF918D
:1044D000BF91AF919F918F917F916F915F914F911C
:1044E0003F912F910F900BBE0F900FBE0F901F901A
:1044F00018951F920F920FB60F9211240BB60F92C0
:104500002F933F934F935F936F937F938F939F93DB
:10451000AF93BF93EF93FF93E0910E02F0910F02E0
:104520001995FF91EF91BF91AF919F918F917F91DD
:104530006F915F914F913F912F910F900BBE0F9014
:104540000FBE0F901F901895089580E090E0089599
:104550000895CF92DF92EF92FF920F931F93CF9324
:10456000DF934115510509F16A018C017B01C0E01F
:10457000D0E004C02196CC16DD0669F0D7016D911C
:104580007D01D801ED91FC910190F081E02DC801F1
:104590001995892B79F7CE01DF91CF911F910F915A
:1045A000FF90EF90DF90CF900895C0E0D0E0F3CF80
:1045B0001F920F920FB60F9211240BB60F922F93EA
:1045C0003F934F935F936F937F938F939F93AF939B
:1045D000BF93EF93FF9380918A0390918B03A091F7
:1045E0008C03B0918D03892B8A2B8B2BE1F1909159
:1045F0008703E0918803F091890380818927808374
:1046000080918A0390918B03A0918C03B0918D03CC
:10461000181619061A061B069CF480918A039091BD
:104620008B03A0918C03B0918D030197A109B1096F
:1046300080938A0390938B03A0938C03B0938D0394
:10464000FF91EF91BF91AF919F918F917F916F916A
:104650005F914F913F912F910F900BBE0F900FBE26
:104660000F901F90189580911002E9E8F6E0E49110
:104670009FEF90931002E23039F168F0E430F1F0EE
:10468000B8F0E53029F4909173009D7F909373000A
:1046900060E09FDDD5CFEE2341F0E130C9F7909186
:1046A0006F009D7F90936F00F3CF10926E00F0CF5C
:1046B000909171009D7F90937100EACF909172006C
:1046C0009D7F90937200E4CF909170009D7F9093B6
:1046D000700091E09093B0009091B100987F946049
:1046E0009093B1001092B300D3CF8F929F92AF926C
:1046F000BF92CF92DF92EF92FF920F931F93CF93CF
:10470000DF938C01E62E61E0FC01848162DDF8011B
:1047100085818F3F11F060E05CDDF8018785F12C29
:1047200084FD6CC05701B594A794B594A794B59433
:10473000A794B594A7946801F7E0CF0ED11CE601C9
:10474000812C912CB501082C02C0759567950A94AF
:10475000E2F7617089913DDD8FEF881A980AE4E0F5
:104760008E16910479F760E0F801868132DD81E0F0
:1047700090E056DB61E0F80186812BDD81E090E07E
:104780004FDB60E0F801868124DD84E690E048DBC1
:10479000C0E0D0E0B7010C2E02C0759567950A9471
:1047A000E2F76170F60181916F0113DD2196C4304B
:1047B000D10581F760E0F80186810BDD81E090E0B2
:1047C0002FDB61E0F801868104DD81E090E028DBE9
:1047D00060E0F8018681FDDC84E690E021DB81E089
:1047E00090E0DF91CF911F910F91FF90EF90DF90BC
:1047F000CF90BF90AF909F908F9008956801F7E0A1
:10480000CF0ED11CC0E0D0E0B7010C2E02C07595D0
:1048100067950A94E2F76170F60181916F01D9DC26
:104820002196C830D10581F7C5CF8F929F92AF9264
:10483000BF92CF92DF92EF92FF920F931F93CF938D
:10484000DF938C01E62E60E0FC018481C2DCF8017C
:1048500085818F3F11F060E0BCDCF8018785F12C89
:1048600084FD69C05701B594A794B594A794B594F5
:10487000A794B594A7946801F7E0CF0ED11CE60188
:10488000812C912CB501082C02C0759567950A946E
:10489000E2F7617089919DDC8FEF881A980AE4E055
:1048A0008E16910479F760E0F801868192DC81E050
:1048B00090E0B6DA61E0F80186818BDC81E090E07F
:1048C000AFDA60E0F801868184DC84E690E0A8DA63
:1048D000C0E0D0E0B7010C2E02C0759567950A9430
:1048E000E2F76170F60181916F0173DC2196C430AB
:1048F000D10581F760E0F80186816BDC81E090E012
:104900008FDA61E0F801868164DC81E090E088DA8A
:1049100060E0F80186815DDC84E690E0DF91CF9174
:104920001F910F91FF90EF90DF90CF90BF90AF90CD
:104930009F908F9075CA6801F7E0CF0ED11CC0E040
:10494000D0E0B7010C2E02C0759567950A94E2F786
:104950006170F60181916F013CDC2196C830D10570
:1049600081F7C8CFAF92BF92CF92DF92EF92FF92C2
:104970000F931F93CF93DF93EC01423018F08F8594
:1049800088608F874B8B1C8A80E48D8B6E8B70E0E8
:10499000605C7F4F6F8B222319F0413009F414C102
:1049A00061E08C81D5DB8D818F3F11F061E0D0DB40
:1049B00061E08E81CDDB6E0187E0C80ED11C7601EF
:1049C00000E010E00CC084E090E0081719077CF4C8
:1049D00061E0F70181917F01BBDB0F5F1F4F8F8586
:1049E00084FFF1CF88E090E0081719078CF380E589
:1049F00093EC16DA60E08C81ECDB60E08E81E9DB21
:104A00008D818F3F11F060E0E4DB6F8564FF2FC084
:104A10006062CE010ADF84E991E102DA6F856062AB
:104A2000CE0103DF86E990E0FBD96F856062CE019D
:104A3000FCDE6F856062CE01F8DE84E0888B6CE07E
:104A4000CE01F3DE61E0CE01F0DE80ED97E0E8D943
:104A500082E0898B66E0CE01DF91CF911F910F91AB
:104A6000FF90EF90DF90CF90BF90AF90DECE7601B9
:104A700000E010E033E0A32EB12CB501002E02C0FF
:104A8000759567950A94E2F76170F70181917F014E
:104A9000A0DB0F5F1F4F0430110579F760E08E81B6
:104AA00098DB81E090E0BCD961E08E8192DB81E00F
:104AB00090E0B6D960E08E818CDB84E690E0B0D9DE
:104AC00084E991E1ADD9760100E010E023E0A22E67
:104AD000B12CB501002E02C0759567950A94E2F7D6
:104AE0006170F70181917F0174DB0F5F1F4F04300C
:104AF000110579F760E08E816CDB81E090E090D960
:104B000061E08E8166DB81E090E08AD960E08E8191
:104B100060DB84E690E084D984E991E181D9760173
:104B200000E010E093E0A92EB12CB501002E02C0E8
:104B3000759567950A94E2F76170F70181917F019D
:104B400048DB0F5F1F4F0430110579F760E08E815D
:104B500040DB81E090E064D961E08E813ADB81E066
:104B600090E05ED960E08E8134DB84E690E058D935
:104B700086E990E055D900E010E082E0E82EF12CC3
:104B8000B701002E02C0759567950A94E2F761702F
:104B9000F60181916F011DDB0F5F1F4F043011057E
:104BA00079F760E08E8115DB81E090E039D961E032
:104BB0008E810FDB81E090E033D960E08E8109DBEC
:104BC00084E690E02DD935CF8F8584608F87E8CE3D
:104BD000CF92EF920F93FC01138212828CEF92E03E
:104BE0009183808364838FEF858346832783008747
:104BF000E186C2861386148615861686178620E0FF
:104C000041E060E1CF010F91EF90CF90ABCE61E03A
:104C10000CDE80ED97E004C9FC01443008F043E06D
:104C20008389481710F04FEF480FDF01A40FB11D23
:104C300054969C91690F6068CF01F7CD4F925F92B7
:104C40006F927F928F929F92AF92BF92CF92DF929C
:104C5000EF92FF920F931F93CF93DF93EC018A01A2
:104C60006770660F660F660F6064DFDD480128011C
:104C700088E0480E511CE881F9810190F081E02D17
:104C8000D401ED904D01B3E2E537FB0709F092C086
:104C900061E08C819EDA8D818F3F11F060E099DABE
:104CA0008F85F12C84FD6DC03701759467947594E0
:104CB000679475946794759467946E01A7E0CA0E23
:104CC000D11C560100E010E0B301002E02C0759522
:104CD00067950A94E2F76170F50181915F0179DAD5
:104CE0000F5F1F4F0430110579F760E08E8171DA94
:104CF00081E090E095D861E08E816BDA81E090E010
:104D00008FD860E08E8165DA84E690E089D800E093
:104D100010E0B701002E02C0759567950A94E2F77E
:104D20006170D6018D916D0154DA0F5F1F4F043011
:104D3000110579F760E08E814CDA81E090E070D85F
:104D400061E08E8146DA81E090E06AD860E08E8191
:104D500040DA84E690E064D84814590409F08BCF17
:104D6000DF91CF911F910F91FF90EF90DF90CF9047
:104D7000BF90AF909F908F907F906F905F904F907B
:104D800008958E01095F1F4FC12CD12CB7010C2C47
:104D900002C0759567950A94E2F76170F8018191F8
:104DA0008F0117DAFFEFCF1ADF0A88E0C816D104A7
:104DB00069F7C0CF6E2DCE011995CECF80E090E07F
:104DC0000895089538D8FDDF0E94E7CEC0E0D0E016
:104DD000209719F40E94CACFFDCF0E94CACF0E942B
:104DE0000000F6CF4F925F926F927F928F929F92C8
:104DF000AF92BF92CF92DF92EF92FF920F931F93E9
:104E0000CF93DF93EC016A017B01280139018F897F
:104E1000803109F45DC0803291F080E0DF91CF9164
:104E20001F910F91FF90EF90DF90CF90BF90AF90C8
:104E30009F908F907F906F905F904F9008958B8898
:104E40009C88AD88BE88DB01CA0147E0B695A7956E
:104E5000979587954A95D1F7880E991EAA1EBB1E75
:104E60004091950550919605609197057091980530
:104E700084169506A606B70609F044C081E0809323
:104E80009203E894C7F8DD24EE24FF24C601880FBE
:104E9000991F880F991FFC01EB56FC4F40825182ED
:104EA000628273828A89823008F473C08D819E8108
:104EB000AF81B885880E991EAA1EBB1E80928E03F4
:104EC00090928F03A0929003B092910381E0A6CFBD
:104ED0008D2C9E2CAF2CBB248B899C89AD89BE89DF
:104EE000880E991EAA1EBB1E4091950550919605ED
:104EF000609197057091980584169506A606B706E9
:104F000009F449C080919203811128C025E933E05A
:104F1000B501A40180919303909194030E9486416E
:104F2000882309F47ACF8092950590929605A092F5
:104F30009705B09298058F8991E090939203803104
:104F400009F09FCFDD24EE24FF24C601880F991FAE
:104F5000FC01EB56FC4F51824082A4CF25E933E09F
:104F600080919303909194030E943B42882309F41B
:104F700054CF40918E0350918F03609190037091B4
:104F80009103411551056105710549F41092920391
:104F9000BDCF81E043CF81E080939203D3CF25E959
:104FA00033E080919303909194030E943B428823C5
:104FB00009F433CF10928E0310928F031092900356
:104FC00010929103E3CF2F923F924F925F926F9294
:104FD0007F928F929F92AF92BF92CF92DF92EF9289
:104FE000FF920F931F93CF93DF93CDB7DEB72F9729
:104FF0000FB6F894DEBF0FBECDBF9A838983DC0164
:1050000019968D909D90AD90BC901C97D501C401D0
:105010000196A11DB11D8D839E83AF83B887F901D1
:10502000C080D180E280F380C114D104E104F10496
:1050300009F41EC1FFEFCF1ADF0AEF0AFF0A1D862F
:1050400089288A288B2881F1190149875A876B871B
:105050007C8726013701812C912C540109811A810A
:105060001F870E872D813E814F8158852C153D0568
:105070004E055F0550F412E0C12ED12CE12CF12C2D
:1050800002E0402E512C612C712C8C159D05AE0533
:10509000BF0550F0AE85BF8557968C9157978031EC
:1050A00009F490C08032D9F0B12C8B2D2F960FB619
:1050B000F894DEBF0FBECDBFDF91CF911F910F914E
:1050C000FF90EF90DF90CF90BF90AF909F908F9028
:1050D0007F906F905F904F903F902F9008955396E0
:1050E0004D915D916D917C915697D701C601E7E096
:1050F000B695A79597958795EA95D1F78C019D016F
:10510000040F151F261F371F09831A832B833C8327
:10511000409195055091960560919705709198057D
:10512000401751076207730709F07BC0D701C6011A
:105130008F779927AA27BB27880F991F880F991F58
:10514000FC01EB56FC4F80819181A281B381BF703D
:10515000892B8A2B8B2BF1F026013701BFEF4B1ADD
:105160005B0A6B0A7B0A730162011FEF811A910AC5
:10517000A10AB10AEE85FF8581859285A385B48554
:1051800088169906AA06BB0608F08ECF0196A11DC7
:10519000B11D68CFD701C6010196A11DB11DAC019B
:1051A000BD01441955096609770909851A852B85BA
:1051B0003C85041715072607370709F498C06C01CA
:1051C0007D01D3CFFD01BB27AF2D9E2D8D2D4389B2
:1051D0005489658976898C019D01040F151F261F4E
:1051E000371F09831A832B833C8340919505509187
:1051F0009605609197057091980504171507260785
:10520000370779F4D701C6019927AA27BB27880F4A
:10521000991FFC01EB56FC4F80819181A0E0B0E02A
:1052200097CF80919203811133C025E933E0498102
:105230005A816B817C8180919303909194030E94A9
:105240008641882309F430CF29813A814B815C81E2
:1052500020939505309396054093970550939805B4
:10526000AE85BF8557968C91803109F05FCFCACF4C
:10527000E981FA81C080D180E280F380F1E0FD878E
:10528000413051056105710509F4DACE1D86D8CE8D
:1052900025E933E080919303909194030E943B426F
:1052A000882309F401CF40918E0350918F036091C0
:1052B000900370919103411551056105710519F431
:1052C00010929203B2CF25E933E08091930390913D
:1052D00094030E943B42882309F4E6CE10928E0389
:1052E00010928F031092900310929103E9CF0E85D4
:1052F0001F851A83098312E0C116D104E104F10469
:1053000008F4D2CEE981FA8181859285A385B4859E
:105310000196A11DB11D8C159D05AE05BF0508F4B4
:10532000C3CE0FEF1FEF2FEF3FE0B701A601CF0174
:1053300059DDB82E882309F4B7CE4C145D046E04F1
:105340007F04D0F5F1E0CF1AD108E108F10802E0BE
:10535000C016D104E104F10408F4A6CEE981FA8173
:1053600081859285A385B4850196A11DB11D8C15FB
:105370009D05AE05BF0508F497CE970186010F5F26
:105380001F4F2F4F3F4FB701A60189819A812ADD18
:10539000882309F489CE4C145D046E047F0461F007
:1053A000F1E0CF1AD108E108F10801E0C016D104FC
:1053B000E104F10499F678CED1014D915D916D91A2
:1053C0007C914115510561057105E1F042305105AF
:1053D0006105710508F468CEE981FA8181859285BD
:1053E000A385B4850196A11DB11D84179507A60755
:1053F000B70708F459CE93018201CF01F3DC88236B
:1054000009F452CEF1014082518262827382FD859D
:10541000FF2309F44ACED301C2010196A11DB11D9B
:10542000E981FA8180839183A283B3833ECECF93B7
:1054300080919203811104C0C1E08C2FCF91089517
:10544000409195055091960560919705709198054A
:1054500025E933E080919303909194030E943B42AD
:10546000C82F882329F140918E0350918F036091BA
:10547000900370919103411551056105710529F45F
:10548000109292038C2FCF91089525E933E08091FB
:105490009303909194030E943B42882349F0109219
:1054A0008E0310928F031092900310929103E8CF15
:1054B000C0E08C2FCF910895CF92DF92EF92FF92B0
:1054C000CF936B017C01C42F4091950550919605B7
:1054D00060919705709198054C155D056E057F05E7
:1054E000C1F080919203811125C025E933E0B70115
:1054F000A60180919303909194030E948641882392
:1055000091F0C0929505D0929605E0929705F092A1
:10551000980581E0C11180939203CF91FF90EF90A5
:10552000DF90CF90089580E0CF91FF90EF90DF90D3
:10553000CF90089525E933E08091930390919403EF
:105540000E943B42882379F340918E0350918F0350
:1055500060919003709191034115510561057105AA
:1055600019F410929203C1CF25E933E0809193039F
:10557000909194030E943B428823A9F210928E03DB
:1055800010928F031092900310929103EACF2F9202
:105590003F924F925F926F927F928F929F92AF92C3
:1055A000BF92CF92DF92EF92FF920F931F93CF9310
:1055B000DF93CDB7DEB728970FB6F894DEBF0FBEE6
:1055C000CDBF1C016A017B0138872F83812C912C70
:1055D0005401412CB2E05B2E612C712CF1018185CC
:1055E0009285A385B4850196A11DB11D8C159D05DD
:1055F000AE05BF0530F08789803109F475C080326F
:10560000D1F080E028960FB6F894DEBF0FBECDBF74
:10561000DF91CF911F910F91FF90EF90DF90CF908E
:10562000BF90AF909F908F907F906F905F904F90C2
:105630003F902F9008954389548965897689D701D1
:10564000C601E7E0B695A79597958795EA95D1F7B6
:105650008C019D01040F151F261F371F09831A8314
:105660002B833C8340919505509196056091970559
:1056700070919805041715072607370709F053C0DE
:10568000E894C7F8DD24EE24FF24C601880F991F93
:10569000880F991FFC01EB56FC4FC080D180E2803F
:1056A000F3800FE0F022D301C201F101058404C0B0
:1056B000880F991FAA1FBB1F0A94D2F7880E991E44
:1056C000AA1EBB1E81E0F8EFCF16FFEFDF06EF0644
:1056D000FFE0FF0608F482CFAF81B8858D929D92DE
:1056E000AD92BC9213978ECFBB27AF2D9E2D8D2DE3
:1056F00043895489658976898C019D01040F151FA2
:10570000261F371F09831A832B833C8340919505FD
:1057100050919605609197057091980504171507AB
:105720002607370729F180919203811147C025E9A7
:1057300033E049815A816B817C8180919303909100
:1057400094030E948641882309F45BCF89819A8162
:10575000AB81BC818093950590939605A0939705A6
:10576000B0939805D10157968C91803109F088CF7C
:10577000DD24EE24FF24C601880F991FFC01EB569F
:10578000FC4FC080D180E12CF12CD301C201F1018A
:10579000058404C0880F991FAA1FBB1F0A94D2F763
:1057A000880E991EAA1EBB1E81E0F8EFCF16FFEFF0
:1057B000DF06E104F10408F08FCF10CF25E933E0D4
:1057C00080919303909194030E943B42882309F4B3
:1057D00018CF40918E0350918F0360919003709188
:1057E0009103411551056105710519F41092920359
:1057F0009ECF25E933E080919303909194030E941A
:105800003B42882309F4FDCE10928E0310928F0341
:105810001092900310929103E9CF8F929F92AF92D2
:10582000BF92CF92DF92EF92FF920F931F93CF938D
:10583000DF93E901FC0101851285238534850F5F23
:105840001F4F2F4F3F4F041715072607370740F00C
:105850006A017B018C018789803181F08032E1F11E
:1058600080E0DF91CF911F910F91FF90EF90DF903B
:10587000CF90BF90AF909F908F900895852E962ED9
:10588000A72EBB2483899489A589B689880E991E81
:10589000AA1EBB1E409195055091960560919705F3
:1058A0007091980584169506A606B70609F045C0BE
:1058B000B701A601552766277727440F551FFA0120
:1058C000EB56FC4F80819181A0E0B0E08883998302
:1058D000AA83BB8381E0C5CF83889488A588B688D6
:1058E000DB01CA0127E0B695A795979587952A957C
:1058F000D1F7880E991EAA1EBB1E409195055091A6
:105900009605609197057091980584169506A606F0
:10591000B70699F4B701A6014F7755276627772771
:10592000440F551F440F551FFA01EB56FC4F808161
:105930009181A281B381BF70C9CF809192038111FF
:105940001AC025E933E0B501A40180919303909139
:1059500094030E948641882309F482CF80929505A2
:1059600090929605A0929705B0929805F8018789C4
:10597000803181F69DCF25E933E0809193039091AA
:1059800094030E943B42882309F46ACF40918E031E
:1059900050918F03609190037091910341155105CF
:1059A0006105710519F410929203CBCF25E933E01C
:1059B00080919303909194030E943B42882309F4C1
:1059C0004FCF10928E0310928F031092900310927B
:1059D0009103E9CF2F923F924F925F926F927F9205
:1059E0008F929F92AF92BF92CF92DF92EF92FF92EF
:1059F0000F931F93CF93DF9300D000D0CDB7DEB7C6
:105A00001C016A017B0182E090E0A0E0B0E0F101BE
:105A100080839183A283B383F10181859285A385DD
:105A2000B4850196A11DB11D8C159D05AE05BF0560
:105A300030F02789203109F421C12032D1F080E0F3
:105A400026960FB6F894DEBF0FBECDBFDF91CF9183
:105A50001F910F91FF90EF90DF90CF90BF90AF908C
:105A60009F908F907F906F905F904F903F902F907E
:105A700008954388548865887688D701C60107E071
:105A8000B695A795979587950A95D1F7480E591E13
:105A90006A1E7B1E40919505509196056091970571
:105AA00070919805441655066606770609F02DC1D3
:105AB000D701C6018F779927AA27BB27880F991F7F
:105AC000880F991FFC01EB56FC4F80809180A280CB
:105AD000B380FFE0BF2232E0C316D104E104F10439
